:020000040000FA
:100000000C94FE000C9449190C9422190C942601AE
:100010000C9426010C9426010C9426010C94701962
:100020000C9426010C9426010C9426010C942601B4
:100030000C9426010C9426010C9426010C942601A4
:100040000C94D8180C9426010C94F2190C94CC1929
:100050000C9426010C9426010C9426010C94260184
:100060000C9426010C9426014E414E494E49545998
:10007000494E46CDCCCC3D0AD7233C17B7D1387773
:10008000CC2B329595E6241FB14F0A000020410089
:1000900000C84200401C4620BCBE4CCA1B0E5AAED3
:1000A000C59D7400407A10F35A00A0724E180900E2
:1000B00010A5D4E80000E87648170000E40B5402CD
:1000C0000000CA9A3B000000E1F505000080969808
:1000D00000000040420F000000A086010000001058
:1000E0002700000000E8030000000064000000009A
:1000F000000A00000000000100000000002C76D87B
:1001000088DC674F0823DFC1DFAE59E1B1B796E560
:10011000E3E453C63AE651997696E8E6C28426EBC4
:10012000898C9B62ED407C6FFCEFBC9C9F40F2BAD7
:10013000A56FA5F490055A2AF75C936B6CF9676D6F
:10014000C11BFCE0E40D47FEF520E6B500D0ED90C4
:100150002E0300943577050080841E080000204E91
:100160000A000000C80C333333330F986E1283112A
:1001700041EF8D2114893BE65516CFFEE6DB18D101
:10018000844B381BF77C1D901DA4BBE424203284D3
:10019000725E228100C9F124ECA1E53D2700000038
:1001A00000240027002A0000000000230026002968
:1001B0000000000008000201000003040700000026
:1001C0000000000000010204081020408001020429
:1001D000081020010204081020000000002500285B
:1001E000002B0004040404040404040202020202BA
:1001F0000203030303030302241AFA2711241FBE78
:10020000CFEFD8E0DEBFCDBF26E0ACE0B4E001C068
:100210001D92A034B207E1F714E0A0E0B1E0E0EAFB
:10022000F3E602C005900D92AC30B107D9F710E0AB
:10023000CDEFD0E004C02197FE010E94A82FCC3F53
:10024000D107C9F70E943E1B0C94C3310C940000E7
:10025000E4EFF4E0A089B18982E08C93A485B585B0
:100260001C92A685B7858FEC8C93108EA489B589D6
:1002700086E08C93A289B3898C9180618C93A2894A
:10028000B3898C9188608C93A289B3898C918068A2
:100290008C930288F389E02D80818F7D808308957F
:1002A00096E0899FD0011124AD54BA4F90967C936B
:1002B0006E935F9791E091969C939197E0912006C1
:1002C000F091210690911F06992339F0309751F053
:1002D000811108C08091CF050994309719F05C9680
:1002E0008C91FACF0895833081F028F4813099F011
:1002F0008230A9F008958730A9F08830C9F08430A1
:10030000B1F4809180008F7D03C0809180008F7751
:1003100080938000089584B58F7784BD089584B557
:100320008F7DFBCF8091B0008F778093B0000895D0
:100330008091B0008F7DF9CFCF93DF93282F30E0ED
:10034000F901EF54FE4F8491F901EB53FE4FD49124
:10035000F901ED51FE4FC491CC23A1F081110E940F
:100360007301EC2FF0E0EE0FFF1FE955FE4FA59152
:10037000B491EC91ED2381E090E009F480E0DF910D
:10038000CF91089580E090E0FACF862F0C949C01E5
:100390001F93CF93DF93282F30E0F901EF54FE4FE6
:1003A0008491F901EB53FE4FD491F901ED51FE4FC9
:1003B000C491CC23A9F0162F81110E947301EC2F58
:1003C000F0E0EE0FFF1FE752FE4FA591B4918FB7FB
:1003D000F894EC91111108C0D095DE23DC938FBF07
:1003E000DF91CF911F910895DE2BF8CF862F642FD8
:1003F0000C94C801CF93DF9390E0FC01EB53FE4FC8
:1004000024918D519E4FFC0184918823C9F090E086
:10041000880F991FFC01E356FE4FA591B491FC0192
:10042000E752FE4FC591D49161110DC09FB7F8946A
:100430008C91209582238C938881282328839FBFC9
:10044000DF91CF910895623051F49FB7F8943C91B9
:10045000822F809583238C93E8812E2BEFCF8FB74B
:10046000F894EC912E2B2C938FBFEACF862F642F1C
:100470000C94FA013FB7F8948091DB049091DC046E
:10048000A091DD04B091DE0426B5A89B05C02F3FE6
:1004900019F00196A11DB11D3FBFBA2FA92F982FAA
:1004A0008827BC01CD01620F711D811D911D42E0A5
:1004B000660F771F881F991F4A95D1F708958F926D
:1004C0009F92AF92BF92CF92DF92EF92FF924B0139
:1004D0005C010E943A026B017C010E943A026C1995
:1004E0007D098E099F09683E734081059105A8F337
:1004F00021E0821A9108A108B10888EEC80E83E0B5
:10050000D81EE11CF11C81149104A104B10429F747
:10051000FF90EF90DF90CF90BF90AF909F908F9023
:1005200008952FB7F8946091D7047091D804809102
:10053000D9049091DA042FBF08950F931F93CF939E
:10054000DF93C82FD62F86E0C89FF0011124ED5409
:10055000FA4F11A2878D90A181309105F1F058F0EA
:1005600082309105F1F1039709F440C0DF91CF91FA
:100570001F910F9108956623C9F361E070E08C2FFD
:100580000E9450010E94910260930B0670930C062A
:1005900080930D0690930E06E9CF0E949102009180
:1005A0000B0610910C0620910D0630910E06AB0142
:1005B000BC01401B510B620B730B80911D06909187
:1005C0001E06B0E0A0E084179507A607B70748F419
:1005D00062E070E08C2FDF91CF911F910F910C940E
:1005E000500163E070E0D111C1CFF4CF70E060E062
:1005F000F1CF6F927F928F929F92AF92BF92CF92E4
:10060000DF92EF92FF920F931F93CF93DF9381E0DE
:1006100080931F060E94910200910F061091100610
:100620002091110630911206AB01BC01401B510B09
:10063000620B730B80911B0690911C06B0E0A0E04A
:1006400084179507A607B70708F014C1C0E080918A
:100650001906C81760F4E0911506F0911606EC0F24
:10066000F11D62E080810E94FA01CF5FF0CF712C12
:10067000812C912C5401839480911A06781608F0ED
:100680005FC0072D10E0E0911706F0911806E00F0B
:10069000F11F61E080810E94FA01E0911706F0915C
:1006A0001806E00FF11F60E080810E94C801D501AB
:1006B000C401072C04C0880F991FAA1FBB1F0A94EE
:1006C000D2F76C017C01E094F094612C80911906C2
:1006D0006816F8F4C62DD0E0E0911506F0911606E4
:1006E000EC0FFD1F80810E949C012496CC0FDD1F22
:1006F000CD54DA4F892B41F4888199818C299D2929
:10070000998388836394E2CF888199818E219F2188
:10071000F7CFE0911706F0911806E00FF11F61E0A6
:1007200080810E94C8018091170690911806080FD9
:10073000191F60E0F80180810E94FA0173949CCF38
:10074000C3EBD5E0FE018FEF9FEF278D30A1232B68
:1007500021F4148E968F858F11A2369625E0EF3EF8
:10076000F20799F7F12C96E0D92E80911906F81628
:1007700008F050C0E12C0F2D10E0000F111F0554A0
:100780001A4F20911A06E21608F042C0F801608163
:1007900071810E2C02C0769567950A94E2F7F29E5D
:1007A000900111242E0D311DE3EBF5E080E0458D25
:1007B000568D2417350709F461C08F5F36968A304D
:1007C000B1F760FF23C0E3EBF5E090E080E0448DFB
:1007D000411117C0E0911306F0911406E20FF31FC8
:1007E0004081D89EF001D99EF00D1124ED54FA4FAE
:1007F000448F368F258F10A2178E61E00E949D02D4
:1008000005C0019636968A30910509F7E394B9CF71
:10081000F394ABCF10E089A18111182F2696F5E053
:10082000CF3EDF07C1F70E94910260930F067093DD
:10083000100680931106909312061123D9F080912F
:10084000D4058823B9F08091D2059091D305019702
:1008500089F48091CF05DF91CF911F910F91FF9087
:10086000EF90DF90CF90BF90AF909F908F907F9050
:100870006F90089510921F0680E0EDCF6170BECF9B
:10088000CF93DF93C1E9D5E01C821D821E821F82B7
:10089000688779878A879B8781E090E09B838A833A
:1008A0000E9491026C877D878E879F87DF91CF9111
:1008B00008958091550490915604019721F461E0C8
:1008C0008BE00E94C80180914B0490914C040196EA
:1008D00090934C0480934B0408950895089590914B
:1008E0000F0189130BC0E7EFF1E0E4919FEF9093C4
:1008F0000F01E13049F028F0E23061F060E00C9443
:10090000C80110926E00FACF90916F009D7F909376
:100910006F00F4CF909170009D7F9093700091E0F4
:100920009093B0009091B100987F94609093B10043
:100930001092B300E3CF2F923F924F925F926F924B
:100940007F928F929F92AF92BF92CF92DF92EF925F
:10095000FF920F931F93CF93DF9300D000D01F928D
:10096000CDB7DEB7809193059091940582309105C3
:1009700009F44FC08330910509F46DC0019709F067
:10098000F9C00E94910200919D0510919E05209151
:100990009F053091A005601B710B820B930B00919A
:1009A000950510919605209197053091980560174F
:1009B00071078207930708F4DDC082E090E090930E
:1009C0009405809393050E94910260939D05709316
:1009D0009E0580939F059093A00561E0809191050D
:1009E0000F900F900F900F900F90DF91CF911F916C
:1009F0000F91FF90EF90DF90CF90BF90AF909F90BE
:100A00008F907F906F905F904F903F902F900C94BD
:100A1000C8010E94910200919D0510919E052091B0
:100A20009F053091A005601B710B820B930B009109
:100A3000990510919A0520919B0530919C056017AE
:100A400071078207930708F495C0109294051092DD
:100A5000930560E0C3CF2091A7053091A805809150
:100A6000A5059091A605281739070CF072C2809150
:100A7000A9059091AA05A091AB05B091AC05892B71
:100A80008A2B8B2B09F046C0220F331FE091A30560
:100A9000F091A405E20FF31F6081718188EE93E06D
:100AA0000E94382F8B012B01770F66087708809101
:100AB000A1059091A205280F391FF90120803180EE
:100AC000809191059091920520910F01281709F4CA
:100AD00069C02F3F09F4E1C0C301B2010E948C2C10
:100AE00026E636E646EA5FE30E94EB2C0E94F92EEA
:100AF0006093A9057093AA058093AB059093AC050C
:100B00000E94910260939D0570939E0580939F05BE
:100B10009093A0050E94910200919D0510919E0561
:100B200020919F053091A005601B710B820B930BE8
:100B30000091A9051091AA052091AB053091AC0553
:100B40006017710782079307A8F0809191050E94B2
:100B50006F041092A9051092AA051092AB0510928D
:100B6000AC058091A7059091A80501969093A805E2
:100B70008093A7050F900F900F900F900F90DF912B
:100B8000CF911F910F91FF90EF90DF90CF90BF908A
:100B9000AF909F908F907F906F905F904F903F901D
:100BA0002F900895E7EFF1E024912D8327FD94CF56
:100BB00061E00E94FA01FD81FF2321F02D812230A6
:100BC00009F05EC14101B12CA12C60E072E18AE71D
:100BD00090E0A50191010E946E2F29833A834B83F7
:100BE0005C8369017A0131E0C31AD108E108F10898
:100BF0008FEFC816D104E104F10409F00CF415C11B
:100C000060E472E48FE090E0A50191010E946E2FF4
:100C100069017A0191E0C91AD108E108F108ED8172
:100C2000E23009F0B6C082E0FFEFCF16D104E10454
:100C3000F10409F00CF4E5C160E970ED83E090E0A7
:100C4000A50191010E946E2F69017A0181E0C81A05
:100C5000D108E108F10883E09FEFC916D104E1044F
:100C6000F10409F00CF4CDC168E478EE81E090E085
:100C7000A50191010E946E2F69017A0181E0C81AD5
:100C8000D108E108F1089FEFC916D104E104F1048D
:100C900011F00CF0A2C084E0B4C180930F01E7EF23
:100CA000F1E034913D833F3F09F416CF313039F103
:100CB00048F0323009F445C037FD0ECF61E00E94A4
:100CC000FA017CCF14BC15BC24B5226024BD25B527
:100CD000216025BD9C013327F901ED51FE4FE491C0
:100CE000F0E0EE0FFF1FE752FE4F45915491F901DE
:100CF000EB53FE4FE491E093E3041D8259CF109231
:100D00008000109281002091810028602093810052
:100D1000209181002160209381009C013327F901FB
:100D2000ED51FE4FE491F0E0EE0FFF1FE752FE4F52
:100D300045915491F901EB53FE4FE491E093E204A5
:100D400037CF1092B0001092B1002091B000226015
:100D50002093B0002091B10021602093B1009C014C
:100D60003327F901ED51FE4FE491F0E0EE0FFF1F44
:100D7000E752FE4F459154915093E1044093E004B3
:100D8000F901EB53FE4FE491E093DF04E2E0ED83E1
:100D90000FCFEFEFCE16D104E104F10409F00CF40B
:100DA0006DC068E478EE81E090E0A50191010E94B9
:100DB0006E2F69017A01F1E0CF1AD108E108F1083C
:100DC0002D81222309F4E9C0FFEFCF16D104E104FD
:100DD000F10409F00CF45FCFE9C064E274EF80E045
:100DE00090E0A50194010E946E2F69017A0181E0D3
:100DF000C81AD108E108F10885E09FEFC916D104AF
:100E0000E104F10409F008F4FCC062E17AE780E053
:100E100090E0A50194010E946E2F69017A0181E0A2
:100E2000C81AD108E108F108D3C081E02D81211151
:100E3000E8C095B5987F892B85BD2FEF3FEFA901BD
:100E4000411451046104710409F043C08D81813063
:100E500009F45DC0823009F46CC081113DCEC7BC7D
:100E60002093EC043093ED044093EE045093EF0490
:100E700080916E00826080936E002ECE82E0D6CF8D
:100E8000B12CA12C60E072E18AE790E0A50191010C
:100E90000E946E2F69017A0181E0C81AD108E10829
:100EA000F108C114D10491E0E906F104FCF491E0E9
:100EB000FD81F13011F680918100887F892B80932C
:100EC00081002FEF3FEFA901411451046104710427
:100ED000F1F09101220F331FD8010E948D2F28EECF
:100EE00033E040E050E00E944C2FB0CF68E478EE51
:100EF00081E090E0A50191010E946E2F69017A01C5
:100F0000E1E0CE1AD108E108F10893E0D1CFD09208
:100F10008900C09288002093E8043093E90440934C
:100F2000EA045093EB0480916F00826080936F001D
:100F3000D3CDC092B3002093E4043093E5044093F2
:100F4000E6045093E7048091700082608093700003
:100F5000C3CD809191050E946F0410929405109268
:100F6000930508CE84E0EFEFCE16D104E104F1043E
:100F700009F008F45ECFC980DA80EB80FC809AE04B
:100F8000F594E794D794C7949A95D1F791E0C91A4C
:100F9000D108E108F10885E04CCF83E0EFEFCE16F1
:100FA000D104E104F10409F00CF443CF62E17AE7E3
:100FB00080E090E0A50194010E946E2F69017A0102
:100FC000E1E0CE1AD108E108F108FD81FF2351F2DA
:100FD00086E02FEFC216D104E104F10491F088F00D
:100FE000C980DA80EB80FC808AE0F594E794D7949E
:100FF000C7948A95D1F7F1E0CF1AD108E108F1083A
:1010000087E09091B100987F892B8093B10015CF34
:10101000AF92BF92CF92DF92EF92FF920F931F9306
:10102000CF93DF936C017B018B01040F151FEB0144
:101030005E01AE18BF08C017D10759F06991D601FB
:10104000ED91FC910190F081E02DC6010995892B6D
:1010500079F7C501DF91CF911F910F91FF90EF902C
:10106000DF90CF90BF90AF900895FC01538D448DD9
:10107000252F30E0842F90E0821B930B541710F043
:10108000CF96089501970895FC01918D828D981750
:1010900061F0A28DAE0FBF2FB11D5D968C91928D28
:1010A0009F5F9F73928F90E008958FEF9FEF089559
:1010B000FC01918D828D981731F0828DE80FF11D22
:1010C000858D90E008958FEF9FEF0895FC01918D3D
:1010D000228D892F90E0805C9F4F821B91098F7336
:1010E0009927089584EF94E00E94660821E0892BF7
:1010F00009F420E0822F089580E090E0892B29F008
:101100000E94720881110C9400000895FC01A48DC6
:10111000A80FB92FB11DA35ABF4F2C91848D90E019
:1011200001968F739927848FA689B7892C93A089FC
:10113000B1898C91837080648C93938D848D981386
:1011400006C00288F389E02D80818F7D8083089519
:10115000EF92FF920F931F93CF93DF93EC0181E007
:10116000888F9B8D8C8D98131AC0E889F9898081AE
:1011700085FF15C09FB7F894EE89FF896083E889E1
:10118000F98980818370806480839FBF81E090E0D3
:10119000DF91CF911F910F91FF90EF900895F62E60
:1011A0000B8D10E00F5F1F4F0F731127E02E8C8DFA
:1011B0008E110CC00FB607FCFACFE889F98980813F
:1011C00085FFF5CFCE010E948608F1CFEB8DEC0FA5
:1011D000FD2FF11DE35AFF4FF0829FB7F8940B8F5C
:1011E000EA89FB8980818062CFCFCF93DF93EC01C6
:1011F000888D8823B9F0AA89BB89E889F9898C91FF
:1012000085FD03C0808186FD0DC00FB607FCF7CFBA
:101210008C9185FFF2CF808185FFEDCFCE010E94BA
:101220008608E9CFDF91CF91089590E080E008959E
:10123000CF93DF93EC0160E08E810E94C80161E0F2
:101240008E810E94C80160E08E810E94C8018BE8F7
:1012500091E00197F1F7DF91CF910895CF92DF925E
:10126000EF92FF920F931F93CF93DF936C017C015A
:1012700087E0E80EF11CD0E0C0E0062F10E0B801D6
:101280000C2E02C0759567950A94E2F76170F7011C
:1012900081917F010E94C8012196C430D10579F760
:1012A000C601DF91CF911F910F91FF90EF90DF90DA
:1012B000CF900C941809CF92DF92EF92FF920F9388
:1012C0001F93CF93DF93EC01F62E642F8C810E9445
:1012D000C8018D818F3F19F060E00E94C8010F2D79
:1012E00010E08F8584FF25C06E0187E0C80ED11CF9
:1012F000F12CE12CB8010E2C02C0759567950A946B
:10130000E2F76170F60181916F010E94C801FFEF61
:10131000EF1AFF0A88E0E816F10461F7CE01DF91C9
:10132000CF911F910F91FF90EF90DF90CF900C9491
:101330001809B80184E0759567958A95E1F7CE01A3
:101340000E942E096F2DCE01DF91CF911F910F9139
:10135000FF90EF90DF90CF900C942E0940E0682F23
:1013600082E296E00C945B0981E00E94AE098BE377
:101370009FE10197F1F70895CF93DF93823029F42D
:1013800090913106986090933106809335061092C3
:10139000360680E48093370680E18093380680E546
:1013A0008093390661E0809126060E94FA018091BF
:1013B00027068F3F19F061E00E94FA0161E08091F9
:1013C00028060E94FA01C2E2D6E09E01225236406F
:1013D0008091310684FD0BC084E090E021962817AF
:1013E000390744F461E08E810E94FA01EECF88E073
:1013F00090E0F4CF8BE39DE00197F1F760E08091FE
:1014000026060E94C80160E0809128060E94C8015B
:10141000809127068F3F19F060E00E94C8018091FB
:10142000310684FD34C063E082E296E00E942E091A
:10143000CBE4D6E4CE010197F1F763E082E296E0D7
:101440000E942E092197F1F763E082E296E00E9464
:101450002E0983E592E00197F1F762E082E296E0DF
:101460000E942E098091310680620E94AE0984E0BC
:10147000809332068CE00E94AE090E94B40982E09B
:101480008093330686E0DF91CF910C94AE098062A1
:101490000E94AE098BE496E40197F1F78091310642
:1014A00080620E94AE0983E592E00197F1F7809196
:1014B000310680620E94AE09D5CF9091350669173A
:1014C00010F06FEF690FE62FF0E0EE5DF94F9489B1
:1014D000890F80680C94AE0941E00E945B0981E0AD
:1014E00090E0089541E0682F82E296E00E945B0957
:1014F00081E090E00895FC0101900020E9F7319728
:10150000AF01481B590BBC0182E296E00C9408081D
:10151000CF93DF93EC018091AD059091AE050097DC
:10152000E9F06881798161157105B1F04091AF05ED
:101530005091B0052C813D814217530768F00E94FD
:10154000AD318C819D819093B2058093B1051D8250
:101550001C82DF91CF9108950E944A308881998141
:101560009093AE058093AD058A819B819093B005E1
:101570008093AF058C819D819093B2058093B105D6
:10158000198218821B821A82E2CFCF93DF93EC017B
:1015900088819981009711F00E944A30198218823F
:1015A0001D821C821B821A82DF91CF910895FC015B
:1015B00080819181009711F00C944A3008950F9327
:1015C0001F93CF93DF930091B1051091B2050115E0
:1015D000110539F4FC011082DF91CF911F910F9119
:1015E00008950E30110510F00EE010E0EC0160914E
:1015F000AD057091AE05A8010E94B431C00FD11F96
:101600001882EACFCF93DF938CE390E00E94AC2D59
:10161000C0EFD4E088838DE390E00E94AC2D8983F5
:101620008EE390E00E94AC2D8A838FE390E00E94CD
:10163000AC2D8B83CE01DF91CF910895CF92DF92B5
:10164000EF92FF920F931F93CF93DF93EB017B01F8
:1016500027E0E20EF11C8B016C01C61AD70AC60105
:10166000800F911F0E94AC2DF80181938F01EE1520
:10167000FF05A9F7CE01DF91CF911F910F91FF9048
:10168000EF90DF90CF900895CF92DF92EF92FF928C
:101690000F931F93CF93DF93EB017B0124E0E20EC6
:1016A000F11C8B016C01C61AD70AC601800F911F6D
:1016B0000E94AC2DF80181938F01EE15FF05A9F76B
:1016C000CE01DF91CF911F910F91FF90EF90DF90AE
:1016D000CF9008950F931F93CF93DF93EC018881F0
:1016E0009981009759F02A813B812617370730F0FE
:1016F00081E0DF91CF911F910F9108958B016F5F72
:101700007F4F0E94D330009759F0998388831B83C1
:101710000A832C813D81232B59F7FC011082E8CFED
:1017200080E0E7CFEF92FF920F931F93CF93DF9369
:101730008C017B01EB0109900020E9F72197C61B82
:10174000D70BBE010E946A0B811109C0C801DF914D
:10175000CF911F910F91FF90EF900C94C50AF80163
:10176000D583C483B70180819181DF91CF911F918F
:101770000F91FF90EF900C94AD310F931F93CF9387
:10178000DF93CDB7DEB7A2970FB6F894DEBF0FBEDA
:10179000CDBF8C01CB01BA01F801118210821382F6
:1017A0001282158214822AE0AE014F5F5F4F0E94C1
:1017B0006528BE016F5F7F4FC8010E94920BA29601
:1017C0000FB6F894DEBF0FBECDBFDF91CF911F9152
:1017D0000F910895CF93DF9300D000D000D0CDB704
:1017E000DEB780915F0490916004A0916104B09194
:1017F00062040197A105B10509F040C00E94B40937
:1018000060E080E00E945D0A1092AC041092AB048C
:1018100063EA74E090E080E00E94440B4091A304EE
:101820005091A4046091A5047091A604CE01019684
:101830000E94BD0BCE0101960E94880ACE0101963E
:101840000E94D70A87E894E00E94DF0A86E591E0CB
:101850000E947B0A60E08CE00E945D0A87E894E0C9
:101860000E947B0A61E080E00E945D0A10925F04A2
:1018700010926004109261041092620426960FB6D2
:10188000F894DEBF0FBECDBFDF91CF9108958F9248
:101890009F92AF92BF92EF92FF920F931F93CF93BD
:1018A0008C010E94F90280930C048DEAE82E84E0FA
:1018B000F82E812C912C5401839480910C048D334B
:1018C00009F4A2C00E94F90280930C04F701019070
:1018D0000020E9F7CF018E5A944020910C0408179C
:1018E000190708F459C02D3309F456C00E94F902B3
:1018F000C82F80930C048823C1F08D33B1F083345A
:1019000009F46FC08A3289F083ED8C0F833068F060
:10191000CB3271F18C2F0E94720AC093C10461EC2A
:1019200074E08DEA94E00E9499310E949B048091BA
:101930000C04882359F260E570E080E090E00E949A
:101940004004C4CF833409F0B8CF6AEB71E08DEA6C
:1019500094E00E94AD3161E080E00E945D0A82EB7C
:1019600091E00E947B0A61E080E00E945D0AA5CFC1
:10197000109278041092770480925F049092600431
:10198000A0926104B09262040E94EA0B6AEB71E0DB
:101990008DEA94E00E94AD3180910C048B3291F677
:1019A000109278041092770481E090E0A0E0B0E01B
:1019B00080935F0490936004A0936104B0936204E9
:1019C0000E94EA0B6AEB71E08DEA94E0CF911F91DF
:1019D0000F91FF90EF90BF90AF909F908F900C94DD
:1019E000AD316AEB71E08DEA94E00E94AD3161E0C7
:1019F00080E00E945D0A82EB91E00E947B0A61E038
:101A000080E00E945D0A91CFCF911F910F91FF90CE
:101A1000EF90BF90AF909F908F900895BF92CF921C
:101A2000DF92EF92FF920F931F93CF93DF93EC011E
:101A30000E94F90280930C040DEA14E0C12CD12C11
:101A40007601C39480910C048D3309F4A9C00E94DF
:101A5000F90280930C04F80101900020E9F7CF010E
:101A60008E5A944020910C04C817D90708F45CC022
:101A70002D3309F459C00E94F90280930C04882385
:101A8000C9F08D33B9F08334A9F096ED980F9230F8
:101A900088F08D52833070F084E691E00E947B0ADA
:101AA00080910C048093C10461EC74E08DEA94E0B1
:101AB0000E94993180910C04833491F46AEB71E0B7
:101AC0008DEA94E00E94AD3161E080E00E945D0A01
:101AD00082EB91E00E947B0A61E080E00E945D0A57
:101AE0000E949B04B0900C04BB2009F4B4CF60E5C5
:101AF00070E080E090E00E944004FBE2BF12ABCFB8
:101B00001092780410927704C0925F04D09260041F
:101B1000E0926104F09262040E94EA0B6AEB71E0C9
:101B20008DEA94E00E94AD3180910C04833491F4ED
:101B30006AEB71E08DEA94E00E94AD3161E080E0F3
:101B40000E945D0A82EB91E00E947B0A61E080E0E6
:101B50000E945D0A80910C048B3209F073CF1092C1
:101B600078041092770481E090E0A0E0B0E08093E8
:101B70005F0490936004A0936104B09362040E9498
:101B8000EA0B6AEB71E08DEA94E0DF91CF911F914F
:101B90000F91FF90EF90DF90CF90BF900C94AD31FC
:101BA000DF91CF911F910F91FF90EF90DF90CF9039
:101BB000BF9008950F931F93CF93DF93CDB7DEB7F8
:101BC00061970FB6F894DEBF0FBECDBF8C01CB017D
:101BD000F8011182108213821282158214824AE067
:101BE000BE016F5F7F4F0E94B328BE016F5F7F4FC2
:101BF000C8010E94920B61960FB6F894DEBF0FBE2B
:101C0000CDBFDF91CF911F910F910895FF920F9358
:101C10001F93CF93DF93EC01F62E08811981C80141
:101C20000E94AC2DF81621F06F2DC8010E94B42D32
:101C3000CE01DF91CF911F910F91FF900895EF9208
:101C4000FF920F931F93CF93DF9300D0CDB7DEB7F2
:101C500080EFE82E84E0F82E0CE310E01A8309836D
:101C6000F70161917F01CE0101960E94060E0F5F80
:101C70001F4F0034110591F780EF94E00F900F9003
:101C8000DF91CF911F910F91FF90EF900895AF9248
:101C9000BF92CF92DF92EF92FF920F931F93CF9359
:101CA000DF9300D0CDB7DEB78B016B0127E0C20E0A
:101CB000D11C7B015C01A61AB70AC5018E0D9F1DC0
:101CC0009A838983F70161917F01CE0101960E9479
:101CD000060EEC14FD0489F7C8010F900F90DF91F8
:101CE000CF911F910F91FF90EF90DF90CF90BF9019
:101CF000AF900895AF92BF92CF92DF92EF92FF9292
:101D00000F931F93CF93DF9300D0CDB7DEB78B0136
:101D10006B0124E0C20ED11C7B015C01A61AB70A3C
:101D2000C5018E0D9F1D9A838983F70161917F0103
:101D3000CE0101960E94060EEC14FD0489F7C8013D
:101D40000F900F90DF91CF911F910F91FF90EF9027
:101D5000DF90CF90BF90AF9008958AE491E0A0E02B
:101D6000B0E08093A3049093A404A093A504B0933F
:101D7000A60410927F0410928004109281041092A5
:101D8000820482E390E0A0E0B0E080931B04909393
:101D90001C04A0931D04B0931E0466E671E084E168
:101DA00094E00E94AD3166E671E08DE094E00E941F
:101DB000AD3181E090E0A0E0B0E080935B049093CF
:101DC0005C04A0935D04B0935E048093230490931D
:101DD0002404A0932504B093260482E090E0A0E0C0
:101DE000B0E080931F0490932004A0932104B0934B
:101DF00022041092AC041092AB0488EA91E6A0E0B1
:101E0000B0E08093A7049093A804A093A904B09392
:101E1000AA0410927B0410927C0410927D0410920C
:101E20007E0480E090EEA2E1B5E48093F00490930C
:101E3000F104A093F204B093F30463EA74E090E039
:101E400080E00E947A0E85E090E09093AC0480934D
:101E5000AB046FE774E00E947A0E8AE090E0909302
:101E6000AC048093AB046BE174E00E947A0E8FE0C7
:101E700090E09093AC048093AB0464E174E00E9422
:101E8000470E86E190E09093AC048093AB046DE044
:101E900074E00E94470E8DE190E09093AC04809333
:101EA000AB046BE574E00E947A0E83E290E09093BD
:101EB000AC048093AB046FE174E00E947A0E8DE273
:101EC00090E09093AC048093AB0467EA74E00E94C6
:101ED0007A0E84E390E09093AC048093AB046BE7BC
:101EE00074E00E947A0E8CE390E09093AC048093AF
:101EF000AB040E941F0E60E080E00E945D0A8DE648
:101F000091E00E947B0A60ED77E080E090E00C9425
:101F10005F02AF92BF92CF92DF92EF92FF920F9348
:101F20001F93CF93DF93CDB7DEB7A7970FB6F89483
:101F3000DEBF0FBECDBF6BE771E087E294E00E9489
:101F4000A431892B09F09FC06AEB71E08DEA94E01F
:101F50000E94AD316AEB71E081EC94E00E94AD31FA
:101F60000E94F90280930C0408E210E080910C04B6
:101F70008D3309F46AC060E080E00E945D0A89E860
:101F800091E00E947B0A61E080E00E945D0A84E0AB
:101F900090E00E94470C1093AC040093AB0463E202
:101FA00074E088E290E00E94440B8DEA94E00E9485
:101FB0001C286B017C0160912304709124048091A2
:101FC0002504909126040E948C2CA70196010E9462
:101FD000142E20E034E84EEC56E40E94852C81114A
:101FE000D4C760E00E945D0A89E991E00E947B0A03
:101FF00061E080E00E945D0A8AEA91E00E947B0A2B
:1020000068EE73E080E090E00E945F020E94AD0EF7
:1020100080910C048B3209F0A9CF109278041092B1
:10202000770481E090E0A0E0B0E080935F049093BB
:102030006004A0936104B09362040E94EA0B6AEB0F
:1020400071E08DEA94E00E94AD3160ED77E080E0D0
:1020500090E00E945F02109278041092770481E071
:1020600090E0A0E0B0E080935F0490936004A093C0
:102070006104B09362040E94EA0B6AEB71E08DEA9E
:1020800094E00E94AD316AEC71E087E294E00E9436
:10209000A431892B09F083C06AEB71E08DEA94E0EA
:1020A0000E94AD316AEB71E081EC94E00E94AD31A9
:1020B0000E94F90280930C04C12CD12C7601C394A8
:1020C0000DE110E080910C048D3309F44AC060E00A
:1020D00080E00E945D0A86ED91E00E947B0A61E04B
:1020E00080E00E945D0A90E080E00E94470C8DEA4B
:1020F00094E00E9420280197029708F04FC78DEACC
:1021000094E00E943E2860935B0470935C0480938B
:102110005D0490935E041093AC040093AB046BE5F4
:1021200074E08DE190E00E947A0E80910C048B3275
:1021300049F6109278041092770481E090E0A0E0D4
:10214000B0E080935F0490936004A0936104B09327
:1021500062040E94EA0B6AEB71E08DEA94E00E944F
:10216000AD3160ED77E080E090E00E945F02109278
:1021700078041092770481E090E0A0E0B0E08093D2
:102180005F0490936004A0936104B09362040E9482
:10219000EA0B6AEB71E08DEA94E00E94AD3167EEE4
:1021A00071E087E294E00E94A431892B09F0C1C15B
:1021B0006AEB71E08DEA94E00E94AD316AEB71E068
:1021C00081EC94E00E94AD310E94B40960E080E0AF
:1021D0000E945D0A82EF91E00E947B0A61E080E04C
:1021E0000E945D0A0E94F90280930C040FE010E047
:1021F000C12CD12C7601C39466E1A62EB12C80911E
:102200000C048D3309F477C10E94F90280930C0409
:10221000813309F0A7C00E94B40960E080E00E9409
:102220005D0A82E092E00E947B0A61E080E00E9409
:102230005D0A80910C048D3301F10E94F9028093B4
:102240000C0485E090E00E94470C80910C048B32D6
:1022500081F71092780410927704C0925F04D092B4
:102260006004E0926104F09262040E94EA0B6AEB5F
:1022700071E08DEA94E00E94AD311093AC040093BC
:10228000AB0464E174E08FE090E00E941E0B6DEA05
:1022900074E084E194E00E94A431892B09F087C6A0
:1022A0000E94B40960E080E00E945D0A8CEA91E03F
:1022B0000E947B0A60E080E00E945D0A80E192E07B
:1022C0000E947B0A61E080E00E945D0A6AEB71E097
:1022D0008DEA94E00E94AD310E94F90280930C04D3
:1022E00080910C048D3301F10E94F90280930C045B
:1022F00085E090E00E94470C80910C048B3281F7BE
:102300001092780410927704C0925F04D092600417
:10231000E0926104F09262040E94EA0B6AEB71E0C1
:102320008DEA94E00E94AD316DEA74E084E194E0BE
:102330000E94AD316AEB71E08DEA94E00E94AD310C
:102340001093AC040093AB0464E174E08FE090E080
:102350000E94470E61E080E00E945D0A8CE192E0FD
:102360000E947B0A80910C04823309F0A7C00E946E
:10237000B40960E080E00E945D0A84E292E00E947D
:102380007B0A61E080E00E945D0A80910C048D333D
:1023900001F10E94F90280930C0485E090E00E9414
:1023A000470C80910C048B3281F7109278041092C4
:1023B0007704C0925F04D0926004E0926104F092CE
:1023C00062040E94EA0B6AEB71E08DEA94E00E94DD
:1023D000AD31B092AC04A092AB046DE074E086E144
:1023E00090E00E941E0B6DEA74E08DE094E00E9484
:1023F000A431892B09F0E2C50E94B40960E080E0B5
:102400000E945D0A8CEA91E00E947B0A60E080E015
:102410000E945D0A80E192E00E947B0A61E080E018
:102420000E945D0A6AEB71E08DEA94E00E94AD3192
:102430000E94F90280930C0480910C048D3301F109
:102440000E94F90280930C0485E090E00E94470C02
:1024500080910C048B3281F71092780410927704EB
:10246000C0925F04D0926004E0926104F092620432
:102470000E94EA0B6AEB71E08DEA94E00E94AD31B4
:102480006DEA74E08DE094E00E94AD316AEB71E09A
:102490008DEA94E00E94AD31B092AC04A092AB04FE
:1024A0006DE074E086E190E00E94470E61E080E01C
:1024B0000E945D0A8CE192E00E947B0A80910C04EC
:1024C0008B3209F09CCE109278041092770481E050
:1024D00090E0A0E0B0E080935F0490936004A0934C
:1024E0006104B09362040E94EA0B6AEB71E08DEA2A
:1024F00094E00E94AD3160ED77E080E090E00E94D2
:102500005F02109278041092770481E090E0A0E0DE
:10251000B0E080935F0490936004A0936104B09353
:1025200062040E94EA0B6AEB71E08DEA94E00E947B
:10253000AD3163E372E087E294E00E94A431892B1D
:1025400009F0A3C06AEB71E08DEA94E00E94AD311E
:102550006AEB71E081EC94E00E94AD310E94F902D7
:1025600080930C040E94B40960E080E00E945D0A40
:102570008DE392E00E947B0A61E080E00E945D0AA8
:102580008AE492E00E947B0A04E610E080910C0449
:102590008D3309F452C00E94F90280930C0490918B
:1025A000D50420910001309101019A3209F00DC546
:1025B000265F3F4F309301012093000120910001DD
:1025C000309101012536310524F01093010100936B
:1025D0000001209100013091010137FF04C01092E9
:1025E0000101109200014091000150910101052E5E
:1025F000000C660B770B40931B0450931C046093F4
:102600001D0470931E048B3209F610927804109208
:10261000770481E090E0A0E0B0E080935F049093C5
:102620006004A0936104B09362040E94EA0B6AEB19
:1026300071E08DEA94E00E94AD318AE090E09093E1
:10264000AC048093AB0463E274E00E947A0E60ED08
:1026500077E080E090E00E945F0210927804109290
:10266000770481E090E0A0E0B0E080935F04909375
:102670006004A0936104B09362040E94EA0B6AEBC9
:1026800071E08DEA94E00E94AD3166E572E087E288
:1026900094E00E94A431892B09F0CEC06AEB71E06E
:1026A0008DEA94E00E94AD316AEB71E081EC94E038
:1026B0000E94AD310E94F90280930C04C12CD12CF0
:1026C0007601C39406E110E044E3A42EB12C80917E
:1026D0000C048D3309F492C00E94F90280930C041B
:1026E0000E94B40960E080E00E945D0A84E692E006
:1026F0000E947B0A61E080E00E945D0A80910C04E8
:102700008D3301F10E94F90280930C0485E090E082
:102710000E940E0D80910C048B3281F71092780488
:1027200010927704C0925F04D0926004E09261043A
:10273000F09262040E94EA0B6AEB71E08DEA94E089
:102740000E94AD311093AC040093AB046DE074E0D3
:1027500086E190E00E941E0B6DEA74E08DE094E04B
:102760000E94A431892B09F036C410927F04109284
:102770008004109281041092820410927B041092C3
:102780007C0410927D0410927E0485E090E090938A
:10279000AC048093AB046FE774E00E947A0EB092B1
:1027A000AC04A092AB046BE774E084E390E00E9479
:1027B0007A0E61E080E00E945D0A8DE691E00E9461
:1027C0007B0A80910C048B3209F081CF109278043F
:1027D0001092770481E090E0A0E0B0E080935F0485
:1027E00090936004A0936104B09362040E94EA0B8A
:1027F0006AEB71E08DEA94E00E94AD3160ED77E024
:1028000080E090E00E945F021092780410927704BA
:1028100081E090E0A0E0B0E080935F0490936004DA
:10282000A0936104B09362040E94EA0B6AEB71E02A
:102830008DEA94E00E94AD3164E772E087E294E0B3
:102840000E94A431892B09F0CEC06AEB71E08DEAB9
:1028500094E00E94AD316AEB71E087E894E00E9459
:10286000AD316AEB71E081EC94E00E94AD310E94E1
:10287000B40960E080E00E945D0A84E792E00E9473
:102880007B0A0E94F90280930C0485E090E090930B
:10289000AC048093AB046FE774E00E94440B84E3C4
:1028A00090E09093AC048093AB046BE774E00E94DB
:1028B000440B40917B0450917C0460917D047091A5
:1028C0007E04CE0101960E94BD0BCE0101960E94AE
:1028D000880ACE0101960E94D70A87E894E00E94F8
:1028E000DF0A40917F0450918004609181047091CF
:1028F0008204CE0101960E94BD0BCE0101960E947A
:10290000880ACE0101960E94D70A8DEA94E00E94BF
:10291000DF0A60E872E08DEA94E00E94993165E890
:1029200072E087E894E00E94993161E080E00E94C3
:102930005D0A8DEA94E00E947B0A8DEA94E0FC0136
:1029400001900020E9F7CF018E5A944061E00E9487
:102950005D0A87E894E00E947B0A80910C048D3325
:10296000F1F00E94F90280930C048B32B1F71092BF
:1029700078041092770481E090E0A0E0B0E08093CA
:102980005F0490936004A0936104B09362040E947A
:10299000EA0B6AEB71E08DEA94E00E94AD3164E1EC
:1029A00070E080E090E00E945F0210927804109244
:1029B000770481E090E0A0E0B0E080935F04909322
:1029C0006004A0936104B09362040E94EA0B6AEB76
:1029D00071E087E894E00E94AD316AEB71E08DEA26
:1029E00094E00E94AD3168E872E087E294E00E94D2
:1029F000A431892B09F0DDC06AEB71E08DEA94E027
:102A00000E94AD316AEB71E081EC94E00E94AD313F
:102A10000E94F90280930C04C12CD12C7601C3943E
:102A200080910C048D3309F4A6C00E94B40960E0C3
:102A300080E00E945D0A85E992E00E947B0A61E0E5
:102A400080E00E945D0A80910C048D3309F45CC023
:102A50000E94F902182F80930C048823D1F08E3243
:102A6000C1F08D33B1F0833409F47EC386ED810F5C
:102A7000823078F0812F8D7F8D3259F0812F0E9426
:102A8000720A1093C10461EC74E08DEA94E00E9434
:102A900099310E949B0410910C041123A1F260E56E
:102AA00070E080E090E00E9440041B3261F61092DA
:102AB000780410927704C0925F04D0926004E09290
:102AC0006104F09262040E94EA0B6AEB71E08DEA05
:102AD00094E00E94AD3180910C048B3209F0B3CFA9
:102AE0001092780410927704C0925F04D092600430
:102AF000E0926104F09262040E94EA0B6AEB71E0DA
:102B00008DEA94E00E94AD318DEA94E00E94202885
:102B1000092E000CAA0BBB0B8093A3049093A40472
:102B2000A093A504B093A6041092AC041092AB0439
:102B300063EA74E090E080E00E947A0E80910C04D9
:102B40008B3209F06DCF109278041092770481E0F7
:102B500090E0A0E0B0E080935F0490936004A093C5
:102B60006104B09362040E94EA0B6AEB71E08DEAA3
:102B700094E00E94AD3160ED77E080E090E00E944B
:102B80005F02109278041092770481E090E0A0E058
:102B9000B0E080935F0490936004A0936104B093CD
:102BA00062040E94EA0B6AEB71E08DEA94E00E94F5
:102BB000AD3162EA72E087E294E00E94A431892B91
:102BC00009F0E5C06AEB71E08DEA94E00E94AD3156
:102BD0006AEB71E081EC94E00E94AD310E94F90251
:102BE00080930C048DE2E82EF12C9CE3C92ED12CAD
:102BF00080910C048D3309F4ACC060E080E00E9449
:102C00005D0A8CEA92E00E947B0A61E080E00E940B
:102C10005D0A90E080E00E94470C8DEA94E00E94FB
:102C20002028019709F0EDC10E94B40960E080E01E
:102C30000E945D0A8DEB92E00E947B0A61E080E0D9
:102C40000E945D0AF092AC04E092AB0467EA74E083
:102C50008DE290E00E94440B4091A7045091A8049B
:102C60006091A9047091AA04CE0101960E94BD0B47
:102C7000CE0101960E94880ACE0101960E94D70AD1
:102C80008DEA94E00E94DF0A61E089E00E945D0A1B
:102C90008DEA94E00E947B0A6AEB71E08DEA94E091
:102CA0000E94AD3161E080E00E945D0A84E090E026
:102CB0000E94470C8DEA94E0FC0101900020E9F7A6
:102CC000CF01825B9440029708F08CC18DEA94E0BA
:102CD0000E943E286093A7047093A8048093A904DF
:102CE0009093AA04F092AC04E092AB0467EA74E01B
:102CF0008DE290E00E947A0E61E080E00E945D0A21
:102D00008AEA91E00E947B0A61E080E00E945D0A0D
:102D10008CEC92E00E947B0A80910C048B3209F0CB
:102D200070C1109278041092770481E090E0A0E0E6
:102D3000B0E080935F0490936004A0936104B0932B
:102D400062040E94EA0B6AEB71E08DEA94E00E9453
:102D5000AD3160ED77E080E090E00E945F0210927C
:102D600078041092770481E090E0A0E0B0E08093D6
:102D70005F0490936004A0936104B09362040E9486
:102D8000EA0B6AEB71E08DEA94E00E94AD3164E0F9
:102D900073E087E294E00E94A431892B09F0F7C127
:102DA0006AEB71E08DEA94E00E94AD316AEB71E06C
:102DB00081EC94E00E94AD310E94F90280930C04F2
:102DC00008E210E080910C048D3309F4B0C00E9439
:102DD000F90280930C040E94B40960E080E00E9434
:102DE0005D0A82E193E00E947B0A61E080E00E943C
:102DF0005D0A0E94F90280930C0484E090E00E9436
:102E00000E0D6DEA74E083E293E00E94A431892BF9
:102E100009F0A3C10E94B40960E080E00E945D0A4D
:102E200089E293E00E947B0A61E080E00E945D0AF3
:102E30006AEB71E08DEA94E00E94AD310E94F902E4
:102E400080930C0483E090E00E94470C1093AC0444
:102E50000093AB048DEA94E00E943E286093230423
:102E600070932404809325049093260463E274E015
:102E700088E290E00E947A0E61E080E00E945D0AA4
:102E800086E393E00E947B0A68EE73E080E090E0C6
:102E90000E945F0261E080E00E945D0A8BEA91E09F
:102EA0000E947B0A63E274E08091AB049091AC04D1
:102EB0000E94440B40912304509124046091250406
:102EC00070912604CE0101960E94BD0BCE010196A1
:102ED0000E94880ACE0101960E94D70A8DEA94E0EA
:102EE0000E94DF0A61E080E00E945D0A8DEA94E0C2
:102EF0000E947B0A80910C048B3209F063CF109200
:102F000078041092770481E090E0A0E0B0E0809334
:102F10005F0490936004A0936104B09362040E94E4
:102F2000EA0B6AEB71E08DEA94E00E94AD3160ED4E
:102F300077E080E090E00E945F02109278041092A7
:102F4000770481E090E0A0E0B0E080935F0490938C
:102F50006004A0936104B09362040E94EA0B6AEBE0
:102F600071E08DEA94E0A7960FB6F894DEBF0FBE2D
:102F7000CDBFDF91CF911F910F91FF90EF90DF9028
:102F8000CF90BF90AF900C94AD3161E080E00E9493
:102F90005D0A8BEB91E00E947B0A3AC8C0925B0409
:102FA000D0925C04E0925D04F0925E04B4C861E0EB
:102FB00080E00E945D0A8BEB91E0D2C961E080E085
:102FC0000E945D0A8BEB91E077CA9E3209F0F6CA47
:102FD0002A503109EFCA61E080E00E945D0A8BEB64
:102FE00091E0EDCB61E080E00E945D0A8AEA91E029
:102FF0000E947B0A61E080E00E945D0A8BED92E016
:1030000089CE8DEA94E00E942028029709F09CC0A6
:103010000E94B40960E080E00E945D0A88EE92E0C0
:103020000E947B0A61E080E00E945D0AD092AC04BD
:10303000C092AB040E94020B6091F0047091F10405
:103040008091F2049091F3041BA21AA21DA21CA26B
:103050001FA21EA28E010F5F1F4F22E044E00E94BC
:10306000FE27009709F45CC0BC01CE0182960E9445
:10307000920BCE0182960E94880ACE0182960E940F
:10308000D70A8DEA94E00E94DF0A61E089E00E949D
:103090005D0A8DEA94E00E947B0A6AEB71E08DEA9A
:1030A00094E00E94AD3161E080E00E945D0A83E01F
:1030B00090E00E94470C8DEA94E0FC010190002012
:1030C000E9F7CF01805B9440039778F58DEA94E0AF
:1030D0000E943E280E948C2C6093F0047093F104AF
:1030E0008093F2049093F304D092AC04C092AB04AA
:1030F0000E941F0E61E080E00E945D0A8AEA91E072
:103100000E947B0A61E080E00E945D0A8CEC92E004
:103110000E947B0A80910C048B3209F069CD01CEAC
:10312000CE0182960E94C50AA4CF61E080E00E9491
:103130005D0A8AEA91E00E947B0A61E080E00E94D9
:103140005D0A8BED92E0E4CF61E080E00E945D0AD1
:1031500084EF92E00E947B0AFCCD61E080E00E9457
:103160005D0A8BEB91E0C4CE6AEB71E08DEA94E0EE
:103170000E94AD3161E080E00E945D0A82EB91E047
:103180000E947B0A61E080E00E945D0A82CCA796E3
:103190000FB6F894DEBF0FBECDBFDF91CF911F9168
:1031A0000F91FF90EF90DF90CF90BF90AF90089578
:1031B0001F920F920FB60F9211242F933F938F936C
:1031C0009F93AF93BF938091D7049091D804A0911F
:1031D000D904B091DA043091D60423E0230F2D37BF
:1031E00058F50196A11DB11D2093D6048093D704F4
:1031F0009093D804A093D904B093DA048091DB04AF
:103200009091DC04A091DD04B091DE040196A11D33
:10321000B11D8093DB049093DC04A093DD04B09394
:10322000DE04BF91AF919F918F913F912F910F90AD
:103230000FBE0F901F90189526E8230F0296A11D30
:10324000B11DD2CF1F920F920FB60F9211242F9360
:103250003F934F935F936F937F938F939F93AF931E
:10326000BF93EF93FF93E0910401F091050109955D
:10327000FF91EF91BF91AF919F918F917F916F914E
:103280005F914F913F912F910F900FBE0F901F9024
:1032900018951F920F920FB60F9211242F933F9300
:1032A0004F935F936F937F938F939F93AF93BF934E
:1032B000EF93FF93E0910201F09103010995FF91D3
:1032C000EF91BF91AF919F918F917F916F915F919E
:1032D0004F913F912F910F900FBE0F901F90189517
:1032E0001F920F920FB60F9211242F933F934F937B
:1032F0005F936F937F938F939F93AF93BF93EF935E
:10330000FF938091E4049091E504A091E604B091CC
:10331000E704892B8A2B8B2BD1F19091DF04E0916C
:10332000E004F091E1048081892780838091E404A6
:103330009091E504A091E604B091E70418161906EF
:103340001A061B069CF48091E4049091E504A09178
:10335000E604B091E7040197A109B1098093E40460
:103360009093E504A093E604B093E704FF91EF91F6
:10337000BF91AF919F918F917F916F915F914F918D
:103380003F912F910F900FBE0F901F901895809135
:103390000F010E946F04EACF1F920F920FB60F9297
:1033A00011242F933F934F935F936F937F938F934A
:1033B0009F93AF93BF93EF93FF9384EF94E00E94AA
:1033C0008608FF91EF91BF91AF919F918F917F916F
:1033D0006F915F914F913F912F910F900FBE0F9082
:1033E0001F9018951F920F920FB60F9211242F93D2
:1033F0008F939F93EF93FF93E0910405F091050560
:103400008081E0910A05F0910B0582FD1BC090813F
:1034100080910D058F5F8F7320910E05821741F00B
:10342000E0910D05F0E0EC50FB4F958F80930D057A
:10343000FF91EF919F918F912F910F900FBE0F9061
:103440001F9018958081F4CF1092F7041092F60423
:1034500088EE93E0A0E0B0E08093F8049093F90444
:10346000A093FA04B093FB0482E391E09093F504F7
:103470008093F40485EC90E090930105809300051F
:1034800084EC90E0909303058093020580EC90E03B
:10349000909305058093040581EC90E090930705D7
:1034A0008093060582EC90E09093090580930805CF
:1034B00086EC90E090930B0580930A0510920D0521
:1034C00010920E0510920F0510921005109225060D
:1034D000109224068EE491E09093230680932206B6
:1034E00085E0809326068FEF8093270686E0809301
:1034F000280687E08093290688E080932A0689E0E1
:1035000080932B068AE080932C0610922D06109251
:103510002E0610922F06109230061092310681E08E
:103520000E94BC091092B5051092B9051092B80519
:103530001092BA0584E491E09093B4058093B305AA
:10354000EFECF5E01082148213821582369686E045
:10355000EB30F807B9F784E191E090931606809379
:10356000150680E191E0909318068093170684E099
:103570008093190680931A0688E191E090931406CF
:10358000809313068AE090E090931C0680931B06BC
:1035900084EF91E090931E0680931D061092210601
:1035A0001092200610920F0610921006109211062B
:1035B0001092120610921F061092AE051092AD05E1
:1035C0001092B0051092AF051092B2051092B1059D
:1035D00070E060E08DEA95E00E946A0B811141C0C5
:1035E0008DEA95E00E94C50A82E090E090939205F2
:1035F0008093910510929405109293051092950571
:1036000010929605109297051092980510929905C0
:1036100010929A0510929B0510929C0510929D05A0
:1036200010929E0510929F051092A0051092A2057F
:103630001092A1051092A4051092A3051092A60560
:103640001092A5051092A8051092A7051092A90541
:103650001092AA051092AB051092AC0561E00C9493
:10366000FA011092B2051092B1056AEB71E08091F7
:10367000AD059091AE050E94AD31B6CFCF93DF93EB
:10368000CDB7DEB72A970FB6F894DEBF0FBECDBF19
:10369000789484B5826084BD84B5816084BD85B52D
:1036A000826085BD85B5816085BD80916E00816039
:1036B00080936E00109281008091810082608093DF
:1036C00081008091810081608093810080918000E1
:1036D0008160809380008091B10084608093B1000C
:1036E0008091B00081608093B00080917A00846006
:1036F00080937A0080917A00826080937A00809132
:103700007A00816080937A0080917A00806880934B
:103710007A001092C100C12CD12C7601C394C092C2
:103720005B04D0925C04E0925D04F0925E04C0926F
:103730002304D0922404E0922504F0922604C0923F
:103740005F04D0926004E0926104F0926204C0923F
:103750005704D0925804E0925904F0925A0462E05F
:1037600083E00E94FA0160E081E00E94FA0161E0DA
:1037700081E00E94C80161E08BE00E94FA0161E0F3
:103780008CE00E94FA0161E08CE00E94C80189E5AA
:1037900094E09093050180930401809169008C600E
:1037A00080936900E99A0E94280168EC70E080E04B
:1037B00090E00E9440040E94B40982E00E94BC098B
:1037C00086E490E09093AC048093AB0463E274E0F1
:1037D0000E94440B03E210E01093AC040093AB048E
:1037E0006FE174E083E290E00E94440B80911F043B
:1037F00090912004A0912104B09122040297A10588
:10380000B10509F4E2C08AE491E0A0E0B0E0809361
:10381000A3049093A404A093A504B093A6041092CB
:103820007F0410928004109281041092820482E33B
:1038300090E0A0E0B0E080931B0490931C04A09360
:103840001D04B0931E0410927B0410927C0410920D
:103850007D0410927E0466E671E084E194E00E94AB
:10386000AD3166E671E08DE094E00E94AD31C0922A
:103870005B04D0925C04E0925D04F0925E04C0921E
:103880002304D0922404E0922504F092260482E0DE
:1038900090E0A0E0B0E080931F0490932004A093F8
:1038A0002104B09322041092AC041092AB0480E087
:1038B00090EEA2E1B5E48093F0049093F104A0931C
:1038C000F204B093F30488EA91E6A0E0B0E08093BC
:1038D000A7049093A804A093A904B093AA0463EA50
:1038E00074E090E080E00E947A0E85E090E0909392
:1038F000AC048093AB046FE774E00E947A0E8AE018
:1039000090E09093AC048093AB046BE174E00E9470
:103910007A0E8FE090E09093AC048093AB0464E166
:1039200074E00E94470E86E190E09093AC0480938F
:10393000AB046DE074E00E94470E8DE190E090933F
:10394000AC048093AB046BE574E00E947A0E109394
:10395000AC040093AB046FE174E083E290E00E945A
:103960007A0E88E290E09093AC048093AB0463E21B
:1039700074E00E947A0E8DE290E09093AC04809304
:10398000AB0467EA74E00E947A0E84E390E09093BF
:10399000AC048093AB046BE774E00E947A0E8CE376
:1039A00090E09093AC048093AB040E941F0E60E003
:1039B00080E00E945D0A85E493E00E947B0A60ED4E
:1039C00077E080E090E00E945F0260E080E00E948B
:1039D0005D0A8BE593E00E947B0A61E080E00E9433
:1039E0005D0A8DE693E00E947B0A68EC70E080E05F
:1039F00090E00E945F0260E080E00E945D0A8AE53C
:103A000093E00E947B0A61E080E00E945D0A8CE600
:103A100093E00E947B0A68EC70E080E090E00E94F6
:103A20005F0260E080E00E945D0A89E593E00E9409
:103A30007B0A61E080E00E945D0A8BE693E00E94D1
:103A40007B0A68EC70E080E090E00E945F0260E03A
:103A500080E00E945D0A88E593E00E947B0A61E0B5
:103A600080E00E945D0A8AE693E00E947B0A68EC8F
:103A700070E080E090E00E945F0260E080E00E94E1
:103A80005D0A87E593E00E947B0A61E080E00E9486
:103A90005D0A89E693E00E947B0A68EC70E080E0B2
:103AA00090E00E945F0260E080E00E945D0A86E58F
:103AB00093E00E947B0A61E080E00E945D0A88E654
:103AC00093E00E947B0A60EB74E080E090E00E944B
:103AD0005F0260E080E00E945D0A8AEA91E00E9455
:103AE0007B0A61E080E00E945D0A8EEA91E00E941C
:103AF0007B0A60E080E00E945D0A83E793E00E9419
:103B00007B0A61E080E00E945D0A81E893E00E9408
:103B10007B0A80913206982F9260909332068A60D9
:103B20000E94AE0960ED77E080E090E00E945F02C5
:103B300060E080E00E945D0A8BEA91E00E947B0ACF
:103B400061E080E00E945D0A8CEA91E00E947B0ABD
:103B500060E080E00E945D0A8EE893E00E947B0AAC
:103B600061E080E00E945D0A8BE993E00E947B0A9D
:103B700080913206982F9260909332068A600E945C
:103B8000AE0960ED77E080E090E00E945F0260E0C7
:103B900080E00E945D0A80EA93E00E947B0A61E077
:103BA00080E00E945D0A8DEA91E00E947B0A61E05C
:103BB00080E00E945D0A6AEB71E084E194E00E947B
:103BC000AD318FE090E09093AC048093AB0464E15E
:103BD00074E00E941E0B61E080E00E945D0A08E232
:103BE00010E09FE0E92EF12C64E174E08DEA94E0AE
:103BF0000E94A431892B09F477C10E949B04809113
:103C0000D504882331F060E570E080E090E00E9408
:103C100040040E94F9028093D5048823C9F08D33B3
:103C2000B9F08334A9F096ED980F923088F08D5258
:103C3000833070F084E691E00E947B0A8091D50485
:103C40008093C10461EC74E08DEA94E00E949931A4
:103C5000EDEAF4E001900020E9F7E45BF44009F0BC
:103C60002BC164E174E08DEA94E00E94A431892BB9
:103C700009F422C161E080E00E945D0A8FEA93E0CE
:103C80000E947B0A60ED77E080E090E00E945F0296
:103C900061E080E00E945D0A8CEA91E00E947B0A6C
:103CA00061E080E00E945D0A0E94F90280930C04AA
:103CB0000E94B40960E080E00E945D0A8EEB93E010
:103CC0000E947B0A61E080E00E945D0A6AEB71E07D
:103CD0008DEA94E00E94AD3190E080E00E94470CB4
:103CE0008DEA94E00E9420288230910518F0039715
:103CF000079700F50E94B40960E080E00E945D0A29
:103D00008BEA91E00E947B0A60E080E00E945D0AFD
:103D10000E94B40980EA93E00E947B0A61E080E09F
:103D20000E945D0A8DEA91E00E947B0A61E080E0DA
:103D30000E945D0A8DEA94E00E942028029709F013
:103D4000AFC06AEB71E08DEA94E00E94AD316AEB9E
:103D500071E081EC94E00E94AD310E94F902809301
:103D60000C0480910C048D3309F49AC00E94B409AC
:103D700060E080E00E945D0A89E891E00E947B0A91
:103D800061E080E00E945D0A84E090E00E94470CC0
:103D90001093AC040093AB0463E274E088E290E01B
:103DA0000E94440B8DEA94E00E943E2880902304F8
:103DB00090902404A0902504B0902604860E971EAF
:103DC000A81EB91E92E4891697E69906A104B104CB
:103DD00009F05DC00E94B40960E080E00E945D0AC5
:103DE00089E991E00E947B0A61E080E00E945D0A1F
:103DF0008AEA91E00E947B0A68EE73E080E090E03E
:103E00000E945F020E94AD0E6AEB71E084E194E0D3
:103E10000E94AD31F092AC04E092AB0464E174E036
:103E20008FE090E00E941E0B60E080E00E945D0A3F
:103E300080EA93E00E947B0A61E080E00E945D0AD4
:103E400068EE73E080E090E00E945F020E94B40997
:103E500060E080E00E945D0A8BEA91E00E947B0AAC
:103E600060E080E00E945D0A0E94B40980EA93E06D
:103E70000E947B0A61E080E00E945D0A8DEA91E089
:103E80000E947B0A61E080E00E945D0A6ACF61E0E7
:103E900080E00E945D0A8FEC93E00E947B0AD0CF05
:103EA0006AEB71E08DEA94E00E94AD316AEB71E05B
:103EB00081EC94E00E94AD318091D504833409F007
:103EC00093CE6AEB71E08DEA94E00E94AD3161E03F
:103ED00080E00E945D0A83EB91E00E947B0A61E032
:103EE00080E00E945D0A80CE0E94280161E080E0AF
:103EF0000E945D0A80EE93E00E947B0A64EF71E00D
:103F000080E090E00E945F0261E080E00E945D0A34
:103F10008CEA91E00E947B0A60E080E00E945D0AEA
:103F20008CEA91E00E947B0A60E080E00E945D0ADA
:103F300083EF93E00E947B0A68EC70E080E090E001
:103F40000E945F0260E080E00E945D0A81EF93E0E2
:103F50000E947B0A68EC70E080E090E00E945F02C3
:103F600060E080E00E945D0A8FEE93E00E947B0A91
:103F700068EC70E080E090E00E945F0260E080E02A
:103F80000E945D0A8EEE93E00E947B0A60E273E07D
:103F900080E090E00E945F020E94B40960E080E04F
:103FA0000E945D0A1092AC041092AB0463EA74E0C4
:103FB00090E080E00E94440B4091A3045091A4043F
:103FC0006091A5047091A604CE0101960E94BD0BDC
:103FD000CE0101960E94880ACE0101960E94D70A5E
:103FE00087E894E00E94DF0A87EF93E00E947B0A53
:103FF00060E08CE00E945D0A87E894E00E947B0A02
:1040000061E080E00E945D0A6AEB71E08DEA94E075
:104010000E94AD3111E084E3282E312C0E949B04D4
:1040200061E08CE00E94C8010E94F902082F809391
:10403000D5048823B9F08D33A9F0833499F086ED47
:10404000800F823078F083ED800F833058F0802F1E
:104050000E94720A0093C10461EC74E08DEA94E05E
:104060000E9499310E94EA0B81E00E949C01892BF9
:1040700009F027C1ADE2B0E0B093AC04A093AB046B
:1040800067EA74E08DE290E00E94440B1092AC0469
:104090001092AB0463EA74E090E080E00E94440B6D
:1040A0000E94910260939F047093A0048093A104E6
:1040B0009093A20481E00E949C01892B09F093C097
:1040C00061E08BE00E94C8010E949102C0909F04B1
:1040D000D090A004E090A104F090A2049B01AC0158
:1040E0002C193D094E095F09A8EEB3E00E94C22DCC
:1040F0002091A7043091A8044091A9045091AA04EA
:104100000E946E2FBA01A90140939B0450939C0416
:1041100060939D0470939E04CE0101960E94BD0B96
:10412000CE0101960E94880ACE0101960E94D70A0C
:1041300087E894E00E94DF0A64E074E087E894E096
:104140000E94993161E088E00E945D0A87E894E06E
:104150000E947B0A2091A3043091A4044091A504FD
:104160005091A60460919B0470919C0480919D04E1
:1041700090919E040E94282F28EE33E040E050E00A
:104180000E946E2FBA01A9014093830450938404C6
:104190006093850470938604CE0101960E94BD0B46
:1041A000CE0101960E94880ACE0101960E94D70A8C
:1041B00087E894E00E94DF0A67E074E087E894E013
:1041C0000E94993161E080E00E945D0A87E894E0F6
:1041D0000E947B0A0E949B0460E570E080E090E012
:1041E0000E94400467CF60E08BE00E94C801E5E0D8
:1041F000F0E0F093AC04E093AB046FE774E085E08B
:1042000090E00E94440B609183047091840480913B
:104210008504909186040E948C2C20E030E040E0E0
:104220005FE30E94142E6B017C0160917F0470910A
:10423000800480918104909182040E948C2C9B01C7
:10424000AC01C701B6010E94142E0E94F22E6093A9
:104250007F047093800480938104909382046FE7BD
:1042600074E085E090E00E947A0E3092AC042092D7
:10427000AB046BE774E084E390E00E94440B809110
:104280007B0490917C04A0917D04B0917E044091C8
:104290009B0450919C0460919D0470919E04840F36
:1042A000951FA61FB71F80937B0490937C04A09357
:1042B0007D04B0937E046BE774E084E390E00E9499
:1042C0007A0E8091D5048F32C9F40E94B4091092FD
:1042D0007A0410927904F1E0F0930E0181E090E00D
:1042E000909378048093770461E088E00E945D0AEF
:1042F0008CEA91E00E947B0A0E94B4098091D50467
:10430000882309F463C08F3209F460C06AEB71E05E
:1043100083E694E00E94AD3160E570E080E090E0DB
:104320000E9440048DEA94E00E941C2820E030E0C6
:104330004AE754E40E94EB2C6B017C016091A304DA
:104340007091A4048091A5049091A6040E948C2CE5
:104350009B01AC01C701B6010E94802E20E030E035
:1043600040E05FE30E94142E0E94F92ECE010196D8
:104370000E94DA0DCE0101960E94880ACE010196B4
:104380000E94D70A87E894E00E94DF0A61E088E093
:104390000E945D0A64E074E087E894E00E9499312D
:1043A00087E894E00E947B0A8DEA94E0DC010D909E
:1043B0000020E9F7CD018E5A944061E00E945D0A29
:1043C00067E874E083E694E00E94AD318091D50403
:1043D0008334F1F46AEB71E08DEA94E00E94AD3130
:1043E00061E080E00E945D0A82EB91E00E947B0A1E
:1043F00061E080E00E945D0A61E088E00E945D0A61
:104400008DEA91E00E947B0A61E080E00E945D0AF3
:104410008091770490917804019709F02DC20E9451
:10442000F902082F8093D5048823F9F0809179044C
:1044300090917A0422ED200F223008F4D7C50D3375
:10444000A1F0033491F00A3209F4CAC50D3269F0C3
:104450000B3259F0802F0E94720A0093C10461EC64
:1044600074E08DEA94E00E949931809179049091F2
:104470007A04099734F0E8E0F0E0F0937A04E093EE
:1044800079048091790490917A0497FF04C0109286
:104490007A04109279048091790490917A04892B9E
:1044A00061F580910E01882341F110920E01109365
:1044B0000D0110930C0110930B0110930A0110933E
:1044C000090110930801109307011093060162EA95
:1044D00072E087E294E00E94AD3160E080E00E94EB
:1044E0005D0A8CEA91E00E947B0A60E080E00E9415
:1044F0005D0A82EA92E00E947B0A809179049091A1
:104500007A04019761F580910D01882341F11093A0
:104510000E0110920D0110930C0110930B011093DA
:104520000A011093090110930801109307011093D9
:10453000060168E872E087E294E00E94AD3160E035
:1045400080E00E945D0A8CEA91E00E947B0A60E0B4
:1045500080E00E945D0A88E892E00E947B0A8091D8
:10456000790490917A04029761F580910C01882377
:1045700041F110930E0110930D0110920C01109354
:104580000B0110930A011093090110930801109375
:1045900007011093060164E772E087E294E00E944D
:1045A000AD3160E080E00E945D0A8CEA91E00E94FB
:1045B0007B0A60E080E00E945D0A84E792E00E944E
:1045C0007B0A8091790490917A04039761F5809138
:1045D0000B01882341F110930E0110930D011093EC
:1045E0000C0110920B0110930A0110930901109312
:1045F0000801109307011093060166E572E087E257
:1046000094E00E94AD3160E080E00E945D0A8CEA97
:1046100091E00E947B0A60E080E00E945D0A86E5EE
:1046200092E00E947B0A8091790490917A04049729
:1046300061F580910A01882341F110930E011093D6
:104640000D0110930C0110930B0110920A011093AD
:10465000090110930801109307011093060163E309
:1046600072E087E294E00E94AD3160E080E00E9459
:104670005D0A8CEA91E00E947B0A60E080E00E9483
:104680005D0A83E392E00E947B0A80917904909115
:104690007A04059761F580910901882341F110930F
:1046A0000E0110930D0110930C0110930B01109348
:1046B0000A01109209011093080110930701109349
:1046C000060167EE71E087E294E00E94AD3160E0A0
:1046D00080E00E945D0A8CEA91E00E947B0A60E023
:1046E00080E00E945D0A87EE91E00E947B0A809143
:1046F000790490917A04069761F5809108018823E6
:1047000041F110930E0110930D0110930C011093C1
:104710000B0110930A0110930901109208011093E4
:104720000701109306016AEC71E087E294E00E94B1
:10473000AD3160E080E00E945D0A8CEA91E00E9469
:104740007B0A60E080E00E945D0A8AEC91E00E94B2
:104750007B0A8091790490917A04079761F58091A2
:104760000701882341F110930E0110930D0110935E
:104770000C0110930B0110930A011093090110937F
:10478000080110920701109306016BE771E087E2C0
:1047900094E00E94AD3160E080E00E945D0A8CEA06
:1047A00091E00E947B0A60E080E00E945D0A8BE756
:1047B00091E00E947B0A8091790490917A04089795
:1047C00061F580910601882341F110930E01109349
:1047D0000D0110930C0110930B0110930A0110931B
:1047E000090110930801109307011092060164E07B
:1047F00073E087E294E00E94AD3160E080E00E94C7
:104800005D0A8CEA91E00E947B0A60E080E00E94F1
:104810005D0A84E093E00E947B0A8091D5048D3389
:1048200011F40E94890F0E949B040091D50400237B
:1048300009F4EECD60E570E080E090E00E94400475
:104840000B3209F0E5CD109278041092770481E0E4
:1048500090E0A0E0B0E080935F0490936004A093A8
:104860006104B09362040E94EA0B6AEB71E08DEA86
:1048700094E00E94AD31CCCD8091D5048334A9F46D
:10488000EDEAF4E084E1DF011D928A95E9F778947E
:1048900080E090E0892B09F4C1CB0E947208882344
:1048A00009F4B9CB0E940000B6CB8D3381F78DE1BE
:1048B00090E09093AC048093AB046BE574E00E94AD
:1048C000440BC0905B04D0905C04E0905D04F090D9
:1048D0005E04B1E0CB16D104E104F10409F0BFC1DC
:1048E0001092AC041092AB0463EA74E090E080E0B4
:1048F0000E94440BC0925704D0925804E09259048D
:10490000F0925A048091AD04882309F4A8C161E0B3
:1049100088E00E945D0A8FEA91E00E947B0A0E9473
:10492000F9028093D5046AEB71E087E894E00E9475
:10493000AD3161E080E00E945D0A8FEA91E00E9463
:104940007B0AEDE2F0E0F093AC04E093AB0467EA9D
:1049500074E08DE290E00E94440B8DEA94E00E94A6
:104960001C286B017C016091A3047091A4048091C8
:10497000A5049091A6040E948C2C9B01AC01C70158
:10498000B6010E94802E6B017C016091A70470919A
:10499000A8048091A9049091AA040E948C2C9B01E8
:1049A000AC01C701B6010E94EB2C6F837887898721
:1049B0009A870E949102609341047093420480930D
:1049C0004304909344040E9491022B013C016091A6
:1049D00041047091420480914304909144040E94E8
:1049E0008A2C2F81388549855A850E94142E4B01C7
:1049F0005C01C0905704D0905804E0905904F090A6
:104A00005A04C301B2010E948A2CA50194010E949C
:104A1000852C87FFA4C0F1E0CF16D104E104F10496
:104A200009F09DC00E9491022B013C016091A304FA
:104A30007091A4048091A5049091A6040E948C2CEE
:104A40006B017C01C301B2010E948A2C9B01AC0165
:104A5000C501B4010E94132E9B01AC01C701B60130
:104A60000E94EB2C6B017C016091A7047091A8045B
:104A70008091A9049091AA040E948C2C9B01AC0106
:104A8000C701B6010E94802E6B017C010E94F902D1
:104A90008093D5048B3241F410925704109258043D
:104AA0001092590410925A048DEA94E00E941C2836
:104AB0008DEA94E00E941C28A70196010E94132E03
:104AC00060933D0470933E0480933F0490934004B0
:104AD00020E030E04AE754E40E94EB2C6B017C01BB
:104AE0006091A3047091A4048091A5049091A60400
:104AF0000E948C2C9B01AC01C701B6010E94802E44
:104B000020E030E040E05FE30E94142E0E94F92E86
:104B100070933C0460933B04CE0101960E94DA0D31
:104B2000CE0101960E94880ACE0101960E94D70A02
:104B300087E894E00E94DF0A61E088E00E945D0A55
:104B400064E074E087E894E00E94993187E894E09B
:104B50000E947B0A61E08BE00E94C80134CFCD281F
:104B6000CE28CF2861F061E088E00E945D0A83E6EC
:104B700094E00E947B0A61E080E00E945D0A85E08B
:104B800090E09093AC048093AB046FE774E00E94D4
:104B9000440B60917F047091800480918104909116
:104BA00082040E948C2C6B017C0120E030E040E00C
:104BB0005FE360913D0470913E0480913F049091C9
:104BC00040040E94142E9B01AC01C701B6010E9453
:104BD000142E0E94F22E60937F04709380048093C1
:104BE0008104909382046FE774E085E090E00E9476
:104BF0007A0E3092AC042092AB046BE774E084E34D
:104C000090E00E94440B20913B0430913C04809141
:104C10007B0490917C04A0917D04B0917E04820F6E
:104C2000931FA11DB11D80937B0490937C04A093DE
:104C30007D04B0937E046BE774E084E390E00E940F
:104C40007A0E60E08BE00E94C80161E080E00E9483
:104C50005D0A6AEB71E08DEA94E00E94AD318091CB
:104C60005B0490915C04A0915D04B0915E04029796
:104C7000A105B10509F00BCE1092AC041092AB0463
:104C800063EA74E090E080E00E94440B81E090E0F1
:104C9000A0E0B0E08093570490935804A093590487
:104CA000B0935A048091AD04882309F4F0CD61E0FB
:104CB00088E00E945D0A8FEA91E00E947B0A8CE303
:104CC00090E09093AC048093AB040E94020B20E030
:104CD00034E244E759E46091F0047091F10480916A
:104CE000F2049091F3040E94802E6093F00470937C
:104CF000F1048093F2049093F30461E08BE00E944E
:104D0000C801A1E0B0E0B0935604A09355048DEA29
:104D100094E00E941C286093510470935204809385
:104D20005304909354046091A3047091A40480915F
:104D3000A5049091A6040E948C2C2091F00430913F
:104D4000F1044091F2045091F3040E94EB2C609323
:104D50004D0470934E0480934F049093500461E08F
:104D600080E00E945D0A8FEA91E00E947B0A109227
:104D70004C0410924B0460914B0470914C04C09011
:104D80005704D0905804E0905904F0905A04072E2C
:104D9000000C880B990B0E948C2C20914D043091B3
:104DA0004E0440914F04509150040E94EB2C4B0153
:104DB0005C012AE939E949E15FE3609151047091AE
:104DC000520480915304909154040E94142E9B012C
:104DD000AC01C501B4010E94852C18160CF479C0F1
:104DE000B1E0CB16D104E104F10409F072C00E94D5
:104DF000F9028093D5048B3241F41092570410923B
:104E000058041092590410925A04789460914B04FB
:104E100070914C04072E000C880B990B0E948C2C6F
:104E200020914D0430914E0440914F045091500414
:104E30000E94EB2C609347047093480480934904CC
:104E400090934A0420E030E04AE754E40E94EB2CBF
:104E50006B017C016091A3047091A4048091A5046E
:104E60009091A6040E948C2C9B01AC01C701B60155
:104E70000E94802E20E030E040E05FE30E94142E8C
:104E80000E94F92E7093460460934504CE0101966A
:104E90000E94DA0DCE0101960E94880ACE01019689
:104EA0000E94D70A87E894E00E94DF0A61E088E068
:104EB0000E945D0A64E074E087E894E00E94993102
:104EC00087E894E00E947B0A61E080E00E945D0A2E
:104ED00052CFCD28CE28CF2861F061E088E00E9433
:104EE0005D0A83E694E00E947B0A61E080E00E9414
:104EF0005D0AE5E0F0E0F093AC04E093AB046FE70B
:104F000074E085E090E00E94440B60917F04709112
:104F1000800480918104909182040E948C2C6B010A
:104F20007C0120E030E040E05FE360914704709155
:104F300048048091490490914A040E94142E9B01D8
:104F4000AC01C701B6010E94142E0E94F22E60939C
:104F50007F047093800480938104909382046FE7B0
:104F600074E085E090E00E947A0E3092AC042092CA
:104F7000AB046BE774E084E390E00E94440B209163
:104F800045043091460480917B0490917C04A0916B
:104F90007D04B0917E04820F931FA11DB11D8093EB
:104FA0007B0490937C04A0937D04B0937E046BE714
:104FB00074E084E390E00E947A0E109256041092FE
:104FC000550460E08BE00E94C80161E080E00E942F
:104FD0005D0A6AEB71E08DEA94E00E94AD3157CC36
:104FE000019690937A04809379043FCA01970E3218
:104FF000C1F33BCA8DEA95E00C94D70AEF920F9368
:105000001F93CF93DF93E80134E047FD34E1042E92
:10501000000C550B57FF03C0519541955109E32EE4
:10502000022F242FAE010E94CD28CE01DF91CF9117
:105030001F910F91EF900895662777270C942C2AE3
:10504000FC0188279927E89421912032E9F329303F
:1050500010F02E30C8F32B3241F02D3239F4689421
:1050600004C00E948928820F911D219120532A306B
:10507000C0F31EF4909581959F4F08951F93FC01F6
:1050800099278827BC01E89411911032E9F319306F
:1050900010F01E30C8F31B3251F01D3249F46894F1
:1050A00006C00E947428610F711D811D911D119110
:1050B00010531A30B0F33EF4909580957095619539
:1050C0007F4F8F4F9F4F1F910895BB272A3051F478
:1050D000992342F4BDE290958095709561957F4F3C
:1050E0008F4F9F4F0C949228592F482F372F262FE0
:1050F000660F771F881F991F660F771F881F991FDC
:10510000620F731F841F951F660F771F881F991FDB
:1051100008957AE0979F902D879F802D910D1124FF
:105120000895BB27FA01A62F621771058105910525
:10513000330B30FB66F0AA27660F771F881F991F75
:10514000AA1FA21710F0A21B63953850A9F7A05D03
:10515000AA3308F0A95DA19336F7B111B19310827B
:10516000CA010C94752CBB27FB015527AA27880F71
:10517000991FAA1FA41710F0A41B83955051B9F7CB
:10518000A05DAA3308F0A95DA193009779F7B1114A
:10519000B1931192CB010C94752CA9E0B0E0E3ED32
:1051A000F8E20C94D32D6A01F22EB02E102FFBE3FF
:1051B000AF2EA01608F41BE31F5F012F27E0AE01FE
:1051C0004F5F5F4F0E947C2BBC018981982F9970A3
:1051D000913009F43FC09BE2E1FC04C09E2D917028
:1051E000E0FC3AC05E2D5071E82FE87083FF46C0A6
:1051F00084E0911101C083E0EF2DE81B8F1508F0CA
:10520000E0E0D6018E2F20E2552351F1992329F0B9
:10521000D6019C93C60101966C0196012D5F3F4F0C
:10522000E2FE24C08EE4D6018C9391E411969C9307
:10523000119712968C93D9018E2F90E281111BC089
:10524000E20FF32FF11D10828EEF9FEF2996ECE015
:105250000C94EF2D9DE2C6CF90E2C4CF2D938150E8
:105260008111FCCFCE0ED11CE0E0D0CF8EE6D6016E
:105270008C9391E6DBCF9D938150E0CF482F447013
:1052800082FF3DC084E0911101C083E08F1510F4CE
:10529000EF2DE81BD6018E2F20E2552309F199232B
:1052A00029F0D6019C93C60101966C0196012D5FF1
:1052B0003F4FE2FE1BC089E4D6018C938EE4119629
:1052C0008C93119786E412968C93D9018E2F90E2DD
:1052D000882309F4B5CF9D938150FACF2D93815047
:1052E0008111FCCFCE0ED11CE0E0D9CF89E6D601EA
:1052F0008C938EE611968C93119786E6E4CF9B01F2
:1053000077FF02C030E020E0A1E0B0E0911102C0E0
:10531000B0E0A0E0F9013196AE0FBF1F8B2C912CAD
:10532000BB2009F461C05401EFEFAE1ABE0AAA0D0A
:10533000BB1DFA161B0619F014F04F2D4A1B511114
:1053400088C0E3FC59C07601A42FB0E2A1114FC080
:10535000C40ED11C992309F45BC040E0D60111961C
:10536000F60190836D01552309F448C0012F060F03
:105370009A81582F507184FF03C0913309F4015072
:1053800010160CF047C0093008F008E0EEE2FE2EDF
:105390005B01A01AB10885019194819491082F3F77
:1053A000320729F4D601FC92F60131966F0162179B
:1053B000730794F1021713077CF5DB01A21BB30BF3
:1053C000AA24A394B12CAC0EBD1EAA0DBB1D119630
:1053D0008C9121503109D601119628153905F4F028
:1053E000F60180836D01DBCFB12CA12CA0CFF7019A
:1053F000B1937F01A150AACF9111B0CFD601942FC4
:1054000050E302C05D9391509111FCCFC40ED11CAA
:1054100040E0ACCF01E0BACF80E3DBCF6217730787
:1054200031F4963388F4953311F4552369F0F6017D
:105430008083FD01842F90E2811108C0A40FB11D6B
:105440001C9290E080E002CF81E3F1CF91938150F4
:10545000F3CF911183CF8ACFB0E0A0E0E2E3FAE28C
:105460000C94D32D5C017B016115710519F0DB01F2
:105470008D939C9385010F5F1F4FF501D0818D2F78
:1054800090E00E94542C6C01892BB9F5DD32B9F5FE
:105490000F5F1F4FD5011196DC91C1E05801F1E07B
:1054A000AF1AB10843E050E060E770E0C5010E9428
:1054B0005D2C892B69F5680182E0C80ED11C45E09E
:1054C00050E06BE670E0C6010E945D2C892B21F450
:1054D000680197E0C90ED11CE114F10419F0D7015D
:1054E000CD92DC9260E070E080E89FEFC111FFC0D8
:1054F00060E070E080E89FE7FAC05801BBCFDB3284
:1055000029F485010E5F1F4FF501D181C0E0C6CFA0
:1055100043E050E068E670E0C5010E945D2C892BF5
:10552000E9F0F80110E000E020E030E0A9015F01BF
:10553000B0ED8B2E8D0E89E08815C8F19C2E6894F5
:1055400091F88C2F8870C2FF16C0811102C00F5FC6
:105550001F4F3196D501DC91C92DE9CFE114F1043B
:1055600029F00E5F1F4FF7011183008360E070E0A8
:1055700080EC9FE7BCC0882311F001501109A5E021
:10558000B0E00E94C22D9B01AC01220F331F441FCB
:10559000551F280D311D411D511D283999E9390725
:1055A000490799E15907A8F2C6609C2ED2CFAEEF09
:1055B0008A1206C0C3FD3CC09C2E689493F8C9CFE4
:1055C000DF7DD534A9F580818D3239F4C061DF01EA
:1055D0001296818162E070E006C0DF018B32C1F378
:1055E000119661E070E080535D01A61AB70A8A3017
:1055F000F8F4E0E8CE16ECE0DE065CF4B601660FE7
:10560000771F660F771FC60ED71ECC0CDD1CC80E89
:10561000D11C5D01FFEFAF1ABF0A8C9180538A3015
:10562000A8F1C4FF03C0D194C194D1080C0D1D1D75
:10563000C1FF09C0E114F10431F081E0A81AB108FA
:10564000D701AD92BC92CA01B9010E948A2CC370E5
:10565000C33009F490584B015C0120E030E0A9010F
:105660000E94852C882309F440C0CFE9D0E017FFC1
:1056700005C0119501951109C7E8D0E06E01B8E1A8
:10568000CB1AD10880E2E82EF12C0FC0D501B1CFA2
:10569000FE0125913591459154910E191F09C501BF
:1056A000B4010E94EB2C4B015C01D501C4010E1525
:1056B0001F0574F72497F594E794CC16DD06A9F737
:1056C0008A2F880F8B2F881F8F3F49F020E030E012
:1056D000A901C501B4010E94852C811106C082E296
:1056E00090E090933B0680933A06C501B401CDB794
:1056F000DEB7ECE00C94EF2D283008F027E03327DC
:10570000DA01990F311D87FD9160009661057105E1
:1057100039F432602E5F3D9330E32A95E1F7089526
:105720009F3F30F080387105610509F03C5F3C5FB8
:105730003D93913008F08068911DDF93CF931F93C4
:105740000F93FF92EF92192F987F9695E92F9695D8
:105750009695E90FFF27E350FF4F99273327EE2453
:10576000FF24A701E70105900894079428F4360F59
:10577000E71EF81E491F511D660F771F881F991FCE
:105780000694A1F70590079428F4E70EF81E491F28
:10579000561FC11D770F881F991F661F0694A1F71A
:1057A0000590079428F4F80E491F561FC71FD11DF6
:1057B000880F991F661F771F0694A1F7059007941D
:1057C00020F4490F561FC71FD81F990F661F771F58
:1057D000881F0694A9F784911095177041F0D6950B
:1057E000C79557954795F794E7941A95C1F7E3EA5B
:1057F000F0E068941590159135916591959105901B
:105800007FE27395E118F10A430B560BC90BD009DF
:10581000C0F7E10CF11E431F561FC91FD01D7EF4B7
:10582000703311F48A95E6CFE894015030F0080FF8
:105830000AF40027021708F4202F2395022F7A3349
:1058400028F079E37D932A95E9F710C07D932A9596
:1058500089F6069497956795379517951794E118EB
:10586000F10A430B560BC90BD00998F023957E9192
:1058700073957A3308F070E37C932013B8F77E9128
:1058800070617D9330F0839571E37D9370E32A9589
:10589000E1F71124EF90FF900F911F91CF91DF91CD
:1058A000992787FD9095089591110C94582D803279
:1058B00019F089508550C8F70895FB01DC0141506B
:1058C000504088F08D9181341CF08B350CF4805E53
:1058D000659161341CF06B350CF4605E861B6111C0
:1058E00071F3990B0895881BFCCFDC01FC01672F35
:1058F00071917723E1F7329704C07C916D937083A7
:105900006291AE17BF07C8F308950E94C72C08F430
:1059100081E00895E89409C097FB3EF49095809546
:10592000709561957F4F8F4F9F4F9923A9F0F92F65
:1059300096E9BB279395F695879577956795B795E3
:10594000F111F8CFFAF4BB0F11F460FF1BC06F5FC9
:105950007F4F8F4F9F4F16C0882311F096E911C0DB
:10596000772321F09EE8872F762F05C0662371F0FC
:1059700096E8862F70E060E02AF09A95660F771F10
:10598000881FDAF7880F9695879597F90895990FEC
:105990000008550FAA0BE0E8FEEF16161706E807F9
:1059A000F907C0F012161306E407F50798F0621B1A
:1059B000730B840B950B39F40A2661F0232B242BEF
:1059C000252B21F408950A2609F4A140A6958FEF0E
:1059D000811D811D08950E94FE2C0C94722D0E9441
:1059E000642D38F00E946B2D20F0952311F00C945B
:1059F0005B2D0C94612D11240C94A62D0E94832DF7
:105A000070F3959FC1F3950F50E0551F629FF00111
:105A1000729FBB27F00DB11D639FAA27F00DB11D2A
:105A2000AA1F649F6627B00DA11D661F829F2227B3
:105A3000B00DA11D621F739FB00DA11D621F839F3A
:105A4000A00D611D221F749F3327A00D611D231F10
:105A5000849F600D211D822F762F6A2F11249F575E
:105A600050409AF0F1F088234AF0EE0FFF1FBB1F61
:105A7000661F771F881F91505040A9F79E3F510520
:105A800080F00C945B2D0C94A62D5F3FE4F3983EC0
:105A9000D4F3869577956795B795F795E7959F5FCA
:105AA000C1F7FE2B880F911D9695879597F908955C
:105AB00099278827089597F99F6780E870E060E04C
:105AC00008959FEF80EC089500240A941616170697
:105AD00018060906089500240A94121613061406DF
