:020000040000FA
:100000000C94420C0C94730C0C94730C0C94730CA5
:100010000C94730C0C94730C0C94730C0C94730C64
:100020000C94730C0C94730C0C94730C0C94730C54
:100030000C94730C0C9487160C94730C0C94730C26
:100040000C94730C0C94730C0C94730C0C94730C34
:100050000C94730C0C94730C0C94730C0C943D1650
:100060000C94730C0C94730C0C94730C0C94730C14
:100070000C94730C0C94730C0C94730C0C94730C04
:100080000C94730C0C94730C0C94730C0C94730CF4
:100090000C94730C0C94730C0C94730C0C94E71666
:1000A0000C94730C0C94730C0C94730C0C94730CD4
:1000B0000C94730C0C94730C0C94730C0C94730CC4
:1000C0000C94730C0C94730C0C94730C0C94730CB4
:1000D0000C94730C0C94730C0C94730C0C94730CA4
:1000E0000C94730C0C94D40C0C94CF150C94440FFA
:1000F0000C94FC120C94220E0C94E4120C94D01567
:100100000C944F0F0C9499140C94B90C0C942D0E64
:100110000C94CB0C0C94FE0C0C94CF110C94BF0CD3
:100120000C943D0F0C94EC0C0C941B0F0C94390E9A
:100130000C942A0E0C94CE0C0C94E60C0C94DE0C51
:100140000C94760C0C94A80E0C94EA110C94CA1220
:100150000C942A0F0C9401130C94F40C0C94FF12C1
:100160000C941F130C94F00C0C94260E0C94FA0CA7
:100170000C94D80C0C94F90C0C940B180C941A0FCA
:100180000C94A8150C94C30C0C94750C0C94D315FA
:100190000C94F0120C94E20C0C94C70C001010009C
:1001A000FE0A06A7089500FFFE0EFE0BFE101020AB
:1001B0001000FEAAAA00018000000180004A51EA56
:1001C000505A51C99E00018000000180000001804A
:1001D0000055551010201000FEAAAA000180000052
:1001E0000180003993C252325F8A527193800000BD
:1001F0000180000001800055551010201000FEAA5B
:10020000AA00018000000180003BA5C124311989AA
:1002100024712580000001800000018000555510E8
:1002200010201000FEAAAA00018000000180007BBF
:10023000A5C1247919C1247925800000018000001E
:1002400001800055551010201000FEAAAA00018060
:10025000000001800079BFC2487A49C2487989808C
:100260000000018000000180005555101020100092
:10027000FEAAAA00018000000180007A4DC2527BD4
:1002800053C2D67A4F8000000180000001800055E3
:10029000551010201000FEAAAA0001800000018065
:1002A0000031A5CA287A31CA2849A58000000180FA
:1002B000000001800055551010201000FEAAAA0071
:1002C0000180000001800073D1CA1073D1CA10737D
:1002D000DF800000018000000180005555101020D3
:1002E0001000FEAAAA00018000000180001E3991C2
:1002F000401E3191081E71800000018000000180C5
:100300000055551010201000FEAAAA000180000020
:1003100001800022F9A2203E21A22022218000009B
:100320000180000001800055551010201000FEAA29
:10033000AA000180000001800020F9A08020F9A01F
:10034000803E818000000180000001800055551032
:1003500010201000FEAAAA000180000001800022E7
:10036000F9A22022219420082180000001800000B1
:1003700001800055551010201000FEAAAA0001802F
:1003800000000180003EF9A0803EF9A0802081801D
:100390000000018000000180005555101020100061
:1003A000FEAAAA00018000000180001EF1A08820A2
:1003B000F1A0901E8980000001800000018000559E
:1003C000551010201000FEAAAA0001800000018034
:1003D000001E71A0881C8982883C71800000018009
:1003E000000001800055551010201000FEAAAA0040
:1003F000018000000180001EF9A0201C2182203C09
:10040000F980000001800000018000555510102087
:100410001000FEAAAA0001800000018000391DA57D
:1004200010251DA51039DD8000000180000001802D
:100430000055551010201000FEAAAA0001800000EF
:100440000180007189CA184A09CA08719D8000009C
:100450000180000001800055551010201000FEAAF8
:10046000AA00018000000180007199CA044A09CAEB
:1004700010719D8000000180000001800055551022
:1004800010201000FEAAAA00018000000180007167
:1004900099CA044A19CA04719980000001800000B9
:1004A00001800055551010201000FEAAAA000180FE
:1004B00000000180007185CA0C4A15CA1C71858034
:1004C0000000018000000180005555101020100030
:1004D000FEAAAA00018000000180004993EA546A44
:1004E00059DBD44A53800000018000000180005590
:1004F000551010201000FEAAAA0001800000018003
:10050000003453C29A3117891271138000000180A0
:10051000000001800055551010201000FEAAAA000E
:10052000018000000180007BB9C1247939C12479A0
:100530003980000001800000018000555510102016
:100540001000FEAAAA00018000000180003325C42B
:10055000B447ADC4A434A580000001800000018030
:100560000055551010201000FEAAAA0001800000BE
:100570000180003E89A0D83EA9A0883E8980000065
:100580000180000001800055551010201000FEAAC7
:10059000AA00018000000180003A5DC252325D8AEB
:1005A00052719D80000001800000018000555510AF
:1005B00010201000FEAAAA0001800000018000792E
:1005C000CFC2107991C0507B8F8000000180000065
:1005D00001800055551010201000FEAAAA000180CD
:1005E00000000180001E7190801E61901010E1805B
:1005F00000000180000001800055551010201000FF
:10060000FEAAAA00018000000180000E71908016F1
:100610006192100EE1800000018000000180005511
:10062000551010201000FEAAAA00018000000180D1
:10063000001C7192801C61941012E1800000018006
:10064000000001800055551010201000FEAAAA00DD
:100650000180000001800012719280126192100CE2
:10066000E18000000180000001800055550000007D
:1006700008000E010A0A08040080808080808080C3
:1006800000808005040408020888888888060A0A11
:10069000080100242424FC4848FC909090070A0A92
:1006A000080100107C9290701C12927C10070A0ABC
:1006B0000801006294946810102C52528C070A0AA8
:1006C0000801003844442830528A848C72010404A2
:1006D00008040880808080030C0C0803FF20404041
:1006E000808080808080404020030C0C0802FF80C6
:1006F000404020202020202040408007070708019C
:100700000110925438549210070707080101101085
:1007100010FE1010100204040803FEC040408004C4
:100720000101080204F0020202080300C0C0060A28
:100730000A08010004040810102020408080060AE6
:100740000A08010030488484848484844830050A7F
:100750000A0802002060A0202020202020F8060A9D
:100760000A080100788484041820408080FC060A6E
:100770000A08010078848404380404848478060A12
:100780000A080100081828488888FC080808060A92
:100790000A080100FC808080F80404048478060ABA
:1007A0000A08010038408080F88484848478060A2E
:1007B0000A080100FC040408080810101010060ABA
:1007C0000A08010078848484788484848478060A02
:1007D0000A080100788484847C04040408700207F9
:1007E00007080301C0C0000000C0C00209090803D7
:1007F000FFC0C0000000C040408005090908020099
:10080000081020408040201008060505080102FC61
:10081000000000FC050909080100804020100810B4
:10082000204080060A0A0801007884840408101019
:10083000001010060A0A080100384494ACA4A4A4CD
:100840009C403C060A0A0801003048488484FC8425
:10085000848484060A0A080100F8848484F8848465
:100860008484F8060A0A08010078848480808080E5
:10087000848478060A0A080100F0888484848484C9
:100880008488F0060A0A080100FC808080F88080D5
:100890008080FC060A0A080100FC808080F88080C5
:1008A000808080060A0A08010078848480809C8405
:1008B000848C74060A0A08010084848484FC84847D
:1008C000848484050A0A080200F8202020202020C1
:1008D0002020F8070A0A0801003E0808080808084E
:1008E000888870060A0A080100848890A0C0C0A009
:1008F000908884060A0A08010080808080808080B9
:100900008080FC060A0A0801008484CCCCB4B4843C
:10091000848484060A0A08010084C4C4A4A49494AC
:100920008C8C84060A0A0801007884848484848478
:10093000848478060A0A080100F8848484F8808098
:10094000808080070B0B0801FF7884848484848472
:10095000B4CC7806060A0A080100F8848484F8906A
:1009600088888484060A0A080100788484806018D4
:1009700004848478070A0A080100FE101010101081
:1009800010101010060A0A080100848484848484EC
:1009900084848478070A0A080100828282444444DD
:1009A00028281010060A0A08010084848484B4B43C
:1009B000CCCC8484060A0A0801008484484830307C
:1009C00048488484070A0A080100828244442810A7
:1009D00010101010060A0A080100FC040408102078
:1009E000408080FC030C0C0804FFE0808080808045
:1009F0008080808080E0060A0A0801008080402014
:100A0000201010080404030C0C0801FFE020202033
:100A100020202020202020E0060303080109304880
:100A2000840701010801FFFE03030308020A804056
:100A3000200608080801007884047C84848C7406ED
:100A40000B0B080100808080B8C484848484C4B8FF
:100A50000608080801007884808080808478060B6E
:100A60000B080100040404748C848484848C740650
:100A70000808080100788484FC80808478050B0BCA
:100A800008010018202020F8202020202020060B1C
:100A90000B0801FE04748888887040788484780686
:100AA0000B0B080100808080B8C484848484848413
:100AB000050B0B08020020200060202020202020B1
:100AC000F8050D0D0801FE080800180808080808B8
:100AD00008089060060B0B0801008080808890A0B9
:100AE000C0A0908884050B0B080200602020202005
:100AF0002020202020F8070808080100EC9292929C
:100B000092929292060808080100B8C484848484F2
:100B100084840608080801007884848484848478A6
:100B2000060A0A0801FEB8C484848484C4B880809C
:100B3000060A0A0801FE748C848484848C7404047C
:100B4000060808080100B8C48480808080800608F8
:100B5000080801007884806018048478050A0A086F
:100B60000100202020F82020202020180608080856
:100B700001008484848484848C740608080801003D
:100B8000848484484848303007080808010082926D
:100B900092929292926C0608080801008484483070
:100BA00030488484060A0A0801FE84848484844CC4
:100BB00034040478060808080100FC0408102040EA
:100BC00080FC030C0C0803FF608080404080804064
:100BD00040808060010E0E0804FE8080808080804E
:100BE0008080808080808080030C0C0802FFC02001
:100BF000204040202040402020C007030308010877
:100C000062928C1010201000FEAAAA000180000041
:100C100001800073D1CA104BD1CA1073DF8000006D
:100C20000180000001800055551010201000FEAA20
:100C3000AA0001800000018000719DCA5273D3C2D6
:100C400052425D8000000180000001800055551077
:100C500010201000FEAAAA000180000001800049B7
:100C60009DCA527A5DCA50499180000001800000FF
:100C700001800055551010201000FEAAAA00018026
:100C800000000180007393CA52739FCA12721380CE
:100C90000000018000000180005555101020100058
:100CA000FEAAAA00018000000180004B93EA525B7B
:100CB0009FCA524B938000000180000001800055C4
:100CC000551010201000FEAAAA000180000001802B
:100CD0000074B9A6A425A5A4A474B980000001805D
:100CE000000001800055551010201000FEAAAA0037
:100CF000018000000180004BD1EA105BD1CA104B8B
:100D0000DF80000001800000018000555510102098
:100D10001000FEAAAA000180000001800039CDC2A7
:100D200012319F885273938000000180000001807F
:100D30000055551010201000FEAAAA0001800000E6
:100D400001800079CDC212799FC0527B9380000050
:100D50000180000001800055551010201000FEAAEF
:100D6000AA00018000000180004B9DC9207919C9AB
:100D700004493980000001800000018000555510B1
:100D800010201000FEAAAA000180000001800025AA
:100D9000DDA4843C85A484249980000001800000A7
:100DA00001800055551010201000FEAAAA000180F5
:100DB000000001800045CDC4904489A8841099802A
:100DC0000000018000000180005555101020100027
:100DD000FEAAAA0001800000018000721DCA1272E2
:100DE00013C21243DD800000018000000180005525
:100DF000551010201000FEAAAA00018000000180FA
:100E0000007213CA127213C21243CD800000018017
:100E1000000001800055551010201000FEAAAA0005
:100E2000018000000180000E2189200E218A200906
:100E30002180000001800000018000555510102025
:100E40001000FEAAAA000180000001800039DDC266
:100E500002318D8850739F80000001800000018066
:100E60000055551010201000FEAAAA0001800000B5
:100E700001800039DDC202318D8842739D800000FF
:100E80000180000001800055551010201000FEAABE
:100E9000AA000180000001800071CFCA104A0DCA6B
:100EA0000271DD80000001800000018000555510B6
:100EB00010201000FEAAAA0001800000018000722C
:100EC00045CA4C7245C244418F8000000180000039
:100ED00001800055551010201000FEAAAA000180C4
:100EE0000000018000725DCA42724DC250419F8075
:100EF00000000180000001800055551010201000F6
:100F0000FEAAAA00018000000180003B9DC12031A3
:100F100019890471398000000180000001800055AA
:100F2000551010201000FEAAAA00018000000180C8
:100F30000039D3C212421FC21239D380000001808F
:100F4000000001800055551010201000FEAAAA00D4
:100F5000018000000180002289B6882AA9A2D82237
:100F6000898000000180000001800055551010208C
:100F70001000FEAAAA00018000000180003B8DC283
:100F800052339F8A1272138000000180000001809A
:100F90000055551010201000FEAAAA000180000084
:100FA0000180007B8DC2527B9FC2127A13800000A9
:100FB0000180000001800055551010201000FEAA8D
:100FC000AA0001800000018000398FC250324D8A92
:100FD00042719D8000000180000001800055551085
:100FE00010201000FEAAAA0001800000018000333A
:100FF0009BC42225A394A2639B8000000180000073
:1010000001800055551010201000FEAAAA00018092
:10101000000001800039DDC20832098A0871DD80D4
:1010200000000180000001800055551010201000C4
:10103000FEAAAA000180000001800039DDC208413B
:1010400089C0483B9D800000018000000180005560
:10105000551010201000FEAAAA0001800000018097
:10106000000EF990200C2182201C218000000180BC
:10107000000001800055551010201000FEAAAA00A3
:101080000180000001800031CFCA104991C850335F
:101090008F80000001800000018000555510102055
:1010A0001000FEAAAA00018000000180001C8992A5
:1010B000D81CA99088108980000001800000018060
:1010C0000055551010201000FEAAAA000180000053
:1010D000018000338FCA507B91CA104A0F800000F4
:1010E00001800000018000555500000008000E013D
:1010F0000A0A080400808000808080808080800749
:101100000A0A08010010107C929090927C1010073F
:101110000A0A0801001C202020F82020207CC2069A
:1011200008080801018448784848784884070A0A72
:1011300008010082442810FE10FE101010010A0A57
:1011400008040080808080000080808080060A0A79
:10115000080100788480788484780484780402020A
:1011600008020C9090080A0A0800003C4299A5A1C8
:10117000A1A599423C050707080205700878887800
:1011800000F806090908010024244848904848242A
:1011900024060404080100FC0404041010201000BC
:1011A000FEAAAA000180003A63C25433C98A487279
:1011B0004980000001800003C180000001800055CB
:1011C00055080A0A0800003C42B9A5A5B9A9A542DC
:1011D0003C06010108010BFC03040408020A40A0BC
:1011E000A040070909080101101010FE101010009E
:1011F000FE050707080205708808708080F805075B
:101200000708020570880870088870030303080344
:101210000A204080080A0A0800FE42424242424236
:1012200066594080060C0C0801FF7CF4F4F4F47459
:1012300014141414141C020202080304C0C0030294
:10124000020802FE20C00307070802052060A02054
:10125000202020050707080205708888887000F89C
:1012600006090908010090904848244848909006D3
:101270000A0A08010044C4485050242C549C840697
:101280000A0A08010044C4485050283444889C0687
:101290000A0A080100C4244830D0242C549C840637
:1012A0000A0A080100101000101060848484780677
:1012B0000E0E080100601800003048488484FC8449
:1012C000848484060E0E080100186000003048482F
:1012D0008484FC84848484060E0E08010030480057
:1012E000003048488484FC84848484060E0E0801FF
:1012F00000649800003048488484FC848484840618
:101300000E0E080100484800003048488484FC84E0
:10131000848484060E0E08010030483000304848AE
:101320008484FC84848484070A0A0801003E509067
:1013300090FE909090909E060C0C0801FE7884849C
:10134000808080808484781060060E0E0801006022
:10135000180000FC808080F880808080FC060E0EE3
:1013600008010018600000FC808080F88080808088
:10137000FC060E0E08010030480000FC808080F85A
:1013800080808080FC060E0E08010048480000FCAA
:10139000808080F880808080FC050E0E080200604E
:1013A000180000F82020202020202020F8050E0E14
:1013B00008020030C00000F820202020202020203B
:1013C000F8050E0E08020060900000F82020202092
:1013D00020202020F8050E0E08020090900000F852
:1013E0002020202020202020F8070A0A080000786A
:1013F000444242F24242424478060E0E0801006422
:1014000098000084C4C4A4A494948C8C84060E0E0A
:1014100008010060180000788484848484848484B3
:1014200078060E0E08010018600000788484848419
:101430008484848478060E0E080100304800007809
:10144000848484848484848478060E0E0801006475
:1014500098000078848484848484848478060E0EC2
:10146000080100484800007884848484848484844B
:10147000780605050801028448304884060C0C08EB
:1014800001FF0474888C9494A4A4C444B880060E0C
:101490000E0801006018000084848484848484849D
:1014A0008478060E0E08010018600000848484848D
:1014B000848484848478060E0E080100304800007D
:1014C00084848484848484848478060E0E080100D5
:1014D0004848000084848484848484848478070E4B
:1014E0000E08010018600000828244442810101089
:1014F0001010060B0B0801008080F088848488F0AF
:10150000808080060A0A08010070888890B088846C
:1015100084A498060C0C080100601800007884046C
:101520007C84848C74060C0C080100186000007820
:1015300084047C84848C74060C0C08010030480000
:10154000007884047C84848C74060C0C080100648C
:101550009800007884047C84848C74060C0C080148
:1015600000484800007884047C84848C74060D0D47
:1015700008010030483000007884047C84848C7436
:101580000708080801007C92127E9090927C060A5F
:101590000A0801FE78848080808084781060060CC0
:1015A0000C08010060180000788484FC8080847836
:1015B000060C0C08010018600000788484FC808010
:1015C0008478060C0C08010030480000788484FC04
:1015D00080808478060C0C0801004848000078845C
:1015E00084FC80808478050C0C080200C030000068
:1015F00060202020202020F8050C0C08020030C0BC
:10160000000060202020202020F8050C0C0802009B
:101610006090000060202020202020F8050C0C089D
:1016200002009090000060202020202020F8060C6E
:101630000C08010064182844047C84848484847821
:10164000060C0C08010064980000B8C484848484EB
:101650008484060C0C0801006018000078848484DF
:1016600084848478060C0C080100186000007884DB
:10167000848484848478060C0C08010030480000BF
:101680007884848484848478060C0C08010064982F
:1016900000007884848484848478060C0C0801001B
:1016A0004848000078848484848484780607070886
:1016B0000101300000FC000030060A0A0801FF04A6
:1016C000788C9494A4A4C47880060C0C0801006063
:1016D0001800008484848484848C74060C0C0801B3
:1016E00000186000008484848484848C74060C0C4C
:1016F000080100304800008484848484848C74064B
:101700000C0C080100484800008484848484848C84
:1017100074060E0E0801FE18600000848484848420
:101720004C34040478050C0C0802FE8080F0888894
:101730008890A0C0808080060E0E0801FE484800F8
:101740000084848484844C34040478FFD0FFE0FF58
:10175000C1FFD13FC0FF14FFD23FC0FF14FFD0FF35
:10176000FE0200002100240027002A002D00300086
:10177000330001010000040107010A0100002200FA
:10178000250028002B002E0031003400020100004B
:10179000050108010B01000020002300260029009C
:1017A0002C002F0032000001000003010601090196
:1017B00005050505070508080808020202020A0ACD
:1017C00008080404040401010101010101010303EB
:1017D000030303030303040707070C0C0C0C0C0C96
:1017E0000C0C0202020206060606060606060B0B93
:1017F0000B0B0B0B0B0B01021020200808102040D4
:1018000010204080020102010804020101020408C4
:101810001020408080402010080402018004020152
:10182000804020100804020108040201010204089B
:1018300010204080010204081020408000000A0BA4
:1018400002090C0D0E08070304010000000000004F
:101850000000000000000000000000000000000088
:101860000000000000000000121110000000000045
:101870000000000000000000000000000000000068
:1018800000000B1811241FBECFEFD1E2DEBFCDBF89
:1018900000E00CBF12E0A0E0B2E0EAE5F3E400E013
:1018A0000BBF02C007900D92AE36B107D9F724E006
:1018B000AEE6B2E001C01D92AE3DB207E1F71CE01A
:1018C000C2E4DCE000E006C021970109802FFE01A0
:1018D0000E946721C134D10780E00807A9F70E9460
:1018E00026190C94AB210C940000089580E0089513
:1018F00096E0899FD0011124AF5CBB4F90967C93FA
:101900006E935F9791E091969C939197E0919E04DE
:10191000F0919F0490919D04992339F0309751F0F4
:10192000811108C080914D041994309719F05C968C
:101930008C91FACF08958150823108F05AC0E82F77
:10194000F0E08827E955F34F8F4F0C946721C70CBF
:10195000CB0CB90CBF0CC30CF90CCE0CD40CD80CAE
:10196000DE0CE20CE60CEC0CF00CF90CF40CFA0CAE
:10197000FE0C809180008F77809380000895809185
:1019800080008F7DF9CF80918000877FF5CF84B56F
:101990008F7784BD089584B58F7DFBCF8091B00093
:1019A0008F778093B00008958091B0008F7DF9CF3C
:1019B000809190008F77809390000895809190009F
:1019C0008F7DF9CF80919000877FF5CF8091A00027
:1019D0008F778093A00008958091A0008F7DF9CF2C
:1019E0008091A000877FF5CF809120018F77809331
:1019F00020010895809120018F7DF9CF80912001F1
:101A0000877FF5CFCF93DF93282F30E0F901E45C97
:101A1000F74E8491F901EA50F84ED491F901E0555E
:101A2000F84EC491CC23A1F081110E949B0CEC2FA5
:101A3000F0E0EE0FFF1FEA56F84EA591B491EC913D
:101A4000ED2381E090E009F480E0DF91CF910895EB
:101A500080E090E0FACF1F93CF93DF93282F30E000
:101A6000F901E45CF74E8491F901EA50F84ED49103
:101A7000F901E055F84EC491CC23A9F0162F81113D
:101A80000E949B0CEC2FF0E0EE0FFF1FE458F84E85
:101A9000A591B4918FB7F894EC91111108C0D0952D
:101AA000DE23DC938FBFDF91CF911F910895DE2B52
:101AB000F8CFCF93DF9390E0FC01EA50F84E2491E9
:101AC0008055984EFC0184918823C9F090E0880FDE
:101AD000991FFC01EE59F84EA591B491FC01E45810
:101AE000F84EC591D49161110DC09FB7F8948C91B7
:101AF000209582238C938881282328839FBFDF91A0
:101B0000CF910895623051F49FB7F8943C91822FA1
:101B1000809583238C93E8812E2BEFCF8FB7F89499
:101B2000EC912E2B2C938FBFEACF3FB7F894809186
:101B3000050490910604A0910704B091080426B50D
:101B4000A89B05C02F3F19F00196A11DB11D3FBFF5
:101B5000BA2FA92F982F8827BC01CD01620F711DC4
:101B6000811D911D42E0660F771F881F991F4A95BE
:101B7000D1F708952FB7F894609101047091020491
:101B800080910304909104042FBF08950F931F9335
:101B9000CF93DF93C82FD62F86E0C89FF001112482
:101BA000EF5CFB4F11A2878D90A181309105F1F080
:101BB00058F082309105F1F1039709F440C0DF91AC
:101BC000CF911F910F9108956623C9F361E070E0F2
:101BD0008C2F0E94780C0E94BA0D60938904709338
:101BE0008A0480938B0490938C04E9CF0E94BA0DF1
:101BF0000091890410918A0420918B0430918C0407
:101C0000AB01BC01401B510B620B730B80919B0419
:101C100090919C04B0E0A0E084179507A607B70751
:101C200048F462E070E08C2FDF91CF911F910F910B
:101C30000C94780C63E070E0D111C1CFF4CF70E068
:101C400060E0F1CF862F642F0C94590D862F642FFE
:101C50000C942B0D862F0C94020DE091A103F091B2
:101C6000A203309729F010929C0310929B031994C1
:101C70000895CF93DF93AC01E0919F03F091A0030F
:101C80003097F1F090919E0380919D039817C0F0DA
:101C900090E0292F30E02617370754F4D901A95FC7
:101CA000BC4F240F351FE90128812C939F5FF1CF92
:101CB00010929E0360939D03CB01DF91CF91199405
:101CC000DF91CF9108959091080289130DC0E1E64C
:101CD000F7E1E4919FEF90930802E230E1F038F4ED
:101CE000EE2381F0E13089F060E00C942B0DE430BC
:101CF00049F110F1E530C1F7909173009D7F909309
:101D00007300F2CF10926E00EFCF90916F009D7F25
:101D100090936F00E9CF909170009D7F9093700039
:101D200091E09093B0009091B100987F946090936F
:101D3000B1001092B300D8CF909171009D7F909325
:101D40007100D2CF909172009D7F90937200CCCFA2
:101D5000AF92BF92CF92DF92EF92FF920F931F93B9
:101D6000CF93DF936C017B018B01040F151FEB01F7
:101D70005E01AE18BF08C017D10759F06991D601AE
:101D8000ED91FC910190F081E02DC6011995892B10
:101D900079F7C501DF91CF911F910F91FF90EF90DF
:101DA000DF90CF90BF90AF90089520914D03260F04
:101DB0003327331F21323105ECF420917103FC01EC
:101DC00090E080E0243069F082E00895A0914D0316
:101DD0002191AC01435D5C4FA40FB52FB11D2C9335
:101DE0000196861798F380914D03680F60934D0319
:101DF00080E0089581E008951092710381E080935E
:101E000073031092720361E084E10E942B0D61E084
:101E100085E10E942B0DE9EBF0E080818E7F8083CD
:101E200080818D7F808388E48093B80085E48093EF
:101E3000BC0008950895E0919E0380919D03E817EA
:101E400030F4F0E0E95FFC4F808190E008958FEF7F
:101E50009FEF089590919E0380919D032FEF3FEF98
:101E6000981748F4E92FF0E0E95FFC4F208130E05B
:101E70009F5F90939E03C901089580919D03909167
:101E80009E03891B990B0895CF93DF93CB01EA0141
:101E9000642F0E94D50ECE01DF91CF910895CF938C
:101EA000DF931F92CDB7DEB7698361E0CE01019663
:101EB0000E94D50E81E090E00F90DF91CF910895C0
:101EC000DC011696ED91FC91179712968C91481BA8
:101ED000477081E090E001C0880F4A95EAF7E60F6D
:101EE000F11D3081222319F0832B80830895809582
:101EF0008323FBCFFB014181DC0112962C911297C9
:101F0000421768F013962C911397241740F06081C4
:101F100015962C91621718F424810C94600F089583
:101F2000FC0180819281980F92832181921760F445
:101F300094819F5F94839381890F821710F08FEFB4
:101F4000820F838381E0089580E00895FC0112826E
:101F500080818150838314820895DB01ED91FC918F
:101F600019940F931F93CF93DF931F92CDB7DEB7D2
:101F70000091A6041091A704E091D504F091D60435
:101F800082E0199530E020E04AE0B80184EA94E06C
:101F90000E94AD0F182FE091D504F091D60483E094
:101FA0001995E091D504F091D60480E0199511239C
:101FB000B9F16091A6047091A7049E012F5F3F4F75
:101FC00046E484EA94E00E94AD0F89818093A404E2
:101FD0006091A6047091A7049E012F5F3F4F47E4D4
:101FE00084EA94E00E94AD0F89818093A5046091FA
:101FF000A6047091A70430E020E048E484EA94E06D
:102000000E94AD0F8093AF046091A6047091A70465
:1020100027ED34E047E184EA94E00E94AD0F11E03F
:10202000812F0F90DF91CF911F910F9108950B9603
:10203000FC01849108950A96FC0184910895FC01A5
:10204000849108950E941F10882321F0823011F09E
:1020500083E0089586E00895FC01E60FF11D849168
:1020600090E0982F88273196E4918E0F911D089566
:1020700068E00C942C1066E00C942C105F926F9228
:102080007F928F929F92AF92BF92CF92DF92EF9208
:10209000FF920F931F93CF93DF93EC01E62EF42E64
:1020A000C22E0C811D81C8010E941F10D82E8C8168
:1020B0009D810E942210982E21E0AA24AA94D21277
:1020C00002C02FE0A22E8C819D810E941B10D82E71
:1020D0008C819D810E941710B82E8C819D810E9459
:1020E0003810E0E6EC1578F4009769F0080F191F36
:1020F00091E6D92EBC14C0F4188A1B8A1C8A198A4E
:102100001A8A80E0A0C08C819D810E943B10F0E47F
:10211000FC1538F4009729F0080F191F81E4D82E18
:10212000E9CF0F5E1F4FE6CFBD1430F3892D90E04D
:10213000F80124912F3F31F40F5F1F4FBD14E1F2DE
:10214000D394F6CFCD1072C08C819D810E941F1058
:1021500098012F5F3F4FF801882319F0823009F072
:102160004EC084918B8BF90124912C8BF80133960E
:10217000E491E88BF8013496E491E98BF801359607
:10218000E491EA8B0115110509F4BBCF8C819D8187
:102190000E9422103C89F31A9A89F91A9FEF930F33
:1021A0009F0D2CA94EA94F1508F449C0921718F499
:1021B0009F1508F047C02B899989E90E9FEF920F70
:1021C0009E0D4BA95DA95E1508F44DC0941718F437
:1021D0009E1508F037C0080F111D295F722E7694E6
:1021E000769476946F2C630E5E01FCE1AF0EB11C09
:1021F000872C912CF61431F15E2C68014AC0849131
:10220000982F9F7092509A8B82958F70898BF901CD
:102210002491822F8F708C8B22952F702B8BF8013D
:102220003296E491E295EF70E88BACCF3296E49170
:10223000EA21E80FF92FF11D0E0F1F1F7FCF921714
:1022400008F0B6CF8889DF91CF911F910F91FF9051
:10225000EF90DF90CF90BF90AF909F908F907F9046
:102260006F905F900895941708F0B2CFEBCFF6010E
:1022700084916A817B815C8EFD8E1F8E8E8F95018D
:102280004BE3CE010E94AD0FFFEFCF1ADF0A28E02B
:10229000520E8C2D801B871550F3080D191DF394D9
:1022A000A9CF2EE93FE0009709F40895F90131978D
:1022B000F1F70197F8CF90E0FC01EE0FFF1FE95016
:1022C000FD4F0190F081E02D81519D4FDC018C91FB
:1022D0009081662319F0892B808308958095892346
:1022E000FBCF860F911DFC0183A18F3F19F0642F56
:1022F0000C942B0D08950F931F93CF938C01C62F31
:102300008FB78093EE02F894617080E00E945B11B9
:10231000C1FB662760F981E00E945B11C2FB662762
:1023200060F982E00E945B11C3FB662760F983E0DD
:102330000E945B11C4FB662760F984E00E945B1178
:10234000C5FB662760F985E00E945B11C6FB662726
:1023500060F986E00E945B116C2F661F6627661F7E
:1023600087E00E945B118091EE028FBF41E064E044
:10237000C8010E94711184E090E00197F1F740E0FC
:1023800064E0C8010E94711188E290E0FC0131977D
:10239000F1F70197F1F7CF911F910F910895EF9207
:1023A000FF921F93CF93DF93EC01142F79016150BB
:1023B000673008F0E8C0E62FF0E08827ED51FE4EC8
:1023C0008F4F0C946721EA11FF12CA120113E41215
:1023D000F012FC1288A590E0FC01E055F84EE49163
:1023E000F0E0EE0FFF1FE458F84E25913491309342
:1023F000F8022093F702FC01EA50F84EE491E093D2
:10240000EF0289A590E0FC01E055F84EE491F0E080
:10241000EE0FFF1FE458F84E259134913093FA02E5
:102420002093F902FC01EA50F84EE491E093F002A7
:102430008AA590E0FC01E055F84EE491F0E0EE0F43
:10244000FF1FE458F84E259134913093FC022093FD
:10245000FB02FC01EA50F84EE491E093F1028BA5F7
:1024600090E0FC01E055F84EE491F0E0EE0FFF1F24
:10247000E458F84E259134913093FE022093FD02EA
:10248000FC01EA50F84EE491E093F2028CA590E052
:10249000FC01E055F84EE491F0E0EE0FFF1FE45828
:1024A000F84E25913491309300032093FF02FC01F4
:1024B000EA50F84EE491E093F3028DA590E0FC0120
:1024C000E055F84EE491F0E0EE0FFF1FE458F84EAF
:1024D000259134913093020320930103FC01EA50CB
:1024E000F84EE491E093F4028EA590E0FC01E055F3
:1024F000F84EE491F0E0EE0FFF1FE458F84E2591FE
:1025000034913093040320930303FC01EA50F84E06
:10251000E491E093F5028FA590E0FC01E055F84EC0
:10252000E491F0E0EE0FFF1FE458F84E259134914E
:102530003093060320930503FC01EA50F84EE49122
:10254000E093F60288A98F3F41F061E00E94590DA7
:1025500040E06DE0CE010E9471117E0183E2E80E41
:10256000F11CE096F70181917F018F3F49F061E016
:102570000E94590D61E0F701319780810E942B0D77
:10258000CE15DF0579F781E0DF91CF911F91FF90A4
:10259000EF90089541E0112319F0113059F440E013
:1025A00062E0CE010E94711141E063E0CE010E9421
:1025B0007111E9CF41E0123009F040E062E0CE0154
:1025C0000E94711140E0F1CF642FCE010E947B1177
:1025D000DACFF70161917F01CE010E947B1111508A
:1025E0001111F7CFD0CFF7016491CE010E947B117A
:1025F000FFEFEF1AFF0A11501111F5CFC4CF61E0C0
:10260000D5CF8BA18F3F09F4BECF60E0CFCFDB01E8
:102610001496ED91FC9130E020E065E01994DB0127
:102620001496ED91FC9130E020E062E01994DB011A
:102630001496ED91FC9130E020E063E019949F92B4
:10264000AF92BF92CF92DF92EF92FF920F931F93C0
:10265000CF93DF937C018B01942E69018AE04817A8
:1026600039F195E1491709F486C0F801C281D38197
:10267000F2E39F1609F431C1F91508F4D3C085E1DE
:10268000981609F42FC197E1991609F43BC1A4E10A
:102690009A12F7C0EE81FF818D818E0F9F2F911DC1
:1026A00011928E179F07E1F7CE010E94A60FE9C095
:1026B000DB011496ED91FC9130E020E04FEF61E0FA
:1026C000C701199580E09BE4A92E97E1B92EF50189
:1026D000C491811110C081E0CF3F49F04C2FB80167
:1026E000C7010E940713882309F4BFCF80E0BFEF22
:1026F000AB1ABB0AECCF4FEFCF3F89F3CE3F09F4C3
:10270000B4CFC03F98F7C03E38F04C2F4F70B8019F
:10271000C7010E940F13EACFC03D38F04C2F4F7015
:10272000B801C7010E941713E1CFC03CF8F0D801EF
:102730001496ED91FC9130E020E040E064E0C701A8
:102740001995C295C07FCE5FD0E0CE010E94511195
:10275000D8011496ED91FC9130E020E041E064E076
:10276000C7011995CE010E945111C0CFC7FDBECF40
:102770008C2F90E0F8CFFB01C281D38140E0C701EC
:102780000E940F1342E0B801C7010E9417134C8149
:10279000486BB801C7010E94071340E4B801C701A4
:1027A0000E94071341E0B801C7010E940F132E8158
:1027B0003F81D8011496ED91FC9140E466E0C70199
:1027C000199540E0B801C7010E94171340E0B80115
:1027D000C7010E940F1341E0B801C7010E941713FF
:1027E0004C81486BB801C7010E94071340E4B8014F
:1027F000C7010E94071341E0B801C7010E940F13EF
:102800002E813F81205C3F4FD8011496ED91FC91C1
:1028100040E466E0C701199540E0B801C7010E9495
:10282000171323CFB6E49B1609F47BC0E7E49E168A
:1028300009F47BC0FBE39F1224C0D60111969C9142
:10284000119713968C9138E0390F813031F0833035
:1028500011F0392F02C0392F985021E04B814917D0
:1028600008F420E041E0391708F040E091E05A8197
:10287000351708F490E0322F342B932379F4242376
:1028800069F481E0DF91CF911F910F91FF90EF905C
:10289000DF90CF90BF90AF909F900895F601128186
:1028A00000E0F12C843048F490E0FC01E55DFD4F40
:1028B000F080895D9D4FDC010C9117FF04C0B601CB
:1028C000CE010E947A0FF60180818F0D8083818175
:1028D000800F8183110F89F7D4CFB601CE010E94FA
:1028E0007A0FCFCFCE010E94900F882359F2EE814C
:1028F000FF818D818E0F9F2F911D11928E179F0743
:10290000E1F7BFCFD6011C928A8111968C93119763
:102910008D81815012968C9312978B8113968C9394
:10292000B0CF8D81F6018083ACCF8981D6018C93A5
:10293000A8CF80919D0390919E03891B990B0297CC
:102940004CF061E086E10E942B0D89E094E00E944A
:102950002A0FEFCF08952F923F924F925F926F927E
:102960007F928F929F92AF92BF92CF92DF92EF921F
:10297000FF920F931F93CF93DF938091DD0481111A
:1029800005C081E08093DD040E94B10FC091A604D0
:10299000D091A704E091D504F091D60482E0199576
:1029A000E091D504F091D60481E0199530E020E063
:1029B00044E1BE0184EA94E00E94AD0F27ED34E0CB
:1029C00047E1BE0184EA94E00E94AD0FE091D50496
:1029D000F091D60480E019950CE911E036E7E32E7A
:1029E0003CE0F32E4AEA442E41E0542E5BEA652E89
:1029F00051E0752E6CEAC62E61E0D62E71EAA72E44
:102A000071E0B72EE8EA8E2EE1E09E2E8091A804B8
:102A10009091A9048C59914069F11093A9040093F5
:102A2000A8048091BB0481117CC0F501849180933E
:102A3000BC04F40184918093BD048091BC04082EF1
:102A4000000C990B2091BD04821B910927FD9395E1
:102A50002091BE04203441F0829FC001112426E061
:102A6000969587952A95E1F78093BF04F092BA0472
:102A7000E092B904E091B904F091BA0484EA94E0D8
:102A800019959FE0292E280EC7EDD3E0312C29910E
:102A9000211156C0E091B204F091B304309719F0BF
:102AA00084EA94E01995C091A604D091A704E0911E
:102AB000D504F091D60482E01995E091D504F09107
:102AC000D60481E0199530E020E045E1BE0184EABA
:102AD00094E00E94AD0F382E882341F027ED34E0BA
:102AE00047E1BE0184EA94E00E94AD0FE091D50475
:102AF000F091D60480E01995311088CFDF91CF9105
:102B00001F910F91FF90EF90DF90CF90BF90AF900B
:102B10009F908F907F906F905F904F903F902F90FD
:102B20000895813031F4F30184918093BC04F6015F
:102B300081CFE9EAF1E084918093BC04F2017ACF7D
:102B4000422D632D84EA94E00E943E10380E9FCF00
:102B5000DF92EF92FF920F931F93CF93DF93EC01DD
:102B6000D62E1CAD0BAD7C0184E0E80EF11CE98D86
:102B7000FA8DC7011995412F480F2D2D602FC701E0
:102B80000E943E109BAD890F8BAF81E090E0DF91FA
:102B9000CF911F910F91FF90EF90DF9008950895CE
:102BA00090E080E008958091C303882371F049E0AC
:102BB00050E067E572E089E094E00E94440F60E62F
:102BC00072E083EC93E00C94A4210895CF93DF93FB
:102BD00085ED8093BC008091290390912A03A091F8
:102BE0002B03B0912C030796A11DB11D23E0B695D0
:102BF000A795979587952A95D1F72091BC0024FD3C
:102C000003C01092710336C04091290350912A03EA
:102C100060912B0370912C03452B462B472B69F3B6
:102C20000097A105B10541F02AE22A95F1F700C00D
:102C30000197A109B109E1CF8091280391E0909318
:102C400027038823B9F0C091B800D091BA008091D1
:102C5000BC008A7B8093BC0060E084E10E942B0D65
:102C600060E085E10E942B0D0E94FC0ED093BA001B
:102C7000C093B800DF91CF9108951F920F920FB6C5
:102C80000F9211242F933F938F939F93AF93BF93F2
:102C90008091010490910204A0910304B091040476
:102CA0003091000423E0230F2D3758F50196A11D24
:102CB000B11D209300048093010490930204A0931B
:102CC0000304B09304048091050490910604A0913C
:102CD0000704B09108040196A11DB11D809305045D
:102CE00090930604A0930704B0930804BF91AF919A
:102CF0009F918F913F912F910F900FBE0F901F903A
:102D0000189526E8230F0296A11DB11DD2CF1F9260
:102D10000F920FB60F9211240BB60F922F933F9381
:102D20004F935F936F937F938F939F93AF93BF93D3
:102D3000EF93FF938091B7039091B803A091B903EB
:102D4000B091BA03892B8A2B8B2BE1F19091A603CA
:102D5000E091A703F091A803808189278083809167
:102D6000B7039091B803A091B903B091BA031816B4
:102D700019061A061B069CF48091B7039091B803BC
:102D8000A091B903B091BA030197A109B109809349
:102D9000B7039093B803A093B903B093BA03FF911C
:102DA000EF91BF91AF919F918F917F916F915F91C3
:102DB0004F913F912F910F900BBE0F900FBE0F9030
:102DC0001F901895809108020E94630EE8CF1F9211
:102DD0000F920FB60F9211240BB60F922F933F93C1
:102DE0004F935F936F937F938F939F93AF93BF9313
:102DF000EF93FF938091B900887F803609F44DC02E
:102E000008F040C0883209F4A9C028F5803109F4DF
:102E10009DC0C8F4882309F4FBC0883009F496C02B
:102E2000FF91EF91BF91AF919F918F917F916F91A2
:102E30005F914F913F912F910F900BBE0F900FBE5E
:102E40000F901F901895883109F488C0803241F79F
:102E50008093700314C0803409F49DC040F4803323
:102E6000B9F38833E9F68093700385ECB0C0803500
:102E700009F485C0883509F496C0883489F60E9423
:102E8000E615CECF883909F48CC038F5883729F09B
:102E900050F4883611F0803719F683E0809371037F
:102EA00010926F0357C0883809F47BC0803919F03D
:102EB000803809F0B5CF80916F03803208F071C07F
:102EC000E0916F0381E08E0F80936F038091BB00D0
:102ED000F0E0E15BFC4F80833DC0803B39F0E0F4E3
:102EE000803A09F479C0883A09F09ACF84E0809357
:102EF000710310924E0310924D03E0919903F091EB
:102F00009A03199580914D0381110FC081E0809340
:102F10004D0310922D0309C0803C09F4A6CF883CD4
:102F200009F4A3CF883B09F07BCFE0914E0381E009
:102F30008E0F80934E03F0E0E35DFC4F8081809321
:102F4000BB0090914E0380914D0329C08091960360
:102F50008093BB0085EC8093BC0062CF9091950379
:102F600080919403981758F5E091950381E08E0FB6
:102F700080939503F0E0EC58FC4F8081E9CFE0911D
:102F8000950381E08E0F809395038091BB00F0E064
:102F9000EC58FC4F8083909195038091940398178F
:102FA000C8F285E8D8CFE091950381E08E0F809339
:102FB00095038091BB00F0E0EC58FC4F808380913A
:102FC000730381115CCF81E08093720384EA809364
:102FD000BC001092710324CF85EC8093BC0010924A
:102FE000710380916F03803230F4E0916F03F0E061
:102FF000E15BFC4F108260916F0370E0E0919703FA
:10300000F09198038FE493E0199510926F0308CF25
:103010001092700334CF10920C0410920B0488EEBF
:1030200093E0A0E0B0E080930D0490930E04A09391
:103030000F04B093100483E392E090930A0480930A
:1030400009041092A3041092A2048FE492E09093DA
:10305000A1048093A0041092DB041092DC0410926F
:10306000DD041092A9041092A8041092AB041092EF
:10307000AA041092AD0481E08093AC0482E28093B4
:10308000AE041092B3041092B204E7ECF4E08FEFB8
:10309000819394E0E53DF907D9F791E09093C4045A
:1030A00026E73CE03093BA042093B9049093BB0424
:1030B0001092BC041092BD0490E49093BE04109250
:1030C000BF0425E73CE03093D6042093D50429E0E3
:1030D00032E03093A7042093A60498E09093CC04A8
:1030E00099E09093CD049AE09093CE049BE0909366
:1030F000CF0494E09093D00495E09093D10496E0AF
:103100009093D20497E09093D3049AE39093CB04E6
:1031100096E39093C90497E39093CA0499E390933C
:10312000C80498E39093D4048093C7040E94B10F1D
:103130008FE492E09093A1048093A0041092330452
:1031400010923704109236041092380485E492E00D
:103150009093320480933104EDE4F4E089E894E044
:10316000108214821382158236968E179F07C1F73C
:1031700083E192E090939404809393048FE092E033
:10318000909396048093950484E0809397048093B1
:10319000980487E192E090939204809391048AE0EE
:1031A00090E090939A048093990484EF91E0909337
:1031B0009C0480939B0410929F0410929E04109292
:1031C0008D0410928E0410928F041092900410922D
:1031D0009D0482E190E09093160480931504109270
:1031E0001804109217041092190410921A041092E5
:1031F0001B0410921C0410921D0410921E041092C5
:103200001F041092200410922104109222041092A4
:103210002304109224041092260410922504109284
:1032200028041092270410922A0410922904109264
:103230002C0410922B0410922D0410922E04109244
:103240002F041092300461E00C94590DCF93DF935A
:1032500000D01F921F92CDB7DEB7789484B58260FC
:1032600084BD84B5816084BD85B5826085BD85B52A
:10327000816085BD80916E00816080936E001092A8
:103280008100809181008260809381008091810023
:1032900081608093810080918000816080938000B4
:1032A0008091B10084608093B1008091B000816012
:1032B0008093B00080919100826080939100809112
:1032C0009100816080939100809190008160809353
:1032D00090008091A10082608093A1008091A10064
:1032E00081608093A1008091A00081608093A00004
:1032F0008091210182608093210180912101816070
:103300008093210180912001816080932001809130
:103310007A00846080937A0080917A008260809342
:103320007A0080917A00816080937A0080917A009F
:10333000806880937A001092C10081E08093DD0460
:103340000E94B10F61E086E10E94590D61E087E1C2
:103350000E94590D61E088E10E94590D61E082E10F
:103360000E94590D10929E0310929D0310929C038F
:1033700010929B030E94FC0E8DE29EE090939A03B4
:103380008093990389E39EE0909398038093970339
:1033900080E18093BA0089E994E19093A00380933F
:1033A0009F0383ED95E19093A2038093A103809105
:1033B000AF04883209F083C08FEF8093C40461E0CA
:1033C0008DE00E94590D61E08DE00E942B0D60E6BA
:1033D00072E083EC93E00E94A42180911704909105
:1033E00018048230910509F47AC08330910509F4FC
:1033F00098C0019781F50E94BA0D009121041091A7
:1034000022042091230430912404601B710B820B51
:10341000930B0091190410911A0420911B04309110
:103420001C046017710782079307A8F082E090E000
:1034300090931804809317040E94BA0D609321049E
:1034400070932204809323049093240461E080917C
:1034500015040E942B0D81E080939D040E94BA0DFB
:1034600000918D0410918E0420918F04309190046E
:10347000AB01BC01401B510B620B730B8091990493
:1034800090919A04B0E0A0E084179507A607B707CB
:1034900008F07EC5198280919704A981A81708F0C9
:1034A000E2C3E0919304F0919404EA0FF11D62E00D
:1034B00080810E94590DB981BF5FB983ECCF823002
:1034C00011F483E07ACF813009F477CF803309F0AB
:1034D00076CF8FEF8093C4048093C50470CF0E9491
:1034E000BA0D0091210410912204209123043091FF
:1034F0002404601B710B820B930B00911D0410912F
:103500001E0420911F043091200460177107820768
:10351000930708F4A0CF109218041092170460E0EB
:1035200096CF20912B0430912C0480912904909106
:103530002A04281739070CF08DC380912D0490912F
:103540002E04A0912F04B0913004892B8A2B8B2B51
:1035500009F048C0E1E6F7E1220F331FA0912704EC
:10356000B0912804A20FB31F6D917C9188EE93E077
:103570000E9412218B012B01770F6608770880913A
:10358000250490912604280F391FD9012D903C90D5
:10359000809115049091160420910802281354C0BC
:1035A000B491BD83B7FFB3C0C301B2010E9419201B
:1035B00026E636E646EA5FE30E947D200E94E81F89
:1035C00060932D0470932E0480932F049093300405
:1035D0000E94BA0D60932104709322048093230407
:1035E000909324040E94BA0D0091210410912204AA
:1035F0002091230430912404601B710B820B930BE8
:1036000000912D0410912E0420912F04309130044C
:10361000601771078207930708F41DCF8091150486
:103620000E94630E10922D0410922E0410922F040B
:103630001092300480912B0490912C040196909369
:103640002C0480932B0407CF2F3F09F0ADCF80933C
:10365000080224912D832F3F09F4A6CF223009F4CC
:1036600034C160F4222309F436C0213009F409C1C1
:1036700027FD9ACF61E00E94590D4FC03D81343043
:1036800009F46DC1243008F446C1253089F7109241
:103690002001109221012091210128602093210115
:1036A000209121012160209321019C013327F90100
:1036B000E055F84EE491F0E0EE0FFF1FE458F84EAD
:1036C00045915491F901EA50F84EE491E093A30337
:1036D000F5E0FD831CC014BC15BC24B5226024BDDC
:1036E00025B5216025BD9C013327F901E055F84E31
:1036F000E491F0E0EE0FFF1FE458F84E459154912D
:10370000F901EA50F84EE491E093AA031D8261E0CA
:103710000E94590D2D81222321F03D81323009F084
:10372000BFC14101B12CA12C60E072E18AE790E0B9
:10373000A50191010E94482129833A834B835C8330
:1037400069017A0181E0C81AD108E108F1089FEF08
:10375000C916D104E104F10409F00CF470C160E46D
:1037600072E48FE090E0A50191010E944821690177
:103770007A01A1E0CA1AD108E108F108BD81B2308E
:1037800009F011C182E0EFEFCE16D104E104F1049B
:1037900009F00CF46FC060E970ED83E090E0A501E2
:1037A00091010E94482169017A01F1E0CF1AD10804
:1037B000E108F10883E02FEFC216D104E104F1041F
:1037C00009F00CF457C068E478EE81E090E0A501C0
:1037D00091010E94482169017A0181E0C81AD1084B
:1037E000E108F10884E09FEFC916D104E104F10477
:1037F00009F00CF43FC064E274EF80E090E0A501B2
:1038000094010E94482169017A01A1E0CA1AD108F5
:10381000E108F10885E03FEFC316D104E104F104AB
:1038200049F140F162E17AE780E090E0A50194017E
:103830000E94482169017A01A1E0CA1AD108E10871
:10384000F10886E0BFEFCB16D104E104F10491F05A
:1038500088F0C980DA80EB80FC809AE0F594E794E8
:10386000D794C7949A95D1F7E1E0CE1AD108E10830
:10387000F10887E09091B100987F892B8093B10087
:10388000E6C0109280001092810020918100286093
:1038900020938100209181002160209381009C0170
:1038A0003327F901E055F84EE491F0E0EE0FFF1FE9
:1038B000E458F84E45915491F901EA50F84EE491DC
:1038C000E093A903A1E0AD8322CF1092B000109243
:1038D000B1002091B00022602093B0002091B1008F
:1038E00021602093B1009C013327F901E055F84E87
:1038F000E491F0E0EE0FFF1FE458F84E459154912B
:103900005093A8034093A703F901EA50F84EE491BD
:10391000E093A603FCCE10929000109291002091AB
:1039200091002860209391002091910021602093C4
:1039300091009C013327F901E055F84EE491F0E045
:10394000EE0FFF1FE458F84E45915491F901EA50EB
:10395000F84EE491E093A503B3E0BD83D8CE109276
:10396000A0001092A1002091A10028602093A10046
:103970002091A10021602093A1009C013327F9012F
:10398000E055F84EE491F0E0EE0FFF1FE458F84EDA
:1039900045915491F901EA50F84EE491E093A40363
:1039A000E4E0ED83B4CE3FEFC316D104E104F104AB
:1039B00009F00CF473C068E478EE81E090E0A501B2
:1039C00091010E94482169017A0181E0C81AD10859
:1039D000E108F1089D8184E091111DCF83E02FEF74
:1039E000C216D104E104F10471F16CF162E17AE7ED
:1039F00080E090E0A50194010E94482169017A01CC
:103A0000E1E0CE1AD108E108F10884E0FFEFCF161B
:103A1000D104E104F104B9F0B0F0C980DA80EB80A0
:103A2000FC808AE0F594E794D794C7948A95D1F7FF
:103A3000F1E0CF1AD108E108F10885E004C081E087
:103A4000BD81B11117CF95B5987F892B85BD2FEF1B
:103A50003FEFA901411451046104710409F05AC0F7
:103A60008D81823009F4E6C00CF0CDC0882309F4C2
:103A7000D2C0813009F098CDD0928900C0928800E0
:103A80002093BB033093BC034093BD035093BE030C
:103A900080916F00826080936F0086CD82E0D0CFEE
:103AA000B12CA12C60E072E18AE790E0A5019101C0
:103AB0000E94482169017A01E1E0CE1AD108E108AB
:103AC000F10891E0C114D104F1E0EF06F10484F0B3
:103AD00068E478EE81E090E0A50191010E94482120
:103AE00069017A0181E0C81AD108E108F10893E080
:103AF000AD81A130E1F480918100887F892B809392
:103B000081002FEF3FEFA9014114510461047104BA
:103B100009F4B2CF9101220F331FD8010E946F2107
:103B200028EE33E040E050E00E94262199CFBD818D
:103B3000B33001F580919100887F892B80939100AB
:103B40002FEF3FEFA901411451046104710411F7F3
:103B5000D0929900C09298002093B3033093B4039D
:103B60004093B5035093B6038091710082608093B7
:103B700071001ACDED81E43009F58091A100887FB4
:103B8000892B8093A1002FEF3FEFA901411451042D
:103B90006104710409F0BECFD092A900C092A800C0
:103BA0002093AF033093B0034093B1035093B2031B
:103BB00080917200826080937200F6CCFD81F530B6
:103BC00009F045CF80912101887F892B80932101C5
:103BD0002FEF3FEFA901411451046104710409F072
:103BE00099CFD0922901C09228012093AB03309342
:103BF000AC034093AD035093AE0380917300826099
:103C000080937300D1CC9D81943031F20CF4A0CF1D
:103C1000953039F3C9CCC7BC2093BF033093C003A0
:103C20004093C1035093C20380916E0082608093E1
:103C30006E00BACCC092B3002093B7033093B803A0
:103C40004093B9035093BA038091700082608093CF
:103C50007000AACC809115040E94630E1092180483
:103C600010921704F8CBB12C80919804B81608F084
:103C700075C00B2D10E0E0919504F0919604E00FD3
:103C8000F11F61E080810E94590DE0919504F0914F
:103C90009604E00FF11F60E080810E942B0D81E00F
:103CA00090E0A0E0B0E00B2C04C0880F991FAA1F81
:103CB000BB1F0A94D2F76C017C01E094F094A12C14
:103CC00080919704A81698F5EA2DF0E0FA83E9832D
:103CD00080919304909194049F01820F931FDC01C3
:103CE0008C910E94020DE981FA813496FA83E9836E
:103CF000892B61F4EE0FFF1FEF5CFB4F80819181F8
:103D00008C299D2991838083A394DACF29813A81DC
:103D1000220F331F2F5C3B4F3A832983D9018D91AA
:103D20009C9111978E219F218D939C93EDCFE091D3
:103D30009504F0919604E00FF11F61E080810E94EC
:103D40002B0D8091950490919604080F191F60E047
:103D5000F80180810E94590DB39486CF51E3C52E9E
:103D600054E0D52E8DE694E0DA82C982A981BA8129
:103D70005F962D913C919097232B59F45C961C9261
:103D80005C97EFEFFFEF5E96FC93EE935D97919655
:103D90001C9229813A812A5F3F4F3A8329838217F7
:103DA000930721F7F12C46E0B42E80919704F81682
:103DB00008F050C0E12C0F2D10E0000F111F075C20
:103DC0001B4F20919804E21608F042C0D8016D9173
:103DD0007C910E2C02C0769567950A94E2F7F29ECC
:103DE000900111242E0D311DE1E3F4E080E0458DBA
:103DF000568D2417350709F4E9C08F5F36968A304F
:103E0000B1F760FF23C0E1E3F4E090E080E0448D8F
:103E1000411117C0E0919104F0919204E20FF31F59
:103E20006081B89EF001B99EF00D1124EF5CFB4F4C
:103E3000648F368F258F10A2178E61E00E94C60D09
:103E400005C0019636968A30910509F7E394B9CFFB
:103E5000F394ABCF10E0F60181A18111182FF6E0A9
:103E6000CF0ED11C29813A812C153D05A1F70E9466
:103E7000BA0D60938D0470938E0480938F04909399
:103E80009004112309F484C080915204882309F41A
:103E90007FC08091500490915104019709F078C03F
:103EA00080914D048093FF03811177C08091C303FB
:103EB000882371F061E672E087ED93E00E94A4210F
:103EC00060E672E081E692E00E94A4210E94AB14B9
:103ED0008091FF038D3331F467ED73E083EC93E061
:103EE0000E94A4210E94AB148091FF03882321F13A
:103EF0001092190410921A0410921B0410921C04C0
:103F000080E590E0A0E0B0E080931D0490931E0453
:103F1000A0931F04B093200481E090E090931804D4
:103F2000809317040E94BA0D6093210470932204B9
:103F300080932304909324040E94950D4B015C010F
:103F400024E6C22ED12CE12CF12C0E94950D68198B
:103F500079098A099B09683E734081059105A8F398
:103F600091E0C91AD108E108F108A8EE8A0EA3E091
:103F70009A1EA11CB11CC114D104E104F10429F75B
:103F800080E090E0892B09F428CA0E94000025CA2D
:103F900010929D041092FF0389CF8D3309F486CFD0
:103FA000833409F483CF96ED980F923008F47ECFD6
:103FB00093ED980F933008F479CF8093EB036BEE79
:103FC00073E087ED93E00E94992170CF617036CF46
:103FD0000E945C2088F09F5798F0B92F9927B7511D
:103FE000B0F0E1F0660F771F881F991F1AF0BA959D
:103FF000C9F714C0B13091F00E947620B1E0089565
:104000000C947620672F782F8827B85F39F0B93F56
:10401000CCF3869577956795B395D9F73EF490954F
:104020008095709561957F4F8F4F9F4F0895E894CD
:1040300009C097FB3EF490958095709561957F4FF0
:104040008F4F9F4F9923A9F0F92F96E9BB2793959E
:10405000F695879577956795B795F111F8CFFAF4AE
:10406000BB0F11F460FF1BC06F5F7F4F8F4F9F4FDF
:1040700016C0882311F096E911C0772321F09EE83D
:10408000872F762F05C0662371F096E8862F70E0A3
:1040900060E02AF09A95660F771F881FDAF7880F7D
:1040A0009695879597F9089557FD9058440F551F99
:1040B00059F05F3F71F04795880F97FB991F61F0AA
:1040C0009F3F79F087950895121613061406551F21
:1040D000F2CF4695F1DF08C0161617061806991F8D
:1040E000F1CF86957105610508940895E894BB2782
:1040F00066277727CB0197F908950E9490200C94AA
:1041000001210E94F32038F00E94FA2020F095232C
:1041100011F00C94EA200C94F02011240C947720D8
:104120000E94542070F3959FC1F3950F50E0551FE6
:10413000629FF001729FBB27F00DB11D639FAA27FC
:10414000F00DB11DAA1F649F6627B00DA11D661F4B
:10415000829F2227B00DA11D621F739FB00DA11D6C
:10416000621F839FA00D611D221F749F3327A00D26
:10417000611D231F849F600D211D822F762F6A2FC2
:1041800011249F5750409AF0F1F088234AF0EE0F27
:10419000FF1FBB1F661F771F881F91505040A9F754
:1041A0009E3F510580F00C94EA200C9477205F3FED
:1041B000E4F3983ED4F3869577956795B795F79590
:1041C000E7959F5FC1F7FE2B880F911D9695879508
:1041D00097F9089597F99F6780E870E060E0089587
:1041E0009FEF80EC089500240A941616170618060F
:1041F0000906089500240A941216130614060506EB
:104200000895092E0394000C11F4882352F0BB0F7B
:1042100040F4BF2B11F460FF04C06F5F7F4F8F4FDE
:104220009F4F089597FB072E16F4009407D077FD53
:1042300009D00E94762107FC05D03EF49095819527
:104240009F4F0895709561957F4F0895A1E21A2EB2
:10425000AA1BBB1BFD010DC0AA1FBB1FEE1FFF1F2A
:10426000A217B307E407F50720F0A21BB30BE40B7A
:10427000F50B661F771F881F991F1A9469F76095C1
:104280007095809590959B01AC01BD01CF0108957B
:10429000052E97FB1EF400940E945F2157FD07D066
:1042A0000E94262107FC03D04EF40C945F21509508
:1042B0004095309521953F4F4F4F5F4F0895909512
:1042C0008095709561957F4F8F4F9F4F0895EE0FAA
:1042D000FF1F881F8BBF0790F691E02D19940E9455
:1042E0008A21B7FF0895821B930B0895AA1BBB1B5D
:1042F00051E107C0AA1FBB1FA617B70710F0A61BE6
:10430000B70B881F991F5A95A9F780959095BC0106
:10431000CD010895A29FB001B39FC001A39F700D6E
:10432000811D1124911DB29F700D811D1124911DBD
:104330000895FB01DC010D900020E9F71197019031
:104340000D920020E1F70895FB01DC0101900D9230
:104350000020E1F70895F894FFCF084000000080A6
:104360006E02FF1F130002CF110E0F101100010289
:10437000033738392F3435362A3132332E43303D26
:104380002B000100FF0100FF00000000004F0F4460
:104390000FD0151A0F3D0F2A0F1B0F00000000222F
:1043A0000E260E2A0E00000000A815A80ED015CF6C
:1043B000154E49584F4E53454E5400636F6E666913
:0843C000726D6174696F6E00FB
:020000040003F7
:10E000000D9489F10D94B2F10D94B2F10D94B2F129
:10E010000D94B2F10D94B2F10D94B2F10D94B2F1F0
:10E020000D94B2F10D94B2F10D94B2F10D94B2F1E0
:10E030000D94B2F10D94B2F10D94B2F10D94B2F1D0
:10E040000D94B2F10D94B2F10D94B2F10D94B2F1C0
:10E050000D94B2F10D94B2F10D94B2F10D94B2F1B0
:10E060000D94B2F10D94B2F10D94B2F10D94B2F1A0
:10E070000D94B2F10D94B2F10D94B2F10D94B2F190
:10E080000D94B2F10D94B2F10D94B2F10D94B2F180
:10E090000D94B2F10D94B2F10D94B2F10D94B2F170
:10E0A0000D94B2F10D94B2F10D94B2F10D94B2F160
:10E0B0000D94B2F10D94B2F10D94B2F10D94B2F150
:10E0C0000D94B2F10D94B2F10D94B2F10D94B2F140
:10E0D0000D94B2F10D94B2F10D94B2F10D94B2F130
:10E0E0000D94B2F141546D656761323536300041AF
:10E0F000726475696E6F206578706C6F72657220DE
:10E1000073746B3530305632206279204D4C530099
:10E11000426F6F746C6F616465723E004875683F52
:10E1200000436F6D70696C6564206F6E203D200048
:10E130004350552054797065202020203D20005FF9
:10E140005F4156525F415243485F5F3D2000415658
:10E1500052204C696243205665723D20004743437C
:10E160002056657273696F6E203D20004350552024
:10E1700049442020202020203D20004C6F7720663D
:10E18000757365202020203D20004869676820665F
:10E190007573652020203D200045787420667573D6
:10E1A00065202020203D20004C6F636B2066757336
:10E1B000652020203D20004D617220203720323024
:10E1C000313300312E362E3800342E332E350056A2
:10E1D00023202020414444522020206F7020636F70
:10E1E00064652020202020696E73747275637469E1
:10E1F0006F6E2061646472202020496E74657272B3
:10E20000757074006E6F20766563746F7200726A49
:10E210006D702020006A6D70200057686174207056
:10E220006F72743A00506F7274206E6F7420737541
:10E2300070706F72746564004D7573742062652030
:10E2400061206C6574746572002000577269747483
:10E25000696E672045450052656164696E672045B7
:10E26000450045452065727220636E743D00504F35
:10E27000525400303D5A65726F2061646472003FF1
:10E280003D43505520737461747300403D454550C3
:10E29000524F4D207465737400423D426C696E6B41
:10E2A000204C454400453D44756D70204545505215
:10E2B0004F4D00463D44756D7020464C415348001B
:10E2C000483D48656C70004C3D4C69737420492F83
:10E2D0004F20506F72747300513D51756974005234
:10E2E0003D44756D702052414D00563D73686F7707
:10E2F00020696E7465727275707420566563746FF0
:10E30000727300593D506F727420626C696E6B00BD
:10E310002A0011241FBECFEFD1E2DEBFCDBF01E046
:10E320000CBF12E0A0E0B2E0EEE1FDEF03E00BBFB6
:10E3300002C007900D92A030B107D9F712E0A0E01B
:10E34000B2E001C01D92AE30B107E1F70F9460F367
:10E350000D948DFE01E20EBF0FEF0DBF11241FBE05
:10E360000D9460F30D9400F020E030E040ED57E0B4
:10E3700005C0FA013197F1F72F5F3F4F2817390792
:10E38000C0F308959C01260F311DC901A0E0B0E043
:10E390002F5F3F4FABBFFC018791882361F08093D3
:10E3A000C6008091C00086FFFCCF8091C0008064D1
:10E3B0008093C000EACF08958DE08093C6008091DD
:10E3C000C00086FFFCCF8091C00080648093C000B5
:10E3D0008AE08093C6008091C00086FFFCCF8091C8
:10E3E000C00080648093C00008950F94C2F10F9420
:10E3F000DCF10895FC019081992359F09093C600B7
:10E400008091C00086FFFCCF8091C0008064809323
:10E41000C0003196992379F70895282F982F929567
:10E420009F70892F805D8A3308F0895F8093C600D2
:10E430008091C00086FFFCCF8091C00080648093F3
:10E44000C000822F8F70982F905D9A3308F0995FEB
:10E450009093C6008091C00086FFFCCF8091C000E1
:10E4600080648093C00008959C01FB01853691056E
:10E470001CF46330710594F0C90164E670E00F94F8
:10E480002EFE605D7F4F6093C6008091C00086FFC6
:10E49000FCCF8091C00080648093C0002B30310598
:10E4A00014F43297B4F0C90164E670E00F942EFEC4
:10E4B0006AE070E00F942EFE605D7F4F6093C600AF
:10E4C0008091C00086FFFCCF8091C0008064809363
:10E4D000C000C9016AE070E00F942EFEC0968093E0
:10E4E000C6008091C00086FFFCCF8091C000806490
:10E4F0008093C00008951F93182F8EE692EE60E07F
:10E500000F94C2F11093C6008091C00086FFFCCF2B
:10E510008091C00080648093C0000F94DCF11F9153
:10E5200008952F923F924F925F926F927F928F92B7
:10E530009F92AF92BF92CF92DF92EF92FF920F9392
:10E540001F93DF93CF93CDB7DEB762970FB6F894E2
:10E55000DEBF0FBECDBF382E622ECA01DB015C01CB
:10E560006D01772420E2222E2E010894411C511CBB
:10E570008BC081E0A81680E0B80681E0C80680E084
:10E58000D80628F0C601AA27BB270F940DF2BB2797
:10E59000AD2D9C2D8B2D0F940DF28A2D0F940DF225
:10E5A0002092C6008091C00086FFFCCF8091C00001
:10E5B00080648093C0009DE29093C6008091C0006B
:10E5C00086FFFCCF8091C00080648093C0002092C1
:10E5D000C6008091C00086FFFCCF8091C00080649F
:10E5E0008093C00019828601750188249924A1E0D6
:10E5F0003A1651F03A1620F0B2E03B1661F409C029
:10E600000BBFF701779007C0C7010F9477FE782EF4
:10E6100002C0F7017080872D0F940DF22092C60082
:10E620008091C00086FFFCCF8091C0008064809301
:10E63000C000872D8052F401EF70F0708F3520F408
:10E64000E40DF51D708204C0E40DF51D8EE280839B
:10E650000894E11CF11C011D111D0894811C911CE2
:10E6600090E18916910409F0C2CF80E190E0A0E02A
:10E67000B0E0A80EB91ECA1EDB1E198AC2010F9493
:10E68000FAF10F94DCF16A94662009F072CF629679
:10E690000FB6F894DEBF0FBECDBFCF91DF911F91B3
:10E6A0000F91FF90EF90DF90CF90BF90AF909F9031
:10E6B0008F907F906F905F904F903F902F90089534
:10E6C0002F923F924F925F926F927F928F929F9282
:10E6D000AF92BF92CF92DF92EF92FF920F931F9370
:10E6E000DF93CF93CDB7DEB7CD53D1400FB6F894BB
:10E6F000DEBF0FBECDBF01E20EBF0FEF0DBF94B75F
:10E70000F894A89514BE80916000886180936000A1
:10E7100010926000789493FF05C0E0910002F091A0
:10E7200001021995279A2F9A8091C00082608093E8
:10E73000C00080E18093C40088E18093C1000000A4
:10E74000EE24FF24870144E0A42EB12CCC24DD2448
:10E7500024C0C5010197F1F70894E11CF11C011DCB
:10E76000111D21E2E2162EE4F20620E0020720E06D
:10E77000120718F031E0C32ED12CC801B70127ECE5
:10E780003BE140E050E00F9441FE611571058105C9
:10E79000910519F485B1805885B98091C00087FD35
:10E7A00003C0C114D104A9F2A6014F5F5F4FC25E3E
:10E7B000DE4F59834883CE51D140C25EDE4F8881FF
:10E7C0009981CE51D140019711F00D9410FEC05D9A
:10E7D000DE4F19821882C053D14060E0C15DDE4F28
:10E7E0001882CF52D14088249924C35DDE4F19820C
:10E7F0001882CD52D140C05EDE4F188219821A8233
:10E800001B82C052D140CE5CDE4F188219821A8220
:10E810001B82C253D140EE24FF2487010BBFF701B6
:10E8200007911691C45CDE4F19830883CC53D14005
:10E830000D940BFEC25EDE4F28813981CE51D1404E
:10E840002130310509F52091C600C25EDE4F1982E4
:10E850001882CE51D14022C02F5F3F4F4F4F5F4FA4
:10E86000213082E138078AE7480780E0580780F0C6
:10E87000C45CDE4FE881F981CC53D140EF5FFF4F9C
:10E8800019F0EE27FF27099420E030E040E050E047
:10E890008091C00087FFE0CF2091C600C35DDE4FAE
:10E8A00048815981CD52D1404F5F5F4FC35DDE4FEC
:10E8B00059834883CD52D140213209F063C64A3092
:10E8C000510508F05FC60894811C911C53E0851621
:10E8D000910409F059C600E010E018C081E280936D
:10E8E000C6008091C00086FFFCCF8091C00080648C
:10E8F0008093C0002F5F3F4F2931310579F70F9486
:10E90000DCF10F5F1F4F0530110519F020E030E0FA
:10E91000E5CF10920A0210920B0210920C02109294
:10E920000D02109206021092070210920802109235
:10E930000902109202021092030210920402109235
:10E9400005028FEE90EE60E00F94F5F180E191EE1C
:10E9500060E00F94C2F18091C00087FFFCCF9091DE
:10E96000C600903608F09F759032B8F09093C600BC
:10E970008091C00086FFFCCF8091C00080648093AE
:10E98000C000A0E2A093C6008091C00086FFFCCF2B
:10E990008091C00080648093C000983409F4D7C18E
:10E9A0009934B8F4923409F459C1933458F490333B
:10E9B00019F1903308F4E3C59F33A1F1903409F0C5
:10E9C000DEC5BDC0953409F470C1963409F0D7C5D1
:10E9D00098C1923509F42BC2933538F49C3409F46C
:10E9E000F5C1913509F0CBC518C2963509F445C279
:10E9F000993509F0C4C567C483E792EE62E00F94CD
:10EA0000F5F110920602109207021092080210927D
:10EA1000090210920A0210920B0210920C0210923C
:10EA20000D0213C18FE792EE62E00F94F5F18FEEC5
:10EA300090EE60E00F94F5F181E291EE60E00F94CA
:10EA4000C2F187EB91EE60E00F94F5F180E391EE77
:10EA500060E00F94C2F184EE90EE60E00F94F5F167
:10EA60008FE391EE60E00F94C2F186E090E061E008
:10EA700070E00F9434F20F94DCF18DE591EE60E0DC
:10EA80000F94C2F189EC91EE60E00F94F5F18EE401
:10EA900091EE60E00F94C2F183EC91EE60E00F9490
:10EAA000F5F18CE691EE60E00F94C2F18EE10F94E7
:10EAB0000DF288E90F940DF281E00F940DF20F949E
:10EAC000DCF18BE791EE60E00F94C2F119E0E0E039
:10EAD000F0E010935700E4918E2F0F940DF20F94F5
:10EAE000DCF18AE891EE60E00F94C2F1E3E0F0E03F
:10EAF00010935700E4918E2F0F940DF20F94DCF1D8
:10EB000089E991EE60E00F94C2F1E2E0F0E0109349
:10EB10005700E4918E2F0F940DF20F94DCF188EAE8
:10EB200091EE60E00F94C2F1E1E0F0E01093570045
:10EB30001491812F0F940DF20F94DCF107CF8BE825
:10EB400092EE62E00F94F5F18BE492EE60E00F94A8
:10EB5000F5F10F94DCF100E010E019C0C8016F2D51
:10EB60000F947FFEFF2031F489E492EE60E00F9471
:10EB7000C2F10BC0F092C6008091C00086FFFCCFAE
:10EB80008091C00080648093C0000F5F1F4FC80158
:10EB900081519F41A0E0B0E0ABBFFC01F790BAE229
:10EBA000FB1621F0E2E000301E07C1F60F94DCF105
:10EBB0000F94DCF187E592EE60E00F94F5F10F948D
:10EBC000DCF1CC24DD2400E010E01EC0C8010F946D
:10EBD00077FEF82E882331F489E492EE60E00F94FA
:10EBE000C2F10BC08093C6008091C00086FFFCCFAD
:10EBF0008091C00080648093C000FE1419F00894D6
:10EC0000C11CD11C0F5F1F4FC80181519F41A0E063
:10EC1000B0E0ABBFFC01E790FAE2EF1621F022E092
:10EC20000030120799F60F94DCF10F94DCF182E6C4
:10EC300092EE60E00F94C2F1C60161E070E00F94C3
:10EC400034F20F94DCF10F94DCF110920202109276
:10EC50000302109204021092050278CE89E992EE26
:10EC600062E00F94F5F1279A2F9A16C02F9880E052
:10EC700090E0E0EDF7E03197F1F7019684369105E9
:10EC8000C1F72F9A80E090E0E0EDF7E03197F1F7DF
:10EC9000019684369105C1F78091C00087FFE6CFC9
:10ECA0008091C00087FFFCCF64C485EA92EE62E0E9
:10ECB0000F94F5F140910202509103026091040219
:10ECC0007091050281E020E10F9491F2809102029F
:10ECD00090910302A0910402B091050280509F4FD1
:10ECE000AF4FBF4F8093020290930302A0930402A0
:10ECF000B093050280509041A040B04008F426CE69
:10ED0000A4CF83EB92EE62E00F94F5F140910602FE
:10ED100050910702609108027091090280E020E1A1
:10ED20000F9491F28091060290910702A09108023F
:10ED3000B091090280509F4FAF4FBF4F80930602A2
:10ED400090930702A0930802B0930902FFCD80ECD4
:10ED500092EE62E00F94F5F183E792EE60E00F949B
:10ED6000F5F18FE792EE60E00F94F5F18BE892EE0B
:10ED700060E00F94F5F189E992EE60E00F94F5F10F
:10ED800085EA92EE60E00F94F5F183EB92EE60E09D
:10ED90000F94F5F180EC92EE60E00F94F5F187ECC2
:10EDA00092EE60E00F94F5F188ED92EE60E00F9442
:10EDB000F5F18FED92EE60E00F94F5F18AEE92EEB0
:10EDC00060E00F94F5F183E093EEBDCD87EC92EE19
:10EDD00062E00F94F5F181E40F947BF282E40F94EA
:10EDE0007BF283E40F947BF284E40F947BF285E45E
:10EDF0000F947BF286E40F947BF287E40F947BF20E
:10EE000088E40F947BF28AE40F947BF28BE40F94F6
:10EE10007BF28CE40F947BF299CD88ED92EE62E068
:10EE20000F94F5F1772473948824992409C48FED05
:10EE300092EE62E00F94F5F140910A0250910B02BC
:10EE400060910C0270910D0282E020E10F9491F22A
:10EE500080910A0290910B02A0910C02B0910D02D8
:10EE600080509F4FAF4FBF4F80930A0290930B0289
:10EE7000A0930C02B0930D0269CD8AEE92EE62E08F
:10EE80000F94F5F184EE90EE60E00F94F5F18FECC5
:10EE900091EE60E00F94F5F1662477244301CC5D98
:10EEA000DE4F19821882C452D140D401C301B695F5
:10EEB000A79597958795CA5DDE4F88839983AA8326
:10EEC000BB83C652D140CC5DDE4FA881B981C4520C
:10EED000D1401196CC5DDE4FB983A883C452D14096
:10EEE000CD0162E070E00F9434F2B0E2B093C6005E
:10EEF0008091C00086FFFCCF8091C0008064809329
:10EF0000C000EDE2E093C6008091C00086FFFCCF18
:10EF10008091C00080648093C000F0E2F093C6004E
:10EF20008091C00086FFFCCF8091C00080648093F8
:10EF3000C000CA5DDE4FE880F9800A811B81C6529D
:10EF4000D140BB27A12F902F8F2D0F940DF2CA5DBA
:10EF5000DE4F8881C652D1400F940DF2B0E2FB2EF5
:10EF6000F092C6008091C00086FFFCCF8091C00067
:10EF700080648093C0000DE30093C6008091C000C0
:10EF800086FFFCCF8091C00080648093C00010E2B7
:10EF90001093C6008091C00086FFFCCF8091C00016
:10EFA00080648093C0008BBEF3012791C65DDE4F65
:10EFB0002883CA52D140A22EBB24CC24DD2408943D
:10EFC000611C711C811C911C8BBEF3018791282E42
:10EFD0003324442455240894611C711C811C911C09
:10EFE0008BBEF3013791C55DDE4F3883CB52D140E4
:10EFF0000894611C711C811C911C8BBEF30147910C
:10F00000C45DDE4F4883CC52D140ADEFEA2EAFEF66
:10F01000FA2EAFEF0A2FAFEF1A2F6E0C7F1C801E57
:10F02000911E142D032DF22CEE24EA0CFB1C0C1D5A
:10F030001D1D0F940DF220E22093C6008091C000A8
:10F0400086FFFCCF8091C00080648093C000C65DC5
:10F05000DE4F8881CA52D1400F940DF230E23093D6
:10F06000C6008091C00086FFFCCF8091C000806404
:10F070008093C000C45DDE4F8881CC52D1400F9494
:10F080000DF240E24093C6008091C00086FFFCCFA5
:10F090008091C00080648093C000C55DDE4F888190
:10F0A000CB52D1400F940DF250E25093C6008091A4
:10F0B000C00086FFFCCF8091C00080648093C000B8
:10F0C0008FEFE8168FEFF80680E0080780E018075A
:10F0D00031F484E092EE60E00F94C2F1DFC0D80119
:10F0E000C7018070907CA070B0708050904CA040A0
:10F0F000B040D1F52FEF3FE340E050E0E222F322B1
:10F1000004231523CA5DDE4FA880B980CA80DB8046
:10F11000C652D140AE0CBF1CC01ED11EAA0CBB1CD7
:10F12000CC1CDD1C8EE092EE60E00F94C2F1BB2798
:10F13000A12F902F8F2D0F940DF28E2D0F940DF285
:10F1400030E23093C6008091C00086FFFCCF8091F2
:10F15000C00080648093C0004EE34093C60080915D
:10F16000C00086FFFCCF87C08EE09EEFA0E0B0E03D
:10F17000E822F9220A231B239CE0E91694E9F90608
:10F1800090E0090790E0190709F088C0C45DDE4FE0
:10F19000A881CC52D140EA2EFF2400E010E0102FCD
:10F1A0000F2DFE2CEE24C55DDE4FB881CB52D14031
:10F1B000EB0EF11C011D111DD601C501817090706F
:10F1C000A070B070DC0199278827E80EF91E0A1F8D
:10F1D0001B1F20EF30E040E050E0A222B322C42207
:10F1E000D52241E1AA0CBB1CCC1CDD1C4A95D1F7F1
:10F1F000EA0CFB1C0C1D1D1D81E090E0A0E0B0E0BE
:10F20000282239224A225B2235E1220C331C441C7D
:10F21000551C3A95D1F7E20CF31C041D151D57013E
:10F220006801AA0CBB1CCC1CDD1C85E192EE60E0E1
:10F230000F94C2F1C801AA27BB270F940DF2BB2778
:10F24000A12F902F8F2D0F940DF28E2D0F940DF274
:10F2500090E29093C6008091C00086FFFCCF809121
:10F26000C00080648093C000AEE3A093C60080918C
:10F27000C00086FFFCCF8091C00080648093C000F6
:10F28000C601AA27BB270F940DF2BB27AD2D9C2DDD
:10F290008B2D0F940DF28A2D0F940DF20F94DCF14B
:10F2A000CC5DDE4FE881F981C452D140F99709F471
:10F2B0004DCBF4E0EF2EF12C012D112D6E0C7F1CA7
:10F2C000801E911EF2CD83E093EE62E00F94F5F183
:10F2D0008AE192EE60E00F94C2F18091C00087FF56
:10F2E000FCCF1091C6001F751093C6008091C0001E
:10F2F00086FFFCCF8091C00080648093C0000F9493
:10F30000DCF1812F81548A3108F036C1163409F4BA
:10F3100095C0173490F4133409F44EC0143430F40B
:10F320001134F1F0123409F01DC130C0143409F465
:10F3300059C0153409F016C16BC01A3409F4C4C0A1
:10F340001B3438F4173409F48FC0183409F00AC19B
:10F35000A1C01B3409F4D2C01C3409F003C1E8C0B9
:10F360008FEF81B90DC082B1809582B980E090E0C5
:10F37000E0EDF7E03197F1F70196883C9105C1F790
:10F380008091C00087FFEFCF12B8EFC08FEF84B934
:10F390000DC085B1809585B980E090E0E0EDF7E0A3
:10F3A0003197F1F70196883C9105C1F78091C00033
:10F3B00087FFEFCF15B8D9C08FEF87B90DC088B1DF
:10F3C000809588B980E090E0E0EDF7E03197F1F7C3
:10F3D0000196883C9105C1F78091C00087FFEFCF6F
:10F3E00018B8C3C08FEF8AB90DC08BB180958BB9A7
:10F3F00080E090E0E0EDF7E03197F1F70196883C8E
:10F400009105C1F78091C00087FFEFCF1BB8ADC059
:10F410008FEF8DB90DC08EB180958EB980E090E0F0
:10F42000E0EDF7E03197F1F70196883C9105C1F7DF
:10F430008091C00087FFEFCF1EB897C08FEF80BBD1
:10F440000DC081B3809581BB80E090E0E0EDF7E0F6
:10F450003197F1F70196883C9105C1F78091C00082
:10F4600087FFEFCF11BA81C08FEF83BB0DC084B38C
:10F47000809584BB80E090E0E0EDF7E03197F1F714
:10F480000196883C9105C1F78091C00087FFEFCFBE
:10F4900014BA6BC08FEF809301010FC080910201FD
:10F4A00080958093020180E090E0E0EDF7E03197F5
:10F4B000F1F70196883C9105C1F78091C00087FF64
:10F4C000EDCF1092020151C08FEF809304010FC065
:10F4D0008091050180958093050180E090E0E0ED4A
:10F4E000F7E03197F1F70196883C9105C1F78091DB
:10F4F000C00087FFEDCF1092050137C08FEF8093DA
:10F5000007010FC08091080180958093080180E079
:10F5100090E0E0EDF7E03197F1F70196883C910536
:10F52000C1F78091C00087FFEDCF109208011DC088
:10F530008FEF80930A010FC080910B01809580931B
:10F540000B0180E090E0E0EDF7E03197F1F70196F4
:10F55000883C9105C1F78091C00087FFEDCF1092E4
:10F560000B0103C085E292EEEEC98091C00087FFD7
:10F57000FCCF8091C600EAC988E392EEE4C98CE131
:10F5800091EEE1C988249924933011F1943028F444
:10F59000913089F09230B8F408C0953061F195301F
:10F5A000F0F0963009F048C043C02B3109F042C951
:10F5B00091E06BE13FC96227C15DDE4F2883CF52E6
:10F5C000D14092E037C9B22FA0E0622793E032C960
:10F5D000822F90E0A82BB92B622794E02BC92E3004
:10F5E00009F039C3622795E0C05DDE4F19821882A9
:10F5F000C053D1401FC9E1E0F0E0EC0FFD1FC05D3A
:10F60000DE4F08811981C053D140E00FF11F2083E4
:10F610000F5F1F4FC05DDE4F19830883C053D14079
:10F6200062270A171B0709F005C9D80196E002C92D
:10F63000261709F010C303C0973009F0FBC87724E0
:10F640009981933109F412C19431C8F4963009F4C8
:10F65000D8C0973050F4923009F406C1933009F4C1
:10F660006DC0913009F059C253C0913109F477C08F
:10F67000923108F0BBC0903109F04FC2F5C098310B
:10F6800009F487C0993150F4953109F4EFC09531F0
:10F6900008F4C6C1963109F040C2C2C19A3109F4DA
:10F6A0006CC09A3108F491C09B3109F45BC09D3164
:10F6B00009F033C29D81903359F48F81882311F46E
:10F6C0009EE11CC0813011F091E018C098E916C08D
:10F6D000892F807591F0903539F4E0E0F0E089E011
:10F6E0008093570094910AC0983539F4E3E0F0E034
:10F6F00089E080935700949101C090E01A821B82A8
:10F700008D818C831D829E831F8227E030E009C299
