:100000000C9404050C942C050C942C050C942C05D4
:100010000C942C050C942C050C942C050C94261F88
:100020000C942C050C942C050C942C050C942C058C
:100030000C942C050C94A1200C942C050C942C05EC
:100040000C94DC1E0C942C050C942C050C942C05A3
:100050000C942C050C942C050C942C050C942C055C
:100060000C94821F0C942C05040620000000000054
:1000700000404040004000A0A000000000A0E0A020
:10008000E0A0004060C060C000A0204080A0002030
:1000900040C0A0E0008080000000004080808040E0
:1000A0000080404040800040A0400000000040E050
:1000B0004000000000008080000000E00000000020
:1000C0000000008000202040808000E0A0A0A0E090
:1000D0000040C04040E000E020E080E000E020E0A0
:1000E00020E000A0A0E0202000E080E020C000C0D0
:1000F00080E0A0E000E02040808000E0A0E0A0E000
:1001000000E0A0E02060000040004000000040004F
:1001100040800020408040200000E000E00000809F
:100120004020408000C02040004000E0A0A0E0E06F
:1001300000E0A0E0A0A000C0A0E0A0C000E080809F
:1001400080E000C0A0A0A0C000E080E080E000E06F
:1001500080E0808000E08080A0E000A0A0E0A0A07F
:1001600000E0404040E000202020A0E00080A0C04F
:10017000C0A00080808080E000A0E0E0A0A000C0DF
:10018000A0A0A0A00040A0A0A04000E0A0E080802F
:100190000040A0A0E06600E0A0C0E0AA00E080E08F
:1001A00020E000E04040404000A0A0A0A0E000A06F
:1001B000A0A0A04000A0A0E0E0A200A0A040A0A0BD
:1001C00000A0A040404000E0204080E000C08080CF
:1001D00080C000008040202000C0404040C000405F
:1001E000A00000000000000000E0008040000000CF
:1001F000000060A0A060008080C0A0C000006080FF
:10020000806000202060A0600040A0E0806000606E
:1002100040E040400060A06020C0008080C0A0A0FE
:100220000040004040400040004040C0008080A0AE
:10023000C0A000C0404040E00000A0E0A0A000003E
:10024000C0A0A0A0000040A0A0400000C0A0C080AE
:10025000000060A060200000C0A08080000060401E
:1002600020600040E04040400000A0A0A0600000EE
:10027000A0A0A0400000A0A0E0A00000A04040A0DE
:100280000000A0E020400000E04080E0002040C0EE
:10029000402200404000404000804060408000001C
:1002A000A04000000000000000240027002A0000F9
:1002B00000000023002600290000000008000201C1
:1002C00000000304070000000000000000060820F2
:1002D000000000000000000040404040400040009E
:1002E0005050500000000000000050F850F850003E
:1002F0002070A0702870200000C8D02058980000FE
:1003000020508040A890680040404000000000005D
:1003100010204040402010004020101010204000CD
:100320001038100000000000002020F820200000FD
:100330000000000000101000000000F800000000A5
:1003400000000000001000000008102040800000A5
:100350007088A8A88870000020602020207000000D
:100360007088102040F80000F810201088700000FD
:10037000909090F810100000F880F008887000004D
:100380007080F08888700000F8081020408000001D
:100390007088708888700000708888780870000005
:1003A000000020000020000000002000202040006D
:1003B00000186080601800000000780078000000DD
:1003C00000C0300830C000006090202000200000F5
:1003D000708898A890887000205088F8888800005D
:1003E000F088F08888F000007088808088700000B5
:1003F000F088888888F00000F880F88080F8000095
:10040000F880F080808000007088809888700000FC
:100410008888F888888800007020202020700000DC
:1004200038101010906000008890E0A090880000C4
:100430008080808080F8000088D8A8A88888000084
:100440008888C8A89888000070888888887000000C
:10045000F088F08080800000708888A89068000094
:10046000F088F0A0908800007880700808F0000004
:10047000F8202020202000008888888888700000CC
:1004800088888888502000008888A8A8A850000084
:100490008850205088880000888850202020000044
:1004A000F808102040F80000E080808080E0000024
:1004B00000804020100800003808080808380000B4
:1004C0002050000000000000000000000000F800C4
:1004D000804000000000000000601070906000008C
:1004E0008080E09090E0000000007080807000004C
:1004F0001010709090700000006090F0807000000C
:100500003040E040404000000060907010106000FB
:100510008080E0909090000020002020207000005B
:1005200010003010101060008090A0C0A09000005B
:100530006020202020700000000050A8A8A8000023
:100540000000F08888880000000060909060000043
:1005500000006090F080800000006090F0101000BB
:100560000000B04840400000003040201060000013
:100570004040E0404040000000009090906000004B
:100580000000888850200000000088A8A8500000C3
:10059000008850205088000000009090604080004B
:1005A0000000F02040F0000020404080404020004B
:1005B00020202020202020002010100810102000D3
:1005C00040A8100000000000000000000000000033
:1005D0000808000000000000000000003E415541F6
:1005E00055493E003E7F6B7F6B773E0022777F7FD1
:1005F0003E1C0800081C3E7F3E1C0800081C2A7F89
:100600002A081C00081C3E7F3E081C00001C3E3EC1
:100610003E1C00FFFFE3C1C1C1E3FF00001C22221A
:10062000221C00FFFFE3DDDDDDE3FF000F030539E2
:1006300048483000083E081C22221C0018141010E4
:10064000307060000F19111337766000082A1C778C
:100650001C2A080060787E7F7E786000030F3F7F51
:100660003F0F0300081C2A082A1C080066666666FD
:10067000006666003F65653D050505000C324824AF
:10068000124C3000000000007F7F7F00081C2A0809
:100690002A1C3E00081C3E7F1C1C1C001C1C1C7FCE
:1006A0003E1C0800080C7E7F7E0C080008183F7F67
:1006B0003F18080000007070707F7F000014227FD8
:1006C00022140000081C1C3E3E7F7F007F7F3E3EC0
:1006D0001C1C08000000000000000000183C3C1832
:1006E00018001800363614000000000036367F3639
:1006F0007F363600081E201C023C080060660C187D
:10070000306606003C663C2865663F0018181830C5
:10071000000000006030181818306000060C18182F
:10072000180C060000361C7F1C3600000008083E2E
:100730000808000000000030303060000000003C7D
:1007400000000000000000000060600000060C18BF
:10075000306000003C666E7666663C0018183818FB
:1007600018187E003C66060C30607E003C66061C55
:1007700006663C000C1C2C4C7E0C0C007E607C063B
:1007800006663C003C66607C66663C007E660C0C3F
:10079000181818003C66663C66663C003C66663E7F
:1007A00006663C0000181800181800000018180011
:1007B00018183000060C1830180C060000003C0019
:1007C0003C0000006030180C183060003C66061CCD
:1007D0001800180038445C58423C00003C66667EB5
:1007E000666666007C66667C66667C003C66606069
:1007F00060663C007C66666666667C007E60607C47
:1008000060607E007E60607C606060003C6660606E
:100810006E663C006666667E666666003C18181862
:1008200018183C001E0C0C0C6C6C3800666C787050
:10083000786C66006060606060607E0063777F6BEC
:100840006363630063737B6F676363003C66666624
:1008500066663C007C6666667C6060003C66666638
:100860006E3C06007C66667C786C66003C66603C8C
:1008700006663C007E5A18181818180066666666E8
:1008800066663E0066666666663C18006363636B78
:100890007F7763006363361C366363006666663C7D
:1008A000181818007E060C1830607E001E181818E4
:1008B00018181E00006030180C0600007818181870
:1008C0001818780008142241000000000000000001
:1008D00000007F000C0C06000000000000003C0639
:1008E0003E663E006060607C66667C0000003C66A0
:1008F00060663C000606063E66663E0000003C66FA
:100900007E603C001C3630307C303000003E666635
:100910003E063C006060607C666666000018001859
:1009200018183C000C000C0C6C6C38006060666C95
:10093000786C6600181818181818180000006377EB
:100940007F6B6B0000007C7E6666660000003C6684
:1009500066663C00007C66667C606000003C6C6CF7
:100960003C0D0F0000007C666660600000003E40A9
:100970003C027C000018187E1818180000006666FB
:1009800066663E0000000066663C18000000636B6F
:100990006B6B3E000000663C183C6600000066661B
:1009A0003E063C0000003C0C18303C000E1818308D
:1009B00018180E0018181800181818007018180CBD
:1009C0001818700000003A6C00000000081C366324
:1009D00041417F01020408102040800102040810F8
:1009E0002001020408102000000000250028002B30
:1009F00000040404040404040402020202020203C8
:100A0000030303030302C82011241FBECFEFD8E065
:100A1000DEBFCDBF27E0A0ECB4E001C01D92A13E37
:100A2000B207E1F714E0A0E0B1E0E2E3FFE502C0C5
:100A300005900D92A03CB107D9F715E0C4E0D5E0D0
:100A400004C02197FE010E947C2DC330D107C9F755
:100A50000E9466210C94972F0C9400008091FC0654
:100A600090910807E091FD06F091FE0631962491E1
:100A7000492F421B550B84171506CCF0E491A09129
:100A80000E07B0910F07809109079D01E89F200D87
:100A9000311D1124F9019D01989F200D311D112454
:100AA000E217F30740F480818D931192F9CFE4911E
:100AB000E80FE093FC0608952F923F924F925F92C9
:100AC0006F927F928F929F92AF92BF92CF92DF925E
:100AD000EF92FF920F931F93CF93DF9300D000D03C
:100AE00000D0CDB7DEB70091FD061091FE06F801EB
:100AF0003296549198012F5F3F4FF901F490F8011D
:100B00009491F9012491451B429FA0011124DA011F
:100B10001396282F277078E0721B911105C0F801F9
:100B2000EA0FFB1F94911196F11005C0F801EA0F2E
:100B3000FB1FF4901196F92FF770F983E92FE695D2
:100B4000E695E695FF2309F498C0EF5F90910907B9
:100B5000822E912C4981480D592D511D5E834D8364
:100B60002FEF30E069010D8002C0D594C7940A943C
:100B7000E2F7472F50E05A83498301C0220F7A954C
:100B8000EAF7AC2CE13009F0A12CA22A4D815E815C
:100B9000485051092FEF30E002C0359527954A950E
:100BA000E2F7E22E292E312C869586958695969F22
:100BB000B0011124860F972F911DB12C2E2F21509B
:100BC000330B3C832B83FB1409F481C0E091F906BD
:100BD000F091FA06E80FF91FD0802D2D2A212083ED
:100BE000BD016F5F7F4FF801EA0FFB1F2491E09179
:100BF000F906F091FA06E80FF91F422F50E0082C91
:100C000002C0559547950A94E2F73081432B408303
:100C10004B805C80460E571E3C016A1A7B0AD3014A
:100C2000A60FB71F4091F9065091FA0630E00980EF
:100C300002C0220F331F0A94E2F76415750500F510
:100C4000FA01EA0FFB1FD0802083F801E60FF71F9F
:100C500024914091F9065091FA06A40FB51F422F36
:100C600050E0082C02C0559547950A94E2F73C9154
:100C7000432B4C936F5F7F4FD2CF38E0398366CFE1
:100C8000ED81FE813897B0F4FD013197E40FF51F37
:100C9000DC204081D42AD0824091F9065091FA0696
:100CA000A40FB51FEC912E2B2C93B394820D931DA2
:100CB000DB0189CFFA01EA0FFB1FD0804D815E81F5
:100CC0004830510549F34D2D4E214083E5CF2696FE
:100CD0000FB6F894DEBF0FBECDBFDF91CF911F914D
:100CE0000F91FF90EF90DF90CF90BF90AF909F90CB
:100CF0008F907F906F905F904F903F902F900895CE
:100D0000CF938A30C1F188F5882399F18830C1F1F9
:100D1000C82F8091FB06E091FD06F091FE06E4915C
:100D20002091090798E0299F900111242E1B310979
:100D30004C2F6091FC068217130651F04CF0109274
:100D4000FB060E942E054C2F6091FC068091FB064D
:100D50000E945C05E091FD06F091FE068491E09111
:100D6000FB06E80FE093FB0604C08D30C9F08E301F
:100D700079F6CF9108951092FB06CF910C942E0531
:100D8000E091FD06F091FE06E4918091FB068E1B3A
:100D90008093FB0640E26091FC06CF910C945C05C9
:100DA0001092FB06E6CFCF93DF93EC018991882365
:100DB00019F00E948006FACFDF91CF9108959091AB
:100DC000F8068091F7062FEF3FEF981748F4E92FC8
:100DD000F0E0E952F94F208130E09F5F9093F806F0
:100DE000C90108959091F8068091F7062FEF3FEF23
:100DF000981748F4E92FF0E0E952F94F208130E0EC
:100E00009F5F9093F806C901089591E09093D606EC
:100E10008093D5061092D4061092D30608951092AE
:100E2000FB061092FC06E0910E07F0910F079091DF
:100E30000907809108079F01989F200D311D1124FB
:100E4000C901E817F90711F01192FBCF089596E058
:100E5000899FD0011124AE5AB84F90967C936E931F
:100E60005F9791E091969C939197E091BF07F091E5
:100E7000C0079091BE07992339F0309751F0811146
:100E800008C080916E070994309719F05C968C9198
:100E9000FACF0895833081F028F4813099F08230C0
:100EA000A9F008958730A9F08830C9F08430B1F4F2
:100EB000809180008F7D03C0809180008F77809328
:100EC0008000089584B58F7784BD089584B58F7DA3
:100ED000FBCF8091B0008F778093B0000895809110
:100EE000B0008F7DF9CFCF93DF93282F30E0F90149
:100EF000E754FD4F8491F901ED52F64FD491F90179
:100F0000EF50F64FC491CC23A1F081110E944A0703
:100F1000EC2FF0E0EE0FFF1FE155FD4FA591B491CE
:100F2000EC91ED2381E090E009F480E0DF91CF9136
:100F3000089580E090E0FACF862F0C9473071F93FA
:100F4000CF93DF93282F30E0F901E754FD4F8491D0
:100F5000F901ED52F64FD491F901EF50F64FC491DB
:100F6000CC23A9F0162F81110E944A07EC2FF0E044
:100F7000EE0FFF1FE951F64FA591B4918FB7F8948A
:100F8000EC91111108C0D095DE23DC938FBFDF9167
:100F9000CF911F910895DE2BF8CF862F642F0C94EC
:100FA0009F07CF93DF9390E0FC01ED52F64F249121
:100FB0008F50964FFC0184918823C9F090E0880FF0
:100FC000991FFC01EB55FD4FA591B491FC01E9512E
:100FD000F64FC591D49161110DC09FB7F8948C91D3
:100FE000209582238C938881282328839FBFDF91BB
:100FF000CF910895623051F49FB7F8943C91822FBD
:10100000809583238C93E8812E2BEFCF8FB7F894B4
:10101000EC912E2B2C938FBFEACF862F642F0C944C
:10102000D1073FB7F89480910A0690910B06A091E2
:101030000C06B0910D0626B5A89B05C02F3F19F0F0
:101040000196A11DB11D3FBFBA2FA92F982F882748
:10105000BC01CD01620F711D811D911D42E0660F23
:10106000771F881F991F4A95D1F708958F929F92F5
:10107000AF92BF92CF92DF92EF92FF920E9411083F
:101080004B015C0180EDC82E87E0D82EE12CF12CBD
:101090000E941108681979098A099B09683E734002
:1010A00081059105A8F321E0C21AD108E108F108F1
:1010B00088EE880E83E0981EA11CB11CC114D104D7
:1010C000E104F10429F7FF90EF90DF90CF90BF90FB
:1010D000AF909F908F9008952FB7F8946091060677
:1010E0007091070680910806909109062FBF089518
:1010F0000F931F93CF93DF93C82FD62F86E0C89FFF
:10110000F0011124EE5AF84F11A2878D90A1813081
:101110009105F1F058F082309105F1F1039709F44F
:1011200040C0DF91CF911F910F9108956623C9F3BD
:1011300061E070E08C2F0E9427070E946C0860938A
:10114000AA077093AB078093AC079093AD07E9CFE4
:101150000E946C080091AA071091AB072091AC0780
:101160003091AD07AB01BC01401B510B620B730BFF
:101170008091BC079091BD07B0E0A0E0841795076F
:10118000A607B70748F462E070E08C2FDF91CF919B
:101190001F910F910C94270763E070E0D111C1CF2C
:1011A000F4CF70E060E0F1CF6F927F928F929F92C8
:1011B000AF92BF92CF92DF92EF92FF920F931F9365
:1011C000CF93DF9381E08093BE070E946C0800916B
:1011D000AE071091AF072091B0073091B107AB0176
:1011E000BC01401B510B620B730B8091BA079091AD
:1011F000BB07B0E0A0E084179507A607B70708F083
:1012000014C1C0E08091B807C81760F4E091B4073A
:10121000F091B507EC0FF11D62E080810E94D107CB
:10122000CF5FF0CF712C812C912C5401839480914D
:10123000B907781608F05FC0072D10E0E091B607F7
:10124000F091B707E00FF11F61E080810E94D107A4
:10125000E091B607F091B707E00FF11F60E08081E1
:101260000E949F07D501C401072C04C0880F991F55
:10127000AA1FBB1F0A94D2F76C017C01E094F09482
:10128000612C8091B8076816F8F4C62DD0E0E09183
:10129000B407F091B507EC0FFD1F80810E94730722
:1012A0002496CC0FDD1FCE5AD84F892B41F488816C
:1012B00099818C299D29998388836394E2CF8881C1
:1012C00099818E219F21F7CFE091B607F091B70762
:1012D000E00FF11F61E080810E949F078091B607B7
:1012E0009091B707080F191F60E0F80180810E94F4
:1012F000D10773949CCFC2E5D7E0FE018FEF9FEF3B
:10130000278D30A1232B21F4148E968F858F11A267
:10131000369627E0EE38F20799F7F12C96E0D92EB1
:101320008091B807F81608F050C0E12C0F2D10E09E
:10133000000F111F065A184F2091B907E21608F046
:1013400042C0F801608171810E2C02C076956795CC
:101350000A94E2F7F29E900111242E0D311DE2E570
:10136000F7E080E0458D568D2417350709F461C0FC
:101370008F5F36968A30B1F760FF23C0E2E5F7E071
:1013800090E080E0448D411117C0E091B207F091E8
:10139000B307E20FF31F4081D89EF001D99EF00DF4
:1013A0001124EE5AF84F448F368F258F10A2178ED6
:1013B00061E00E94780805C0019636968A30910552
:1013C00009F7E394B9CFF394ABCF10E089A1811171
:1013D000182F2696F7E0CE38DF07C1F70E946C0879
:1013E0006093AE077093AF078093B0079093B107F7
:1013F0001123D9F0809173078823B9F08091710788
:1014000090917207019789F480916E07DF91CF91D7
:101410001F910F91FF90EF90DF90CF90BF90AF9012
:101420009F908F907F906F9008951092BE0780E0FC
:10143000EDCF6170BECF089508950F93CF93DF93E2
:10144000EFEFF6E0A785B089C091C604D091C7043C
:101450008285AC0FBD1F0BB10F7703C000FA07F9EF
:101460000BB90D90000007FA07F90BB90000000056
:10147000000006FA07F90BB900000000000005FAA9
:1014800007F90BB900000000000004FA07F90BB9D6
:1014900000000000000003FA07F90BB9000000008B
:1014A000000002FA07F90BB900000000000001FA81
:1014B00007F90BB98A9591F60000000000FA07F9C8
:1014C0000BB90BB10F7707FB07F90BB9DF91CF9180
:1014D0000F9108950F93CF93DF93EFEFF6E0A78579
:1014E000B089C091C604D091C7048285AC0FBD1FDE
:1014F0000BB10F7703C000FA07F90BB90D9007FA8B
:1015000007F90BB90000000006FA07F90BB9000053
:10151000000005FA07F90BB90000000004FA07F90A
:101520000BB90000000003FA07F90BB90000000036
:1015300002FA07F90BB900008A9501FA07F90BB90D
:10154000D1F6000000FA07F90BB90BB10F7707FBD2
:1015500007F90BB9DF91CF910F9108950F93CF93B6
:10156000DF93EFEFF6E0A785B089C091C604D09174
:10157000C7048285AC0FBD1F02C0000C0BB80D90D4
:1015800000000BB800000000000C0BB800000000C9
:10159000000C0BB800000000000C0BB800000000AD
:1015A000000C0BB800000000000C0BB80000000C91
:1015B0008A950BB811F70000000C0BB80000000072
:1015C00000005F98DF91CF910F9108950F93CF9313
:1015D000DF93EFEFF6E0A785B089C091C604D09104
:1015E000C7048285AC0FBD1F8E3191F08D3151F053
:1015F0008C3149F08B3141F08A3139F0893131F049
:10160000883129F01CC032C048C05EC074C08AC096
:101610000D900BB80000000C0BB80000000C0BB8CC
:101620000000000C0BB80000000C0BB80000000C10
:101630000BB80000000C0BB80000000C0BB80D90AC
:101640000BB80000000C0BB80000000C0BB8000039
:10165000000C0BB80000000C0BB80000000C0BB81D
:101660000000000C0BB80000000C0BB80D900BB87C
:101670000000000C0BB80000000C0BB80000000CC0
:101680000BB80000000C0BB80000000C0BB80000F9
:10169000000C0BB80000000C0BB80D900BB800004C
:1016A000000C0BB80000000C0BB80000000C0BB8CD
:1016B0000000000C0BB80000000C0BB80000000C80
:1016C0000BB80000000C0BB80D900BB80000000C1C
:1016D0000BB80000000C0BB80000000C0BB80000A9
:1016E000000C0BB80000000C0BB80000000C0BB88D
:1016F0000000000C0BB80D900BB80000000C0BB8EC
:101700000000000C0BB80000000C0BB80000000C2F
:101710000BB80000000C0BB80000000C0BB8000068
:10172000000C0BB80D900BB80000000C0BB80000BB
:10173000000C0BB80000000C0BB80000000C0BB83C
:101740000000000C0BB80000000C0BB80000000CEF
:101750000BB80D900BB80000000C0BB80000000C8B
:101760000BB80000000C0BB80000000C0BB8000018
:10177000000C0BB80000000C0BB80000000C0BB8FC
:101780000D900BB80000000C0BB80000000C0BB85B
:101790000000000C0BB80000000C0BB80000000C9F
:1017A0000BB80000000C0BB80000000C0BB80D903B
:1017B0000BB80000000C0BB80000000C0BB80000C8
:1017C000000C0BB80000000C0BB80000000C0BB8AC
:1017D0000000000C0BB80000000C0BB80D900BB80B
:1017E0000000000C0BB80000000C0BB80000000C4F
:1017F0000BB80000000C0BB80000000C0BB8000088
:10180000000C0BB80000000C0BB80D900BB80000DA
:10181000000C0BB80000000C0BB80000000C0BB85B
:101820000000000C0BB80000000C0BB80000000C0E
:101830000BB80000000C0BB80D900BB80000000CAA
:101840000BB80000000C0BB80000000C0BB8000037
:10185000000C0BB80000000C0BB80000000C0BB81B
:101860000000000C0BB80D900BB80000000C0BB87A
:101870000000000C0BB80000000C0BB80000000CBE
:101880000BB80000000C0BB80000000C0BB80000F7
:10189000000C0BB80D900BB80000000C0BB800004A
:1018A000000C0BB80000000C0BB80000000C0BB8CB
:1018B0000000000C0BB80000000C0BB80000000C7E
:1018C0000BB80D900BB80000000C0BB80000000C1A
:1018D0000BB80000000C0BB80000000C0BB80000A7
:1018E000000C0BB80000000C0BB80000000C0BB88B
:1018F0000D900BB80000000C0BB80000000C0BB8EA
:101900000000000C0BB80000000C0BB80000000C2D
:101910000BB80000000C0BB80000000C0BB80D90C9
:101920000BB80000000C0BB80000000C0BB8000056
:10193000000C0BB80000000C0BB80000000C0BB83A
:101940000000000C0BB80000000C0BB80D900BB899
:101950000000000C0BB80000000C0BB80000000CDD
:101960000BB80000000C0BB80000000C0BB8000016
:10197000000C0BB80000000C0BB80D900BB8000069
:10198000000C0BB80000000C0BB80000000C0BB8EA
:101990000000000C0BB80000000C0BB80000000C9D
:1019A0000BB80000000C0BB80D900BB80000000C39
:1019B0000BB80000000C0BB80000000C0BB80000C6
:1019C000000C0BB80000000C0BB80000000C0BB8AA
:1019D0000000000C0BB80D900BB80000000C0BB809
:1019E0000000000C0BB80000000C0BB80000000C4D
:1019F0000BB80000000C0BB80000000C0BB8000086
:101A0000000C0BB80D900BB80000000C0BB80000D8
:101A1000000C0BB80000000C0BB80000000C0BB859
:101A20000000000C0BB80000000C0BB80000000C0C
:101A30000BB80D900BB80000000C0BB80000000CA8
:101A40000BB80000000C0BB80000000C0BB8000035
:101A5000000C0BB80000000C0BB80000000C0BB819
:101A60000D900BB80000000C0BB80000000C0BB878
:101A70000000000C0BB80000000C0BB80000000CBC
:101A80000BB80000000C0BB80000000C0BB80D9058
:101A90000BB80000000C0BB80000000C0BB80000E5
:101AA000000C0BB80000000C0BB80000000C0BB8C9
:101AB0000000000C0BB80000000C0BB80D900BB828
:101AC0000000000C0BB80000000C0BB80000000C6C
:101AD0000BB80000000C0BB80000000C0BB80000A5
:101AE000000C0BB80000000C0BB80D900BB80000F8
:101AF000000C0BB80000000C0BB80000000C0BB879
:101B00000000000C0BB80000000C0BB80000000C2B
:101B10000BB80000000C0BB80D900BB80000000CC7
:101B20000BB80000000C0BB80000000C0BB8000054
:101B3000000C0BB80000000C0BB80000000C0BB838
:101B40000000000C0BB80D900BB80000000C0BB897
:101B50000000000C0BB80000000C0BB80000000CDB
:101B60000BB80000000C0BB80000000C0BB8000014
:101B7000000C0BB8000000005F98DF91CF910F912F
:101B800008952091FF0630910007809106079091FB
:101B90000707281739070CF457C08CEA93E0909395
:101BA000890080938800109200071092FF068091B0
:101BB000010790910207A0910307B09104070196D5
:101BC000A11DB11D8093010790930207A093030705
:101BD000B09304078091C2049091C304A091C404FF
:101BE000B091C504892B8A2B8B2B51F18091C204B3
:101BF0009091C304A091C404B091C50418161906AD
:101C00001A061B069CF48091C2049091C304A09113
:101C1000C404B091C5040197A109B1098093C2041D
:101C20009093C304A093C404B093C5048091FF06AD
:101C3000909100070196909300078093FF06089506
:101C40001092B1002B98F2CF2091FF06309100073F
:101C500080910D07082E000C990B2817390731F7D2
:101C60008AE490E090938900809388008EE993E164
:101C700090930D0580930C05D9CF90910A0189139B
:101C80000BC0E5E0FAE0E4919FEF90930A01E130A8
:101C900049F028F0E23061F060E00C949F07109268
:101CA0006E00FACF90916F009D7F90936F00F4CFFC
:101CB000909170009D7F9093700091E09093B000A0
:101CC0009091B100987F94609093B1001092B3000E
:101CD000E3CF2F923F924F925F926F927F928F92BB
:101CE0009F92AF92BF92CF92DF92EF92FF920F93AB
:101CF0001F93CF93DF9300D000D01F92CDB7DEB7F4
:101D00008091C3079091C4078230910509F44FC0B8
:101D10008330910509F46DC0019709F0F9C00E9464
:101D20006C080091CD071091CE072091CF0730911C
:101D3000D007601B710B820B930B0091C5071091AC
:101D4000C6072091C7073091C8076017710782073F
:101D5000930708F4DDC082E090E09093C40780937D
:101D6000C3070E946C086093CD077093CE078093E1
:101D7000CF079093D00761E08091C1070F900F903B
:101D80000F900F900F90DF91CF911F910F91FF90C7
:101D9000EF90DF90CF90BF90AF909F908F907F900B
:101DA0006F905F904F903F902F900C949F070E94F0
:101DB0006C080091CD071091CE072091CF0730918C
:101DC000D007601B710B820B930B0091C907109118
:101DD000CA072091CB073091CC07601771078207A3
:101DE000930708F495C01092C4071092C30760E0EF
:101DF000C3CF2091D7073091D8078091D507909114
:101E0000D607281739070CF072C28091D907909134
:101E1000DA07A091DB07B091DC07892B8A2B8B2B8B
:101E200009F046C0220F331FE091D307F091D40789
:101E3000E20FF31F6081718188EE93E00E949F2C76
:101E40008B012B01770F660877088091D10790915D
:101E5000D207280F391FF901208031808091C107F6
:101E60009091C20720910A01281709F469C02F3FF9
:101E700009F4E1C0C301B2010E947C2B26E636E6DC
:101E800046EA5FE30E94B72B0E94412D6093D90779
:101E90007093DA078093DB079093DC070E946C084D
:101EA0006093CD077093CE078093CF079093D007B0
:101EB0000E946C080091CD071091CE072091CF07AA
:101EC0003091D007601B710B820B930B0091D907E7
:101ED0001091DA072091DB073091DC07601771075A
:101EE00082079307A8F08091C1070E943D0E1092CF
:101EF000D9071092DA071092DB071092DC07809165
:101F0000D7079091D80701969093D8078093D70769
:101F10000F900F900F900F900F90DF91CF911F9126
:101F20000F91FF90EF90DF90CF90BF90AF909F9078
:101F30008F907F906F905F904F903F902F9008957B
:101F4000E5E0FAE024912D8327FD94CF61E00E9423
:101F5000D107FD81FF2321F02D81223009F05EC1E0
:101F60004101B12CA12C60E072E18AE790E0A5016B
:101F700091010E94D52C29833A834B835C836901AC
:101F80007A0131E0C31AD108E108F1088FEFC816D1
:101F9000D104E104F10409F00CF415C160E472E429
:101FA0008FE090E0A50191010E94D52C69017A0192
:101FB00091E0C91AD108E108F108ED81E23009F099
:101FC000B6C082E0FFEFCF16D104E104F10409F0BE
:101FD0000CF4E5C160E970ED83E090E0A5019101AA
:101FE0000E94D52C69017A0181E0C81AD108E10864
:101FF000F10883E09FEFC916D104E104F10409F070
:102000000CF4CDC168E478EE81E090E0A501910187
:102010000E94D52C69017A0181E0C81AD108E10833
:10202000F1089FEFC916D104E104F10411F00CF09E
:10203000A2C084E0B4C180930A01E5E0FAE03491E3
:102040003D833F3F09F416CF313039F148F032304B
:1020500009F445C037FD0ECF61E00E94D1077CCF67
:1020600014BC15BC24B5226024BD25B5216025BD56
:102070009C013327F901EF50F64FE491F0E0EE0FA9
:10208000FF1FE951F64F45915491F901ED52F64F7A
:10209000E491E0937A061D8259CF1092800010924D
:1020A000810020918100286020938100209181008F
:1020B0002160209381009C013327F901EF50F64FF6
:1020C000E491F0E0EE0FFF1FE951F64F4591549176
:1020D000F901ED52F64FE491E093790637CF109273
:1020E000B0001092B1002091B00022602093B000A7
:1020F0002091B10021602093B1009C013327F901A8
:10210000EF50F64FE491F0E0EE0FFF1FE951F64F6C
:10211000459154915093780640937706F901ED521A
:10212000F64FE491E0937606E2E0ED830FCFEFEF18
:10213000CE16D104E104F10409F00CF46DC068E49A
:1021400078EE81E090E0A50191010E94D52C690113
:102150007A01F1E0CF1AD108E108F1082D8122239C
:1021600009F4E9C0FFEFCF16D104E104F10409F04E
:102170000CF45FCFE9C064E274EF80E090E0A50169
:1021800094010E94D52C69017A0181E0C81AD10816
:10219000E108F10885E09FEFC916D104E104F104DC
:1021A00009F008F4FCC062E17AE780E090E0A50164
:1021B00094010E94D52C69017A0181E0C81AD108E6
:1021C000E108F108D3C081E02D812111E8C095B567
:1021D000987F892B85BD2FEF3FEFA9014114510452
:1021E0006104710409F043C08D81813009F45DC040
:1021F000823009F46CC081113DCEC7BC20938306A8
:1022000030938406409385065093860680916E0035
:10221000826080936E002ECE82E0D6CFB12CA12CAE
:1022200060E072E18AE790E0A50191010E94D52C5F
:1022300069017A0181E0C81AD108E108F108C114E6
:10224000D10491E0E906F104FCF491E0FD81F13064
:1022500011F680918100887F892B809381002FEF78
:102260003FEFA9014114510461047104F1F091019F
:10227000220F331FD8010E94F42C28EE33E040E0F7
:1022800050E00E94B32CB0CF68E478EE81E090E09B
:10229000A50191010E94D52C69017A01E1E0CE1AD5
:1022A000D108E108F10893E0D1CFD0928900C09223
:1022B000880020937F0630938006409381065093D8
:1022C000820680916F00826080936F00D3CDC092B0
:1022D000B30020937B0630937C0640937D06509399
:1022E0007E0680917000826080937000C3CD8091E3
:1022F000C1070E943D0E1092C4071092C30708CE7A
:1023000084E0EFEFCE16D104E104F10409F008F403
:102310005ECFC980DA80EB80FC809AE0F594E79488
:10232000D794C7949A95D1F791E0C91AD108E108DA
:10233000F10885E04CCF83E0EFEFCE16D104E10445
:10234000F10409F00CF443CF62E17AE780E090E019
:10235000A50194010E94D52C69017A01E1E0CE1A11
:10236000D108E108F108FD81FF2351F286E02FEF4B
:10237000C216D104E104F10491F088F0C980DA803A
:10238000EB80FC808AE0F594E794D794C7948A9513
:10239000D1F7F1E0CF1AD108E108F10887E0909178
:1023A000B100987F892B8093B10015CF2091E9046B
:1023B000260F3327331F21323105ECF42091CD064F
:1023C000FC0190E080E0243069F082E00895A09163
:1023D000E9042191AC0147535B4FA40FB52FB11D08
:1023E0002C930196861798F38091E904680F609307
:1023F000E90480E0089581E008951092CD0681E01F
:102400008093CC061092C70661E082E10E949F078C
:1024100061E083E10E949F07E9EBF0E080818E7F1D
:10242000808380818D7F808388E48093B80085E4F9
:102430008093BC000895CF93DF9391E09093C804FC
:102440008823B9F0C091B800D091BA008091BC0047
:102450008A7B8093BC0060E082E10E949F0760E07D
:1024600083E10E949F070E94FD11D093BA00C093A0
:10247000B800DF91CF910895CF92DF92EF92FF9253
:102480000F931F93CF93DF93D091D30681E0D13286
:1024900008F09CC0C091D5060E9411086B017C0118
:1024A0008091CD0681116CC082E08093CD0681E0E1
:1024B0008093CC068FEF8093CB061092CA06D09300
:1024C000C906A7E8B6E0E7EAF6E080E0D8138DC0D9
:1024D0001092C8068091C806CC0FC82BC093C806BE
:1024E0008091C706813009F084C01092C7060E940F
:1024F00011086B017C018091C8068093BB0080911C
:10250000CF069091D006A091D106B091D206892B2A
:102510008A2B8B2BA1F00E9411080091CF061091FD
:10252000D0062091D1063091D2066C197D098E0912
:102530009F09061717072807390708F442C080913A
:10254000BC0083FDD8CF85EC8093BC000E941108AD
:102550006B017C018091CD06823009F44CC08091E2
:10256000CB068F3F09F469C08091CB06803209F415
:1025700066C08091CB06803309F463C084E026C036
:102580008091CF069091D006A091D106B091D2064D
:10259000892B8A2B8B2B09F483CF0E941108009181
:1025A000CF061091D0062091D1063091D2066C1939
:1025B0007D098E099F09061717072807390708F0B4
:1025C0006FCF8091CE060E941B1285E01092D40638
:1025D0001092D3061092D606DF91CF911F910F91E2
:1025E000FF90EF90DF90CF9008959D9191938F5F32
:1025F0006DCF85EEA9CF8091CF069091D006A091A6
:10260000D106B091D206892B8A2B8B2B09F4A2CF4D
:102610000E9411080091CF061091D0062091D1069A
:102620003091D2066C197D098E099F09061717078C
:102630002807390708F08ECFC4CF80E0C7CF82E0EB
:10264000C5CF83E0C3CF0895E091F8068091F706E7
:10265000E81730F4F0E0E952F94F808190E00895F6
:102660008FEF9FEF08958091F7069091F806891BF0
:10267000990B0895CF92DF92EF92FF920F931F93E1
:10268000CF93DF937C01CB018A012091D6062223D0
:1026900089F0EB016B01C40ED51ECC15DD0569F088
:1026A0006991D701ED91FC910190F081E02DC70176
:1026B0000995F3CF642F0E94D611C801DF91CF9105
:1026C0001F910F91FF90EF90DF90CF900895CF93DF
:1026D000DF931F92CDB7DEB769832091D606222300
:1026E000F9F02091D306203258F021E030E0FC01CF
:1026F0003383228390E080E00F90DF91CF910895A3
:102700008091D406E82FF0E0E957F94F9981908342
:102710008F5F8093D4068093D30681E090E0ECCF66
:1027200061E0CE0101960E94D611F7CF682F86E4B2
:1027300097E00C94671390E080E008958091FF0685
:10274000909100072091050728171906C1F41092EF
:10275000C7041092C60480910B0780930C078DEC80
:1027600093E190930D0580930C058091FF06909165
:1027700000070196909300078093FF06089520912B
:10278000FF063091000780910607909107072817F0
:10279000390759F781EC9DE0E4CF30918400209116
:1027A0000A072A50231B2350F0F72D5F19F02A95B2
:1027B00011F001C00000E0910E05F0910F050995A0
:1027C00090910C0780910B07911138C080930C07F2
:1027D000209109074091C6045091C704240F352F5A
:1027E000311D3093C7042093C6042091FF06309119
:1027F00000072F5F3F4F082E000C990B0196609148
:102800000807689FA001699F500D1124809105075A
:10281000840F952F911D2817390731F48EE993E124
:1028200090930D0580930C058091FF069091000711
:102830000196909300078093FF060895915090931E
:102840000C07D3CF0895CF93DF93FC01EB019A01DE
:10285000E03D87E0F80714F4E053F84F8EE090E095
:102860008C1B9D0B6CE070E00E949F2CCB01E61B43
:10287000F70B4CE0489FB001499F700D11246C0F7D
:102880007D1F625071094DE0469FC001479F900D2A
:102890001124019765E070E00E949F2C260F371FDE
:1028A0002E0F3F1FBF01F7FF02C06D5F7F4F759571
:1028B000679575956795260F371FCF016CE97FEFF8
:1028C0000E949F2C260F371FCF0160E971E00E9404
:1028D0009F2CC901860F971F67E070E00E949F2C14
:1028E000DF91CF9108958091010690910206A09109
:1028F0000306B091040681309105A105B10539F4B4
:1029000088E690E09093FE068093FD06089582305D
:102910009105A105B10519F48DEC92E0F3CF039771
:10292000A105B10599F780ED95E0ECCFCF92DF924C
:10293000EF92FF920F931F93CF93DF93D82F0E94B4
:1029400011086B017C018091CD06811165C0CD2FEE
:1029500081E08093CD068093CC069FEF9093CB06C9
:102960001092CA069D0F9093C9068093C806809165
:10297000C806806D8093C8068091C706813009F033
:102980007FC01092C7060E9411086B017C018091E4
:10299000C8068093BB008091CF069091D006A0918D
:1029A000D106B091D206892B8A2B8B2BA1F00E94E5
:1029B00011080091CF061091D0062091D1063091D8
:1029C000D2066C197D098E099F090617170728077B
:1029D000390708F442C08091BC0083FDD8CF85EC54
:1029E0008093BC000E9411086B017C018091CD0690
:1029F000813009F447C08091CA068D1710F4C09148
:102A0000CA06A7EAB6E0E7EDF6E080E08C1751F1E0
:102A10009D9191938F5FFACF8091CF069091D006D0
:102A2000A091D106B091D206892B8A2B8B2B09F469
:102A30008ACF0E9411080091CF061091D0062091F4
:102A4000D1063091D2066C197D098E099F090617AF
:102A500017072807390708F076CF8091CE060E9425
:102A60001B12C0E01092F806C093F7068C2FDF917E
:102A7000CF911F910F91FF90EF90DF90CF9008952D
:102A800085EEAECF8091CF069091D006A091D10671
:102A9000B091D206892B8A2B8B2B09F4A7CF0E94E9
:102AA00011080091CF061091D0062091D1063091E7
:102AB000D2066C197D098E099F090617170728078A
:102AC000390708F093CFC9CFCF93DF9388E60E94F0
:102AD000050785E090E00E9496130E943C1281E079
:102AE00090E00E9496140E94F206C0EDD7E087FFA6
:102AF00002C0CCE6D7E088E60E94050786E090E0B9
:102B00000E9496130E943C1281E090E00E9496146D
:102B10000E94F2069C0194E0359527959A95E1F77D
:102B20002F703327922F990F990F291B220F820F95
:102B30008C0F9D2F911DDF91CF91089588E60E9403
:102B4000050785E090E00E9496130E943C1281E008
:102B500090E00E9496140E94F2068F77282F30E0B2
:102B600094E0359527959A95E1F7922F990F990F53
:102B7000291B220F820F089588E60E94050784E032
:102B800090E00E9496130E943C1281E090E00E9427
:102B900096140E94F2069C0194E0359527959A952B
:102BA000E1F72F703327922F990F990F291B220FCE
:102BB000820F089588E60E94050790E080E00E9459
:102BC00096130E943C1281E090E00E9496140E94AD
:102BD000F2069C0194E0359527959A95E1F72F70C0
:102BE0003327922F990F990F291B220F820F0895D7
:102BF00088E60E94050781E090E00E9496130E94FB
:102C00003C1281E090E00E9496140E94F2069C0122
:102C100094E0359527959A95E1F72F703327922FF9
:102C2000990F990F291B220F820F08950F931F935D
:102C3000CF93DF9388E60E94050782E090E00E9430
:102C400096130E943C1281E090E00E9496140E942C
:102C5000F206EC0188E60E94050789E090E00E94F8
:102C600096130E943C1281E090E00E9496140E940C
:102C7000F2068C0188E60E9405078CE090E00E9435
:102C800096130E943C1281E090E00E9496140E94EC
:102C9000F206C02BD12B8C2B9D2B26E09695879589
:102CA0002A95E1F78170DF91CF911F910F910895DF
:102CB000CF930E941616C82F88E60E94050782E06F
:102CC00090E00E9496130E943C1281E090E00E94E6
:102CD00096140E94F206C11110C0AC0194E0559503
:102CE00047959A95E1F74F705527942F990F990FB3
:102CF000491B440F840FCF910895482F4F79242FFB
:102D000030E084E0359527958A95E1F7822F880F8A
:102D1000880F922F981B892F880FECCFCF93DF93CA
:102D2000D82F88E60E94050782E090E00E94961363
:102D30000E943C1281E090E00E9496140E94F206EC
:102D4000C82FDD2309F453C0C06488E60E9405073C
:102D500082E090E00E9496136C2F86E497E00E9438
:102D600067130E943C1288E60E94050789E090E004
:102D70000E9496130E943C1281E090E00E949614FB
:102D80000E94F206C82FDD23A1F1C06488E60E94EC
:102D9000050789E090E00E9496136C2F86E497E087
:102DA0000E9467130E943C1288E60E9405078CE08F
:102DB00090E00E9496130E943C1281E090E00E94F5
:102DC00096140E94F206C82FDD23A9F0C06488E69D
:102DD0000E9405078CE090E00E9496136C2F86E419
:102DE00097E00E946713DF91CF910C943C12CF7B48
:102DF000ACCFCF7BCBCFCF7BEACF4F925F926F929E
:102E00007F928F929F92AF92BF92CF92DF92EF927A
:102E1000FF920F931F93CF93DF93CDB7DEB7A097A9
:102E20000FB6F894DEBF0FBECDBF611571058105E9
:102E30009105C9F480E3A0960FB6F894DEBF0FBEEB
:102E4000CDBFDF91CF911F910F91FF90EF90DF9059
:102E5000CF90BF90AF909F908F907F906F905F903A
:102E60004F900C9480068E010F5F1F4F812C912C88
:102E700054017801442E512C712C612CA301920134
:102E80000E94B32CB22FA32FD42EC52EA5019401DE
:102E90002F5F3F4F4F4F5F4FF80161938F016B2FB3
:102EA0007A2F8D2D9C2D611571058105910559F5A0
:102EB0008901D12CC12CF401EC19FD09EE0DFF1D87
:102EC00080818A3018F5805D0E948006FFEFCF1A5E
:102ED000DF0A0C151D0579F7A0960FB6F894DEBF32
:102EE0000FBECDBFDF91CF911F910F91FF90EF905B
:102EF000DF90CF90BF90AF909F908F907F906F901A
:102F00005F904F90089549015A01B8CF895CDCCF9A
:102F10008DE00E9480068AE00C9480060E94D30611
:102F20000C948817E9EFF6E082838AE08383CB0173
:102F30000E94D3060C9488170F931F93CF93DF93AF
:102F40008C01EB010E94752C8883C80101960E94B8
:102F5000752C8983CE01DF91CF911F910F91089538
:102F6000CF92DF92EF92FF920F931F93CF93DF9355
:102F7000EB017B0124E0E20EF11C8B016C01C61A0F
:102F8000D70AC601800F911F0E94752CF80181930A
:102F90008F01EE15FF05A9F7CE01DF91CF911F91AB
:102FA0000F91FF90EF90DF90CF9008950F931F93B4
:102FB000CF93DF938091070190910801019709F069
:102FC00000C100E117E0C4E8D3E0CE010E94752CF7
:102FD000F80181938F012196C13BF3E0DF07A9F748
:102FE00080ED95E09093FE068093FD0660E177E02A
:102FF00080E00E94921785E491E00E948E178DEC8C
:1030000092E09093FE068093FD060E9464152AE0EC
:103010002093FB062093FC06BC0190E080E04AE090
:103020000E94FD168FE20E9480060E949E15682F66
:1030300070E090E080E04AE00E94FD168FE20E947E
:1030400080060E94BC15682F70E090E080E04AE0A6
:103050000E94FD1682E591E00E948E170E9458168C
:10306000682F70E090E080E04AE00E94FD168AE35D
:103070000E9480060E94F815682F70E090E080E0C2
:103080004AE00E94FD168AE30E9480060E94DA153B
:10309000682F70E090E080E04AE00E94FD160E94F8
:1030A00088170E94BC15D82F0E949E15C82F0E9419
:1030B00064154D2F50E06C2F70E00E942314892B73
:1030C00021F484E591E00E94D3060E94BC15D82F1C
:1030D0000E949E15C82F0E9464154D2F50E06C2F42
:1030E00070E00E942314019721F48BE591E00E9487
:1030F000D3060E94BC15D82F0E949E15C82F0E948F
:1031000064154D2F50E06C2F70E00E94231402973D
:1031100021F482E691E00E94D3060E94BC15D82FCC
:103120000E949E15C82F0E9464154D2F50E06C2FF1
:1031300070E00E942314039721F48AE691E00E9434
:10314000D3060E94BC15D82F0E949E15C82F0E943E
:1031500064154D2F50E06C2F70E00E9423140497EB
:1031600021F484E791E00E94D3060E94BC15D82F79
:103170000E949E15C82F0E9464154D2F50E06C2FA1
:1031800070E00E942314059721F48DE791E00E94DE
:10319000D3060E94BC15D82F0E949E15C82F0E94EE
:1031A00064154D2F50E06C2F70E00E942314069799
:1031B00021F484E891E00E94D30610920801109255
:1031C0000701DF91CF911F910F9108956F927F9228
:1031D0008F929F92AF92BF92CF92DF92EF92FF9227
:1031E0000F931F93CF93DF93CDB7DEB72B970FB617
:1031F000F894DEBF0FBECDBF7B01BE01665F7F4F7F
:103200000E949C17CE0101964C01E81AF90AD12CB4
:10321000C12C5E0198E0A90EB11C1A2D0B2D8A85D8
:103220009B85C816D9060CF064C03401C3018E0D0D
:103230009F1D0E94752CF30181933F01EA15FB0548
:10324000A9F7898142E050E0612F702F082E000C11
:10325000990B0E94882F0E945816782E812F902F4C
:103260000E941F2B78123EC08B8142E050E0612FFC
:10327000702F082E000C990B0E94882F0E94F815C1
:10328000782E812F902F0E941F2B78122BC08D81BA
:1032900042E050E0612F702F082E000C990B0E9425
:1032A000882F0E94DA15782E812F902F0E941F2BD5
:1032B000781218C0888541E050E0612F702F082EE9
:1032C000000C990B0E94882F6DE871E0812F902FE0
:1032D0000E94782F892B31F481E090E090930F06C3
:1032E00080930E06FFEFCF1ADF0A89E0E80EF11C8B
:1032F00096CF2B960FB6F894DEBF0FBECDBFDF91F1
:10330000CF911F910F91FF90EF90DF90CF90BF90E2
:10331000AF909F908F907F906F90089585ED8093F0
:10332000BC008091CF069091D006A091D106B091BB
:10333000D2060796A11DB11D23E0B695A7959795D6
:1033400087952A95D1F72091BC0024FD03C01092E7
:10335000CD0608954091CF065091D0066091D106D8
:103360007091D206452B462B472B69F30097A10598
:10337000B10541F02AE22A95F1F700C00197A109B1
:10338000B109E1CF8091CE060C941B128F929F92CF
:10339000AF92BF92CF92DF92EF92FF920F931F9363
:1033A000CF937C010E94D40880933F0689E4C82E05
:1033B00086E0D82E90E5892E912CA12CB12C01E02D
:1033C00010E080913F068D3309F4AAC0A8950E94B1
:1033D000D40880933F06F60101900020E9F7CF0161
:1033E0008A54964020913F068E159F05C8F52D33CF
:1033F000B9F1A8950E94D408C82F80933F0688236E
:10340000C1F08D33B1F08334A1F086ED8C0F8230A2
:1034100080F083ED8C0F833060F0C093EC056CEE90
:1034200075E089E496E00E946D2F89E496E00E94A1
:10343000D30680914906811139C0C33409F042C0D6
:103440001092E9051092E805109308010093070116
:103450000E94D61763E571E089E496E00E94812F0F
:1034600080913F0690914906911150C0833409F034
:10347000A8CF1092E9051092E80581E090E09093C2
:103480000801809307010E94D61763E571E089E483
:1034900096E0CF911F910F91FF90EF90DF90CF902A
:1034A000BF90AF909F908F900C94812FC33451F4B4
:1034B00063E571E089E496E00E94812F89E496E05B
:1034C0000E94D3060E94690ECC2309F484CF109287
:1034D000C5071092C6071092C7071092C8078092BE
:1034E000C9079092CA07A092CB07B092CC0710935D
:1034F000C4070093C3070E946C086093CD077093C4
:10350000CE078093CF079093D00765CF833409F01F
:1035100058CF63E571E089E496E00E94812F51CF96
:10352000CF911F910F91FF90EF90DF90CF90BF90C0
:10353000AF909F908F9008955F926F927F928F923D
:103540009F92AF92BF92CF92DF92EF92FF920F9332
:103550001F93CF93DF937C01EB018A0181E090E020
:103560009093C1048093C0040E94D40880933F06C6
:1035700089E4682E86E0782EC00FD11F90E5892E51
:10358000912CA12CB12CCC24C394D12CF30101900B
:103590000020E9F7CF018A5496408E159F0508F068
:1035A00081C08091C0049091C104019709F07AC054
:1035B000A8950E94D40880933F06F3010190002053
:1035C000E9F7CF018A5496408E159F0508F04BC04D
:1035D0008091C0049091C104019709F044C0A8955E
:1035E0000E94D408582E80933F06882309F1FDE3FA
:1035F0008F17F1F083E45816D9F086ED850D8230EF
:10360000B8F083ED850D833098F05092EC056CEEA8
:1036100075E089E496E00E946D2F888169E476E088
:10362000082E000C990B0E94812FC8010E94D3061E
:1036300080914906811151C0E3E45E1262C010928C
:10364000E9051092E805D0920801C09207010E9496
:10365000D61763E571E089E496E00E94812F10920D
:10366000C1041092C00480913F06909149069111C7
:103670006CC0833409F08ACF1092E9051092E805F6
:1036800081E090E090930801809307010E94D61793
:1036900063E571E089E496E00E94812F1092C104F5
:1036A0001092C00463E571E089E496E00E94812FE6
:1036B00063E571E08CEE95E0DF91CF911F910F9162
:1036C000FF90EF90DF90CF90BF90AF909F908F9042
:1036D0007F906F905F900C94812FF3E45F1211C084
:1036E00063E571E089E496E00E94812F888169E4B6
:1036F00076E0082E000C990B0E94812FC8010E94D1
:10370000D3060E94690E552009F457CF1092C507C1
:103710001092C6071092C7071092C8078092C90777
:103720009092CA07A092CB07B092CC07D092C40760
:10373000C092C3070E946C086093CD077093CE07B8
:103740008093CF079093D00738CF833409F01ECFF2
:1037500063E571E089E496E00E94812F17CFFF9224
:103760000F931F93CF93DF93EC01F62E08811981FD
:10377000C8010E94752CF81621F06F2DC8010E9417
:103780007D2CCE01DF91CF911F910F91FF90089575
:10379000EF92FF920F931F93CF93DF9300D0CDB79B
:1037A000DEB78C019A83898384E4E82E87E0F82EC3
:1037B000F7016081CE0101960E94AF1B0F5F1F4F82
:1037C0001A830983F7016181CE0101960E94AF1B24
:1037D000C7010F900F90DF91CF911F910F91FF9034
:1037E000EF900895EF92FF920F931F93CF93DF9383
:1037F00000D0CDB7DEB78DE3E82E87E0F82E09E1E3
:1038000010E01A830983F70161917F01CE010196CF
:103810000E94AF1B0F5F1F4F0032110591F78DE320
:1038200097E00F900F90DF91CF911F910F91FF9034
:10383000EF900895EF92FF920F931F93CF93DF9332
:1038400000D0CDB7DEB780E1E82E87E0F82E04E89F
:1038500013E01A830983F70161917F01CE0101967C
:103860000E94AF1B0F5F1F4F013BF3E01F0789F75B
:1038700080E197E00F900F90DF91CF911F910F9112
:10388000FF90EF900895EF92FF920F931F93CF93C5
:10389000DF9300D0CDB7DEB78C017B019A8389839B
:1038A000FB016081CE0101960E94AF1B0F5F1F4F8D
:1038B0001A830983F7016181CE0101960E94AF1B33
:1038C000C7010F900F90DF91CF911F910F91FF9043
:1038D000EF9008955F926F927F928F929F92AF9236
:1038E000BF92CF92DF92EF92FF920F931F93CF93ED
:1038F000DF931F92CDB7DEB75B0164E477E00E94EF
:103900009C1763E571E089E496E00E94812F63E5EE
:1039100071E080E496E00E94812F0E940F0780ED05
:1039200095E09093FE068093FD066FE871E08AE0D3
:103930000E9492178DEC92E09093FE068093FD0614
:1039400099E4692E96E0792E29E0522E10E000E0ED
:10395000D12CC12C80913F06833409F4D0C0A895A6
:103960007501EC0CFD1C6701CA18DB088091440747
:1039700090914507081719070CF06AC0A89580E4D4
:10398000C82E86E0D82EC701805496404C01C40151
:103990008C0D9D1D0E94752CF60181936F016E1692
:1039A0007F06A9F760914706062E000C770B41E0D1
:1039B00050E089E496E00E94882F60E476E082E19E
:1039C00096E00E94812F6DE871E089E496E00E9404
:1039D000782F892B31F46DE971E082E196E00E9445
:1039E0006D2F62E472E089E496E00E94782F892BC3
:1039F00031F465EA71E082E196E00E946D2F8091DA
:103A00001006909111060817190791F46EEA71E0FB
:103A100089E496E00E94812F62E176E089E496E0F5
:103A20000E946D2F69E476E082E196E00E94812F8A
:103A300082E196E00E948E170F5F1F4F63E571E0F1
:103A400089E496E00E94812FF9E0EF0EF11C8BCF04
:103A50000E94D40880933F062091100630911106F1
:103A60008E3209F047C02F5F3F4F309311062093ED
:103A7000100610E000E0D12CC12C209144073091B9
:103A8000450740911006509111062417350724F47C
:103A900030931106209310062091100630911106E4
:103AA00037FF04C010921106109210068D3309F0F2
:103AB00051CF8091100690911106589E8001599E19
:103AC000100D11240A0D1B1D095F1F4FC8010E9414
:103AD000752C89836DE871E0CE0101960E94782FE4
:103AE00062E472E0892B11F06DE871E0C8010E9478
:103AF000431C2CCF8A3209F621503109B6CF0F90E2
:103B0000DF91CF911F910F91FF90EF90DF90CF90B9
:103B1000BF90AF909F908F907F906F905F9008952F
:103B2000AF92BF92CF92DF92EF92FF920F931F93CB
:103B3000CF93DF9300D0CDB7DEB78B016B0124E0CC
:103B4000C20ED11C7B015C01A61AB70AC5018E0DFD
:103B50009F1D9A838983F70161917F01CE010196B0
:103B60000E94AF1BEC14FD0489F7C8010F900F9061
:103B7000DF91CF911F910F91FF90EF90DF90CF9049
:103B8000BF90AF9008958F929F92AF92BF92CF92C5
:103B9000DF92EF92FF920F931F93CF93DF93CDB7F6
:103BA000DEB762970FB6F894DEBF0FBECDBF5C01E3
:103BB0007B018A0164E477E00E949C1780914407AE
:103BC000909145078C3091050CF0E3C029E0289FC7
:103BD0006001299FD00C1124CE0CDF1C0E940F071E
:103BE00080ED95E09093FE068093FD0662EB71E018
:103BF0008AE00E9492178DEC92E09093FE068093EB
:103C0000FD0684E195E00E948E1782E196E00E9415
:103C1000D3064AE0CE0101967C01BC01C8010E9496
:103C20003D2BF70101900020E9F731974F018E18E5
:103C30009F08B4016F5F7F4F90E080E00E94A72E45
:103C40008C01009741F0FC011082B7010E94812F86
:103C5000892809F094C01092490642E156E070E0CC
:103C600060E082E090E00E949C1A42E156E062E14E
:103C700070E082E090E00E949C1A42E156E063E22C
:103C800070E082E090E00E949C1A60911206062E7D
:103C9000000C770B8091400642E050E0082E000CAB
:103CA000990B0E94882F60912406062E000C770B3A
:103CB0008091420642E050E0082E000C990B0E94D1
:103CC000882F60913506062E000C770B80914406F4
:103CD00042E050E0082E000C990B0E94882F809142
:103CE000460641E050E069E476E0082E000C990BAE
:103CF0000E94882F809147066DE871E0082E000C25
:103D0000990B0E94812F80E4882E86E0982EC601B0
:103D1000805496406C01C601880D991D9A83898351
:103D2000F40161914F01C7010E94AF1BF9E48F16A6
:103D3000F6E09F0681F78091440790914507019630
:103D40009093450780934407C5010E94C81B011545
:103D50001105F9F0C80162960FB6F894DEBF0FBEE8
:103D6000CDBFDF91CF911F910F91FF90EF90DF902A
:103D7000CF90BF90AF909F908F900C941E2E41E0FB
:103D800050E0B80189E496E00E94882F10924A061C
:103D900064CF62960FB6F894DEBF0FBECDBFDF9141
:103DA000CF911F910F91FF90EF90DF90CF90BF9038
:103DB000AF909F908F9008951F920F920FB60F9221
:103DC00011242F933F938F939F93AF93BF93809131
:103DD000060690910706A0910806B0910906309159
:103DE000050623E0230F2D3758F50196A11DB11DBF
:103DF000209305068093060690930706A093080675
:103E0000B093090680910A0690910B06A0910C06CA
:103E1000B0910D060196A11DB11D80930A069093E5
:103E20000B06A0930C06B0930D06BF91AF919F9126
:103E30008F913F912F910F900FBE0F901F9018956B
:103E400026E8230F0296A11DB11DD2CF1F920F921B
:103E50000FB60F9211242F933F934F935F936F935D
:103E60007F938F939F93AF93BF93EF93FF93809133
:103E70007B0690917C06A0917D06B0917E06892BF1
:103E80008A2B8B2BD1F190917606E0917706F091F9
:103E9000780680818927808380917B0690917C06BB
:103EA000A0917D06B0917E06181619061A061B060B
:103EB0009CF480917B0690917C06A0917D06B09148
:103EC0007E060197A109B10980937B0690937C0639
:103ED000A0937D06B0937E06FF91EF91BF91AF91C5
:103EE0009F918F917F916F915F914F913F912F9112
:103EF0000F900FBE0F901F90189580910A010E949D
:103F00003D0EEACF1F920F920FB60F9211242F93FE
:103F10003F934F935F936F937F938F939F93AF9351
:103F2000BF93EF93FF938091B900887F803609F4A7
:103F30004AC0F0F5883209F4A7C018F5803109F4B9
:103F40009BC0B8F4882309F4F9C0883009F494C000
:103F5000FF91EF91BF91AF919F918F917F916F9161
:103F60005F914F913F912F910F900FBE0F901F9037
:103F70001895883109F488C0803251F78093CB06B8
:103F800014C0803409F49DC040F48033B9F3883301
:103F9000F9F68093CB0685ECB0C0803509F485C076
:103FA000883509F496C0883499F60E948E19D0CFCE
:103FB000883909F48CC038F5883729F050F48836F0
:103FC00011F0803729F683E08093CD0610920B051F
:103FD00057C0883809F47BC0803919F0803809F05F
:103FE000B7CF80910B05803208F071C0E0910B05CE
:103FF00081E08E0F80930B058091BB00F0E0E551CE
:10400000FB4F80833DC0803B39F0E0F4803A09F4F7
:1040100079C0883A09F09CCF84E08093CD06109255
:10402000EA041092E904E0911205F0911305099554
:104030008091E90481110FC081E08093E90410921E
:10404000C90409C0803C09F4A6CF883C09F4A3CF79
:10405000883B09F07DCFE091EA0481E08E0F8093E8
:10406000EA04F0E0E753FB4F80818093BB0090911E
:10407000EA048091E90429C08091C8068093BB00BE
:1040800085EC8093BC0064CF9091CA068091C906EC
:10409000981758F5E091CA0681E08E0F8093CA0602
:1040A000F0E0E955F94F8081E9CFE091CA0681E05F
:1040B0008E0F8093CA068091BB00F0E0E955F94F5E
:1040C00080839091CA068091C9069817C8F285E846
:1040D000D8CFE091CA0681E08E0F8093CA06809106
:1040E000BB00F0E0E955F94F80838091CC06811147
:1040F0005CCF81E08093C70684EA8093BC00109275
:10410000CD0626CF85EC8093BC001092CD06809121
:104110000B05803230F4E0910B05F0E0E551FB4FE8
:10412000108260910B0570E0E0911005F09111058F
:104130008BEE94E0099510920B050ACF1092CB06F6
:1041400034CF1F920F920FB60F9211242F933F93EB
:104150004F935F936F937F938F939F93AF93BF938F
:10416000EF93FF93E0910C05F0910D050995FF91F8
:10417000EF91BF91AF919F918F917F916F915F91DF
:104180004F913F912F910F900FBE0F901F90189558
:10419000109249071092480788EE93E0A0E0B0E043
:1041A00080934A0790934B07A0934C07B0934D0719
:1041B0008DE291E090934707809346078DE090E071
:1041C0009093C2078093C1071092C4071092C3074F
:1041D0001092C5071092C6071092C7071092C80721
:1041E0001092C9071092CA071092CB071092CC0701
:1041F0001092CD071092CE071092CF071092D007E1
:104200001092D2071092D1071092D4071092D307C0
:104210001092D6071092D5071092D8071092D707A0
:104220001092D9071092DA071092DB071092DC0780
:1042300061E00E94D1071092540710925807109223
:104240005707109259078FE391E09093530780939B
:104250005207EEE6F7E0108214821382158236963A
:1042600087E0EA3AF807B9F78FE091E09093B50755
:104270008093B4078BE091E09093B7078093B607E3
:1042800084E08093B8078093B90783E191E090932D
:10429000B3078093B2078AE090E09093BB078093C6
:1042A000BA0784EF91E09093BD078093BC0710920A
:1042B000C0071092BF071092AE071092AF0710927E
:1042C000B0071092B1071092BE070895789484B594
:1042D000826084BD84B5816084BD85B5826085BD02
:1042E00085B5816085BD80916E00816080936E0090
:1042F0001092810080918100826080938100809182
:104300008100816080938100809180008160809332
:1043100080008091B10084608093B1008091B000F2
:1043200081608093B00080917A00846080937A00ED
:1043300080917A00826080937A0080917A00816017
:1043400080937A0080917A00806880937A0010923E
:10435000C10080EA95E00E94822D9093FA06809336
:10436000F906009709F458C01092FB061092FC065B
:1043700090930F0780930E078FE08093090780E6E4
:10438000809308071092010710920207109203070A
:104390001092040781E080930B0780930C072DE1B6
:1043A0003AE030930F0520930E05579A219A5F98B3
:1043B000299A239A92EC9093800099E1909381003E
:1043C0009CE39093050797EC90930A0797E09093EE
:1043D0000D0728E331E030930707209306072FEFFE
:1043E00033E030938700209386002AE430E0309356
:1043F00089002093880029E331E03093000720935F
:10440000FF0621EC3DE030930D0520930C058093D1
:104410006F0078940E940F078DEC92E09093FE0657
:104420008093FD0666EC71E08DE495E00E94812F9B
:104430006EEE71E087EA95E00E94812F65E172E0FF
:1044400084E195E00E94812F69E475E083E290E0C9
:104450000E94B0178091490590914A05A0914B05A3
:10446000B0914C050497A105B10509F46DC06DE349
:1044700072E08DE397E00E94812F82E090E0A0E05F
:10448000B0E08093010690930206A0930306B093D8
:10449000040664E472E080E197E00E94812F84E0EA
:1044A00090E0A0E0B0E08093490590934A05A09386
:1044B0004B05B0934C0581E090E0A0E0B0E0809324
:1044C000450590934605A0934705B093480590E0B5
:1044D00080E00E94C81B82E090E00E94C81B84E03C
:1044E00090E00E94C81B86E090E00E94C81B88E014
:1044F00090E00E94C81B8AE090E00E94C81B8CE0FC
:1045000090E00E94C81B0E94F21B65E475E08EE1FA
:1045100090E00E94901D69E475E083E290E00E94C3
:10452000901D0E941A1C61E076E08AE793E00E94E9
:10453000901D8AE08093FB068093FC068AE592E05A
:104540000E94D3060E94360861E086E00E94D107EF
:1045500060E086E00E949F0761E076E08AE793E0F2
:104560000E94B0170E9473140E940F076BE672E05E
:104570008AE00E94921766E772E08AE00E94921732
:1045800085EA92E00E94D3060E9436081092F8064F
:104590001092F7061092D4061092D3060E94FD11D5
:1045A0008BE19AE090931305809312058CE19AE0D9
:1045B000909311058093100588E60E9405070E94DC
:1045C0003C12882371F068E872E08AE00E9492173A
:1045D00086E992E00E948E1782EA92E00E94D3065A
:1045E000FFCF88E60E9405078EE090E00E949613B8
:1045F0000E943C1282E090E00E9496140E94F20613
:10460000C82F0E94F2068C2B87FF0CC08AE0809393
:10461000FB068093FC0688EB92E00E94D3060E9482
:104620003608FFCF0FB6F894A89580916000886196
:1046300080936000109260000FBE88E198E20FB690
:10464000F894A895809360000FBE909360000DECE5
:1046500012E090EDE92E95E0F92E23E0422E512C48
:10466000612C712C812C912C5401839480910E0625
:1046700090910F060197B1F40E946C086054784D38
:10468000864F9F4F60934105709342058093430589
:104690009093440561E086E00E949F0710920F0608
:1046A00010920E060E946C0820914105309142053F
:1046B000409143055091440526173707480759078D
:1046C00020F460E086E00E949F070E94BC15D82F6E
:1046D0000E949E15C82F0E9464154D2F50E06C2F2C
:1046E00070E00E9423146C0168E770E090E080E0C5
:1046F000C114D10441F081E0C816D10479F465EE0B
:1047000070E082E090E00E94E61885E0C816D104CF
:1047100079F469E972E08AE090E023C092E0C9167A
:10472000D10479F462E571E084E090E00E94E6183B
:1047300096E0C916D104B9F466E073E08CE090E02D
:1047400010C06FEB71E086E090E0A3E0CA16D104E0
:1047500041F06CE272E088E090E0B4E0CB16D10466
:10476000A1F60E94E61861E076E08AE793E00E94F5
:10477000B0170E9473140E94D40880930006882307
:10478000B9F08E32A9F08D3399F0833489F08F32ED
:1047900009F461C596ED980F923050F08D3241F0DA
:1047A0008093EC056CEE75E089E496E00E946D2F35
:1047B000C1E08091E8059091E905019709F041C5B4
:1047C000A8950E94D408D82F809300068823E1F092
:1047D0008091EA059091EB05DE3209F44AC5DD339C
:1047E00099F0D33489F026ED2D0F223008F447C517
:1047F0008D2F8D7F8D3241F0D093EC056CEE75E0FE
:1048000089E496E00E946D2F8091EA059091EB0576
:10481000079734F0A6E0B0E0B093EB05A093EA056B
:104820008091EA059091EB0597FF04C01092EB058B
:104830001092EA05C090EA05D090EB05C114D104AE
:1048400009F092C080910901882309F447C01092B1
:104850000901C0930601C0930501C0930401C093F0
:104860000301C0930201C0930101C09300016BECEE
:1048700072E084ED95E00E94812F0E940F07F09274
:10488000FE06E092FD0664ED72E08AE00E94921757
:104890001093FE060093FD0689ED92E00E948E17AC
:1048A00087EF92E00E948E1783E193E00E948E17BB
:1048B00080E393E00E948E178EE493E00E948E17AF
:1048C00087E693E00E948E1786E893E00E948E1799
:1048D00085EA93E00E948E170E94881785E0C8162B
:1048E000D10409F0C7C080910201882309F421C5D1
:1048F000C0930901C0930601C0930501C093040150
:10490000C093030110920201C0930101C093000102
:104910006CE573E084ED95E00E94812F0E940F0703
:10492000F092FE06E092FD0664ED72E08AE00E94DD
:1049300092171093FE060093FD068CED92E00E9404
:104940008E1787EF92E00E948E1783E193E00E941A
:104950008E1780E393E00E948E178EE493E00E940E
:104960008E1784E693E0D9C4B1E0CB16D10489F563
:1049700080910601882309F4B1CFC09309011092F8
:104980000601C0930501C0930401C0930301C093C5
:104990000201C0930101C093000167EE72E084ED53
:1049A00095E00E94812F0E940F07F092FE06E09290
:1049B000FD0664ED72E08AE00E9492171093FE06F5
:1049C0000093FD068CED92E00E948E1784EF92E03A
:1049D00069CF82E0C816D10409F055C48091050161
:1049E000882309F447C0C0930901C09306011092BF
:1049F0000501C0930401C0930301C0930201C09359
:104A00000101C093000166E073E084ED95E00E942F
:104A1000812F0E940F07F092FE06E092FD0664EDE2
:104A200072E08AE00E9492171093FE060093FD0642
:104A30008CED92E00E948E1787EF92E00E948E1715
:104A400080E193E00E948E1780E393E00E948E172E
:104A50008EE493E00E948E1787E693E00E948E1703
:104A600086E893E00E948E1785EA93E00E948E17F5
:104A70000E94881796E0C916D10409F091C0809170
:104A80000101882309F455C4C0930901C0930601AC
:104A9000C0930501C0930401C0930301C0930201B8
:104AA00010920101C09300016AE773E084ED95E084
:104AB0000E94812F0E940F07F092FE06E092FD06F1
:104AC00064ED72E08AE00E9492171093FE06009354
:104AD000FD068CED92E00E948E1787EF92E00E9417
:104AE0008E1783E193E00E948E1780E393E00E948B
:104AF0008E178EE493E00E948E1787E693E00E9463
:104B00008E1783E893E00DC480910401882309F493
:104B100047C0C0930901C0930601C09305011092DC
:104B20000401C0930301C0930201C0930101C0932B
:104B300000016FE173E084ED95E00E94812F0E94F7
:104B40000F07F092FE06E092FD0664ED72E08AE047
:104B50000E9492171093FE060093FD068CED92E0E2
:104B60000E948E1787EF92E00E948E1783E193E0F8
:104B70000E948E178DE293E00E948E178EE493E0E0
:104B80000E948E1787E693E00E948E1786E893E0D6
:104B90000E948E1785EA93E00E948E170E94881764
:104BA000A7E0CA16D10409F0C4C38091000188238C
:104BB00009F4BFC3C0930901C0930601C093050166
:104BC000C0930401C0930301C0930201C09301018B
:104BD0001092000161E973E084ED95E00E94812F5D
:104BE0000E940F07F092FE06E092FD0664ED72E06F
:104BF0008AE00E9492171093FE060093FD068CED4A
:104C000092E00E948E1787EF92E00E948E1783E158
:104C100093E00E948E1780E393E00E948E178EE44B
:104C200093E00E948E1787E693E00E948E1786E835
:104C300093E00E948E1782EA93E077C380E00E949F
:104C40008E1689E496E00E941F2B0C9719F481E0E0
:104C50000E948E160E941616682F70E090E080E089
:104C60004AE00E94FD160E94881788ED93E00E949A
:104C7000D3066CE573E084ED95E00E94782F892BD4
:104C8000C9F563E571E089E496E00E94812F63E550
:104C900071E08CEE95E00E94812F0E940F07F09248
:104CA000FE06E092FD0668EF73E08AE00E9492172C
:104CB0001093FE060093FD068EE190E00E94C61957
:104CC00083E591E00E948E1769E476E080E197E049
:104CD0000E94812F0E941A1C80914906811136C1C1
:104CE00089E094E00E94D30663E571E089E496E0F0
:104CF0000E94812F6BEC72E084ED95E00E94782F8A
:104D0000892B09F0BBC063E571E089E496E00E945D
:104D1000812F63E571E08CEE95E00E94812F0E9467
:104D20000F07F092FE06E092FD066BEC72E08AE05F
:104D30000E9492171093FE060093FD068DE495E005
:104D40000E948E178AE795E00E948E174AE755E089
:104D500070E060E082E090E00E949C1A4AE755E033
:104D600062E170E082E090E00E949C1A4AE755E020
:104D700063E270E082E090E00E949C1A60914D0531
:104D8000062E000C770B42E050E089E496E00E948A
:104D9000882F89E496E00E941F2BD82F63E571E0ED
:104DA00089E496E00E94812F60915F05062E000C39
:104DB000770B42E050E089E496E00E94882F89E476
:104DC00096E00E941F2BC82E63E571E089E496E00F
:104DD0000E94812F60917005062E000C770B42E037
:104DE00050E089E496E00E94882F89E496E00E94D2
:104DF0001F2B382E63E571E089E496E00E94812F35
:104E0000D831E0F59BE39C15C8F19315B8F10E94E9
:104E10001616282E88E60E94050790E080E00E9482
:104E200096138AE0D82E832D6D2D0E94702D682F49
:104E3000660F680F660F630D86E497E00E946713A4
:104E40008C2D6D2D0E94702D682F660F680F660FD8
:104E50006C0D86E497E00E94671321107AC08D2FB5
:104E60006D2D0E94702D682F660F680F660F6D0FF5
:104E700086E497E00E9467130E943C1267EE72E09E
:104E800084ED95E00E94782F892B09F097C063E5A7
:104E900071E089E496E00E94812F63E571E08CEE79
:104EA00095E00E94812FF092FE06E092FD0667EEEB
:104EB00072E08AE00E9492178EE294E00E94D3068C
:104EC0001093FE060093FD0689E394E00E94D3064A
:104ED0008FE394E00E94D30685E494E00E94D30619
:104EE0008BE494E00E94D30681E594E00E94D3060F
:104EF00088E594E00E94D3068EE594E00E94D306F4
:104F000081E090E00E94C61989E496E00E941F2B80
:104F10006C010097A1F18130910509F43FC002971F
:104F2000059708F04BC0B2E0CB16D104E1F562E57D
:104F300071E084E090E00E946A1CB6E0CB16D104D8
:104F4000E9F566E073E08CE090E036C089E194E03A
:104F5000C9CE2CE0DD2329F024EF2D0FDD3008F43D
:104F60002D2F822F6AE00E94702D682F660F680F28
:104F7000660F620FDC3008F06062606479CF68E72A
:104F800070E090E080E00E946A1C69E972E08AE0CB
:104F900090E0A5E0CA16D10479F0CFCF65EE70E0BD
:104FA00082E090E0F0CF83E0C816D10409F072C02F
:104FB0006FEB71E086E090E00E946A1C66E073E0AF
:104FC00084ED95E00E94782F892B09F09DC063E560
:104FD00071E089E496E00E94812F63E571E08CEE38
:104FE00095E00E94812F0E940F07F092FE06E0924A
:104FF000FD0664E674E08AE00E9492171093FE06B4
:105000000093FD0689E394E00E94D3068FE394E0C9
:105010000E94D30685E494E00E94D3068BE494E0DA
:105020000E94D30681E594E00E94D30688E594E0CF
:105030000E94D3068EE594E00E94D30681E090E0C2
:105040000E94C61989E496E00E941F2B6C01892BEF
:1050500059F181E0C816D104D1F1C6010297059734
:1050600008F052C092E0C916D104C1F542E050E008
:1050700062E571E084E090E00E94C31D96E0C916ED
:10508000D10409F041C046E050E066E073E08CE0F6
:1050900090E038C094E0C916D10409F076CF6CE2F4
:1050A00072E088E090E088CF50E040E068E770E090
:1050B00090E080E00E94C31D85E0C816D104F1F69F
:1050C00045E050E069E972E08AE090E01BC041E011
:1050D00050E065EE70E082E090E0ECCF43E050E01D
:1050E0006FEB71E086E090E0A3E0CA16D10451F0C6
:1050F00044E050E06CE272E088E090E0B4E0CB166F
:10510000D104D1F60E94C31D6FE373E084ED95E0F6
:105110000E94782F892B09F052C063E571E089E481
:1051200096E00E94812F63E571E08CEE95E00E948D
:10513000812F0E940F07F092FE06E092FD066FE3BA
:1051400073E08AE00E9492171093FE060093FD061A
:1051500085E794E00E948E1785E894E00E948E1700
:105160008FE894E00E948E1789E994E00E948E17E0
:1051700081E090E00E94C6190E94881789E496E0B9
:105180000E941F2B9C01215031092330310508F06A
:1051900055C0092E000CAA0BBB0B809301069093FF
:1051A0000206A0930306B093040661E076E08AE766
:1051B00093E00E94901D83EA94E00E94D3060E942F
:1051C000690ED0900006DD2009F4F3CA1092C507DD
:1051D0001092C6071092C7071092C80780E590E0AA
:1051E000A0E0B0E08093C9079093CA07A093CB07D3
:1051F000B093CC07C1E0D0E0D093C407C093C307FD
:105200000E946C086093CD077093CE078093CF0700
:105210009093D00793E4D912CBCA1092E90510926B
:10522000E805D0930801C09307010E94D61763E5F3
:1052300071E089E496E00E94812FBACA80EB94E085
:10524000BCCF0E94D61780E090E0892B09F40ECAEB
:105250000E9400000BCA1092EB051092EA0581E053
:105260008093090181E090E09093E9058093E8053F
:105270009FCA01969093EB058093EA05C5CA0197F2
:10528000DA32C1F3C1CAA3E0CA16D10409F43CCC96
:10529000B4E0CB16D10409F021CB8091030188231F
:1052A00009F447C0C0930901C0930601C0930501EA
:1052B000C093040110920301C0930201C093010145
:1052C000C09300016FE373E084ED95E00E94812FAD
:1052D0000E940F07F092FE06E092FD0664ED72E078
:1052E0008AE00E9492171093FE060093FD068CED53
:1052F00092E00E948E1787EF92E00E948E1783E162
:1053000093E00E948E1780E393E00E948E178BE457
:1053100093E00E948E1787E693E00E948E1786E83E
:1053200093E00E948E1785EA93E00E948E170E94F8
:105330008817DD3309F043CF6AE773E084ED95E029
:105340000E94782F892B09F0B3C063E571E089E4EE
:1053500096E00E94812F63E571E08CEE95E00E945B
:10536000812F0E940F07F092FE06E092FD066AE789
:1053700073E08AE00E9492171093FE060093FD06E8
:1053800087EA95E00E948E178AE795E00E948E17C3
:105390004AE755E070E060E082E090E00E949C1AED
:1053A0004AE755E061E170E082E090E00E949C1ADB
:1053B0004AE755E063E270E084E090E00E949C1AC6
:1053C00060914D05062E000C770B42E050E089E419
:1053D00096E00E94882F89E496E00E941F2B282ED9
:1053E00063E571E089E496E00E94812F60915E059B
:1053F000062E000C770B42E050E089E496E00E9414
:10540000882F89E496E00E941F2B382E63E571E017
:1054100089E496E00E94812F60917005062E000CB1
:10542000770B44E050E089E496E00E94882F89E4FD
:1054300096E00E941F2B6C0163E571E089E496E021
:105440000E94812F88E60E94050784E090E00E9478
:105450009613DAE0822D6D2F0E94702D682F660F53
:10546000680F660F620D86E497E00E946713832D34
:105470006D2F0E94702D682F660F680F660F630DE9
:1054800086E497E00E946713C60164E670E00E941C
:105490008B2C282F6D2F0E94702D682F660F680FA0
:1054A000660F620F86E497E00E9467130E943C1229
:1054B0006FE173E084ED95E00E94782F892B09F06D
:1054C00080C063E571E089E496E00E94812F63E586
:1054D00071E08CEE95E00E94812F0E940F07F09200
:1054E000FE06E092FD066FE173E08AE00E949217EB
:1054F0001093FE060093FD066DE372E08DE397E0E6
:105500000E94812F82E090E0A0E0B0E0809301064D
:1055100090930206A0930306B093040664E472E03D
:1055200080E197E00E94812F4092490550924A0500
:1055300060924B0570924C0580924505909246050D
:10554000A0924705B092480590E080E00E94C81BF9
:1055500082E090E00E94C81B84E090E00E94C81B9B
:1055600086E090E00E94C81B88E090E00E94C81B83
:105570008AE090E00E94C81B8CE090E00E94C81B6B
:105580000E94F21B65E475E08EE190E00E94901DA0
:1055900069E475E083E290E00E94901D0E941A1C6D
:1055A00061E076E08AE793E00E94901D8AE08093B4
:1055B000FB068093FC068AE592E00E94D3060E94D7
:1055C000360861E973E084ED95E00E94782F892B1D
:1055D00009F04FCB63E571E089E496E00E94812FEA
:1055E00063E571E08CEE95E00E94812F0E940F0729
:1055F000F092FE06E092FD0668EB73E08AE00E94FE
:1056000092171093FE060093FD0686EC93E00E942D
:105610008E1782E090E00E94C61983E591E00E9417
:105620008E1789E496E00E941F2B8831910509F4BA
:1056300005CB0C9709F405CB8AEE93E018CBFC015F
:1056400088279927E89421912032E9F3293010F036
:105650002E30C8F32B3241F02D3239F4689404C057
:105660000E94482B820F911D219120532A30C0F3B4
:105670001EF4909581959F4F0895BB274A3031F4D1
:10568000992322F4BDE2909581959F4F0C94512B64
:105690007AE0979F902D879F802D910D112408957A
:1056A000BB27FB015527AA27880F991FAA1FA417FC
:1056B00010F0A41B83955051B9F7A05DAA3308F0F0
:1056C000A95DA193009779F7B111B1931192CB0124
:1056D0000C946A2BDC01FC01672F71917723E1F7B1
:1056E000329704C07C916D9370836291AE17BF07AF
:1056F000C8F30895E89409C097FB3EF4909580950F
:10570000709561957F4F8F4F9F4F9923A9F0F92F87
:1057100096E9BB279395F695879577956795B79505
:10572000F111F8CFFAF4BB0F11F460FF1BC06F5FEB
:105730007F4F8F4F9F4F16C0882311F096E911C0FD
:10574000772321F09EE8872F762F05C0662371F01E
:1057500096E8862F70E060E02AF09A95660F771F32
:10576000881FDAF7880F9695879597F908950E9414
:10577000CA2B0C943B2C0E942D2C38F00E94342C08
:1057800020F0952311F00C94242C0C942A2C112435
:105790000C946F2C0E944C2C70F3959FC1F3950FC5
:1057A00050E0551F629FF001729FBB27F00DB11DA5
:1057B000639FAA27F00DB11DAA1F649F6627B00D35
:1057C000A11D661F829F2227B00DA11D621F739F1E
:1057D000B00DA11D621F839FA00D611D221F749F2C
:1057E0003327A00D611D231F849F600D211D822F73
:1057F000762F6A2F11249F5750409AF0F1F088239A
:105800004AF0EE0FFF1FBB1F661F771F881F9150C6
:105810005040A9F79E3F510580F00C94242C0C9425
:105820006F2C5F3FE4F3983ED4F3869577956795A8
:10583000B795F795E7959F5FC1F7FE2B880F911DF0
:105840009695879597F9089597F99F6780E870E096
:1058500060E008959FEF80EC089500240A941616E6
:10586000170618060906089500240A94121613064E
:10587000140605060895092E0394000C11F48823DC
:1058800052F0BB0F40F4BF2B11F460FF04C06F5FF8
:105890007F4F8F4F9F4F089557FD9058440F551FCE
:1058A00059F05F3F71F04795880F97FB991F61F0A2
:1058B0009F3F79F087950895121613061406551F19
:1058C000F2CF4695F1DF08C0161617061806991F85
:1058D000F1CF86957105610508940895E894BB277A
:1058E00066277727CB0197F90895F999FECF92BDE6
:1058F00081BDF89A992780B50895262FF999FECF92
:105900001FBA92BD81BD20BD0FB6F894FA9AF99ADC
:105910000FBE01960895AA1BBB1B51E107C0AA1F29
:10592000BB1FA617B70710F0A61BB70B881F991F40
:105930005A95A9F780959095BC01CD01089597FBE4
:10594000072E16F4009407D077FD09D00E948B2C07
:1059500007FC05D03EF4909581959F4F0895709572
:1059600061957F4F0895A1E21A2EAA1BBB1BFD0172
:105970000DC0AA1FBB1FEE1FFF1FA217B307E4072E
:10598000F50720F0A21BB30BE40BF50B661F771F86
:10599000881F991F1A9469F7609570958095909566
:1059A0009B01AC01BD01CF010895052E97FB1EF4AC
:1059B00000940E94EC2C57FD07D00E94B32C07FCEA
:1059C00003D04EF40C94EC2C5095409530952195D5
:1059D0003F4F4F4F5F4F089590958095709561951B
:1059E0007F4F8F4F9F4F08950E94322DB7FF08952C
:1059F000821B930B08952F923F924F925F926F926A
:105A00007F928F929F92AF92BF92CF92DF92EF924E
:105A1000FF920F931F93CF93DF93CDB7DEB7CA1BCF
:105A2000DB0B0FB6F894DEBF0FBECDBF09942A88FA
:105A3000398848885F846E847D848C849B84AA84A2
:105A4000B984C884DF80EE80FD800C811B81AA812F
:105A5000B981CE0FD11D0FB6F894DEBF0FBECDBFFA
:105A6000ED010895A29FB001B39FC001A39F700DE7
:105A7000811D1124911DB29F700D811D1124911D56
:105A800008950E94542C88F09F5798F0B92F9927B9
:105A9000B751B0F0E1F0660F771F881F991F1AF019
:105AA000BA95C9F714C0B13091F00E946E2CB1E0E4
:105AB00008950C946E2C672F782F8827B85F39F0E3
:105AC000B93FCCF3869577956795B395D9F73EF4B2
:105AD00090958095709561957F4F8F4F9F4F08955A
