:100000000C94FE000C9426010C9426010C942601FD
:100010000C9426010C9426010C9426010C948C0E51
:100020000C9426010C9426010C9426010C942601B4
:100030000C9426010C9426010C9426010C942601A4
:100040000C94420E0C9426010C9426010C9426016B
:100050000C9426010C9426010C9426010C94260184
:100060000C9426010C9426014E414E494E49545998
:10007000494E46CDCCCC3D0AD7233C17B7D1387773
:10008000CC2B329595E6241FB14F0A000020410089
:1000900000C84200401C4620BCBE4CCA1B0E5AAED3
:1000A000C59D7400407A10F35A00A0724E180900E2
:1000B00010A5D4E80000E87648170000E40B5402CD
:1000C0000000CA9A3B000000E1F505000080969808
:1000D00000000040420F000000A086010000001058
:1000E0002700000000E8030000000064000000009A
:1000F000000A00000000000100000000002C76D87B
:1001000088DC674F0823DFC1DFAE59E1B1B796E560
:10011000E3E453C63AE651997696E8E6C28426EBC4
:10012000898C9B62ED407C6FFCEFBC9C9F40F2BAD7
:10013000A56FA5F490055A2AF75C936B6CF9676D6F
:10014000C11BFCE0E40D47FEF520E6B500D0ED90C4
:100150002E0300943577050080841E080000204E91
:100160000A000000C80C333333330F986E1283112A
:1001700041EF8D2114893BE65516CFFEE6DB18D101
:10018000844B381BF77C1D901DA4BBE424203284D3
:10019000725E228100C9F124ECA1E53D2700000038
:1001A00000240027002A0000000000230026002968
:1001B0000000000008000201000003040700000026
:1001C0000000000000010204081020408001020429
:1001D000081020010204081020000000002500285B
:1001E000002B0004040404040404040202020202BA
:1001F000020303030303030274284C2911241FBEC6
:10020000CFEFD8E0DEBFCDBF13E0A0E0B1E0E8E67D
:10021000F5E602C005900D92A436B107D9F725E0A6
:10022000A4E6B3E001C01D92AC30B207E1F710E0E4
:10023000CDEFD0E004C02197FE010E948C30CC3F6E
:10024000D107C9F70E94E80E0C94A7320C94000065
:1002500096E0899FD0011124A45BBB4F90967C93BC
:100260006E935F9791E091969C939197E091B9047A
:10027000F091BA049091B804992339F0309751F075
:10028000811108C0809168040994309719F05C9638
:100290008C91FACF0895833081F028F4813099F061
:1002A0008230A9F008958730A9F08830C9F08430F1
:1002B000B1F4809180008F7D03C0809180008F77A2
:1002C00080938000089584B58F7784BD089584B5A8
:1002D0008F7DFBCF8091B0008F778093B000089521
:1002E0008091B0008F7DF9CFCF93DF93282F30E03E
:1002F000F901EF54FE4F8491F901EB53FE4FD49175
:10030000F901ED51FE4FC491CC23A1F081110E945F
:100310004B01EC2FF0E0EE0FFF1FE955FE4FA591CA
:10032000B491EC91ED2381E090E009F480E0DF915D
:10033000CF91089580E090E0FACF862F0C9474015D
:100340001F93CF93DF93282F30E0F901EF54FE4F36
:100350008491F901EB53FE4FD491F901ED51FE4F19
:10036000C491CC23A9F0162F81110E944B01EC2FD0
:10037000F0E0EE0FFF1FE752FE4FA591B4918FB74B
:10038000F894EC91111108C0D095DE23DC938FBF57
:10039000DF91CF911F910895DE2BF8CF862F642F28
:1003A0000C94A001CF93DF9390E0FC01EB53FE4F40
:1003B00024918D519E4FFC0184918823C9F090E0D7
:1003C000880F991FFC01E356FE4FA591B491FC01E3
:1003D000E752FE4FC591D49161110DC09FB7F894BB
:1003E0008C91209582238C938881282328839FBF1A
:1003F000DF91CF910895623051F49FB7F8943C910A
:10040000822F809583238C93E8812E2BEFCF8FB79B
:10041000F894EC912E2B2C938FBFEACF862F642F6C
:100420000C94D2013FB7F89480914804909149040C
:10043000A0914A04B0914B0426B5A89B05C02F3F5C
:1004400019F00196A11DB11D3FBFBA2FA92F982FFA
:100450008827BC01CD01620F711D811D911D42E0F5
:10046000660F771F881F991F4A95D1F708958F92BD
:100470009F92AF92BF92CF92DF92EF92FF926B0169
:100480007C010E9412024B015C01C114D104E10401
:10049000F104B9F00E941202681979098A099B09CE
:1004A000683E73408105910580F321E0C21AD108AE
:1004B000E108F10888EE880E83E0981EA11CB11CAB
:1004C000E4CFFF90EF90DF90CF90BF90AF909F90E0
:1004D0008F9008952FB7F89460914404709145046B
:1004E00080914604909147042FBF0895CF93DF93E6
:1004F000C2EDD4E01C821D821E821F8280E590E046
:10050000A0E0B0E088879987AA87BB8781E090E068
:100510009B838A830E946A026C877D878E879F8770
:10052000DF91CF9108950F931F93CF93DF93C82F3F
:10053000D62F86E0C89FF0011124E45BFB4F11A287
:10054000878D90A181309105F1F058F082309105AE
:10055000F1F1039709F440C0DF91CF911F910F9102
:1005600008956623C9F361E070E08C2F0E94280192
:100570000E946A026093A4047093A5048093A60469
:100580009093A704E9CF0E946A020091A4041091FD
:10059000A5042091A6043091A704AB01BC01401B27
:1005A000510B620B730B8091B6049091B704B0E0CD
:1005B000A0E084179507A607B70748F462E070E04B
:1005C0008C2FDF91CF911F910F910C94280163E044
:1005D00070E0D111C1CFF4CF70E060E0F1CF6F9245
:1005E0007F928F929F92AF92BF92CF92DF92EF92C3
:1005F000FF920F931F93CF93DF9381E08093B80412
:100600000E946A020091A8041091A9042091AA04F2
:100610003091AB04AB01BC01401B510B620B730B5F
:100620008091B4049091B504B0E0A0E084179507E0
:10063000A607B70708F014C1C0E08091B204C8173C
:1006400060F4E091AE04F091AF04EC0FF11D62E0B4
:1006500080810E94D201CF5FF0CF712C812C912C30
:10066000540183948091B304781608F05FC0072D7D
:1006700010E0E091B004F091B104E00FF11F61E0EF
:1006800080810E94D201E091B004F091B104E00FAA
:10069000F11F60E080810E94A001D501C401072CF8
:1006A00004C0880F991FAA1FBB1F0A94D2F76C01C0
:1006B0007C01E094F094612C8091B2046816F8F407
:1006C000C62DD0E0E091AE04F091AF04EC0FFD1F19
:1006D00080810E9474012496CC0FDD1FC45BDB4F28
:1006E000892B41F4888199818C299D29998388835C
:1006F0006394E2CF888199818E219F21F7CFE09189
:10070000B004F091B104E00FF11F61E080810E941C
:10071000A0018091B0049091B104080F191F60E00E
:10072000F80180810E94D20173949CCFCCE4D4E084
:10073000FE018FEF9FEF278D30A1232B21F4148E24
:10074000968F858F11A2369624E0E838F20799F744
:10075000F12C96E0D92E8091B204F81608F050C022
:10076000E12C0F2D10E0000F111F0C5A1B4F209190
:10077000B304E21608F042C0F801608171810E2CCA
:1007800002C0769567950A94E2F7F29E90011124D3
:100790002E0D311DECE4F4E080E0458D568D2417DC
:1007A000350709F461C08F5F36968A30B1F760FF74
:1007B00023C0ECE4F4E090E080E0448D411117C0E8
:1007C000E091AC04F091AD04E20FF31F4081D89E9C
:1007D000F001D99EF00D1124E45BFB4F448F368F5E
:1007E000258F10A2178E61E00E94930205C001962A
:1007F00036968A30910509F7E394B9CFF394ABCFDD
:1008000010E089A18111182F2696F4E0C838DF077F
:10081000C1F70E946A026093A8047093A9048093B0
:10082000AA049093AB041123D9F080916D0488231E
:10083000B9F080916B0490916C04019789F48091D8
:100840006804DF91CF911F910F91FF90EF90DF909F
:10085000CF90BF90AF909F908F907F906F900895B2
:100860001092B80480E0EDCF6170BECF08959091F2
:10087000210189130BC0E7EFF1E0E4919FEF909322
:100880002101E13049F028F0E23061F060E00C94A1
:10089000A00110926E00FACF90916F009D7F90930F
:1008A0006F00F4CF909170009D7F9093700091E065
:1008B0009093B0009091B100987F94609093B100B4
:1008C0001092B300E3CF2F923F924F925F926F92BC
:1008D0007F928F929F92AF92BF92CF92DF92EF92D0
:1008E000FF920F931F93CF93DF9300D000D01F92FE
:1008F000CDB7DEB78091D4049091D50482309105B4
:1009000009F44FC08330910509F46DC0019709F0D7
:10091000F9C00E946A020091DE041091DF04209168
:10092000E0043091E104601B710B820B930B00918A
:10093000D6041091D7042091D8043091D9046017BF
:1009400071078207930708F4DDC082E090E090937E
:10095000D5048093D4040E946A026093DE047093ED
:10096000DF048093E0049093E10461E08091D2047D
:100970000F900F900F900F900F90DF91CF911F91DC
:100980000F91FF90EF90DF90CF90BF90AF909F902E
:100990008F907F906F905F904F903F902F900C942E
:1009A000A0010E946A020091DE041091DF042091F0
:1009B000E0043091E104601B710B820B930B0091FA
:1009C000DA041091DB042091DC043091DD0460171F
:1009D00071078207930708F495C01092D50410920E
:1009E000D40460E0C3CF2091E8043091E904809101
:1009F000E6049091E704281739070CF072C2809141
:100A0000EA049091EB04A091EC04B091ED04892BE1
:100A10008A2B8B2B09F046C0220F331FE091E40490
:100A2000F091E504E20FF31F6081718188EE93E09D
:100A30000E945D308B012B01770F6608770880914B
:100A4000E2049091E304280F391FF90120803180DE
:100A50008091D2049091D30420912101281709F4A8
:100A600069C02F3F09F4E1C0C301B2010E94E92D22
:100A700026E636E646EA5FE30E94482E0E941E30D4
:100A80006093EA047093EB048093EC049093ED047C
:100A90000E946A026093DE047093DF048093E00496
:100AA0009093E1040E946A020091DE041091DF0439
:100AB0002091E0043091E104601B710B820B930BD9
:100AC0000091EA041091EB042091EC043091ED04C4
:100AD0006017710782079307A8F08091D2040E94E3
:100AE00037041092EA041092EB041092EC04109276
:100AF000ED048091E8049091E90401969093E90453
:100B00008093E8040F900F900F900F900F90DF915B
:100B1000CF911F910F91FF90EF90DF90CF90BF90FA
:100B2000AF909F908F907F906F905F904F903F908D
:100B30002F900895E7EFF1E024912D8327FD94CFC6
:100B400061E00E94D201FD81FF2321F02D8122303E
:100B500009F05EC14101B12CA12C60E072E18AE78D
:100B600090E0A50191010E941F2F29833A834B83B6
:100B70005C8369017A0131E0C31AD108E108F10808
:100B80008FEFC816D104E104F10409F00CF415C18B
:100B900060E472E48FE090E0A50191010E941F2FB4
:100BA00069017A0191E0C91AD108E108F108ED81E3
:100BB000E23009F0B6C082E0FFEFCF16D104E104C5
:100BC000F10409F00CF4E5C160E970ED83E090E018
:100BD000A50191010E941F2F69017A0181E0C81AC5
:100BE000D108E108F10883E09FEFC916D104E104C0
:100BF000F10409F00CF4CDC168E478EE81E090E0F6
:100C0000A50191010E941F2F69017A0181E0C81A94
:100C1000D108E108F1089FEFC916D104E104F104FD
:100C200011F00CF0A2C084E0B4C180932101E7EF81
:100C3000F1E034913D833F3F09F416CF313039F173
:100C400048F0323009F445C037FD0ECF61E00E9414
:100C5000D2017CCF14BC15BC24B5226024BD25B5BF
:100C6000216025BD9C013327F901ED51FE4FE49130
:100C7000F0E0EE0FFF1FE752FE4F45915491F9014E
:100C8000EB53FE4FE491E093C5041D8259CF1092BF
:100C900080001092810020918100286020938100C3
:100CA000209181002160209381009C013327F9016C
:100CB000ED51FE4FE491F0E0EE0FFF1FE752FE4FC3
:100CC00045915491F901EB53FE4FE491E093C40434
:100CD00037CF1092B0001092B1002091B000226086
:100CE0002093B0002091B10021602093B1009C01BD
:100CF0003327F901ED51FE4FE491F0E0EE0FFF1FB5
:100D0000E752FE4F459154915093C3044093C2045F
:100D1000F901EB53FE4FE491E093C104E2E0ED836F
:100D20000FCFEFEFCE16D104E104F10409F00CF47B
:100D30006DC068E478EE81E090E0A50191010E9429
:100D40001F2F69017A01F1E0CF1AD108E108F108FB
:100D50002D81222309F4E9C0FFEFCF16D104E1046D
:100D6000F10409F00CF45FCFE9C064E274EF80E0B5
:100D700090E0A50194010E941F2F69017A0181E092
:100D8000C81AD108E108F10885E09FEFC916D1041F
:100D9000E104F10409F008F4FCC062E17AE780E0C4
:100DA00090E0A50194010E941F2F69017A0181E062
:100DB000C81AD108E108F108D3C081E02D812111C2
:100DC000E8C095B5987F892B85BD2FEF3FEFA9012E
:100DD000411451046104710409F043C08D818130D4
:100DE00009F45DC0823009F46CC081113DCEC7BCEE
:100DF0002093CE043093CF044093D0045093D10479
:100E000080916E00826080936E002ECE82E0D6CFFD
:100E1000B12CA12C60E072E18AE790E0A50191017C
:100E20000E941F2F69017A0181E0C81AD108E108E8
:100E3000F108C114D10491E0E906F104FCF491E059
:100E4000FD81F13011F680918100887F892B80939C
:100E500081002FEF3FEFA901411451046104710497
:100E6000F1F09101220F331FD8010E94713028EE5A
:100E700033E040E050E00E94802FB0CF68E478EE8D
:100E800081E090E0A50191010E941F2F69017A0184
:100E9000E1E0CE1AD108E108F10893E0D1CFD09279
:100EA0008900C09288002093CA043093CB044093F9
:100EB000CC045093CD0480916F00826080936F00CA
:100EC000D3CDC092B3002093C6043093C70440939F
:100ED000C8045093C90480917000826080937000B0
:100EE000C3CD8091D2040E9437041092D504109291
:100EF000D40408CE84E0EFEFCE16D104E104F1046F
:100F000009F008F45ECFC980DA80EB80FC809AE0BB
:100F1000F594E794D794C7949A95D1F791E0C91ABC
:100F2000D108E108F10885E04CCF83E0EFEFCE1661
:100F3000D104E104F10409F00CF443CF62E17AE753
:100F400080E090E0A50194010E941F2F69017A01C1
:100F5000E1E0CE1AD108E108F108FD81FF2351F24A
:100F600086E02FEFC216D104E104F10491F088F07D
:100F7000C980DA80EB80FC808AE0F594E794D7940E
:100F8000C7948A95D1F7F1E0CF1AD108E108F108AA
:100F900087E09091B100987F892B8093B10015CFA5
:100FA000AF92BF92CF92DF92EF92FF920F931F9377
:100FB000CF93DF936C017B018B01040F151FEB01B5
:100FC0005E01AE18BF08C017D10759F06991D6016C
:100FD000ED91FC910190F081E02DC6010995892BDE
:100FE00079F7C501DF91CF911F910F91FF90EF909D
:100FF000DF90CF90BF90AF90089590E080E008958B
:1010000080912001811103C081E0809320018091B3
:101010001F01811103C081E080931F0180911E0197
:10102000811103C081E080931E0180911D01811117
:1010300003C081E080931D0180911C01811103C0D8
:1010400081E080931C0180911B01811103C081E02C
:1010500080931B0180911A01811103C081E080936C
:101060001A0180911901811103C081E08093190157
:1010700080911801811103C081E0809318010895C7
:10108000FC0101900020E9F73197AF01481B590B93
:10109000BC018EEE94E00C94D0070F931F93CF9376
:1010A000DF930091BF041091C0040115110539F4BC
:1010B000FC011082DF91CF911F910F9108950E30A6
:1010C000110510F00EE010E0EC016091BB0470918E
:1010D000BC04A8010E949832C00FD11F1882EACF29
:1010E000809170038D3311F40C9400088334F9F46B
:1010F00081E090E0A0E0B0E08093B1039093B20370
:10110000A093B303B093B403809334049093350455
:10111000A0933604B093370460ED72E08AE194E066
:101120000E94913210929C0310929B03DDCF089590
:10113000CF93DF93EC018091BB049091BC040097A6
:10114000E9F06881798161157105B1F04091BD04C4
:101150005091BE042C813D814217530768F00E94D4
:1011600091328C819D819093C0048093BF041D8235
:101170001C82DF91CF9108950E942E318881998140
:101180009093BC048093BB048A819B819093BE049E
:101190008093BD048C819D819093C0048093BF0493
:1011A000198218821B821A82E2CFCF93DF93EC015F
:1011B00088819981009711F00E942E31198218823E
:1011C0001D821C821B821A82DF91CF910895FC013F
:1011D00080819181009711F00C942E3108950F9326
:1011E0001F93CF93DF93EC0188819981009759F089
:1011F0002A813B812617370730F081E0DF91CF91BC
:101200001F910F9108958B016F5F7F4F0E94B7313F
:10121000009759F0998388831B830A832C813D8131
:10122000232B59F7FC011082E8CF80E0E7CFEF9243
:10123000FF920F931F93CF93DF938C017B01EB0100
:1012400009900020E9F72197C61BD70BBE010E9429
:10125000EF08811109C0C801DF91CF911F910F9153
:10126000FF90EF900C94D508F801D583C483B701A3
:1012700080819181DF91CF911F910F91FF90EF902D
:101280000C949132EF92FF920F931F93CF93DF93C1
:10129000CDB7DEB7A1970FB6F894DEBF0FBECDBFB6
:1012A0007C01CB01BA01F7011182108213821282F4
:1012B000158214828E010F5F1F4F22E044E00E94CE
:1012C0005029009789F0BC01C7010E941709A19617
:1012D0000FB6F894DEBF0FBECDBFDF91CF911F9147
:1012E0000F91FF90EF900895C7010E94D508EFCFAE
:1012F0000F931F93CF93DF93CDB7DEB762970FB6EF
:10130000F894DEBF0FBECDBF8C01CB01F801118276
:10131000108213821282158214824AE0BE016F5F2E
:101320007F4F0E94B729BE016F5F7F4FC8010E94A7
:10133000170962960FB6F894DEBF0FBECDBFDF91DE
:10134000CF911F910F9108950F931F93CF93DF9328
:10135000CDB7DEB7A2970FB6F894DEBF0FBECDBFF4
:101360008C01CB01BA01F801118210821382128222
:10137000158214822AE0AE014F5F5F4F0E94C2299E
:10138000BE016F5F7F4FC8010E941709A2960FB67A
:10139000F894DEBF0FBECDBFDF91CF911F910F91AB
:1013A0000895CF93DF93EC0160E08E810E94A0014D
:1013B00061E08E810E94A00160E08E810E94A00108
:1013C0008BE891E00197F1F7DF91CF910895CF92EB
:1013D000DF92EF92FF920F931F93CF93DF936C01F5
:1013E0007C0187E0E80EF11CD0E0C0E0062F10E0A1
:1013F000B8010C2E02C0759567950A94E2F76170EA
:10140000F70181917F010E94A0012196C430D1058E
:1014100079F7C601DF91CF911F910F91FF90EF9067
:10142000DF90CF900C94D109CF92DF92EF92FF9290
:101430000F931F93CF93DF93EC01F62E642F8C81D3
:101440000E94A0018D818F3F19F060E00E94A001F1
:101450000F2D10E08F8584FF25C06E0187E0C80E38
:10146000D11CF12CE12CB8010E2C02C075956795AA
:101470000A94E2F76170F60181916F010E94A00168
:10148000FFEFEF1AFF0A88E0E816F10461F7CE01DA
:10149000DF91CF911F910F91FF90EF90DF90CF9050
:1014A0000C94D109B80184E0759567958A95E1F7A8
:1014B000CE010E94E7096F2DCE01DF91CF911F91E0
:1014C0000F91FF90EF90DF90CF900C94E70940E0F0
:1014D000682F8EEE94E00C94140A81E00E94670A53
:1014E0008BE39FE10197F1F70895CF93DF9382306B
:1014F00029F49091FD0498609093FD048093010578
:101500001092020580E48093030580E18093040536
:1015100080E58093050561E08091F2040E94D2018C
:101520008091F3048F3F19F061E00E94D20161E0E5
:101530008091F4040E94D201CEEED4E09E012E5E92
:1015400034408091FD0484FD0BC084E090E021963E
:101550002817390744F461E08E810E94D201EECF52
:1015600088E090E0F4CF8BE39DE00197F1F760E035
:101570008091F2040E94A00160E08091F4040E9436
:10158000A0018091F3048F3F19F060E00E94A00158
:101590008091FD0484FD34C063E08EEE94E00E94EF
:1015A000E709CBE4D6E4CE010197F1F763E08EEED4
:1015B00094E00E94E7092197F1F763E08EEE94E052
:1015C0000E94E70983E592E00197F1F762E08EEE71
:1015D00094E00E94E7098091FD0480620E94670AFE
:1015E00084E08093FE048CE00E94670A0E946D0AEA
:1015F00082E08093FF0486E0DF91CF910C94670A2C
:1016000080620E94670A8BE496E40197F1F780916B
:10161000FD0480620E94670A83E592E00197F1F77A
:101620008091FD0480620E94670AD5CF90910105E8
:10163000691710F06FEF690FE62FF0E0E251FB4FF2
:101640009489890F80680C94670A41E00E94140A0B
:1016500081E090E008952F923F924F925F926F92B7
:101660007F928F929F92AF92BF92CF92DF92EF9232
:10167000FF921F93CF93DF931C01862E0E94EF02EF
:10168000809370038AE1A82E84E0B82EC0EDD2E0EA
:10169000C12CD12C7601C394412C512C320143949E
:1016A000809170038D3309F4E4C080919903909187
:1016B0009A03019709F0DDC0A8950E94EF0280937C
:1016C0007003F50101900020E9F7CF018B519440A0
:1016D000209170032816390608F47FC02D3309F4D1
:1016E0007CC08091990390919A03019709F075C08D
:1016F000A8950E94EF02182F809370038823D1F0E1
:101700008D33C1F08334B1F086ED810F823090F0DB
:1017100083ED810F833070F041E0612F8EEE94E015
:101720000E94140A1093850365E873E08AE194E04F
:101730000E947D3280911A04811122C0133401F578
:101740000E946D0AC09370034092B1035092B2039D
:101750006092B3037092B403409234045092350403
:10176000609236047092370460ED72E08AE194E092
:101770000E94913210929A03109299030E940008DD
:1017800080917003833491F460ED72E08AE194E01B
:101790000E94913261E0882D0E94160B88EC92E045
:1017A0000E94400861E0882D0E94160B0E9463048D
:1017B00090907003992009F484CF0E9476028DE303
:1017C00098127FCF0E946D0AC093700310929A0303
:1017D000109299030E94000874CF80911A0481111D
:1017E00022C0233401F50E946D0AC0937003C09299
:1017F000B103D092B203E092B303F092B403C0926B
:101800003404D0923504E0923604F092370460ED4F
:1018100072E08AE194E00E94913210929A03109251
:1018200099030E94000880917003833491F460ED65
:1018300072E08AE194E00E94913261E0882D0E947A
:10184000160B88EC92E00E94400861E0882D0E940F
:10185000160B809170038D3309F022CF10929A03FA
:10186000109299030E946D0AC09370030E940008B1
:1018700017CFDF91CF911F91FF90EF90DF90CF9026
:10188000BF90AF909F908F907F906F905F904F90A0
:101890003F902F900895CF92DF92EF92FF920F9397
:1018A0001F93CF93DF93EB017B0124E0E20EF11C49
:1018B0008B016C01C61AD70AC601800F911F0E94C6
:1018C000092FF80181938F01EE15FF05A9F7CE01CD
:1018D000DF91CF911F910F91FF90EF90DF90CF900C
:1018E0000895CF92DF92EF92FF920F931F93CF93C1
:1018F000DF93EB017B0124E0E20EF11C8B016C0114
:10190000C61AD70AC601800F911F0E94092FF8013D
:1019100081938F01EE15FF05A9F7CE01DF91CF91DD
:101920001F910F91FF90EF90DF90CF9008950E944C
:101930006D0A60E080E00E94160B61EA73E087E3C5
:1019400090E00E94710C8091A1039091A203A0915C
:10195000A303B091A4036EE371E081309105A1056A
:10196000B105D9F061E471E082309105A105B105BE
:10197000A1F06FE073E083309105A105B10569F036
:1019800064E471E084309105A105B10531F005975B
:10199000A105B10531F469E173E08AE194E00E94A8
:1019A000913287E491E00E94400860E081E00E946B
:1019B000160B8AE194E00E94400860E085E00E94F6
:1019C000160B89E491E00E94400860E08BE00E94E1
:1019D000160B8CE491E00E94400861E080E00E94D8
:1019E000160B61E080E00E94160B8FE491E00E94EC
:1019F000400861E080E00E94160B1092B103109243
:101A0000B2031092B3031092B40381E090E0A0E01F
:101A1000B0E08093340490933504A0933604B093DF
:101A20003704089561EA73E087E390E00E94710C47
:101A30008091A1039091A203A091A303B091A4036C
:101A400081309105A105B10529F58FEA90E09093C9
:101A5000AE038093AD0384EB90E09093B00380934A
:101A6000AF0389EB90E09093AC038093AB038EEBD4
:101A700090E09093A8038093A70383EC90E0909369
:101A8000AA038093A90388EC90E09093A603809327
:101A9000A503089582309105A105B10509F581E9F5
:101AA00090E09093AE038093AD0386E990E090932D
:101AB000B0038093AF038BE990E09093AC038093E5
:101AC000AB0380EA90E09093A8038093A70385EA94
:101AD00090E09093AA038093A9038AEA90E0D5CF7F
:101AE00083309105A105B10509F583E790E0909356
:101AF000AE038093AD0388E790E09093B0038093AA
:101B0000AF038DE790E09093AC038093AB0382E842
:101B100090E09093A8038093A70387E890E09093C8
:101B2000AA038093A9038CE890E0AFCF843091059D
:101B3000A105B10509F585E590E09093AE0380938A
:101B4000AD038AE590E09093B0038093AF038FE5F7
:101B500090E09093AC038093AB0384E690E0909385
:101B6000A8038093A70389E690E09093AA0380934B
:101B7000A9038EE690E089CF0597A105B10509F08C
:101B800088CF8AE090E09093AE038093AD0385E028
:101B900090E09093B0038093AF038FE090E0909338
:101BA000AC038093AB0389E190E09093A80380930A
:101BB000A70384E190E09093AA038093A9038EE1A8
:101BC00090E063CF9F92AF92BF92CF92DF92EF925D
:101BD000FF920F931F93CF93DF935C017B018B01E7
:101BE000D0E0C0E0F80191908F016501CC0EDD1EC0
:101BF000C6010E94092F981621F0692DC6010E9486
:101C0000112F2196C430D10569F7C701DF91CF911B
:101C10001F910F91FF90EF90DF90CF90BF90AF900A
:101C20009F9008959F92AF92BF92CF92DF92EF92D2
:101C3000FF920F931F93CF93DF935C017B018B0186
:101C4000D0E0C0E0F80191908F016501CC0EDD1E5F
:101C5000C6010E94092F981621F0692DC6010E9425
:101C6000112F2196C430D10569F7C701DF91CF91BB
:101C70001F910F91FF90EF90DF90CF90BF90AF90AA
:101C80009F9008951F920F920FB60F9211242F93D9
:101C90003F938F939F93AF93BF9380914404909110
:101CA0004504A0914604B09147043091430423E0D9
:101CB000230F2D3758F50196A11DB11D2093430424
:101CC0008093440490934504A0934604B093470442
:101CD0008091480490914904A0914A04B0914B042A
:101CE0000196A11DB11D8093480490934904A093CF
:101CF0004A04B0934B04BF91AF919F918F913F9154
:101D00002F910F900FBE0F901F90189526E8230F6C
:101D10000296A11DB11DD2CF1F920F920FB60F9246
:101D200011242F933F934F935F936F937F938F93E0
:101D30009F93AF93BF93EF93FF938091C6049091CD
:101D4000C704A091C804B091C904892B8A2B8B2B9E
:101D5000D1F19091C104E091C204F091C30480815B
:101D6000892780838091C6049091C704A091C804FC
:101D7000B091C904181619061A061B069CF4809126
:101D8000C6049091C704A091C804B091C9040197FA
:101D9000A109B1098093C6049093C704A093C80415
:101DA000B093C904FF91EF91BF91AF919F918F9133
:101DB0007F916F915F914F913F912F910F900FBE47
:101DC0000F901F901895809121010E943704EACF4F
:101DD000CF93DF9300D000D000D0CDB7DEB778949A
:101DE00084B5826084BD84B5816084BD85B5826020
:101DF00085BD85B5816085BD80916E0081608093D1
:101E00006E00109281008091810082608093810039
:101E10008091810081608093810080918000816049
:101E2000809380008091B10084608093B1008091A4
:101E3000B00081608093B00080917A0084608093CC
:101E40007A0080917A00826080937A0080917A0093
:101E5000816080937A0080917A00806880937A0014
:101E60001092C1000E94630482E00E94750A68E635
:101E700073E090E080E00E94710C80916803909183
:101E80006903A0916A03B0916B030297A105B105A4
:101E900009F40EC108E210E020E030E00093DF0317
:101EA0001093E0032093E1033093E20344E150E018
:101EB00060E070E04093E3035093E4036093E50334
:101EC0007093E6038DE290E0A0E0B0E08093DB0346
:101ED0009093DC03A093DD03B093DE030093D30360
:101EE0001093D4032093D5033093D6034093D703A4
:101EF0005093D8036093D9037093DA038093CF0390
:101F00009093D003A093D103B093D20310923E04D8
:101F100010923F04109240041092410480E89EEE1B
:101F2000A6E3B0E08093B9039093BA03A093BB03F8
:101F3000B093BC0380E197E2A0E0B0E08093BD03E2
:101F40009093BE03A093BF03B093C0031092EF031E
:101F50001092F0031092F1031092F2031092F30327
:101F60001092F4031092F5031092F60380E098ECBF
:101F7000AEE7BAE980933A0490933B04A0933C0403
:101F8000B0933D0482E090E0A0E0B0E0809368036D
:101F900090936903A0936A03B0936B0381E090E090
:101FA000A0E0B0E080936C0390936D03A0936E0368
:101FB000B0936F0385E090E0A0E0B0E08093A103D0
:101FC0009093A203A093A303B093A4036FED73E0D7
:101FD0000E94120E63EE73E08AE090E00E94120EFF
:101FE0006BED73E08FE090E00E94120E63ED73E002
:101FF00084E190E00E94120E67ED73E089E190E0C9
:102000000E94120E6FEC73E08EE190E00E94120EBF
:1020100069EB73E083E290E00E94120E6DEB73E0D7
:1020200088E290E00E94120E6AE374E08DE290E094
:102030000E94E20D68E673E090E080E00E94120EDC
:102040006CE673E082E390E00E94120E61EA73E0B6
:1020500087E390E00E94120E6EE374E08CE390E060
:102060000E94E20D63EF73E081E490E00E94120EA3
:102070006FEE73E086E490E00E94120E6BEE73E068
:102080008BE490E00E94710C67EE73E080E590E0D5
:102090000E94710C60E080E00E94160B87E591E0E1
:1020A0000E94400860ED77E080E090E00E943702F7
:1020B00081E090E0A0E0B0E08093B1039093B203A0
:1020C000A093B303B093B403809334049093350486
:1020D000A0933604B09337041092F3031092F403E4
:1020E0001092F5031092F6031092EF031092F00392
:1020F0001092F1031092F203109230041092310406
:10210000109232041092330462E083E10E94D20103
:1021100061E085E00E94D20161E088E00E94D20186
:1021200061E086E00E94D20161E087E00E94D20176
:1021300060E088E00E94A00160E086E00E94A001CB
:1021400060E087E00E94A00160E085E00E94A001BD
:102150000FB6F894A8958091600088618093600024
:10216000109260000FBE88E198E20FB6F894A8952F
:10217000809360000FBE909360000E9463040E94F1
:102180007602C12CD12C7601C3940E946304809105
:10219000420481110E947602A8950E94EF0280936A
:1021A00042048F3209F50E946D0A1092A00310922A
:1021B0009F0381E08093200181E090E090939E0353
:1021C00080939D0390939C0380939B0390939A0329
:1021D0008093990361E088E00E94160B82EC92E004
:1021E0000E9440080E946D0A80919D0390919E0379
:1021F000019711F00C949F24A8950E94EF02809300
:1022000042048823F1F020919F033091A0038E3285
:1022100011F40C9466288D33A1F0833491F096ED7F
:10222000980F923010F40C946E28982F9D7F9D3259
:1022300041F08093850365E873E08AE194E00E94B1
:102240007D3280919F039091A003099734F088E03C
:1022500090E09093A00380939F0380919F039091BF
:10226000A00397FF04C01092A00310929F038091D7
:102270009F039091A003892B89F5809120018823E9
:1022800069F11092200181E080931F0180931E016B
:1022900080931D0180931C0180931B0180931A0180
:1022A000809319018093180168E671E081E793E05B
:1022B0000E94913260E080E00E94160B82EC92E076
:1022C0000E94400860E080E00E94160B88E691E0E2
:1022D0000E94400861E080E10E94160B80919F03FC
:1022E0009091A003019789F580911F01882369F1DE
:1022F00081E08093200110921F0180931E01809342
:102300001D0180931C0180931B0180931A0180930F
:1023100019018093180164E771E081E793E00E945E
:10232000913260E080E00E94160B82EC92E00E9405
:10233000400860E080E00E94160B84E791E00E9474
:10234000400861E080E10E94160B80919F0390910C
:10235000A003029789F580911E01882369F181E02D
:102360008093200180931F0110921E0180931D0114
:1023700080931C0180931B0180931A0180931901A3
:10238000809318016DE771E081E793E00E9491323C
:1023900060E080E00E94160B82EC92E00E94400810
:1023A00060E080E00E94160B86E891E00E94400801
:1023B00061E080E10E94160B80919F039091A00341
:1023C000039789F580911D01882369F181E080934D
:1023D000200180931F0180931E0110921D018093A4
:1023E0001C0180931B0180931A0180931901809333
:1023F000180160E971E081E793E00E94913260E0AA
:1024000080E00E94160B82EC92E00E94400860E09F
:1024100080E00E94160B88E991E00E94400861E08C
:1024200080E10E94160B80919F039091A003049776
:1024300089F580911C01882369F181E08093200156
:1024400080931F0180931E0180931D0110921C0137
:1024500080931B0180931A018093190180931801C6
:1024600061EA71E081E793E00E94913260E080E0F0
:102470000E94160B82EC92E00E94400860E080E02F
:102480000E94160B8EEA91E00E94400861E080E114
:102490000E94160B80919F039091A003059789F5E8
:1024A00080911B01882369F181E080932001809352
:1024B0001F0180931E0180931D0180931C011092C7
:1024C0001B0180931A0180931901809318016CEB12
:1024D00071E081E793E00E94913260E080E00E9429
:1024E000160B82EC92E00E94400860E080E00E94BF
:1024F000160B88EC91E00E94400861E080E10E94A8
:10250000160B80919F039091A003069789F5809107
:102510001A01882369F181E08093200180931F01D3
:1025200080931E0180931D0180931C0180931B01E9
:1025300010921A01809319018093180165ED71E0E2
:1025400081E793E00E94913260E080E00E94160BE8
:1025500082EC92E00E94400860E080E00E94160B4E
:102560008FED91E00E94400861E080E10E94160B2F
:1025700080919F039091A003079789F5809119019D
:10258000882369F181E08093200180931F0180936B
:102590001E0180931D0180931C0180931B01809379
:1025A0001A0110921901809318016BEE71E081E716
:1025B00093E00E94913260E080E00E94160B82EC72
:1025C00092E00E94400860E080E00E94160B87EFD6
:1025D00091E00E94400861E080E10E94160B80912A
:1025E0009F039091A003089789F580911801882393
:1025F00069F181E08093200180931F0180931E0187
:1026000080931D0180931C0180931B0180931A010C
:10261000809319011092180164E072E081E793E061
:102620000E94913260E080E00E94160B82EC92E002
:102630000E94400860E080E00E94160B84E092E077
:102640000E94400861E080E10E94160B80919B038C
:1026500090919C03019711F00C94652480914204A1
:102660008D3311F00C94652465ED71E081E793E002
:102670000E948832892B09F054C08091990390916F
:102680009A03019709F04DC060ED72E08AE194E091
:102690000E94913260ED72E085E893E00E949132F1
:1026A000A89510923E0410923F041092400410929C
:1026B00041046EE374E08CE390E00E94E20D61E07F
:1026C00080E00E94160B8EE092E00E944008A895E0
:1026D00060ED77E080E090E00E9437020E946D0A92
:1026E000A895C092B103D092B203E092B303F092E6
:1026F000B403C0923404D0923504E0923604F092D0
:10270000370460ED72E08AE194E00E9491320E9409
:10271000000810929C0310929B0310929A0310924F
:1027200099036CEB71E081E793E00E948832892B7A
:1027300009F00AC18091990390919A03019709F0D9
:1027400003C160ED72E08AE194E00E94913260ED95
:1027500072E084E094E00E94913260ED72E085E8DE
:1027600093E00E9491320E946D0A60E080E00E9436
:10277000160B88EC91E00E9440080E94EF028093C3
:1027800070036EE374E08CE390E00E944B0C6AE30C
:1027900074E08DE290E00E944B0C60913E047091D9
:1027A0003F048091400490914104812CBCE59B2E14
:1027B000B6E2AB2EB5E0BB2EA50194010E94802F9E
:1027C000CA01B9010E94E72DAB01BC01CE010196FF
:1027D0000E944209CE0101960E949808CE010196FE
:1027E0000E94E7088AE194E00E944D086EE172E0E1
:1027F0008AE194E00E947D3260913A0470913B043A
:1028000080913C0490913D04A50194010E94802F89
:10281000CA01B9010E94E72DAB01BC01CE010196AE
:102820000E944209CE0101960E949808CE010196AD
:102830000E94E70884E094E00E944D0861E080E097
:102840000E94160B82E292E00E94400861E083E061
:102850000E94160B8AE194E00E9440080AE114E00D
:10286000D8010D900020E9F7CD018B51944061E033
:102870008C5F0E94160B86E292E00E944008F801ED
:1028800001900020E9F7CF018B51944061E0895F0E
:102890000E94160B84E094E00E94400880ED92E0D4
:1028A0008093700380917003833431F1A8950E9466
:1028B000EF0280937003C092B103D092B203E09212
:1028C000B303F092B403C0923404D0923504E09282
:1028D0003604F092370460ED72E08AE194E00E94E1
:1028E00091320E94000810929C0310929B03109258
:1028F0009A0310929903D6CFC092B103D092B2033B
:10290000E092B303F092B403C0923404D092350441
:10291000E0923604F09237040E94000810929C0363
:1029200010929B0310929A031092990360ED72E04B
:1029300084E094E00E94913260ED72E08AE194E0DC
:102940000E9491320E946D0A61EA71E081E793E092
:102950000E948832892B09F0E6C1809199039091F9
:102960009A03019709F0DFC160ED72E08AE194E01B
:102970000E94913260ED72E085E893E00E9491320E
:102980000E94EF0280937003812CA8EC9A2EAEE790
:10299000AA2EAAE9BA2E809170038D3309F49BC147
:1029A0008091990390919A03019709F094C10E9434
:1029B000EF0280937003A89560E080E00E94160B00
:1029C0008AE292E00E94400861E080E00E94160BDB
:1029D00070E060E084E090E00E942B0B6CE673E016
:1029E00082E390E00E94710C8AE194E00E946E29DB
:1029F0002B013C0160916C0370916D0380916E031B
:102A000090916F030E94E92DA30192010E94B22FC1
:102A100020E034E84EEC56E40E94E22D811143C1DF
:102A200060E00E94160B8AE392E00E94400861E099
:102A300080E00E94160B80EC92E00E944008A8956E
:102A400068EE73E080E090E00E943702A89588E28B
:102A500090E0A0E0B0E08093DF039093E003A093C8
:102A6000E103B093E20384E190E0A0E0B0E0809362
:102A7000E3039093E403A093E503B093E6038DE2B0
:102A800090E0A0E0B0E08093DB039093DC03A093A0
:102A9000DD03B093DE0388E290E0A0E0B0E0809335
:102AA000D3039093D403A093D503B093D60384E1CA
:102AB00090E0A0E0B0E08093D7039093D803A09378
:102AC000D903B093DA038DE290E0A0E0B0E0809308
:102AD000CF039093D003A093D103B093D20310926D
:102AE0003E0410923F04109240041092410480E88A
:102AF0009EEEA6E3B0E08093B9039093BA03A0934F
:102B0000BB03B093BC0380E197E2A0E0B0E0809308
:102B1000BD039093BE03A093BF03B093C003109274
:102B2000EF031092F0031092F1031092F20310924F
:102B3000F3031092F4031092F5031092F6038092BF
:102B40003A0490923B04A0923C04B0923D0482E08F
:102B500090E0A0E0B0E08093680390936903A093B5
:102B60006A03B0936B03C0926C03D0926D03E09242
:102B70006E03F0926F03C092A103D092A203E09281
:102B8000A303F092A4036FED73E085E090E00E9450
:102B9000120E63EE73E08AE090E00E94120E6BED7D
:102BA00073E08FE090E00E94120E63ED73E084E129
:102BB00090E00E94120E67ED73E089E190E00E94C0
:102BC000120E6FEC73E08EE190E00E94120E69EB42
:102BD00073E083E290E00E94120E6DEB73E088E2F6
:102BE00090E00E94120E6AE374E08DE290E00E9491
:102BF000E20D68E673E090E080E00E94120E6CE661
:102C000073E082E390E00E94120E61EA73E087E3D2
:102C100090E00E94120E6EE374E08CE390E00E945C
:102C2000E20D63EF73E081E490E00E94120E6FEE1C
:102C300073E086E490E00E94120E60E080E00E9463
:102C4000160B8BE492E00E944008A89560ED77E0B7
:102C500080E090E00E943702A89580917003833451
:102C600009F099CEC092B103D092B203E092B303BF
:102C7000F092B403C0923404D0923504E09236044A
:102C8000F092370460ED72E08AE194E00E949132A4
:102C90000E94000810929C0310929B0310929A03CA
:102CA0001092990378CE61E080E00E94160B89E5CE
:102CB00092E00E94400860ED77E080E090E00E94A2
:102CC0003702A89561E080E00E94160B8FEB92E03E
:102CD0000E944008C2CFA89560EA7FE080E090E0C3
:102CE0000E943702A895C092B103D092B203E0923D
:102CF000B303F092B403C0923404D0923504E0924E
:102D00003604F09237040E94000810929C0310923F
:102D10009B0310929A031092990360ED72E08AE18E
:102D200094E00E9491326DE771E081E793E00E94A8
:102D30008832892B09F0CBC18091990390919A0335
:102D4000019709F0C4C160ED72E08AE194E00E944D
:102D5000913260ED72E085E893E00E9491320E942A
:102D6000EF0280937003E8EE8E2EE3E09E2EA12CFE
:102D7000B12CF0E64F2EFAEE5F2E612C712C809173
:102D800070038D3309F480C18091990390919A0367
:102D9000019709F079C10E94EF0280937003A89512
:102DA00060E080E00E94160B88E692E00E944008F6
:102DB00061E080E00E94160B70E060E090E080E04F
:102DC0000E942B0B8AE194E00E9472298C010197EA
:102DD00009F09BC00E946D0A60E080E00E94160B23
:102DE00089E792E00E94400861E080E00E94160BB3
:102DF0006DEB73E088E290E00E94710C6091BD037E
:102E00007091BE038091BF039091C003A50194010E
:102E10000E941F2FCA01B9010E94E92DAB01BC011C
:102E2000CE0101960E944209CE0101960E949808A7
:102E3000CE0101960E94E7088AE194E00E944D08C5
:102E400061E089E00E94160B8AE194E00E9440084C
:102E500060ED72E08AE194E00E94913261E080E0EE
:102E60000E94160B10939A030093990370E060E0A0
:102E700081E090E00E942B0B80911A04882309F4D2
:102E8000DEC08AE194E0DC010D900020E9F7CD017D
:102E90008B519440039708F0D2C08AE194E00E94DD
:102EA00090299B01AC01A8EEB3E00E943E2F6093F5
:102EB000BD037093BE038093BF039093C0036DEB7B
:102EC00073E088E290E00E94120E61E080E00E94D0
:102ED000160B80EC92E00E94400861E080E00E94C6
:102EE000160B86E892E00E94400860ED72E08AE1ED
:102EF00094E00E94913268EE73E080E090E00E94DE
:102F000037020E946D0A0E9470088AE194E00E94D4
:102F10007229029709F0B3C00E946D0A60E080E058
:102F20000E94160B82EA92E00E94400861E080E075
:102F30000E94160B69EB73E083E290E00E94710C33
:102F40006091B9037091BA038091BB039091BC0367
:102F5000A30192010E941F2FCA01B9010E94E92D0D
:102F6000AB01BC01CE0101960E944209CE0101963F
:102F70000E949808CE0101960E94E7088AE194E039
:102F80000E944D0861E089E00E94160B8AE194E0FE
:102F90000E94400860ED72E08AE194E00E94913264
:102FA00061E080E00E94160B81E090E090939A032C
:102FB0008093990370E060E082E090E00E942B0B28
:102FC0008AE194E0FC0101900020E9F7CF018D51E6
:102FD0009440029708F044C08AE194E00E9490294E
:102FE0009B01AC01A0E6BAEE0E943E2F6093B903AC
:102FF0007093BA038093BB039093BC0369EB73E0B7
:1030000083E290E00E94120E61E080E00E94160BC5
:1030100080EC92E00E94400861E080E00E94160B84
:1030200086E892E00E94400868EE73E080E090E05D
:103030000E9437020E946D0A0E947008A0CE61E0D3
:1030400080E00E94160B80EC92E00E94400861E054
:1030500080E00E94160B85E992E00E9440084BCF69
:1030600061E080E00E94160B80EC92E00E94400834
:1030700061E080E00E94160B85E992E0D3CF61E029
:1030800080E00E94160B7BCEA895C092B103D0922F
:10309000B203E092B303F092B403C0923404D0922E
:1030A0003504E0923604F09237040E940008109232
:1030B0009C0310929B0310929A031092990360ED67
:1030C00072E08AE194E00E9491320E94700860E907
:1030D00071E081E793E00E948832892B09F0E5C016
:1030E0008091990390919A03019709F0DEC060EDF9
:1030F00072E08AE194E00E94913260ED72E085E82E
:1031000093E00E9491320E94EF0280937003812C21
:103110007CE5972E76E2A72E75E0B72E809170039E
:103120008D3309F49AC08091990390919A03019785
:1031300009F093C0A8950E946D0A60E080E00E94AB
:10314000160B81EB92E00E94400861E080E00E9453
:10315000160B6AE374E08DE290E00E944B0C6091E4
:103160003A0470913B0480913C0490913D04A50188
:1031700094010E94802FCA01B9010E94E72DAB0182
:10318000BC01CE0101960E944209CE0101960E9427
:103190009808CE0101960E94E7088AE194E00E9417
:1031A0004D0861E089E00E94160B8AE194E00E94DC
:1031B000400860ED72E08AE194E00E94913261E0A3
:1031C00080E00E94160B70E060E081E090E00E94D9
:1031D0002B0B80911A048823E9F18AE194E0DC0149
:1031E0000D900020E9F7CD018B519440039790F5A5
:1031F0008AE194E00E9490299B01AC0160E07CE5AB
:1032000086E295E00E944D3060933A0470933B044F
:1032100080933C0490933D046AE374E08DE290E077
:103220000E94E20D61E080E00E94160B8EEB92E0BE
:103230000E94400861E080E00E94160B86E892E060
:103240000E94400868EE73E080E090E00E94370240
:103250000E946D0A0E94700861CFA89560ED77E02A
:1032600080E090E00E943702A895C092B103D0920E
:10327000B203E092B303F092B403C0923404D0924C
:103280003504E0923604F09237040E940008109250
:103290009C0310929B0310929A031092990360ED85
:1032A00072E08AE194E00E94913268E671E081E781
:1032B00093E00E948832892B09F033C280919903F0
:1032C00090919A03019709F02CC260ED72E08AE1B7
:1032D00094E00E94913260ED72E085E893E00E94F4
:1032E00091320E94EF028093700301E010E0809120
:1032F00070038D3309F40EC28091990390919A0363
:10330000019709F007C20E94EF0280937003A8950D
:1033100060E080E00E94160B81ED92E00E94400880
:1033200061E080E00E94160B80EE92E00E9440086F
:1033300061E087E00E94160B67E070E090E080E0BB
:103340000E942B0B8AE194E00E9472295C01019794
:1033500009F089C00E946D0A60E080E00E94160BAF
:1033600087EE92E00E94400861E080E00E94160B28
:103370006FED73E08091AF039091B0030E94710CE8
:103380004091DF035091E0036091E1037091E2030B
:10339000CE0101960E94A409CE0101960E949808D0
:1033A000CE0101960E94E7088AE194E00E944D0850
:1033B00061E089E00E94160B8AE194E00E944008D7
:1033C00060ED72E08AE194E00E94913261E080E079
:1033D0000E94160BB0929A03A092990370E060E0ED
:1033E00082E090E00E942B0B80911A04882309F45C
:1033F0005FC18AE194E0FC0101900020E9F7CF0170
:103400008B519440049708F053C18AE194E00E94E4
:1034100090296093DF037093E0038093E10390931E
:10342000E2036FED73E08091AF039091B0030E94CF
:10343000120E61E080E00E94160B80EC92E00E9488
:10344000400861E080E00E94160B86E892E00E944E
:10345000400868EE73E080E090E00E9437020E942E
:103460006D0A0E9470088AE194E00E947229029716
:1034700009F089C00E946D0A60E080E00E94160B8E
:1034800087EE92E00E94400861E080E00E94160B07
:1034900063EE73E08091AD039091AE030E94710CD6
:1034A0004091E3035091E4036091E5037091E603DA
:1034B000CE0101960E94A409CE0101960E949808AF
:1034C000CE0101960E94E7088AE194E00E944D082F
:1034D00061E089E00E94160B8AE194E00E944008B6
:1034E00060ED72E08AE194E00E94913261E080E058
:1034F0000E94160B10939A030093990370E060E00A
:1035000082E090E00E942B0B80911A04882309F43A
:10351000DEC08AE194E0DC010D900020E9F7CD01E6
:103520008B519440049708F0D2C08AE194E00E9445
:1035300090296093E3037093E4038093E5039093F1
:10354000E60363EE73E08091AD039091AE030E94B9
:10355000120E61E080E00E94160B80EC92E00E9467
:10356000400861E080E00E94160B86E892E00E942D
:10357000400868EE73E080E090E00E9437020E940D
:103580006D0A0E9470088AE194E00E9472290397F4
:1035900009F0BBC00E946D0A60E080E00E94160B3B
:1035A00087EE92E00E94400861E080E00E94160BE6
:1035B0006BED73E08091AB039091AC030E94710CB2
:1035C0004091DB035091DC036091DD037091DE03D9
:1035D000CE0101960E94A409CE0101960E9498088E
:1035E000CE0101960E94E7088AE194E00E944D080E
:1035F00061E089E00E94160B8AE194E00E94400895
:1036000060ED72E08AE194E00E94913261E080E036
:103610000E94160B10939A030093990370E060E0E8
:1036200082E090E00E942B0B80911A04882309F419
:103630005DC08AE194E0FC0101900020E9F7CF0130
:103640008B519440049708F051C08AE194E00E94A5
:1036500090296093DB037093DC038093DD039093E8
:10366000DE036BED73E08091AB039091AC030E949D
:10367000120E61E080E00E94160B80EC92E00E9446
:10368000400861E080E00E94160B86E892E00E940C
:10369000400868EE73E080E090E00E9437020E94EC
:1036A0006D0A0E9470080E9470080E9400081FCED8
:1036B00061E080E00E94160B80EC92E00E944008DE
:1036C00061E080E00E94160B85E992E0C0CE61E0E7
:1036D00080E00E94160B80EC92E00E94400861E0BE
:1036E00080E00E94160B85E992E041CF61E080E026
:1036F0000E94160B80EC92E00E94400861E080E09E
:103700000E94160B85E992E0C2CF61E080E00E9442
:10371000160BC9CFA89560ED72E08AE194E00E9493
:10372000913264E771E081E793E00E948832892B4F
:1037300009F02FC28091990390919A03019709F0A3
:1037400028C260ED72E08AE194E00E94913260ED5F
:1037500072E085E893E00E9491320E94EF0280932C
:10376000700301E010E0809170038D3309F40AC208
:103770008091990390919A03019709F003C2A8954B
:1037800060E080E00E94160B81ED92E00E9440080C
:1037900061E080E00E94160B80EE92E00E944008FB
:1037A00061E087E00E94160B67E070E090E080E047
:1037B0000E942B0B8AE194E00E9472295C01019720
:1037C00009F089C00E946D0A60E080E00E94160B3B
:1037D00085EF92E00E94400861E080E00E94160BB5
:1037E00063ED73E08091A9039091AA030E94710C8C
:1037F0004091D3035091D4036091D5037091D603C7
:10380000CE0101960E94A409CE0101960E9498085B
:10381000CE0101960E94E7088AE194E00E944D08DB
:1038200061E089E00E94160B8AE194E00E94400862
:1038300060ED72E08AE194E00E94913261E080E004
:103840000E94160BB0929A03A092990370E060E078
:1038500082E090E00E942B0B80911A04882309F4E7
:103860005FC18AE194E0DC010D900020E9F7CD0111
:103870008B519440049708F053C18AE194E00E9470
:1038800090296093D3037093D4038093D5039093CE
:10389000D60363ED73E08091A9039091AA030E947F
:1038A000120E61E080E00E94160B80EC92E00E9414
:1038B000400861E080E00E94160B86E892E00E94DA
:1038C000400868EE73E080E090E00E9437020E94BA
:1038D0006D0A0E9470088AE194E00E9472290297A2
:1038E00009F089C00E946D0A60E080E00E94160B1A
:1038F00085EF92E00E94400861E080E00E94160B94
:1039000067ED73E08091A7039091A8030E94710C6A
:103910004091D7035091D8036091D9037091DA0395
:10392000CE0101960E94A409CE0101960E9498083A
:10393000CE0101960E94E7088AE194E00E944D08BA
:1039400061E089E00E94160B8AE194E00E94400841
:1039500060ED72E08AE194E00E94913261E080E0E3
:103960000E94160B10939A030093990370E060E095
:1039700082E090E00E942B0B80911A04882309F4C6
:10398000DEC08AE194E0FC0101900020E9F7CF015C
:103990008B519440049708F0D2C08AE194E00E94D1
:1039A00090296093D7037093D8038093D9039093A1
:1039B000DA0367ED73E08091A7039091A8030E945A
:1039C000120E61E080E00E94160B80EC92E00E94F3
:1039D000400861E080E00E94160B86E892E00E94B9
:1039E000400868EE73E080E090E00E9437020E9499
:1039F0006D0A0E9470088AE194E00E947229039780
:103A000009F0BBC00E946D0A60E080E00E94160BC6
:103A100085EF92E00E94400861E080E00E94160B72
:103A20006FEC73E08091A5039091A6030E94710C46
:103A30004091CF035091D0036091D1037091D20394
:103A4000CE0101960E94A409CE0101960E94980819
:103A5000CE0101960E94E7088AE194E00E944D0899
:103A600061E089E00E94160B8AE194E00E94400820
:103A700060ED72E08AE194E00E94913261E080E0C2
:103A80000E94160B10939A030093990370E060E074
:103A900082E090E00E942B0B80911A04882309F4A5
:103AA0005DC08AE194E0DC010D900020E9F7CD01D2
:103AB0008B519440049708F051C08AE194E00E9431
:103AC00090296093CF037093D0038093D103909398
:103AD000D2036FEC73E08091A5039091A6030E943E
:103AE000120E61E080E00E94160B80EC92E00E94D2
:103AF000400861E080E00E94160B86E892E00E9498
:103B0000400868EE73E080E090E00E9437020E9477
:103B10006D0A0E9470080E9470080E94000823CE5F
:103B200061E080E00E94160B80EC92E00E94400869
:103B300061E080E00E94160B85E992E0C0CE61E072
:103B400080E00E94160B80EC92E00E94400861E049
:103B500080E00E94160B85E992E041CF61E080E0B1
:103B60000E94160B80EC92E00E94400861E080E029
:103B70000E94160B85E992E0C2CF61E080E00E94CE
:103B8000160BC9CFA89560ED72E08AE194E00E941F
:103B900091326BEE71E081E793E00E948832892BCD
:103BA00009F023C38091990390919A03019709F03A
:103BB0001CC360ED72E08AE194E00E94913260EDF6
:103BC00072E085E893E00E9491320E94EF028093B8
:103BD000700352E3852E912CA12CB12C6BE4462E60
:103BE000512C612C712C809170038D3309F4DCC24F
:103BF0008091990390919A03019709F0D5C2A895F5
:103C000060E080E00E94160B81E093E00E94400893
:103C100061E080E00E94160B82E193E00E94400880
:103C200061E08DE00E94160B6DE070E090E080E0B6
:103C30000E942B0B8AE194E00E947229019705975C
:103C400008F09FC28AE194E00E9490296093A1034A
:103C50007093A2038093A3039093A40361EA73E09B
:103C600087E390E00E94120E0E94120D8091A10342
:103C70009091A203A091A303B091A4030197A10581
:103C8000B10509F070C085E290E0A0E0B0E080935B
:103C9000640390936503A0936603B093670364E69F
:103CA00073E08091AD039091AE030E94120E86E204
:103CB00090E0A0E0B0E08093640390936503A0934C
:103CC0006603B093670364E673E08091AF0390915D
:103CD000B0030E94120E87E290E0A0E0B0E0809373
:103CE000640390936503A0936603B093670364E64F
:103CF00073E08091AB039091AC030E94120E80920E
:103D0000640390926503A0926603B092670364E631
:103D100073E08091A7039091A8030E94120E86E49D
:103D200090E0A0E0B0E08093640390936503A093DB
:103D30006603B093670364E673E08091A9039091F2
:103D4000AA030E94120E409264035092650360928F
:103D500066037092670364E673E08091A503909117
:103D6000A6030E94120E8091A1039091A203A0913C
:103D7000A303B091A4030297A105B10509F070C097
:103D800085E290E0A0E0B0E0809364039093650347
:103D9000A0936603B093670364E673E08091AD037C
:103DA0009091AE030E94120E87E290E0A0E0B0E096
:103DB0008093640390936503A0936603B0936703B5
:103DC00064E673E08091AF039091B0030E94120EFD
:103DD00088E290E0A0E0B0E08093640390936503F4
:103DE000A0936603B093670364E673E08091AB032E
:103DF0009091AC030E94120E80926403909265032E
:103E0000A0926603B092670364E673E08091A70313
:103E10009091A8030E94120E409264035092650391
:103E2000609266037092670364E673E08091A90371
:103E30009091AA030E94120E80E590E0A0E0B0E00D
:103E40008093640390936503A0936603B093670324
:103E500064E673E08091A5039091A6030E94120E80
:103E60008091A1039091A203A091A303B091A40318
:103E70000397A105B10509F070C085E290E0A0E0CC
:103E8000B0E08093640390936503A0936603B093BE
:103E9000670364E673E08091AD039091AE030E94E6
:103EA000120E86E290E0A0E0B0E08093640390936D
:103EB0006503A0936603B093670364E673E08091A3
:103EC000AF039091B0030E94120E87E290E0A0E051
:103ED000B0E08093640390936503A0936603B0936E
:103EE000670364E673E08091AB039091AC030E949A
:103EF000120E8092640390926503A0926603B092C2
:103F0000670364E673E08091A7039091A8030E9481
:103F1000120E4092640350926503609266037092A1
:103F2000670364E673E08091A9039091AA030E945D
:103F3000120E80E590E0A0E0B0E0809364039093DF
:103F40006503A0936603B093670364E673E0809112
:103F5000A5039091A6030E94120E8091A103909157
:103F6000A203A091A303B091A4030497A105B105F6
:103F700009F070C085E290E0A0E0B0E080936403B7
:103F800090936503A0936603B093670364E673E0C0
:103F90008091AD039091AE030E94120E87E290E0F3
:103FA000A0E0B0E08093640390936503A093660360
:103FB000B093670364E673E08091AF039091B00320
:103FC0000E94120E88E290E0A0E0B0E080936403CB
:103FD00090936503A0936603B093670364E673E070
:103FE0008091AB039091AC030E94120E8092640307
:103FF00090926503A0926603B092670364E673E053
:104000008091A7039091A8030E94120E86E490E08D
:10401000A0E0B0E08093640390936503A0936603EF
:10402000B093670364E673E08091A9039091AA03BB
:104030000E94120E409264035092650360926603E0
:104040007092670364E673E08091A5039091A603E4
:104050000E94120E8091A1039091A203A091A3034C
:10406000B091A4030597A105B10509F070C085E2E0
:1040700090E0A0E0B0E08093640390936503A09388
:104080006603B093670364E673E08091AD0390919B
:10409000AE030E94120E87E290E0A0E0B0E08093B1
:1040A000640390936503A0936603B093670364E68B
:1040B00073E08091AF039091B0030E94120E88E2EA
:1040C00090E0A0E0B0E08093640390936503A09338
:1040D0006603B093670364E673E08091AB0390914D
:1040E000AC030E94120E8092640390926503A0922A
:1040F0006603B092670364E673E08091A703909132
:10410000A8030E94120E86E490E0A0E0B0E0809345
:10411000640390936503A0936603B093670364E61A
:1041200073E08091A9039091AA030E94120E40921D
:10413000640350926503609266037092670364E6BD
:1041400073E08091A5039091A6030E94120E61E096
:1041500080E00E94160B8DE193E00E94400860ED24
:1041600077E080E090E00E943702A89561E080E06F
:104170000E94160B8FEB92E00E9440080E9470088C
:1041800032CD85E090E0A0E0B0E08093A103909371
:10419000A203A093A303B093A40361EA73E087E3AF
:1041A00090E00E94120EEACFA895C092B103D0927F
:1041B000B203E092B303F092B403C0923404D092FD
:1041C0003504E0923604F09237040E940008109201
:1041D0009C0310929B0310929A031092990360ED36
:1041E00072E08AE194E00E94913264E072E081E73B
:1041F00093E00E948832892B09F067C3809199036C
:1042000090919A03019709F060C360ED72E08AE132
:1042100094E00E94913260ED72E085E893E00E94A4
:1042200091320E94EF028093700301E010E08091D0
:1042300070038D3309F428C38091990390919A03F8
:10424000019709F021C3A89560E080E00E94160B59
:104250008AE293E00E94400861E080E00E94160B31
:1042600070E060E090E080E00E942B0B8AE194E037
:104270000E9472295C0191E0A916B10409F07CC189
:1042800060ED72E08AE194E00E94913260ED72E0AC
:1042900085E893E00E949132B0929A03A09299032C
:1042A000809170038D3309F467C1809199039091D7
:1042B0009A03019709F060C1A89560E080E00E9430
:1042C000160B89E393E00E94400861E080E00E94C1
:1042D000160B70E060E090E080E00E942B0B8AE11A
:1042E00094E00E9472295C01019709F08BC00E9442
:1042F0006D0A60E080E00E94160B89E493E00E9462
:10430000400861E080E00E94160B63EF73E081E4F7
:1043100090E00E94710C4091F3035091F40360917E
:10432000F5037091F603CE0101960E94A409CE0117
:1043300001960E949808CE0101960E94E7088AE142
:1043400094E00E944D0861E089E00E94160B8AE12A
:1043500094E00E94400860ED72E08AE194E00E94DF
:10436000913261E080E00E94160BB0929A03A09215
:10437000990370E060E081E090E00E942B0B809157
:104380001A04882309F4D1C08AE194E0FC01019069
:104390000020E9F7CF018B519440039708F0C5C086
:1043A0008AE194E00E9490296093F3037093F403F0
:1043B0008093F5039093F60363EF73E081E490E05C
:1043C0000E94120E61E080E00E94160B80EC92E0E9
:1043D0000E94400861E080E00E94160B86E892E0AF
:1043E0000E94400860ED72E08AE194E00E94913200
:1043F00068EE73E080E090E00E9437020E946D0A50
:104400000E9470088AE194E00E947229029709F0E4
:10441000AEC00E946D0A60E080E00E94160B89E445
:1044200093E00E94400861E080E00E94160B6FEE6E
:1044300073E086E490E00E94710C4091EF0350918C
:10444000F0036091F1037091F203CE0101960E9496
:10445000A409CE0101960E949808CE0101960E94FF
:10446000E7088AE194E00E944D0861E089E00E943B
:10447000160B8AE194E00E94400860ED72E08AE148
:1044800094E00E94913261E080E00E94160B10934C
:104490009A030093990370E060E081E090E00E944D
:1044A0002B0B80911A04882309F450C08AE194E010
:1044B000DC010D900020E9F7CD018B51944003976A
:1044C00008F044C08AE194E00E9490296093EF03D1
:1044D0007093F0038093F1039093F2036FEE73E017
:1044E00086E490E00E94120E61E080E00E94160BCC
:1044F00080EC92E00E94400861E080E00E94160B90
:1045000086E892E00E94400860ED72E08AE194E063
:104510000E94913268EE73E080E090E00E943702E2
:104520000E946D0A0E947008BBCE61E080E00E948C
:10453000160B80EC92E00E94400861E080E00E944F
:10454000160B85E992E00E94400852CF61E080E0BE
:104550000E94160B80EC92E00E94400861E080E02F
:104560000E94160B85E992E00E944008D3CF61E0DB
:1045700080E00E94160B94CE8AE194E00E9472299A
:10458000029709F07CC160ED72E08AE194E00E943C
:10459000913260ED72E085E893E00E9491321093D1
:1045A0009A0300939903809170038D3309F43FCEF1
:1045B0008091990390919A03019709F038CEA895BC
:1045C00060E080E00E94160B89E393E00E944008BF
:1045D00061E080E00E94160B70E060E090E080E017
:1045E0000E942B0B8AE194E00E9472295C010197E2
:1045F00009F08BC00E946D0A60E080E00E94160BFB
:1046000089E493E00E94400861E080E00E94160B7C
:104610006BEE73E08BE490E00E94710C4091EB0331
:104620005091EC036091ED037091EE03CE01019681
:104630000E94A409CE0101960E949808CE0101961D
:104640000E94E7088AE194E00E944D0861E089E059
:104650000E94160B8AE194E00E94400860ED72E02F
:104660008AE194E00E94913261E080E00E94160BA2
:10467000B0929A03A092990370E060E081E090E02C
:104680000E942B0B80911A04882309F4D1C08AE17F
:1046900094E0FC0101900020E9F7CF018B51944098
:1046A000039708F0C5C08AE194E00E9490296093C6
:1046B000EB037093EC038093ED039093EE036BEEAA
:1046C00073E08BE490E00E94120E61E080E00E94B3
:1046D000160B80EC92E00E94400861E080E00E94AE
:1046E000160B86E892E00E94400860ED72E08AE1D5
:1046F00094E00E94913268EE73E080E090E00E94C6
:1047000037020E946D0A0E9470088AE194E00E94BC
:104710007229029709F0AEC00E946D0A60E080E045
:104720000E94160B89E493E00E94400861E080E05B
:104730000E94160B67EE73E080E590E00E94710C1A
:104740004091E7035091E8036091E9037091EA0317
:10475000CE0101960E94A409CE0101960E949808FC
:10476000CE0101960E94E7088AE194E00E944D087C
:1047700061E089E00E94160B8AE194E00E94400803
:1047800060ED72E08AE194E00E94913261E080E0A5
:104790000E94160B10939A030093990370E060E057
:1047A00081E090E00E942B0B80911A04882309F489
:1047B00050C08AE194E0DC010D900020E9F7CD01C2
:1047C0008B519440039708F044C08AE194E00E9422
:1047D00090296093E7037093E8038093E903909333
:1047E000EA0367EE73E080E590E00E94120E61E05C
:1047F00080E00E94160B80EC92E00E94400861E08D
:1048000080E00E94160B86E892E00E94400860ED6E
:1048100072E08AE194E00E94913268EE73E080E0F9
:1048200090E00E9437020E946D0A0E947008BBCE81
:1048300061E080E00E94160B80EC92E00E9440084C
:1048400061E080E00E94160B85E992E00E9440083A
:1048500052CF61E080E00E94160B80EC92E00E9453
:10486000400861E080E00E94160B85E992E00E941A
:104870004008D3CF61E080E00E94160B94CE61E047
:1048800080E00E94160BD3CCA895C092B103D092C1
:10489000B203E092B303F092B403C0923404D09216
:1048A0003504E0923604F09237040E94000810921A
:1048B0009C0310929B0310929A031092990360ED4F
:1048C00072E08AE194E00E9491320E9463041091A8
:1048D0004204112311F40C94F4100E947602133454
:1048E000E1F410929E0310929D03C092B103D09206
:1048F000B203E092B303F092B403C0923404D092B6
:104900003504E0923604F09237040E94970C60ED73
:1049100072E08AE194E00E949132809142048D33EA
:1049200011F00C94F41081E090E090939C0380933C
:104930009B0390939A03809399030C94F4100E9424
:10494000120D6FED73E08091AF039091B0030E9460
:10495000710C63EE73E08091AD039091AE030E9401
:10496000710C6BED73E08091AB039091AC030E94EE
:10497000710C63ED73E08091A9039091AA030E94EA
:10498000710C67ED73E08091A7039091A8030E94DA
:10499000710C6FEC73E08091A5039091A6030E94C7
:1049A000710C69EB73E083E290E00E94710C6DEB97
:1049B00073E088E290E00E94710C6AE374E08DE29B
:1049C00090E00E944B0C61EA73E087E390E00E9464
:1049D000710C6EE374E08CE390E00E944B0C63EF8B
:1049E00073E081E490E00E94710C6FEE73E086E466
:1049F00090E00E94710C6BEE73E08BE490E00E94FB
:104A0000710C67EE73E080E590E00E94710C80907D
:104A10003E0490903F04A0904004B0904104C50132
:104A2000B40120E03CE546E255E00E94802FCA0137
:104A3000B9010E94E72D6093CB037093CC03809360
:104A4000CD039093CE0380913A0490913B04A091C2
:104A50003C04B0913D0488159905AA05BB0508F0F2
:104A6000AEC281E090E0909339048093380460E016
:104A700088E00E94A00160E086E00E94A00160E062
:104A800087E00E94A0018091380490913904892B1D
:104A900009F0FCC20E946A020091300410913104B6
:104AA000209132043091330406171707280739077D
:104AB00008F09BC060912E0470912F04CE010196E6
:104AC0000E947809CE0101960E949808CE010196B5
:104AD0000E94E7088AE194E00E944D086091180462
:104AE00070911904CE0101960E947809CE010196B9
:104AF0000E949808CE0101960E94E70884E094E0A5
:104B00000E944D0860E087E00E94160B8AE194E065
:104B10000E94400860E08DE00E94160B84E094E063
:104B20000E9440086EE374E08CE390E00E944B0C1E
:104B30006AE374E08DE290E00E944B0C60913A04CD
:104B400070913B0480913C0490913D04812C4CE594
:104B5000942E46E2A42E45E0B42EA50194010E94B5
:104B6000802FCA01B9010E94E72D2B013C01609101
:104B70003E0470913F048091400490914104A5014E
:104B800094010E94802FCA01B9010E94E72D9B0168
:104B9000AC01C301B2010E94B12FAB01BC01CE0137
:104BA00001960E944209CE0101960E949808CE010A
:104BB00001960E94E7088AE194E00E944D0861E0B6
:104BC00087E00E94160B8AE194E00E9440080E9450
:104BD0006A026053784F8F4F9F4F609330047093F9
:104BE00031048093320490933304E8EDF1E0B49003
:104BF000E6EFF1E0E491F0E0EE0FFF1FE955FE4F24
:104C00000591149161E083E10E94D20160E083E1AB
:104C10000E94A00162E170E080E090E00E94370213
:104C200061E083E10E94A00160E083E10E94D20183
:104C300080E293E0F80120812B2109F4C5C101979E
:104C4000C9F70091FF030F770093FF031091010450
:104C50001F7710930104602F70E090E080E00E94C5
:104C6000E72D6093F7037093F8038093F903909313
:104C7000FA03612F70E090E080E00E94E72D6093DE
:104C8000FB037093FC038093FD039093FE03412E7E
:104C9000512C8091EF039091F003481A590A8091AA
:104CA000F3039091F403480E591E50922F04409242
:104CB0002E04A02EB12C8091E7039091E803A81A4E
:104CC000B90A8091EB039091EC03A80EB91EB09243
:104CD0001904A0921804052C000C6608770880912E
:104CE000E3039091E403A091E503B091E6038415FA
:104CF0009505A605B70524F061E088E00E94A001B3
:104D00008091DF039091E003A091E103B091E20371
:104D1000481659066A067B0624F060E088E00E9487
:104D2000A0018091DB039091DC03A091DD03B091A1
:104D3000DE03481659066A067B060CF49DC161E045
:104D400085E00E94A0010E9476028091E303909189
:104D5000E403A091E503B091E6030497A109B1092A
:104D6000481659066A067B0614F40E94760245012D
:104D7000BB0CAA08BB088091D7039091D803A091DF
:104D8000D903B091DA0388159905AA05BB0524F06B
:104D900061E087E00E94A0018091D3039091D40349
:104DA000A091D503B091D60388169906AA06BB0632
:104DB00024F060E087E00E94A0018091CF039091F1
:104DC000D003A091D103B091D20388169906AA0608
:104DD000BB060CF456C161E085E00E94A0010E9470
:104DE00076028091D7039091D803A091D903B09116
:104DF000DA030497A109B10988169906AA06BB0629
:104E000014F40E94760220E030E040E450E4609127
:104E1000CB037091CC038091CD039091CE030E947F
:104E2000E22D18160CF476C00E946A024090C70367
:104E30005090C8036090C9037090CA034616570685
:104E40006806790650F48091C5039091C6030197D6
:104E500021F41092C6031092C5030E946A0280904A
:104E6000C1039090C203A090C303B090C403641523
:104E700075058605970558F40E946A0286169706FE
:104E8000A806B90620F460E086E00E94A0010E9416
:104E90006A0286169706A806B906E0F58091C50352
:104EA0009091C603892BB1F561E086E00E94A001D4
:104EB0000E946A020091BD031091BE032091BF03BE
:104EC0003091C003DC01CB01800F911FA21FB31FE3
:104ED0008093C1039093C203A093C303B093C40310
:104EE0000091B9031091BA032091BB033091BC0328
:104EF000080F191F2A1F3B1F0093C7031093C803F5
:104F00002093C9033093CA0381E090E09093C603D5
:104F10008093C5030E946A020091B5031091B60305
:104F20002091B7033091B8030617170728073907F0
:104F300070F50E946A02605C7848844E9F4F6093CF
:104F4000B5037093B6038093B7039093B8036EE3F1
:104F500074E08CE390E00E944B0C80913E049091B1
:104F60003F04A0914004B0914104805C9848A44E55
:104F7000BF4F80933E0490933F04A0934004B093AE
:104F800041046EE374E08CE390E00E94E20D8091B6
:104F9000B1039091B203A091B303B091B403019710
:104FA000A105B10511F40E94970C80E090E0892BD7
:104FB00011F40C94C5100E9400000C94C5101092BE
:104FC0003904109238045FCD80E991E0D8012C912A
:104FD0002B2119F40197D1F734CE80E991E0F80143
:104FE00020812B2119F00197D1F72BCE912CA0E035
:104FF00020E8822E50E040E080E991E020E931E0B5
:10500000712CB8E260E971E0F801A080AB20E9F40E
:105010007720D9F0B83241F58217930708F49C0144
:10502000AB01421B530B5695479556954795869471
:1050300049F4E92DF0E0E950FC4FA0879394A0E0FB
:1050400080E8882EB15080E991E0019709F4F9CD0C
:105050007A2CB111D9CF61E083E10E94D20161E0E5
:1050600083E10E94A001EDCDF901E41BF50BE817E7
:10507000F907E8F2A829DBCF60E085E00E94A001F3
:1050800064CE60E085E00E94A001ABCE8091340444
:1050900090913504A0913604B09137040197A10591
:1050A000B10509F082CF0E946D0A60E080E00E94A5
:1050B000160B85E593E00E9440081092340410928C
:1050C000350410923604109237046FCF2F5F3F4F94
:1050D0003093A00320939F030C9421112150310998
:1050E0008A32B1F30C9421111092F1041092F00461
:1050F00086E391E09093EF048093EE0489E080933F
:10510000F2048FEF8093F3048AE08093F4048BE041
:105110008093F5048CE08093F6048DE08093F7048F
:105120008EE08093F8041092F9041092FA04109221
:10513000FB041092FC041092FD0481E00E94750AA9
:1051400010924E0410925204109251041092530483
:105150008CE291E090934D0480934C04E8E6F4E0F7
:105160001082148213821582369684E0E43AF8079E
:10517000B9F784E091E09093AF048093AE0480E0AF
:1051800091E09093B1048093B00484E08093B204E2
:105190008093B30488E091E09093AD048093AC04D5
:1051A0008AE090E09093B5048093B40484EF91E09A
:1051B0009093B7048093B6041092BA041092B90485
:1051C0001092A8041092A9041092AA041092AB04A1
:1051D0001092B8041092BC041092BB041092BE044A
:1051E0001092BD041092C0041092BF0470E060E001
:1051F0008BEB94E00E94EF08811141C08BEB94E0AF
:105200000E94D50882E190E09093D3048093D20469
:105210001092D5041092D4041092D6041092D704A0
:105220001092D8041092D9041092DA041092DB0480
:105230001092DC041092DD041092DE041092DF0460
:105240001092E0041092E1041092E3041092E20440
:105250001092E5041092E4041092E7041092E60420
:105260001092E9041092E8041092EA041092EB0400
:105270001092EC041092ED0461E00C94D2011092B3
:10528000C0041092BF0460ED72E08091BB04909165
:10529000BC040E949132B6CF8BEB94E00C94E708EB
:1052A000EF920F931F93CF93DF93E80134E047FD14
:1052B00034E1042E000C550B57FF03C05195419566
:1052C0005109E32E022F242FAE010E942A2ACE017B
:1052D000DF91CF911F910F91EF9008956627772767
:1052E0000C94892BFC0188279927E894219120327E
:1052F000E9F3293010F02E30C8F32B3241F02D3273
:1053000039F4689404C00E94E629820F911D21910E
:1053100020532A30C0F31EF4909581959F4F089535
:105320001F93FC0199278827BC01E8941191103242
:10533000E9F3193010F01E30C8F31B3251F01D3262
:1053400049F4689406C00E94D129610F711D811D26
:10535000911D119110531A30B0F33EF49095809541
:10536000709561957F4F8F4F9F4F1F910895BB2779
:105370004A3031F4992322F4BDE2909581959F4FF4
:105380000C94112ABB272A3051F4992342F4BDE230
:1053900090958095709561957F4F8F4F9F4F0C949E
:1053A000EF29592F482F372F262F660F771F881F79
:1053B000991F660F771F881F991F620F731F841F25
:1053C000951F660F771F881F991F08957AE0979F92
:1053D000902D879F802D910D11240895BB27FA01F0
:1053E000A62F6217710581059105330B30FB66F01E
:1053F000AA27660F771F881F991FAA1FA21710F0F0
:10540000A21B63953850A9F7A05DAA3308F0A95DE7
:10541000A19336F7B111B1931082CA010C94D22D29
:10542000BB27FB015527AA27880F991FAA1FA4177E
:1054300010F0A41B83955051B9F7A05DAA3308F072
:10544000A95DA193009779F7B111B1931192CB01A6
:105450000C94D22DA9E0B0E0E0E3FAE20C944F2FD7
:105460006A01F22EB02E102FFBE3AF2EA01608F427
:105470001BE31F5F012F27E0AE014F5F5F4F0E94CC
:10548000D92CBC018981982F9970913009F43FC0C3
:105490009BE2E1FC04C09E2D9170E0FC3AC05E2DC1
:1054A0005071E82FE87083FF46C084E0911101C07D
:1054B00083E0EF2DE81B8F1508F0E0E0D6018E2F7A
:1054C00020E2552351F1992329F0D6019C93C6017E
:1054D00001966C0196012D5F3F4FE2FE24C08EE4E1
:1054E000D6018C9391E411969C93119712968C930C
:1054F000D9018E2F90E281111BC0E20FF32FF11D15
:1055000010828EEF9FEF2996ECE00C946B2F9DE2BA
:10551000C6CF90E2C4CF2D9381508111FCCFCE0E27
:10552000D11CE0E0D0CF8EE6D6018C9391E6DBCFA4
:105530009D938150E0CF482F447082FF3DC084E0AE
:10554000911101C083E08F1510F4EF2DE81BD601F7
:105550008E2F20E2552309F1992329F0D6019C933F
:10556000C60101966C0196012D5F3F4FE2FE1BC004
:1055700089E4D6018C938EE411968C93119786E47E
:1055800012968C93D9018E2F90E2882309F4B5CF1F
:105590009D938150FACF2D9381508111FCCFCE0E77
:1055A000D11CE0E0D9CF89E6D6018C938EE6119626
:1055B0008C93119786E6E4CF9B0177FF02C030E021
:1055C00020E0A1E0B0E0911102C0B0E0A0E0F9015C
:1055D0003196AE0FBF1F8B2C912CBB2009F461C0FC
:1055E0005401EFEFAE1ABE0AAA0DBB1DFA161B0638
:1055F00019F014F04F2D4A1B511188C0E3FC59C01B
:105600007601A42FB0E2A1114FC0C40ED11C992382
:1056100009F45BC040E0D6011196F60190836D015C
:10562000552309F448C0012F060F9A81582F507155
:1056300084FF03C0913309F4015010160CF047C0E9
:10564000093008F008E0EEE2FE2E5B01A01AB10876
:1056500085019194819491082F3F320729F4D60156
:10566000FC92F60131966F016217730794F10217ED
:1056700013077CF5DB01A21BB30BAA24A394B12C66
:10568000AC0EBD1EAA0DBB1D11968C912150310987
:10569000D601119628153905F4F0F60180836D01C5
:1056A000DBCFB12CA12CA0CFF701B1937F01A1508A
:1056B000AACF9111B0CFD601942F50E302C05D93D1
:1056C00091509111FCCFC40ED11C40E0ACCF01E051
:1056D000BACF80E3DBCF6217730731F4963388F4D7
:1056E000953311F4552369F0F6018083FD01842F71
:1056F00090E2811108C0A40FB11D1C9290E080E0DF
:1057000002CF81E3F1CF91938150F3CF911183CFF9
:105710008ACFB0E0A0E0EFE8FBE20C944F2F5C01F1
:105720007B016115710519F0DB018D939C93850157
:105730000F5F1F4FF501D0818D2F90E00E94B12D9A
:105740006C01892BB9F5DD32B9F50F5F1F4FD5011B
:105750001196DC91C1E05801F1E0AF1AB10843E0C5
:1057600050E060E770E0C5010E94BA2D892B69F511
:10577000680182E0C80ED11C45E050E06BE670E0A5
:10578000C6010E94BA2D892B21F4680197E0C90E49
:10579000D11CE114F10419F0D701CD92DC9260E044
:1057A00070E080E89FEFC111FFC060E070E080E82A
:1057B0009FE7FAC05801BBCFDB3229F485010E5FA9
:1057C0001F4FF501D181C0E0C6CF43E050E068E64D
:1057D00070E0C5010E94BA2D892BE9F0F80110E0B4
:1057E00000E020E030E0A9015F01B0ED8B2E8D0ECE
:1057F00089E08815C8F19C2E689491F88C2F8870E8
:10580000C2FF16C0811102C00F5F1F4F3196D50134
:10581000DC91C92DE9CFE114F10429F00E5F1F4F8F
:10582000F7011183008360E070E080EC9FE7BCC06B
:10583000882311F001501109A5E0B0E00E943E2F2D
:105840009B01AC01220F331F441F551F280D311D32
:10585000411D511D283999E93907490799E159072F
:10586000A8F2C6609C2ED2CFAEEF8A1206C0C3FD4E
:105870003CC09C2E689493F8C9CFDF7DD534A9F540
:1058800080818D3239F4C061DF011296818162E03E
:1058900070E006C0DF018B32C1F3119661E070E069
:1058A00080535D01A61AB70A8A30F8F4E0E8CE16F4
:1058B000ECE0DE065CF4B601660F771F660F771F1B
:1058C000C60ED71ECC0CDD1CC80ED11C5D01FFEF2F
:1058D000AF1ABF0A8C9180538A30A8F1C4FF03C06D
:1058E000D194C194D1080C0D1D1DC1FF09C0E11454
:1058F000F10431F081E0A81AB108D701AD92BC9251
:10590000CA01B9010E94E72DC370C33009F4905851
:105910004B015C0120E030E0A9010E94E22D8823C8
:1059200009F440C0CFE9D0E017FF05C011950195FB
:105930001109C7E8D0E06E01B8E1CB1AD10880E2C6
:10594000E82EF12C0FC0D501B1CFFE012591359184
:10595000459154910E191F09C501B4010E94482EAA
:105960004B015C01D501C4010E151F0574F7249786
:10597000F594E794CC16DD06A9F78A2F880F8B2FB4
:10598000881F8F3F49F020E030E0A901C501B40134
:105990000E94E22D811106C082E290E090930705FB
:1059A00080930605C501B401CDB7DEB7ECE00C94D9
:1059B0006B2F283008F027E03327DA01990F311DCB
:1059C00087FD916000966105710539F432602E5FA4
:1059D0003D9330E32A95E1F708959F3F30F08038FA
:1059E0007105610509F03C5F3C5F3D93913008F023
:1059F0008068911DDF93CF931F930F93FF92EF92D7
:105A0000192F987F9695E92F96959695E90FFF2780
:105A1000E350FF4F99273327EE24FF24A701E70126
:105A200005900894079428F4360FE71EF81E491FC6
:105A3000511D660F771F881F991F0694A1F70590C7
:105A4000079428F4E70EF81E491F561FC11D770F53
:105A5000881F991F661F0694A1F70590079428F4E4
:105A6000F80E491F561FC71FD11D880F991F661FAB
:105A7000771F0694A1F70590079420F4490F561F4D
:105A8000C71FD81F990F661F771F881F0694A9F795
:105A900084911095177041F0D695C7955795479505
:105AA000F794E7941A95C1F7E3EAF0E0689415904B
:105AB000159135916591959105907FE27395E11867
:105AC000F10A430B560BC90BD009C0F7E10CF11ECC
:105AD000431F561FC91FD01D7EF4703311F48A95E1
