:100000000C94FE000C94B0190C9489190C942601E0
:100010000C9426010C9426010C9426010C94D719FB
:100020000C9426010C9426010C9426010C942601B4
:100030000C9426010C9426010C9426010C942601A4
:100040000C943F190C9426010C94591A0C94331AF1
:100050000C9426010C9426010C9426010C94260184
:100060000C9426010C9426014E414E494E49545998
:10007000494E46CDCCCC3D0AD7233C17B7D1387773
:10008000CC2B329595E6241FB14F0A000020410089
:1000900000C84200401C4620BCBE4CCA1B0E5AAED3
:1000A000C59D7400407A10F35A00A0724E180900E2
:1000B00010A5D4E80000E87648170000E40B5402CD
:1000C0000000CA9A3B000000E1F505000080969808
:1000D00000000040420F000000A086010000001058
:1000E0002700000000E8030000000064000000009A
:1000F000000A00000000000100000000002C76D87B
:1001000088DC674F0823DFC1DFAE59E1B1B796E560
:10011000E3E453C63AE651997696E8E6C28426EBC4
:10012000898C9B62ED407C6FFCEFBC9C9F40F2BAD7
:10013000A56FA5F490055A2AF75C936B6CF9676D6F
:10014000C11BFCE0E40D47FEF520E6B500D0ED90C4
:100150002E0300943577050080841E080000204E91
:100160000A000000C80C333333330F986E1283112A
:1001700041EF8D2114893BE65516CFFEE6DB18D101
:10018000844B381BF77C1D901DA4BBE424203284D3
:10019000725E228100C9F124ECA1E53D2700000038
:1001A00000240027002A0000000000230026002968
:1001B0000000000008000201000003040700000026
:1001C0000000000000010204081020408001020429
:1001D000081020010204081020000000002500285B
:1001E000002B0004040404040404040202020202BA
:1001F00002030303030303028B1A8E2911241FBE7B
:10020000CFEFD8E0DEBFCDBF26E0A4E0B4E001C070
:100210001D92AE33B207E1F714E0A0E0B1E0EEEDDD
:10022000F6E602C005900D92A430B107D9F710E0B0
:10023000CDEFD0E004C02197FE010E944731CC3FB2
:10024000D107C9F70E94A51B0C9462330C940000DF
:10025000E2EFF4E0A089B18982E08C93A485B585B2
:100260001C92A685B7858FEC8C93108EA489B589D6
:1002700086E08C93A289B3898C9180618C93A2894A
:10028000B3898C9188608C93A289B3898C918068A2
:100290008C930288F389E02D80818F7D808308957F
:1002A00096E0899FD0011124AF54BA4F90967C9369
:1002B0006E935F9791E091969C939197E0911E06C3
:1002C000F0911F0690911D06992339F0309751F057
:1002D000811108C08091CD050994309719F05C9682
:1002E0008C91FACF0895833081F028F4813099F011
:1002F0008230A9F008958730A9F08830C9F08430A1
:10030000B1F4809180008F7D03C0809180008F7751
:1003100080938000089584B58F7784BD089584B557
:100320008F7DFBCF8091B0008F778093B0000895D0
:100330008091B0008F7DF9CFCF93DF93282F30E0ED
:10034000F901EF54FE4F8491F901EB53FE4FD49124
:10035000F901ED51FE4FC491CC23A1F081110E940F
:100360007301EC2FF0E0EE0FFF1FE955FE4FA59152
:10037000B491EC91ED2381E090E009F480E0DF910D
:10038000CF91089580E090E0FACF862F0C949C01E5
:100390001F93CF93DF93282F30E0F901EF54FE4FE6
:1003A0008491F901EB53FE4FD491F901ED51FE4FC9
:1003B000C491CC23A9F0162F81110E947301EC2F58
:1003C000F0E0EE0FFF1FE752FE4FA591B4918FB7FB
:1003D000F894EC91111108C0D095DE23DC938FBF07
:1003E000DF91CF911F910895DE2BF8CF862F642FD8
:1003F0000C94C801CF93DF9390E0FC01EB53FE4FC8
:1004000024918D519E4FFC0184918823C9F090E086
:10041000880F991FFC01E356FE4FA591B491FC0192
:10042000E752FE4FC591D49161110DC09FB7F8946A
:100430008C91209582238C938881282328839FBFC9
:10044000DF91CF910895623051F49FB7F8943C91B9
:10045000822F809583238C93E8812E2BEFCF8FB74B
:10046000F894EC912E2B2C938FBFEACF862F642F1C
:100470000C94FA013FB7F8948091D9049091DA0472
:10048000A091DB04B091DC0426B5A89B05C02F3FEA
:1004900019F00196A11DB11D3FBFBA2FA92F982FAA
:1004A0008827BC01CD01620F711D811D911D42E0A5
:1004B000660F771F881F991F4A95D1F708958F926D
:1004C0009F92AF92BF92CF92DF92EF92FF924B0139
:1004D0005C010E943A026B017C010E943A026C1995
:1004E0007D098E099F09683E734081059105A8F337
:1004F00021E0821A9108A108B10888EEC80E83E0B5
:10050000D81EE11CF11C81149104A104B10429F747
:10051000FF90EF90DF90CF90BF90AF909F908F9023
:1005200008952FB7F8946091D5047091D604809106
:10053000D7049091D8042FBF08950F931F93CF93A2
:10054000DF93C82FD62F86E0C89FF0011124EF5407
:10055000FA4F11A2878D90A181309105F1F058F0EA
:1005600082309105F1F1039709F440C0DF91CF91FA
:100570001F910F9108956623C9F361E070E08C2FFD
:100580000E9450010E9491026093090670930A062E
:1005900080930B0690930C06E9CF0E949102009184
:1005A000090610910A0620910B0630910C06AB014A
:1005B000BC01401B510B620B730B80911B06909189
:1005C0001C06B0E0A0E084179507A607B70748F41B
:1005D00062E070E08C2FDF91CF911F910F910C940E
:1005E000500163E070E0D111C1CFF4CF70E060E062
:1005F000F1CF6F927F928F929F92AF92BF92CF92E4
:10060000DF92EF92FF920F931F93CF93DF9381E0DE
:1006100080931D060E94910200910D0610910E0616
:1006200020910F0630911006AB01BC01401B510B0D
:10063000620B730B8091190690911A06B0E0A0E04E
:1006400084179507A607B70708F014C1C0E080918A
:100650001706C81760F4E0911306F0911406EC0F2A
:10066000F11D62E080810E94FA01CF5FF0CF712C12
:10067000812C912C5401839480911806781608F0EF
:100680005FC0072D10E0E0911506F0911606E00F0F
:10069000F11F61E080810E94FA01E0911506F0915E
:1006A0001606E00FF11F60E080810E94C801D501AD
:1006B000C401072C04C0880F991FAA1FBB1F0A94EE
:1006C000D2F76C017C01E094F094612C80911706C4
:1006D0006816F8F4C62DD0E0E0911306F0911406E8
:1006E000EC0FFD1F80810E949C012496CC0FDD1F22
:1006F000CF54DA4F892B41F4888199818C299D2927
:10070000998388836394E2CF888199818E219F2188
:10071000F7CFE0911506F0911606E00FF11F61E0AA
:1007200080810E94C8018091150690911606080FDD
:10073000191F60E0F80180810E94FA0173949CCF38
:10074000C1EBD5E0FE018FEF9FEF278D30A1232B6A
:1007500021F4148E968F858F11A2369625E0ED3EFA
:10076000F20799F7F12C96E0D92E80911706F8162A
:1007700008F050C0E12C0F2D10E0000F111F07549E
:100780001A4F20911806E21608F042C0F801608165
:1007900071810E2C02C0769567950A94E2F7F29E5D
:1007A000900111242E0D311DE1EBF5E080E0458D27
:1007B000568D2417350709F461C08F5F36968A304D
:1007C000B1F760FF23C0E1EBF5E090E080E0448DFD
:1007D000411117C0E0911106F0911206E20FF31FCC
:1007E0004081D89EF001D99EF00D1124EF54FA4FAC
:1007F000448F368F258F10A2178E61E00E949D02D4
:1008000005C0019636968A30910509F7E394B9CF71
:10081000F394ABCF10E089A18111182F2696F5E053
:10082000CD3EDF07C1F70E94910260930D067093E1
:100830000E0680930F06909310061123D9F0809135
:10084000D2058823B9F08091D0059091D105019708
:1008500089F48091CD05DF91CF911F910F91FF9089
:10086000EF90DF90CF90BF90AF909F908F907F9050
:100870006F90089510921D0680E0EDCF6170BECF9D
:10088000CF93DF93CFE8D5E01C821D821E821F82AA
:10089000688779878A879B8781E090E09B838A833A
:1008A0000E9491026C877D878E879F87DF91CF9111
:1008B000089520E030E040E85FE3609143047091E8
:1008C000440480914504909146040E94B32F6093A4
:1008D0004304709344048093450490934604F89431
:1008E0008091430490914404A0914504B091460442
:1008F0008093470490934804A0934904B0934A041A
:10090000789408950895089590910F0189130BC06C
:10091000E7EFF1E0E4919FEF90930F01E13049F0B0
:1009200028F0E23061F060E00C94C80110926E0093
:10093000FACF90916F009D7F90936F00F4CF9091CC
:1009400070009D7F9093700091E09093B000909123
:10095000B100987F94609093B1001092B300E3CF00
:100960002F923F924F925F926F927F928F929F92BF
:10097000AF92BF92CF92DF92EF92FF920F931F93AD
:10098000CF93DF9300D000D01F92CDB7DEB7809118
:100990009105909192058230910509F44FC0833002
:1009A000910509F46DC0019709F0F9C00E94910208
:1009B00000919B0510919C0520919D0530919E050D
:1009C000601B710B820B930B0091930510919405A2
:1009D000209195053091960560177107820793075E
:1009E00008F4DDC082E090E0909392058093910539
:1009F0000E94910260939B0570939C0580939D05D6
:100A000090939E0561E080918F050F900F900F905D
:100A10000F900F90DF91CF911F910F91FF90EF906A
:100A2000DF90CF90BF90AF909F908F907F906F900E
:100A30005F904F903F902F900C94C8010E949102BC
:100A400000919B0510919C0520919D0530919E057C
:100A5000601B710B820B930B009197051091980509
:100A60002091990530919A056017710782079307C5
:100A700008F495C0109292051092910560E0C3CFE2
:100A80002091A5053091A6058091A3059091A4051C
:100A9000281739070CF072C28091A7059091A8051C
:100AA000A091A905B091AA05892B8A2B8B2B09F05F
:100AB00046C0220F331FE091A105F091A205E20F7D
:100AC000F31F6081718188EE93E00E94D7308B0123
:100AD0002B01770F6608770880919F059091A005FC
:100AE000280F391FF9012080318080918F05909166
:100AF000900520910F01281709F469C02F3F09F4D0
:100B0000E1C0C301B2010E942B2E26E636E646EA7A
:100B10005FE30E948A2E0E9498306093A70570932D
:100B2000A8058093A9059093AA050E94910260935D
:100B30009B0570939C0580939D0590939E050E9454
:100B4000910200919B0510919C0520919D0530918B
:100B50009E05601B710B820B930B0091A7051091F2
:100B6000A8052091A9053091AA0560177107820791
:100B70009307A8F080918F050E9484041092A70526
:100B80001092A8051092A9051092AA058091A505BA
:100B90009091A60501969093A6058093A5050F90C8
:100BA0000F900F900F900F90DF91CF911F910F91A9
:100BB000FF90EF90DF90CF90BF90AF909F908F907D
:100BC0007F906F905F904F903F902F900895E7EF48
:100BD000F1E024912D8327FD94CF61E00E94FA017A
:100BE000FD81FF2321F02D81223009F05EC14101FA
:100BF000B12CA12C60E072E18AE790E0A50191019F
:100C00000E940D3129833A834B835C8369017A0109
:100C100031E0C31AD108E108F1088FEFC816D104FA
:100C2000E104F10409F00CF415C160E472E48FE012
:100C300090E0A50191010E940D3169017A0191E0D6
:100C4000C91AD108E108F108ED81E23009F0B6C017
:100C500082E0FFEFCF16D104E104F10409F00CF4B7
:100C6000E5C160E970ED83E090E0A50191010E948B
:100C70000D3169017A0181E0C81AD108E108F10853
:100C800083E09FEFC916D104E104F10409F00CF4EC
:100C9000CDC168E478EE81E090E0A50191010E9469
:100CA0000D3169017A0181E0C81AD108E108F10823
:100CB0009FEFC916D104E104F10411F00CF0A2C0B9
:100CC00084E0B4C180930F01E7EFF1E034913D83FC
:100CD0003F3F09F416CF313039F148F0323009F492
:100CE00045C037FD0ECF61E00E94FA017CCF14BCF5
:100CF00015BC24B5226024BD25B5216025BD9C010D
:100D00003327F901ED51FE4FE491F0E0EE0FFF1FA4
:100D1000E752FE4F45915491F901EB53FE4FE49198
:100D2000E093E1041D8259CF10928000109281005F
:100D30002091810028602093810020918100216012
:100D4000209381009C013327F901ED51FE4FE4917E
:100D5000F0E0EE0FFF1FE752FE4F45915491F9016D
:100D6000EB53FE4FE491E093E00437CF1092B000D4
:100D70001092B1002091B00022602093B000209129
:100D8000B10021602093B1009C013327F901ED519E
:100D9000FE4FE491F0E0EE0FFF1FE752FE4F45914A
:100DA00054915093DF044093DE04F901EB53FE4F5E
:100DB000E491E093DD04E2E0ED830FCFEFEFCE1698
:100DC000D104E104F10409F00CF46DC068E478EE9C
:100DD00081E090E0A50191010E940D3169017A0145
:100DE000F1E0CF1AD108E108F1082D81222309F49E
:100DF000E9C0FFEFCF16D104E104F10409F00CF4CF
:100E00005FCFE9C064E274EF80E090E0A501940157
:100E10000E940D3169017A0181E0C81AD108E10808
:100E2000F10885E09FEFC916D104E104F10409F04F
:100E300008F4FCC062E17AE780E090E0A50194014B
:100E40000E940D3169017A0181E0C81AD108E108D8
:100E5000F108D3C081E02D812111E8C095B5987FBC
:100E6000892B85BD2FEF3FEFA90141145104610487
:100E7000710409F043C08D81813009F45DC0823076
:100E800009F46CC081113DCEC7BC2093EA043093B5
:100E9000EB044093EC045093ED0480916E0082606B
:100EA00080936E002ECE82E0D6CFB12CA12C60E0D4
:100EB00072E18AE790E0A50191010E940D3169017C
:100EC0007A0181E0C81AD108E108F108C114D104FF
:100ED00091E0E906F104FCF491E0FD81F13011F6B6
:100EE00080918100887F892B809381002FEF3FEFD5
:100EF000A9014114510461047104F1F09101220F20
:100F0000331FD8010E942C3128EE33E040E050E03E
:100F10000E94EB30B0CF68E478EE81E090E0A5016C
:100F200091010E940D3169017A01E1E0CE1AD108E8
:100F3000E108F10893E0D1CFD0928900C0928800F7
:100F40002093E6043093E7044093E8045093E904C7
:100F500080916F00826080936F00D3CDC092B30008
:100F60002093E2043093E3044093E4045093E504B7
:100F700080917000826080937000C3CD80918F0556
:100F80000E948404109292051092910508CE84E08C
:100F9000EFEFCE16D104E104F10409F008F45ECFBE
:100FA000C980DA80EB80FC809AE0F594E794D794CE
:100FB000C7949A95D1F791E0C91AD108E108F108D0
:100FC00085E04CCF83E0EFEFCE16D104E104F104CD
:100FD00009F00CF443CF62E17AE780E090E0A501EC
:100FE00094010E940D3169017A01E1E0CE1AD10825
:100FF000E108F108FD81FF2351F286E02FEFC216D0
:10100000D104E104F10491F088F0C980DA80EB802A
:10101000FC808AE0F594E794D794C7948A95D1F739
:10102000F1E0CF1AD108E108F10887E09091B10012
:10103000987F892B8093B10015CFAF92BF92CF924A
:10104000DF92EF92FF920F931F93CF93DF936C0188
:101050007B018B01040F151FEB015E01AE18BF0869
:10106000C017D10759F06991D601ED91FC9101901B
:10107000F081E02DC6010995892B79F7C501DF9133
:10108000CF911F910F91FF90EF90DF90CF90BF9085
:10109000AF900895FC01538D448D252F30E0842FAF
:1010A00090E0821B930B541710F0CF960895019790
:1010B0000895FC01918D828D981761F0A28DAE0F7D
:1010C000BF2FB11D5D968C91928D9F5F9F73928F04
:1010D00090E008958FEF9FEF0895FC01918D828D30
:1010E000981731F0828DE80FF11D858D90E00895FD
:1010F0008FEF9FEF0895FC01918D228D892F90E055
:10110000805C9F4F821B91098F739927089582EF0E
:1011100094E00E947B0821E0892B09F420E0822FD3
:10112000089580E090E0892B29F00E9487088111C2
:101130000C9400000895FC01A48DA80FB92FB11DD7
:10114000A35ABF4F2C91848D90E001968F739927FD
:10115000848FA689B7892C93A089B1898C918370DB
:1011600080648C93938D848D981306C00288F389D4
:10117000E02D80818F7D80830895EF92FF920F9301
:101180001F93CF93DF93EC0181E0888F9B8D8C8D33
:1011900098131AC0E889F989808185FF15C09FB727
:1011A000F894EE89FF896083E889F98980818370EA
:1011B000806480839FBF81E090E0DF91CF911F9199
:1011C0000F91FF90EF900895F62E0B8D10E00F5FBA
:1011D0001F4F0F731127E02E8C8D8E110CC00FB690
:1011E00007FCFACFE889F989808185FFF5CFCE0128
:1011F0000E949B08F1CFEB8DEC0FFD2FF11DE35A00
:10120000FF4FF0829FB7F8940B8FEA89FB898081AA
:101210008062CFCFCF93DF93EC01888D8823B9F024
:10122000AA89BB89E889F9898C9185FD03C08081F1
:1012300086FD0DC00FB607FCF7CF8C9185FFF2CF6E
:10124000808185FFEDCFCE010E949B08E9CFDF9121
:10125000CF91089590E080E00895CF93DF93EC0163
:1012600060E08E810E94C80161E08E810E94C80109
:1012700060E08E810E94C8018BE891E00197F1F750
:10128000DF91CF910895CF92DF92EF92FF920F936B
:101290001F93CF93DF936C017C0187E0E80EF11C74
:1012A000D0E0C0E0062F10E0B8010C2E02C075950A
:1012B00067950A94E2F76170F70181917F010E94BE
:1012C000C8012196C430D10579F7C601DF91CF91CD
:1012D0001F910F91FF90EF90DF90CF900C942D090C
:1012E000CF92DF92EF92FF920F931F93CF93DF93F2
:1012F000EC01F62E642F8C810E94C8018D818F3FF6
:1013000019F060E00E94C8010F2D10E08F8584FF66
:1013100025C06E0187E0C80ED11CF12CE12CB8016C
:101320000E2C02C0759567950A94E2F76170F6017C
:1013300081916F010E94C801FFEFEF1AFF0A88E058
:10134000E816F10461F7CE01DF91CF911F910F9163
:10135000FF90EF90DF90CF900C942D09B80184E0BE
:10136000759567958A95E1F7CE010E9443096F2D27
:10137000CE01DF91CF911F910F91FF90EF90DF9001
:10138000CF900C94430940E0682F80E296E00C94E3
:10139000700981E00E94C3098BE39FE10197F1F797
:1013A0000895CF93DF93823029F490912F069860AF
:1013B00090932F06809333061092340680E4809336
:1013C000350680E18093360680E58093370661E03C
:1013D000809124060E94FA01809125068F3F19F022
:1013E00061E00E94FA0161E0809126060E94FA0104
:1013F000C0E2D6E09E012052364080912F0684FD47
:101400000BC084E090E021962817390744F461E08E
:101410008E810E94FA01EECF88E090E0F4CF8BE35A
:101420009DE00197F1F760E0809124060E94C801D9
:1014300060E0809126060E94C801809125068F3FBA
:1014400019F060E00E94C80180912F0684FD34C02D
:1014500063E080E296E00E944309CBE4D6E4CE014B
:101460000197F1F763E080E296E00E94430921973B
:10147000F1F763E080E296E00E94430983E592E0A1
:101480000197F1F762E080E296E00E9443098091C3
:101490002F0680620E94C30984E0809330068CE0AE
:1014A0000E94C3090E94C90982E08093310686E048
:1014B000DF91CF910C94C30980620E94C3098BE431
:1014C00096E40197F1F780912F0680620E94C3098C
:1014D00083E592E00197F1F780912F0680620E94E8
:1014E000C309D5CF90913306691710F06FEF690FDC
:1014F000E62FF0E0E05EF94F9489890F80680C9444
:10150000C30941E00E94700981E090E00895FC0168
:1015100001900020E9F73197AF01481B590BBC013E
:1015200080E296E00C941D08CF93DF93EC0180914C
:10153000AB059091AC050097E9F068817981611560
:101540007105B1F04091AD055091AE052C813D8102
:101550004217530768F00E944C338C819D81909311
:10156000B0058093AF051D821C82DF91CF91089555
:101570000E94E931888199819093AC058093AB05F5
:101580008A819B819093AE058093AD058C819D816E
:101590009093B0058093AF05198218821B821A823E
:1015A000E2CFCF93DF93EC0188819981009711F00E
:1015B0000E94E931198218821D821C821B821A82C4
:1015C000DF91CF910895FC0180819181009711F006
:1015D0000C94E93108950F931F93CF93DF930091FB
:1015E000AF051091B0050115110539F4FC01108209
:1015F000DF91CF911F910F9108950E30110510F0DA
:101600000EE010E0EC016091AB057091AC05A80113
:101610000E945333C00FD11F1882EACFCF93DF93BC
:101620008CE390E00E944B2FCEEED4E088838DE3D4
:1016300090E00E944B2F89838EE390E00E944B2F15
:101640008A838FE390E00E944B2F8B83CE01DF9142
:10165000CF910895CF92DF92EF92FF920F931F9355
:10166000CF93DF93EB017B0127E0E20EF11C8B01AE
:101670006C01C61AD70AC601800F911F0E944B2F1A
:10168000F80181938F01EE15FF05A9F7CE01DF91D7
:10169000CF911F910F91FF90EF90DF90CF90089521
:1016A000CF92DF92EF92FF920F931F93CF93DF932E
:1016B000EB017B0124E0E20EF11C8B016C01C61AE8
:1016C000D70AC601800F911F0E944B2FF80181930A
:1016D0008F01EE15FF05A9F7CE01DF91CF911F9184
:1016E0000F91FF90EF90DF90CF9008950F931F938D
:1016F000CF93DF93EC0188819981009759F02A817B
:101700003B812617370730F081E0DF91CF911F91A1
:101710000F9108958B016F5F7F4F0E947232009787
:1017200059F0998388831B830A832C813D81232B65
:1017300059F7FC011082E8CF80E0E7CFEF92FF92EB
:101740000F931F93CF93DF938C017B01EB010990E3
:101750000020E9F72197C61BD70BBE010E94760B2C
:10176000811109C0C801DF91CF911F910F91FF90A6
:10177000EF900C94D10AF801D583C483B70180811E
:101780009181DF91CF911F910F91FF90EF900C9479
:101790004C330F931F93CF93DF93CDB7DEB7A29750
:1017A0000FB6F894DEBF0FBECDBF8C01CB01BA01DE
:1017B000F8011182108213821282158214822AE0AB
:1017C000AE014F5F5F4F0E94042ABE016F5F7F4FE3
:1017D000C8010E949E0BA2960FB6F894DEBF0FBE02
:1017E000CDBFDF91CF911F910F910895CF93DF93DC
:1017F00000D000D000D0CDB7DEB780915D049091CD
:101800005E04A0915F04B09160040197A105B10549
:1018100009F040C00E94C90960E080E00E94720A9D
:101820001092AA041092A90461EA74E090E080E0AA
:101830000E94500B4091A1045091A2046091A30416
:101840007091A404CE0101960E94C90BCE010196AD
:101850000E94940ACE0101960E94E30A85E894E072
:101860000E94EB0A86E591E00E94870A60E08DE025
:101870000E94720A85E894E00E94870A61E080E095
:101880000E94720A10925D0410925E0410925F042E
:101890001092600426960FB6F894DEBF0FBECDBF3F
:1018A000DF91CF9108958F929F92AF92BF92EF9266
:1018B000FF920F931F93CF938C010E94F9028093A4
:1018C00004048BEAE82E84E0F82E812C912C54013C
:1018D0008394809104048D3309F4A7C0A8950E94D5
:1018E000F90280930404F70101900020E9F7CF0189
:1018F0008C5A9440209104040817190708F45DC01D
:101900002D3309F45AC0A8950E94F902C82F80937C
:1019100004048823D9F08D33C9F0833409F472C0EC
:101920008A32A1F083ED8C0F833080F0CB3289F1C5
:1019300041E06C2F80E296E00E947009C093BF04E2
:101940006FEB74E08BEA94E00E9438330E94B0049D
:1019500080910404882339F260E570E080E090E033
:101960000E944004C0CF833409F0B3CF6AEB71E02A
:101970008BEA94E00E944C3361E080E00E94720A9E
:1019800082EB91E00E94870A61E080E00E94720A87
:10199000A0CF109276041092750480925D0490920C
:1019A0005E04A0925F04B09260040E94F60B6AEBA2
:1019B00071E08BEA94E00E944C33809104048B32F6
:1019C00091F6109276041092750481E090E0A0E008
:1019D000B0E080935D0490935E04A0935F04B093A5
:1019E00060040E94F60B6AEB71E08BEA94E0CF9101
:1019F0001F910F91FF90EF90BF90AF909F908F90AD
:101A00000C944C336AEB71E08BEA94E00E944C3307
:101A100061E080E00E94720A82EB91E00E94870AF6
:101A200061E080E00E94720A91CFCF911F910F91E7
:101A3000FF90EF90BF90AF909F908F900895BF92CE
:101A4000CF92DF92EF92FF920F931F93CF93DF938A
:101A5000EC010E94F902809304040BEA14E0C12C0B
:101A6000D12C7601C394809104048D3309F4ABC06A
:101A7000A8950E94F90280930404F80101900020C7
:101A8000E9F7CF018C5A944020910404C817D90774
:101A900008F45DC02D3309F45AC0A8950E94F902DC
:101AA000809304048823C9F08D33B9F08334A9F0FE
:101AB00096ED980F923088F08D52833070F084E666
:101AC00091E00E94870A809104048093BF046FEB29
:101AD00074E08BEA94E00E943833809104048334EC
:101AE00091F46AEB71E08BEA94E00E944C3361E080
:101AF00080E00E94720A82EB91E00E94870A61E016
:101B000080E00E94720A0E94B004B0900404BB20DE
:101B100009F4B3CF60E570E080E090E00E944004FB
:101B2000FBE2BF12AACF1092760410927504C09205
:101B30005D04D0925E04E0925F04F09260040E9423
:101B4000F60B6AEB71E08BEA94E00E944C338091D3
:101B50000404833491F46AEB71E08BEA94E00E9410
:101B60004C3361E080E00E94720A82EB91E00E94B7
:101B7000870A61E080E00E94720A809104048B323F
:101B800009F071CF109276041092750481E090E014
:101B9000A0E0B0E080935D0490935E04A0935F04A6
:101BA000B09360040E94F60B6AEB71E08BEA94E05C
:101BB000DF91CF911F910F91FF90EF90DF90CF9029
:101BC000BF900C944C33DF91CF911F910F91FF90F8
:101BD000EF90DF90CF90BF9008950F931F93CF9316
:101BE000DF93CDB7DEB762970FB6F894DEBF0FBEB6
:101BF000CDBF8C01CB01F8011182108213821282B9
:101C0000158214824AE0BE016F5F7F4F0E94F9295E
:101C1000BE016F5F7F4FC8010E949E0B62960FB698
:101C2000F894DEBF0FBECDBFDF91CF911F910F9112
:101C300008950F931F93CF93DF93CDB7DEB76197CE
:101C40000FB6F894DEBF0FBECDBF8C01CB01F801FB
:101C50001182108213821282158214824AE0BE0120
:101C60006F5F7F4F0E94522ABE016F5F7F4FC80196
:101C70000E949E0B61960FB6F894DEBF0FBECDBFDB
:101C8000DF91CF911F910F910895FF920F931F93B2
:101C9000CF93DF93EC01F62E08811981C8010E94D1
:101CA0004B2FF81621F06F2DC8010E94532FCE0143
:101CB000DF91CF911F910F91FF900895EF92FF92C6
:101CC0000F931F93CF93DF9300D0CDB7DEB78EEE87
:101CD000E82E84E0F82E0CE310E01A830983F70164
:101CE00061917F01CE0101960E94450E0F5F1F4F4B
:101CF0000034110591F78EEE94E00F900F90DF9174
:101D0000CF911F910F91FF90EF900895AF92BF92E6
:101D1000CF92DF92EF92FF920F931F93CF93DF93B7
:101D200000D0CDB7DEB78B016B0127E0C20ED11C0E
:101D30007B015C01A61AB70AC5018E0D9F1D9A830F
:101D40008983F70161917F01CE0101960E94450EC2
:101D5000EC14FD0489F7C8010F900F90DF91CF912B
:101D60001F910F91FF90EF90DF90CF90BF90AF90B9
:101D70000895AF92BF92CF92DF92EF92FF920F93AE
:101D80001F93CF93DF9300D0CDB7DEB78B016B01EC
:101D900024E0C20ED11C7B015C01A61AB70AC50162
:101DA0008E0D9F1D9A838983F70161917F01CE017A
:101DB00001960E94450EEC14FD0489F7C8010F90AE
:101DC0000F90DF91CF911F910F91FF90EF90DF90D7
:101DD000CF90BF90AF9008958AE491E0A0E0B0E08A
:101DE0008093A1049093A204A093A304B093A404AD
:101DF00010927D0410927E0410927F041092800451
:101E000082E390E0A0E0B0E0809313049093140488
:101E1000A0931504B093160466E671E08CE094E09C
:101E20000E944C3366E671E085E094E00E944C33FA
:101E300081E090E0A0E0B0E08093590490935A04D0
:101E4000A0935B04B0935C0480931B0490931C04E8
:101E5000A0931D04B0931E0482E090E0A0E0B0E0E7
:101E60008093170490931804A0931904B0931A0454
:101E70001092AA041092A90488EA91E6A0E0B0E0CA
:101E80008093A5049093A604A093A704B093A804FC
:101E90001092790410927A0410927B0410927C04C0
:101EA00080E090EEA2E1B5E48093EE049093EF041D
:101EB000A093F004B093F10461EA74E090E080E054
:101EC0000E94B90E85E090E09093AA048093A90443
:101ED0006DE774E00E94B90E8AE090E09093AA0446
:101EE0008093A90463E174E00E94B90E8FE090E052
:101EF0009093AA048093A9046CE074E00E94860E7B
:101F000086E190E09093AA048093A90465E074E0D0
:101F10000E94860E8DE190E09093AA048093A9041C
:101F200069E574E00E94B90E83E290E09093AA0400
:101F30008093A90467E174E00E94B90E8DE290E0FD
:101F40009093AA048093A90465EA74E00E94B90EF4
:101F500084E390E09093AA048093A90469E774E075
:101F60000E94B90E8CE390E09093AA048093A90498
:101F70000E945E0E60E080E00E94720A8DE691E0B1
:101F80000E94870AA89560ED77E080E090E00E94CB
:101F90005F02A8950895AF92BF92CF92DF92EF9221
:101FA000FF920F931F93CF93DF93CDB7DEB7A79721
:101FB0000FB6F894DEBF0FBECDBF6BE771E08FE1C7
:101FC00094E00E944333892B09F0A5C06AEB71E0CD
:101FD0008BEA94E00E944C336AEB71E08FEB94E063
:101FE0000E944C330E94F9028093040408E210E03E
:101FF000809104048D3309F46EC0A89560E080E000
:102000000E94720A89E891E00E94870A61E080E0FC
:102010000E94720A84E090E00E94530C1093AA047C
:102020000093A9046BE174E088E290E00E94500BF9
:102030008BEA94E00E94B0296B017C0160911B0443
:1020400070911C0480911D0490911E040E942B2EFF
:10205000A70196010E94B32F20E034E84EEC56E42D
:102060000E94242E81110C942F1860E00E94720AA5
:1020700089E991E00E94870A61E080E00E94720A8B
:102080008AEA91E00E94870AA89568EE73E080E0F2
:1020900090E00E945F02A8950E94EC0E80910404DB
:1020A0008B3209F0A5CF109276041092750481E06E
:1020B00090E0A0E0B0E080935D0490935E04A09374
:1020C0005F04B09360040E94F60B6AEB71E08BEA48
:1020D00094E00E944C33A89560ED77E080E090E0BA
:1020E0000E945F02A895109276041092750481E018
:1020F00090E0A0E0B0E080935D0490935E04A09334
:102100005F04B09360040E94F60B6AEB71E08BEA07
:1021100094E00E944C336AEC71E08FE194E00E94FD
:102120004333892B09F086C06AEB71E08BEA94E0B7
:102130000E944C336AEB71E08FEB94E00E944C33C9
:102140000E94F90280930404C12CD12C7601C3941F
:102150000DE110E0809104048D3309F44BC0A89583
:1021600060E080E00E94720A86ED91E00E94870A9A
:1021700061E080E00E94720A90E080E00E94530CCF
:102180008BEA94E00E94B4290197029708F071C786
:102190008BEA94E00E94D2296093590470935A0408
:1021A00080935B0490935C041093AA040093A904A9
:1021B00069E574E08DE190E00E94B90E809104041D
:1021C0008B3241F6109276041092750481E090E013
:1021D000A0E0B0E080935D0490935E04A0935F0460
:1021E000B09360040E94F60B6AEB71E08BEA94E016
:1021F0000E944C33A89560ED77E080E090E00E946B
:102200005F02A895109276041092750481E090E028
:10221000A0E0B0E080935D0490935E04A0935F041F
:10222000B09360040E94F60B6AEB71E08BEA94E0D5
:102230000E944C3367EE71E08FE194E00E944333DB
:10224000892B09F0C8C16AEB71E08BEA94E00E9427
:102250004C336AEB71E08FEB94E00E944C330E94A8
:10226000C90960E080E00E94720A82EF91E00E945A
:10227000870A61E080E00E94720A0E94F90280935E
:1022800004040FE010E0C12CD12C7601C39466E168
:10229000A62EB12C809104048D3309F47CC1A8953D
:1022A0000E94F90280930404813309F0A9C00E94BE
:1022B000C90960E080E00E94720A82E092E00E9418
:1022C000870A61E080E00E94720A809104048D33E5
:1022D00009F1A8950E94F9028093040485E090E03A
:1022E0000E94530C809104048B3279F7109276048B
:1022F00010927504C0925D04D0925E04E0925F0477
:10230000F09260040E94F60B6AEB71E08BEA94E0B5
:102310000E944C331093AA040093A9046CE074E06B
:102320008FE090E00E942A0B6BEA74E08CE094E06E
:102330000E944333892B09F0A5C60E94C90960E0B9
:1023400080E00E94720A8CEA91E00E94870A60E0B5
:1023500080E00E94720A80E192E00E94870A61E0B8
:1023600080E00E94720A6AEB71E08BEA94E00E94BE
:102370004C330E94F90280930404809104048D334D
:1023800009F1A8950E94F9028093040485E090E089
:102390000E94530C809104048B3279F710927604DA
:1023A00010927504C0925D04D0925E04E0925F04C6
:1023B000F09260040E94F60B6AEB71E08BEA94E005
:1023C0000E944C336BEA74E08CE094E00E944C3342
:1023D0006AEB71E08BEA94E00E944C331093AA04FC
:1023E0000093A9046CE074E08FE090E00E94860EF8
:1023F00061E080E00E94720A8CE192E00E94870A0C
:1024000080910404823309F0A9C00E94C90960E0E8
:1024100080E00E94720A84E292E00E94870A61E0F2
:1024200080E00E94720A809104048D3309F1A8951E
:102430000E94F9028093040485E090E00E94530C0E
:10244000809104048B3279F710927604109275040F
:10245000C0925D04D0925E04E0925F04F09260044A
:102460000E94F60B6AEB71E08BEA94E00E944C3319
:10247000B092AA04A092A90465E074E086E190E01D
:102480000E942A0B6BEA74E085E094E00E944333DB
:10249000892B09F0FEC50E94C90960E080E00E9416
:1024A000720A8CEA91E00E94870A60E080E00E9454
:1024B000720A80E192E00E94870A61E080E00E9457
:1024C000720A6AEB71E08BEA94E00E944C330E943E
:1024D000F90280930404809104048D3309F1A895D6
:1024E0000E94F9028093040485E090E00E94530C5E
:1024F000809104048B3279F710927604109275045F
:10250000C0925D04D0925E04E0925F04F092600499
:102510000E94F60B6AEB71E08BEA94E00E944C3368
:102520006BEA74E085E094E00E944C336AEB71E062
:102530008BEA94E00E944C33B092AA04A092A904C2
:1025400065E074E086E190E00E94860E61E080E044
:102550000E94720A8CE192E00E94870A8091040432
:102560008B3209F097CE109276041092750481E0B8
:1025700090E0A0E0B0E080935D0490935E04A093AF
:102580005F04B09360040E94F60B6AEB71E08BEA83
:1025900094E00E944C33A89560ED77E080E090E0F5
:1025A0000E945F02A895109276041092750481E053
:1025B00090E0A0E0B0E080935D0490935E04A0936F
:1025C0005F04B09360040E94F60B6AEB71E08BEA43
:1025D00094E00E944C3363E372E08FE194E00E9448
:1025E0004333892B09F0A7C06AEB71E08BEA94E0D2
:1025F0000E944C336AEB71E08FEB94E00E944C3305
:102600000E94F902809304040E94C90960E080E0FE
:102610000E94720A8DE392E00E94870A61E080E0E6
:102620000E94720A8AE492E00E94870A04E610E09F
:10263000809104048D3309F454C0A8950E94F902D6
:10264000809304049091D304209100013091010102
:102650009A3209F025C5265F3F4F30930101209340
:10266000000120910001309101012536310524F04F
:1026700010930101009300012091000130910101AC
:1026800037FF04C010920101109200014091000137
:1026900050910101052E000C660B770B409313043B
:1026A0005093140460931504709316048B3209F050
:1026B000BFCF109276041092750481E090E0A0E004
:1026C000B0E080935D0490935E04A0935F04B093A8
:1026D00060040E94F60B6AEB71E08BEA94E00E94C2
:1026E0004C338AE090E09093AA048093A9046BE1B4
:1026F00074E00E94B90EA89560ED77E080E090E06C
:102700000E945F02A895109276041092750481E0F1
:1027100090E0A0E0B0E080935D0490935E04A0930D
:102720005F04B09360040E94F60B6AEB71E08BEAE1
:1027300094E00E944C3366E572E08FE194E00E94E1
:102740004333892B09F0D2C06AEB71E08BEA94E045
:102750000E944C336AEB71E08FEB94E00E944C33A3
:102760000E94F90280930404C12CD12C7601C394F9
:1027700006E110E044E3A42EB12C809104048D33D3
:1027800009F494C0A8950E94F902809304040E9461
:10279000C90960E080E00E94720A84E692E00E942B
:1027A000870A61E080E00E94720A809104048D3300
:1027B00009F1A8950E94F9028093040485E090E055
:1027C0000E941F0D809104048B3279F710927604D9
:1027D00010927504C0925D04D0925E04E0925F0492
:1027E000F09260040E94F60B6AEB71E08BEA94E0D1
:1027F0000E944C331093AA040093A90465E074E08E
:1028000086E190E00E942A0B6BEA74E085E094E098
:102810000E944333892B09F049C410927D04109221
:102820007E0410927F04109280041092790410921A
:102830007A0410927B0410927C0485E090E09093DF
:10284000AA048093A9046DE774E00E94B90EB092C7
:10285000AA04A092A90469E774E084E390E00E94CE
:10286000B90E61E080E00E94720A8DE691E00E945C
:10287000870A809104048B3209F07FCF109276048E
:102880001092750481E090E0A0E0B0E080935D04D8
:1028900090935E04A0935F04B09360040E94F60BD3
:1028A0006AEB71E08BEA94E00E944C33A89560EDEE
:1028B00077E080E090E00E945F02A8951092760495
:1028C0001092750481E090E0A0E0B0E080935D0498
:1028D00090935E04A0935F04B09360040E94F60B93
:1028E0006AEB71E08BEA94E00E944C3364E772E09B
:1028F0008FE194E00E944333892B09F0CFC06AEB4B
:1029000071E08BEA94E00E944C336AEB71E085E859
:1029100094E00E944C336AEB71E08FEB94E00E94EC
:102920004C330E94C90960E080E00E94720A84E78B
:1029300092E00E94870A0E94F9028093040485E0D5
:1029400090E09093AA048093A9046DE774E00E943C
:10295000500B84E390E09093AA048093A90469E764
:1029600074E00E94500B4091790450917A04609178
:102970007B0470917C04CE0101960E94C90BCE01AC
:1029800001960E94940ACE0101960E94E30A85E80E
:1029900094E00E94EB0A40917D0450917E04609186
:1029A0007F0470918004CE0101960E94C90BCE0174
:1029B00001960E94940ACE0101960E94E30A8BEAD6
:1029C00094E00E94EB0A60E872E08BEA94E00E94D7
:1029D000383365E872E085E894E00E94383361E0BE
:1029E00080E00E94720A8BEA94E00E94870A8BEAD8
:1029F00094E0FC0101900020E9F7CF018C5A94404B
:102A000061E00E94720A85E894E00E94870A809142
:102A100004048D33F9F0A8950E94F9028093040410
:102A20008B32A9F7109276041092750481E090E041
:102A3000A0E0B0E080935D0490935E04A0935F04F7
:102A4000B09360040E94F60B6AEB71E08BEA94E0AD
:102A50000E944C3364E170E080E090E00E945F02ED
:102A6000109276041092750481E090E0A0E0B0E04E
:102A700080935D0490935E04A0935F04B093600420
:102A80000E94F60B6AEB71E085E894E00E944C33FB
:102A90006AEB71E08BEA94E00E944C3368E872E0E4
:102AA0008FE194E00E944333892B09F0E4C06AEB84
:102AB00071E08BEA94E00E944C336AEB71E08FEB9B
:102AC00094E00E944C330E94F90280930404C12CCC
:102AD000D12C7601C394809104048D3309F4ABC0EA
:102AE000A8950E94C90960E080E00E94720A85E909
:102AF00092E00E94870A61E080E00E94720A809161
:102B000004048D3309F460C0A8950E94F902182FBF
:102B1000809304048823E9F08E32D9F08D33C9F014
:102B2000833409F488C386ED810F823090F0812FC1
:102B30008D7F8D3271F041E0612F80E296E00E943E
:102B400070091093BF046FEB74E08BEA94E00E946D
:102B500038330E94B00410910404112381F260E51F
:102B600070E080E090E00E9440041B3241F6109239
:102B7000760410927504C0925D04D0925E04E092D7
:102B80005F04F09260040E94F60B6AEB71E08BEA3E
:102B900094E00E944C33809104048B3209F0AFCF53
:102BA0001092760410927504C0925D04D0925E0477
:102BB000E0925F04F09260040E94F60B6AEB71E011
:102BC0008BEA94E00E944C338BEA94E00E94B42993
:102BD000092E000CAA0BBB0B8093A1049093A204B6
:102BE000A093A304B093A4041092AA041092A90481
:102BF00061EA74E090E080E00E94B90E80910404E4
:102C00008B3209F068CF109276041092750481E03F
:102C100090E0A0E0B0E080935D0490935E04A09308
:102C20005F04B09360040E94F60B6AEB71E08BEADC
:102C300094E00E944C33A89560ED77E080E090E04E
:102C40000E945F02A895109276041092750481E0AC
:102C500090E0A0E0B0E080935D0490935E04A093C8
:102C60005F04B09360040E94F60B6AEB71E08BEA9C
:102C700094E00E944C3362EA72E08FE194E00E949B
:102C80004333892B09F0E8C06AEB71E08BEA94E0EA
:102C90000E944C336AEB71E08FEB94E00E944C335E
:102CA0000E94F902809304048DE2E82EF12C9CE34B
:102CB000C92ED12C809104048D3309F4ADC0A895A0
:102CC00060E080E00E94720A8CEA92E00E94870A2B
:102CD00061E080E00E94720A90E080E00E94530C64
:102CE0008BEA94E00E94B429019709F0F5C10E9493
:102CF000C90960E080E00E94720A8DEB92E00E94B8
:102D0000870A61E080E00E94720AF092AA04E092D1
:102D1000A90465EA74E08DE290E00E94500B4091B6
:102D2000A5045091A6046091A7047091A804CE0157
:102D300001960E94C90BCE0101960E94940ACE0111
:102D400001960E94E30A8BEA94E00E94EB0A61E09C
:102D500089E00E94720A8BEA94E00E94870A6AEB7B
:102D600071E08BEA94E00E944C3361E080E00E94C5
:102D7000720A85E090E00E94530C8BEA94E0FC011B
:102D800001900020E9F7CF01805B9440039708F0A1
:102D900094C18BEA94E00E94D2296093A5047093B9
:102DA000A6048093A7049093A804F092AA04E0924A
:102DB000A90465EA74E08DE290E00E94B90E61E03A
:102DC00080E00E94720A8AEA91E00E94870A61E02C
:102DD00080E00E94720A8DEC92E00E94870A809146
:102DE00004048B3209F078C11092760410927504B5
:102DF00081E090E0A0E0B0E080935D0490935E04F9
:102E0000A0935F04B09360040E94F60B6AEB71E03C
:102E10008BEA94E00E944C33A89560ED77E080E067
:102E200090E00E945F02A8951092760410927504BB
:102E300081E090E0A0E0B0E080935D0490935E04B8
:102E4000A0935F04B09360040E94F60B6AEB71E0FC
:102E50008BEA94E00E944C3365EF72E08FE194E0DE
:102E60000E944333892B09F0F9C16AEB71E08BEAC8
:102E700094E00E944C336AEB71E08FEB94E00E9487
:102E80004C330E94F9028093040408E210E0809120
:102E900004048D3309F4B3C0A8950E94F90280930D
:102EA00004040E94C90960E080E00E94720A83E085
:102EB00093E00E94870A61E080E00E94720A0E940B
:102EC000F9028093040484E090E00E941F0D6BEAF5
:102ED00074E084E193E00E944333892B09F0A4C19C
:102EE0000E94C90960E080E00E94720A8AE193E0D2
:102EF0000E94870A61E080E00E94720A6AEB71E03A
:102F00008BEA94E00E944C330E94F90280930404FF
:102F100083E090E00E94530C1093AA040093A9044C
:102F20008BEA94E00E94D22960931B0470931C04E6
:102F300080931D0490931E046BE174E088E290E09E
:102F40000E94B90E61E080E00E94720A87E293E07D
:102F50000E94870AA89568EE73E080E090E00E94E6
:102F60005F02A89561E080E00E94720A8BEA91E01E
:102F70000E94870A6BE174E08091A9049091AA04F1
:102F80000E94500B40911B0450911C0460911D0441
:102F900070911E04CE0101960E94C90BCE010196CC
:102FA0000E94940ACE0101960E94E30A8BEA94E003
:102FB0000E94EB0A61E080E00E94720A8BEA94E0D2
:102FC0000E94870A809104048B3209F060CF10922E
:102FD00076041092750481E090E0A0E0B0E0809368
:102FE0005D0490935E04A0935F04B09360040E941C
:102FF000F60B6AEB71E08BEA94E00E944C33A895E3
:1030000060ED77E080E090E00E945F02A89510926A
:1030100076041092750481E090E0A0E0B0E0809327
:103020005D0490935E04A0935F04B09360040E94DB
:10303000F60B6AEB71E08BEA94E0A7960FB6F89472
:10304000DEBF0FBECDBFDF91CF911F910F91FF90DB
:10305000EF90DF90CF90BF90AF900C944C3361E035
:1030600080E00E94720A8BEB91E00E94870A0C9428
:103070004E10C0925904D0925A04E0925B04F09230
:103080005C0492C861E080E00E94720A8BEB91E0E0
:10309000B5C961E080E00E94720A8BEB91E05CCAE6
:1030A0009E3209F0DECA2A503109D7CA61E080E0B9
:1030B0000E94720A8BEB91E0DACB61E080E00E9423
:1030C000720A8AEA91E00E94870A61E080E00E9429
:1030D000720A8CED92E081CE8BEA94E00E94B429D2
:1030E000029709F09CC00E94C90960E080E00E943C
:1030F000720A89EE92E00E94870A61E080E00E94F5
:10310000720AD092AA04C092A9040E940E0B609188
:10311000EE047091EF048091F0049091F1041BA2F1
:103120001AA21DA21CA21FA21EA28E010F5F1F4F7A
:1031300022E044E00E949229009709F45CC0BC019F
:10314000CE0182960E949E0BCE0182960E94940A26
:10315000CE0182960E94E30A8BEA94E00E94EB0A79
:1031600061E089E00E94720A8BEA94E00E94870A7B
:103170006AEB71E08BEA94E00E944C3361E080E0FE
:103180000E94720A83E090E00E94530C8BEA94E064
:10319000FC0101900020E9F7CF018E5A944003977B
:1031A00078F58BEA94E00E94D2290E942B2E60933E
:1031B000EE047093EF048093F0049093F104D092A6
:1031C000AA04C092A9040E945E0E61E080E00E9401
:1031D000720A8AEA91E00E94870A61E080E00E9418
:1031E000720A8DEC92E00E94870A809104048B326F
:1031F00009F060CDF9CDCE0182960E94D10AA4CF0C
:1032000061E080E00E94720A8AEA91E00E94870AE7
:1032100061E080E00E94720A8CED92E0E4CF61E010
:1032200080E00E94720AF8CD61E080E00E94720A9C
:103230008BEB91E0C5CE6AEB71E08BEA94E00E94E3
:103240004C3361E080E00E94720A82EB91E00E94C0
:10325000870A61E080E00E94720A7BCCA7960FB6D5
:10326000F894DEBF0FBECDBFDF91CF911F910F91BC
:10327000FF90EF90DF90CF90BF90AF9008951F9296
:103280000F920FB60F9211242F933F938F939F931A
:10329000AF93BF938091D5049091D604A091D704A9
:1032A000B091D8043091D40423E0230F2D3758F582
:1032B0000196A11DB11D2093D4048093D504909351
:1032C000D604A093D704B093D8048091D9049091E8
:1032D000DA04A091DB04B091DC040196A11DB11DBC
:1032E0008093D9049093DA04A093DB04B093DC04B8
:1032F000BF91AF919F918F913F912F910F900FBEF2
:103300000F901F90189526E8230F0296A11DB11D5E
:10331000D2CF1F920F920FB60F9211242F933F938B
:103320004F935F936F937F938F939F93AF93BF93CD
:10333000EF93FF93E0910401F09105010995FF914E
:10334000EF91BF91AF919F918F917F916F915F911D
:103350004F913F912F910F900FBE0F901F90189596
:103360001F920F920FB60F9211242F933F934F93FA
:103370005F936F937F938F939F93AF93BF93EF93DD
:10338000FF93E0910201F09103010995FF91EF9104
:10339000BF91AF919F918F917F916F915F914F916D
:1033A0003F912F910F900FBE0F901F9018951F9275
:1033B0000F920FB60F9211242F933F934F935F9369
:1033C0006F937F938F939F93AF93BF93EF93FF93ED
:1033D0008091E2049091E304A091E404B091E504AB
:1033E000892B8A2B8B2BD1F19091DD04E091DE04A7
:1033F000F091DF048081892780838091E20490919D
:10340000E304A091E404B091E504181619061A0625
:103410001B069CF48091E2049091E304A091E404E3
:10342000B091E5040197A109B1098093E20490935A
:10343000E304A093E404B093E504FF91EF91BF91FE
:10344000AF919F918F917F916F915F914F913F913C
:103450002F910F900FBE0F901F90189580910F0124
:103460000E948404EACF1F920F920FB60F9211248C
:103470002F933F934F935F936F937F938F939F937C
:10348000AF93BF93EF93FF9382EF94E00E949B086A
:10349000FF91EF91BF91AF919F918F917F916F912C
:1034A0005F914F913F912F910F900FBE0F901F9002
:1034B00018951F920F920FB60F9211242F938F938E
:1034C0009F93EF93FF93E0910205F09103058081B4
:1034D000E0910805F091090582FD1BC09081809163
:1034E0000B058F5F8F7320910C05821741F0E091DF
:1034F0000B05F0E0EE50FB4F958F80930B05FF918D
:10350000EF919F918F912F910F900FBE0F901F9071
:1035100018958081F4CF1092F5041092F40488EE8F
:1035200093E0A0E0B0E08093F6049093F704A093BA
:10353000F804B093F90482E391E09093F30480934C
:10354000F20485EC90E09093FF048093FE0484ECF9
:1035500090E0909301058093000580EC90E09093BB
:1035600003058093020581EC90E09093050580931C
:10357000040582EC90E0909307058093060586ECA5
:1035800090E0909309058093080510920B05109226
:103590000C0510920D0510920E0510922306109244
:1035A00022068EE491E0909321068093200687E026
:1035B000809324068FEF8093250688E0809326066B
:1035C0008AE08093270689E0809328068BE0809329
:1035D00029068CE080932A0610922B0610922C0666
:1035E00010922D0610922E0610922F0681E00E9456
:1035F000D1091092B3051092B7051092B60510923A
:10360000B80584E491E09093B2058093B105EDECA8
:10361000F5E01082148213821582369686E0E93036
:10362000F807B9F784E191E09093140680931306AC
:1036300080E191E0909316068093150684E08093D4
:1036400017068093180688E191E090931206809304
:1036500011068AE090E090931A068093190684EF91
:1036600091E090931C0680931B0610921F06109207
:103670001E0610920D0610920E0610920F06109262
:10368000100610921D061092AC051092AB05109218
:10369000AE051092AD051092B0051092AF0570E026
:1036A00060E08BEA95E00E94760B811141C08BEAC5
:1036B00095E00E94D10A82E090E09093900580937B
:1036C0008F05109292051092910510929305109219
:1036D00094051092950510929605109297051092F8
:1036E00098051092990510929A0510929B051092D8
:1036F0009C0510929D0510929E051092A0051092B7
:103700009F051092A2051092A1051092A405109297
:10371000A3051092A6051092A5051092A705109278
:10372000A8051092A9051092AA0561E00C94FA016F
:103730001092B0051092AF056AEB71E08091AB0575
:103740009091AC050E944C33B6CFCF93DF93CDB7A9
:10375000DEB72A970FB6F894DEBF0FBECDBF7894C0
:1037600084B5826084BD84B5816084BD85B5826086
:1037700085BD85B5816085BD80916E008160809337
:103780006E001092810080918100826080938100A0
:1037900080918100816080938100809180008160B0
:1037A000809380008091B10084608093B10080910B
:1037B000B00081608093B00080917A008460809333
:1037C0007A0080917A00826080937A0080917A00FA
:1037D000816080937A0080917A00806880937A007B
:1037E0001092C100C12CD12C7601C394C09259040F
:1037F000D0925A04E0925B04F0925C04C0921B04E5
:10380000D0921C04E0921D04F0921E04C0925D044C
:10381000D0925E04E0925F04F0926004C09255047E
:10382000D0925604E0925704F092580462E083E08C
:103830000E94FA0161E081E00E94C80161E085E038
:103840000E94FA0161E086E00E94FA0161E086E0F0
:103850000E94C80161E083E00E94C80189E594E00C
:10386000909305018093040180916900837F8860B3
:1038700080936900E99A0E94280168EC70E080E07A
:1038800090E00E94400482E00E94D10986E490E02A
:103890009093AA048093A9046BE174E00E94500BFA
:1038A00003E210E01093AA040093A90467E174E016
:1038B00083E290E00E94500B8091170490911804CD
:1038C000A0911904B0911A040297A105B10509F459
:1038D000E2C08AE491E0A0E0B0E08093A10490937C
:1038E000A204A093A304B093A40410927D041092A8
:1038F0007E0410927F041092800482E390E0A0E0A6
:10390000B0E08093130490931404A0931504B09333
:1039100016041092790410927A0410927B0410928B
:103920007C0466E671E08CE094E00E944C3366E62D
:1039300071E085E094E00E944C33C0925904D0922B
:103940005A04E0925B04F0925C04C0921B04D09293
:103950001C04E0921D04F0921E0482E090E0A0E0BE
:10396000B0E08093170490931804A0931904B093C7
:103970001A041092AA041092A90480E090EEA2E129
:10398000B5E48093EE049093EF04A093F004B09319
:10399000F10488EA91E6A0E0B0E08093A50490935A
:1039A000A604A093A704B093A80461EA74E090E091
:1039B00080E00E94B90E85E090E09093AA04809385
:1039C000A9046DE774E00E94B90E8AE090E090933C
:1039D000AA048093A90463E174E00E94B90E8FE009
:1039E00090E09093AA048093A9046CE074E00E9494
:1039F000860E86E190E09093AA048093A90465E086
:103A000074E00E94860E8DE190E09093AA0480936A
:103A1000A90469E574E00E94B90E1093AA0400930A
:103A2000A90467E174E083E290E00E94B90E88E2A5
:103A300090E09093AA048093A9046BE174E00E9443
:103A4000B90E8DE290E09093AA048093A90465EAF0
:103A500074E00E94B90E84E390E09093AA048093EE
:103A6000A90469E774E00E94B90E8CE390E090939A
:103A7000AA048093A9040E945E0E60E080E00E9488
:103A8000720A86E393E00E94870A60ED77E080E0A7
:103A900090E00E945F0260E080E00E94720A8CE485
:103AA00093E00E94870A61E080E00E94720A8EE53E
:103AB00093E00E94870A68EC70E080E090E00E944A
:103AC0005F0260E080E00E94720A8BE493E00E9453
:103AD000870A61E080E00E94720A8DE593E00E940F
:103AE000870A68EC70E080E090E00E945F0260E08E
:103AF00080E00E94720A8AE493E00E94870A61E0F3
:103B000080E00E94720A8CE593E00E94870A68ECCC
:103B100070E080E090E00E945F0260E080E00E9440
:103B2000720A89E493E00E94870A61E080E00E94C3
:103B3000720A8BE593E00E94870A68EC70E080E0EF
:103B400090E00E945F0260E080E00E94720A88E4D8
:103B500093E00E94870A61E080E00E94720A8AE591
:103B600093E00E94870A68EC70E080E090E00E9499
:103B70005F0260E080E00E94720A87E493E00E94A6
:103B8000870A61E080E00E94720A89E593E00E9462
:103B9000870A60EB74E080E090E00E945F0260E0E2
:103BA00080E00E94720A8AEA91E00E94870A61E03E
:103BB00080E00E94720A8EEA91E00E94870A60E02B
:103BC00080E00E94720A84E693E00E94870A61E026
:103BD00080E00E94720A82E793E00E94870A809147
:103BE0003006982F9260909330068A600E94C30935
:103BF00060ED77E080E090E00E945F0260E080E0AE
:103C00000E94720A8BEA91E00E94870A61E080E0DC
:103C10000E94720A8CEA91E00E94870A60E080E0CC
:103C20000E94720A8FE793E00E94870A61E080E0B9
:103C30000E94720A8CE893E00E94870A8091300605
:103C4000982F9260909330068A600E94C30960EDBD
:103C500077E080E090E00E945F0260E080E00E94F8
:103C6000720A81E993E00E94870A61E080E00E9485
:103C7000720A8DEA91E00E94870A61E080E00E946A
:103C8000720A6AEB71E08CE094E00E944C338FE0A2
:103C900090E09093AA048093A9046CE074E00E94E1
:103CA0002A0B61E080E00E94720A08E210E09FE0C7
:103CB000E92EF12C6CE074E08BEA94E00E9443332F
:103CC000892B09F47CC10E94B0048091D30488231D
:103CD00031F060E570E080E090E00E9440040E94D6
:103CE000F9028093D3048823C9F08D33B9F083346B
:103CF000A9F096ED980F923088F08D52833070F0D5
:103D000084E691E00E94870A8091D3048093BF04E7
:103D10006FEB74E08BEA94E00E943833EBEAF4E056
:103D200001900020E9F7E25BF44009F030C16CE05B
:103D300074E08BEA94E00E944333892B09F427C195
:103D400061E080E00E94720A80EA93E00E94870AA4
:103D500060ED77E080E090E00E945F0261E080E04B
:103D60000E94720A8CEA91E00E94870A61E080E07A
:103D70000E94720A0E94F902809304040E94C909F9
:103D800060E080E00E94720A8FEA93E00E94870A56
:103D900061E080E00E94720A6AEB71E08BEA94E0D5
:103DA0000E944C3390E080E00E94530C8BEA94E038
:103DB0000E94B4298230910518F00397079700F507
:103DC0000E94C90960E080E00E94720A8BEA91E0DB
:103DD0000E94870A60E080E00E94720A0E94C9097E
:103DE00081E993E00E94870A61E080E00E94720A04
:103DF0008DEA91E00E94870A61E080E00E94720AE9
:103E00008BEA94E00E94B429029709F0B4C06AEBEF
:103E100071E08BEA94E00E944C336AEB71E08FEB27
:103E200094E00E944C330E94F90280930404809134
:103E300004048D3309F49FC0A8950E94C90960E06D
:103E400080E00E94720A89E891E00E94870A61E09E
:103E500080E00E94720A84E090E00E94530C10936C
:103E6000AA040093A9046BE174E088E290E00E9448
:103E7000500B8BEA94E00E94D22980901B04909012
:103E80001C04A0901D04B0901E04860E971EA81E50
:103E9000B91E82E4881687E69806A104B10409F0E9
:103EA00061C00E94C90960E080E00E94720A89E94D
:103EB00091E00E94870A61E080E00E94720A8AEA2B
:103EC00091E00E94870AA89568EE73E080E090E098
:103ED0000E945F02A8950E94EC0E6AEB71E08CE0F4
:103EE00094E00E944C33F092AA04E092A9046CE0A2
:103EF00074E08FE090E00E942A0B60E080E00E9476
:103F0000720A81E993E00E94870A61E080E00E94E2
:103F1000720AA89568EE73E080E090E00E945F026C
:103F2000A8950E94C90960E080E00E94720A8BEAAD
:103F300091E00E94870A60E080E00E94720A0E947D
:103F4000C90981E993E00E94870A61E080E00E944C
:103F5000720A8DEA91E00E94870A61E080E00E9487
:103F6000720A65CF61E080E00E94720A80EC93E003
:103F70000E94870ACECF6AEB71E08BEA94E00E9440
:103F80004C336AEB71E08FEB94E00E944C338091EC
:103F9000D304833409F08ECE6AEB71E08BEA94E0AF
:103FA0000E944C3361E080E00E94720A83EB91E052
:103FB0000E94870A61E080E00E94720A7BCE0E9424
:103FC000280161E080E00E94720A81ED93E00E9486
:103FD000870A64EF71E080E090E00E945F0261E098
:103FE00080E00E94720A8CEA91E00E94870A60E0F9
:103FF00080E00E94720A8CEA91E00E94870A60E0E9
:1040000080E00E94720A84EE93E00E94870A68ECC6
:1040100070E080E090E00E945F0260E080E00E943B
:10402000720A82EE93E00E94870A68EC70E080E0FA
:1040300090E00E945F0260E080E00E94720A80EEE1
:1040400093E00E94870A68EC70E080E090E00E94B4
:104050005F0260E080E00E94720A8FED93E00E94B0
:10406000870A60E273E080E090E00E945F020E94B5
:10407000C90960E080E00E94720A1092AA041092BE
:10408000A90461EA74E090E080E00E94500B409146
:10409000A1045091A2046091A3047091A404CE01E4
:1040A00001960E94C90BCE0101960E94940ACE018E
:1040B00001960E94E30A85E894E00E94EB0A88EEEC
:1040C00093E00E94870A60E08CE00E94720A85E813
:1040D00094E00E94870A61E080E00E94720A6AEB25
:1040E00071E08BEA94E00E944C330FB6F894A895E7
:1040F00080916000886180936000109260000FBE24
:1041000088E198E20FB6F894A895809360000FBEFE
:104110009093600005E010E084E3282E312CA895F0
:104120000E94B00461E086E00E94C8010E94F9028A
:104130008093D304882329F18D3319F1833409F155
:1041400096ED980F9230E8F08D528330D0F061E018
:1041500080E00E94720A8AEA91E00E94870A8091B8
:10416000D3048093BF046FEB74E08BEA94E00E9469
:10417000383361E080E00E94720A8BEA94E00E948A
:10418000870A0E94F60B81E00E949C01892B09F0AE
:1041900026C1ADE2B0E0B093AA04A093A90465EAF9
:1041A00074E08DE290E00E94500B1092AA041092ED
:1041B000A90461EA74E090E080E00E94500B0E9444
:1041C000910260939D0470939E0480939F0490934A
:1041D000A00481E00E949C01892B09F094C0A8955D
:1041E00061E085E00E94C8010E949102C0909D0498
:1041F000D0909E04E0909F04F090A0049B01AC013D
:104200002C193D094E095F09A8EEB3E00E94612F09
:104210002091A5043091A6044091A7045091A804D0
:104220000E940D31BA01A9014093990450939A0458
:1042300060939B0470939C04CE0101960E94C90B6D
:10424000CE0101960E94940ACE0101960E94E30AD3
:1042500085E894E00E94EB0A65EF73E085E894E05E
:104260000E94383361E088E00E94720A85E894E099
:104270000E94870A2091A1043091A2044091A304D6
:104280005091A4046091990470919A0480919B04C8
:1042900090919C040E94C73028EE33E040E050E04B
:1042A0000E940D31BA01A901409381045093820408
:1042B0006093830470938404CE0101960E94C90B1D
:1042C000CE0101960E94940ACE0101960E94E30A53
:1042D00085E894E00E94EB0A68EF73E085E894E0DB
:1042E0000E94383361E080E00E94720A85E894E021
:1042F0000E94870A0E94B00460E570E080E090E0D0
:104300000E94400466CF60E085E00E94C8011093DF
:10431000AA040093A9046DE774E085E090E00E9490
:10432000500B60918104709182048091830490917C
:1043300084040E942B2E20E030E040E05FE30E94E6
:10434000B32F6B017C0160917D0470917E0480919C
:104350007F04909180040E942B2E9B01AC01C70129
:10436000B6010E94B32F0E94913060937D04709338
:104370007E0480937F04909380046DE774E085E071
:1043800090E00E94B90E3092AA042092A90469E735
:1043900074E084E390E00E94500B80917904909146
:1043A0007A04A0917B04B0917C04409199045091CF
:1043B0009A0460919B0470919C04840F951FA61F22
:1043C000B71F8093790490937A04A0937B04B093F1
:1043D0007C0469E774E084E390E00E94B90E809168
:1043E000D3048F32C9F40E94C90910927804109244
:1043F000770481E080930E01E1E0F0E0F093760431
:10440000E093750461E088E00E94720A8CEA91E012
:104410000E94870A0E94C9098091D304882309F465
:1044200063C08F3209F460C06AEB71E081E694E00A
:104430000E944C3360E570E080E090E00E94400410
:104440008BEA94E00E94B02920E030E04AE754E48F
:104450000E948A2E6B017C016091A1047091A204DC
:104460008091A3049091A4040E942B2E9B01AC0187
:10447000C701B6010E941F3020E030E040E05FE35A
:104480000E94B32F0E949830CE0101960E94190E0F
:10449000CE0101960E94940ACE0101960E94E30A81
:1044A00085E894E00E94EB0A61E088E00E94720ACD
:1044B00065EF73E085E894E00E94383385E894E086
:1044C0000E94870A8BEA94E0DC010D900020E9F756
:1044D000CD018C5A944061E00E94720A65E874E054
:1044E00081E694E00E944C338091D3048334F1F44C
:1044F0006AEB71E08BEA94E00E944C3361E080E06B
:104500000E94720A82EB91E00E94870A61E080E0DB
:104510000E94720A61E088E00E94720A8DEA91E0CE
:104520000E94870A61E080E00E94720A809175040F
:1045300090917604019709F061C2A8950E94F90252
:10454000F82E8093D304882329F1809177049091E9
:104550007804BEE2FB1609F4D6C6EDE3FE16D1F0F0
:10456000F3E4FF16B9F026ED2F0D223008F4D1C682
:104570008F2D8D7F8D3271F041E06F2D80E296E0BE
:104580000E947009F092BF046FEB74E08BEA94E034
:104590000E9438338091770490917804099734F021
:1045A00088E090E09093780480937704809177047A
:1045B0009091780497FF04C01092780410927704C9
:1045C0008091770490917804892B89F580910E0170
:1045D000882369F110920E0181E080930D01809390
:1045E0000C0180930B0180930A0180930901809351
:1045F0000801809307018093060162EA72E08FE16F
:1046000094E00E944C3360E080E00E94720A8CEAE1
:1046100091E00E94870A60E080E00E94720A82EACC
:1046200092E00E94870A61E080E10E94720A809114
:10463000770490917804019789F580910D01882382
:1046400069F181E080930E0110920D0180930C01BD
:1046500080930B0180930A018093090180930801E4
:10466000809307018093060168E872E08FE194E08F
:104670000E944C3360E080E00E94720A8CEA91E074
:104680000E94870A60E080E00E94720A88E892E057
:104690000E94870A61E080E10E94720A809177049B
:1046A00090917804029789F580910C01882369F133
:1046B00081E080930E0180930D0110920C01809394
:1046C0000B0180930A018093090180930801809374
:1046D00007018093060164E772E08FE194E00E9495
:1046E0004C3360E080E00E94720A8CEA91E00E9404
:1046F000870A60E080E00E94720A84E792E00E94EC
:10470000870A61E080E10E94720A809177049091AB
:104710007804039789F580910B01882369F181E082
:1047200080930E0180930D0180930C0110920B0178
:1047300080930A0180930901809308018093070107
:104740008093060166E572E08FE194E00E944C33AD
:1047500060E080E00E94720A8CEA91E00E94870A81
:1047600060E080E00E94720A86E592E00E94870A7B
:1047700061E080E10E94720A809177049091780450
:10478000049789F580910A01882369F181E080937B
:104790000E0180930D0180930C0180930B01109208
:1047A0000A01809309018093080180930701809397
:1047B000060163E372E08FE194E00E944C3360E015
:1047C00080E00E94720A8CEA91E00E94870A60E011
:1047D00080E00E94720A83E392E00E94870A61E00F
:1047E00080E10E94720A8091770490917804059785
:1047F00089F580910901882369F181E080930E0198
:1048000080930D0180930C0180930B0180930A012A
:10481000109209018093080180930701809306019B
:1048200067EE71E08FE194E00E944C3360E080E03D
:104830000E94720A8CEA91E00E94870A60E080E0A0
:104840000E94720A87EE91E00E94870A61E080E18F
:104850000E94720A8091770490917804069789F5F6
:1048600080910801882369F181E080930E01809393
:104870000D0180930C0180930B0180930A018093BA
:1048800009011092080180930701809306016AECE8
:1048900071E08FE194E00E944C3360E080E00E9480
:1048A000720A8CEA91E00E94870A60E080E00E9430
:1048B000720A8AEC91E00E94870A61E080E10E941E
:1048C000720A8091770490917804079789F5809116
:1048D0000701882369F181E080930E0180930D0127
:1048E00080930C0180930B0180930A01809309014E
:1048F0008093080110920701809306016BE771E035
:104900008FE194E00E944C3360E080E00E94720AE4
:104910008CEA91E00E94870A60E080E00E94720ABF
:104920008BE791E00E94870A61E080E10E94720AB1
:104930008091770490917804089789F58091060119
:10494000882369F181E080930E0180930D018093AB
:104950000C0180930B0180930A01809309018093DD
:104960000801809307011092060165EF72E08FE164
:1049700094E00E944C3360E080E00E94720A8CEA6E
:1049800091E00E94870A60E080E00E94720A85EF51
:1049900092E00E94870A61E080E10E94720A8091A1
:1049A000D3048D3311F40E94CB0F0E94B004F09019
:1049B000D304FF2009F4BACD60E570E080E090E018
:1049C0000E9440049BE2F912B1CD1092760410923D
:1049D000750481E090E0A0E0B0E080935D049093E6
:1049E0005E04A0935F04B09360040E94F60B6AEB30
:1049F00071E08BEA94E00E944C3398CD8091D3040F
:104A00008334A1F4EBEAF4E084E1DF011D928A959E
:104A1000E9F780E090E0892B09F481CB0E948708B8
:104A2000882309F479CB0E94000076CB8D3389F777
:104A3000EDE1F0E0F093AA04E093A90469E574E0E5
:104A40008DE190E00E94500BC0905904D0905A0420
:104A5000E0905B04F0905C04F1E0CF16D104E10437
:104A6000F10409F002C21092AA041092A90461EAAA
:104A700074E090E080E00E94500BC0925504D09208
:104A80005604E0925704F09258048091AB048823B6
:104A900009F4EBC161E088E00E94720A8FEA91E0BC
:104AA0000E94870A0E94F9028093D3046AEB71E0A6
:104AB00085E894E00E944C3361E080E00E94720A35
:104AC0008FEA91E00E94870A8DE290E09093AA0419
:104AD0008093A90465EA74E00E94500B8BEA94E08D
:104AE0000E94B0296B017C016091A1047091A20425
:104AF0008091A3049091A4040E942B2E9B01AC01F1
:104B0000C701B6010E941F306B017C016091A504B2
:104B10007091A6048091A7049091A8040E942B2E66
:104B20009B01AC01C701B6010E948A2E4B015C01BA
:104B30000E9491026093390470933A0480933B047D
:104B400090933C040E9491020E94292E6B017C01EB
:104B50006091390470913A0480913B0490913C0437
:104B60000E94292EA50194010E94B32F9B01AC0144
:104B7000C701B6010E94242E87FFE7C0809155042B
:104B800090915604A0915704B09158040197A10543
:104B9000B10509F0DAC0A8956091390470913A0422
:104BA00080913B0490913C040E94292EA501940120
:104BB0000E94B32F6F83788789879A870E9491021A
:104BC0002B013C016091A1047091A2048091A30487
:104BD0009091A4040E942B2E6B017C01C301B201B1
:104BE0000E94292E9B01AC016F81788589859A8569
:104BF0000E94B22F9B01AC01C701B6010E948A2E10
:104C00006B017C016091A5047091A6048091A704BA
:104C10009091A8040E942B2E9B01AC01C701B60104
:104C20000E941F306B017C010E94F9028093D30423
:104C30008B3241F41092550410925604109257048E
:104C4000109258048BEA94E00E94B0298BEA94E019
:104C50000E94B029A70196010E94B22F60933504EB
:104C600070933604809337049093380420E030E04A
:104C70004AE754E40E948A2E6B017C016091A104F2
:104C80007091A2048091A3049091A4040E942B2E01
:104C90009B01AC01C701B6010E941F3020E030E04B
:104CA00040E05FE30E94B32F0E9498307093340479
:104CB00060933304CE0101960E94190ECE01019635
:104CC0000E94940ACE0101960E94E30A85E894E0CE
:104CD0000E94EB0A61E088E00E94720A65EF73E0CF
:104CE00085E894E00E94383385E894E00E94870AC2
:104CF00060913504709136048091370490913804A6
:104D00000E949130CE0101960E94ED0DCE010196D8
:104D10000E94940ACE0101960E94E30A85E894E07D
:104D20000E94EB0A68EF73E085E894E00E94383354
:104D300061E080E00E94720A85E894E00E94870AA0
:104D400061E085E00E94C801FDCE61E080E00E9444
:104D5000720A8BEA94E00E94870A80915504909130
:104D60005604A0915704B0915804892B8A2B8B2BA1
:104D700061F061E088E00E94720A81E694E00E949E
:104D8000870A61E080E00E94720A1093AA040093EF
:104D9000A9046DE774E085E090E00E94500B6091FB
:104DA0007D0470917E0480917F04909180040E9424
:104DB0002B2E6B017C0120E030E040E05FE360914E
:104DC00035047091360480913704909138040E9424
:104DD000B32F9B01AC01C701B6010E94B32F0E9403
:104DE000913060937D0470937E0480937F04909350
:104DF00080046DE774E085E090E00E94B90E309287
:104E0000AA042092A90469E774E084E390E00E9478
:104E1000500B2091330430913404809179049091A7
:104E20007A04A0917B04B0917C04820F931FA11D92
:104E3000B11D8093790490937A04A0937B04B0937E
:104E40007C0469E774E084E390E00E94B90E60E0BE
:104E500085E00E94C80161E080E00E94720A6AEB6E
:104E600071E08BEA94E00E944C3380915904909158
:104E70005A04A0915B04B0915C040297A105B105AE
:104E800009F0C7CD1092AA041092A90461EA74E057
:104E900090E080E00E94500B81E090E0A0E0B0E064
:104EA0008093550490935604A0935704B0935804EC
:104EB0008091AB04882309F4ACCD61E088E00E94C6
:104EC000720A8FEA91E00E94870AACE3B0E0B093E7
:104ED000AA04A093A9040E940E0B20E034E244E748
:104EE00059E46091EE047091EF048091F004909188
:104EF000F1040E941F306093EE047093EF048093DE
:104F0000F0049093F10461E085E00E94C801E1E0C3
:104F1000F0E0F0935404E09353048BEA94E00E9491
:104F2000B02960934F047093500480935104909380
:104F300052046091A1047091A2048091A304909105
:104F4000A4040E942B2E2091EE043091EF04409196
:104F5000F0045091F1040E948A2E60934B047093E8
:104F60004C0480934D0490934E0461E080E00E94D5
:104F7000720A8FEA91E00E94870A10924704109209
:104F800048041092490410924A041092430410926B
:104F9000440410924504109246040E9491026B0151
:104FA0007C017894812C912C540120914B043091F8
:104FB0004C0440914D0450914E046091470470910F
:104FC00048048091490490914A040E948A2E2091BD
:104FD0004F043091500440915104509152040E946A
:104FE000242E18160CF4F6C08091550490915604A6
:104FF000A0915704B09158040197A105B10509F09B
:10500000E9C0A8950E94F9028093D3048B3241F441
:10501000109255041092560410925704109258049E
:105020000E9491026C197D098E099F0961327E44AC
:1050300081059105E0F1C0904704D0904804E090CC
:105040004904F0904A04C501B4010E942B2E9B0133
:10505000AC01C701B6010E94B22F20E030E040EF62
:1050600051E40E94242E87FF1EC0C701B6010E9492
:1050700091304B015C01109255041092560410922D
:1050800057041092580461E080E00E94720A8AEA94
:1050900091E00E94870A61E080E00E94720A8CEF32
:1050A00093E00E94870A0E9491026B017C0180912B
:1050B000530490915404019721F461E085E00E942B
:1050C000C80120914B0430914C0440914D04509103
:1050D0004E04609147047091480480914904909176
:1050E0004A040E948A2E60933F0470934004809388
:1050F00041049093420420E030E04AE754E40E94E7
:105100008A2E2B013C016091A1047091A204809130
:10511000A3049091A4040E942B2E9B01AC01C30117
:10512000B2010E941F3020E030E040E05FE30E94C7
:10513000B32F0E94983070933E0460933D04CE01DB
:1051400001960E94190ECE0101960E94940ACE018A
:1051500001960E94E30A85E894E00E94EB0A61E070
:1051600088E00E94720A65EF73E085E894E00E948F
:10517000383385E894E00E94870A61E080E00E946D
:10518000720A60913F0470914004809141049091B3
:1051900042040E949130CE0101960E94ED0DCE0195
:1051A00001960E94940ACE0101960E94E30A85E8C6
:1051B00094E00E94EB0A68EF73E085E894E00E94B7
:1051C000383361E080E00E94720A85E894E00E9432
:1051D000870AEBCE61E080E00E94720A8BEA94E0DD
:1051E0000E94870A60E085E00E94C8018091550412
:1051F00090915604A0915704B0915804892B8A2BA2
:105200008B2B61F061E088E00E94720A81E694E0F5
:105210000E94870A61E080E00E94720A1093AA044B
:105220000093A9046DE774E085E090E00E94500BC4
:1052300060917D0470917E0480917F049091800440
:105240000E942B2E6B017C0120E030E040E05FE308
:1052500060913F0470914004809141049091420418
:105260000E94B32F9B01AC01C701B6010E94B32F6E
:105270000E94913060937D0470937E0480937F043C
:10528000909380046DE774E085E090E00E94B90E91
:105290003092AA042092A90469E774E084E390E0C4
:1052A0000E94500B20913D0430913E04809179047E
:1052B00090917A04A0917B04B0917C04820F931F9B
:1052C000A11DB11D8093790490937A04A0937B046F
:1052D000B0937C0469E774E084E390E00E94B90E27
:1052E000109254041092530460E085E00E94C801BB
:1052F00061E080E00E94720A6AEB71E08BEA94E060
:105300000E944C3386CB0196909378048093770467
:1053100041C92AE20197F216B9F33CC98BEA95E03C
:105320000C94E30AEF920F931F93CF93DF93E8015E
:1053300034E047FD34E1042E000C550B57FF03C049
:10534000519541955109E32E022F242FAE010E9461
:105350006C2ACE01DF91CF911F910F91EF900895AC
:10536000662777270C94CB2BFC0188279927E89494
:1053700021912032E9F3293010F02E30C8F32B327E
:1053800041F02D3239F4689404C00E94282A820F1B
:10539000911D219120532A30C0F31EF490958195E0
:1053A0009F4F08951F93FC0199278827BC01E8941B
:1053B00011911032E9F3193010F01E30C8F31B328E
:1053C00051F01D3249F4689406C00E94132A610FFF
:1053D000711D811D911D119110531A30B0F33EF4CF
:1053E00090958095709561957F4F8F4F9F4F1F913E
:1053F0000895BB274A3031F4992322F4BDE29095F9
:1054000081959F4F0C94532ABB272A3051F499233E
:1054100042F4BDE290958095709561957F4F8F4FD6
:105420009F4F0C94312A592F482F372F262F660F64
:10543000771F881F991F660F771F881F991F620F9C
:10544000731F841F951F660F771F881F991F08956C
:105450007AE0979F902D879F802D910D11240895BC
:10546000BB27FA01A62F6217710581059105330B41
:1054700030FB66F0AA27660F771F881F991FAA1FA7
:10548000A21710F0A21B63953850A9F7A05DAA33AC
:1054900008F0A95DA19336F7B111B1931082CA014A
:1054A0000C94142EBB27FB015527AA27880F991FA0
:1054B000AA1FA41710F0A41B83955051B9F7A05D43
:1054C000AA3308F0A95DA193009779F7B111B193C0
:1054D0001192CB010C94142EA9E0B0E0E2E7FAE2BD
:1054E0000C94722F6A01F22EB02E102FFBE3AF2E18
:1054F000A01608F41BE31F5F012F27E0AE014F5FEA
:105500005F4F0E941B2DBC018981982F99709130AB
:1055100009F43FC09BE2E1FC04C09E2D9170E0FCC9
:105520003AC05E2D5071E82FE87083FF46C084E0DA
:10553000911101C083E0EF2DE81B8F1508F0E0E02A
:10554000D6018E2F20E2552351F1992329F0D6015F
:105550009C93C60101966C0196012D5F3F4FE2FEC0
:1055600024C08EE4D6018C9391E411969C931197FC
:1055700012968C93D9018E2F90E281111BC0E20FFD
:10558000F32FF11D10828EEF9FEF2996ECE00C9423
:105590008E2F9DE2C6CF90E2C4CF2D938150811112
:1055A000FCCFCE0ED11CE0E0D0CF8EE6D6018C939E
:1055B00091E6DBCF9D938150E0CF482F447082FF6E
:1055C0003DC084E0911101C083E08F1510F4EF2DF0
:1055D000E81BD6018E2F20E2552309F1992329F0EB
:1055E000D6019C93C60101966C0196012D5F3F4F39
:1055F000E2FE1BC089E4D6018C938EE411968C9355
:10560000119786E412968C93D9018E2F90E288230D
:1056100009F4B5CF9D938150FACF2D93815081111C
:10562000FCCFCE0ED11CE0E0D9CF89E6D6018C9319
:105630008EE611968C93119786E6E4CF9B0177FF57
:1056400002C030E020E0A1E0B0E0911102C0B0E083
:10565000A0E0F9013196AE0FBF1F8B2C912CBB201F
:1056600009F461C05401EFEFAE1ABE0AAA0DBB1DCA
:10567000FA161B0619F014F04F2D4A1B511188C061
:10568000E3FC59C07601A42FB0E2A1114FC0C40EB3
:10569000D11C992309F45BC040E0D6011196F601B4
:1056A00090836D01552309F448C0012F060F9A819C
:1056B000582F507184FF03C0913309F40150101624
:1056C0000CF047C0093008F008E0EEE2FE2E5B0166
:1056D000A01AB10885019194819491082F3F320757
:1056E00029F4D601FC92F60131966F016217730717
:1056F00094F1021713077CF5DB01A21BB30BAA245C
:10570000A394B12CAC0EBD1EAA0DBB1D11968C919D
:1057100021503109D601119628153905F4F0F6010A
:1057200080836D01DBCFB12CA12CA0CFF701B19309
:105730007F01A150AACF9111B0CFD601942F50E391
:1057400002C05D9391509111FCCFC40ED11C40E07A
:10575000ACCF01E0BACF80E3DBCF6217730731F43F
:10576000963388F4953311F4552369F0F60180835C
:10577000FD01842F90E2811108C0A40FB11D1C927D
:1057800090E080E002CF81E3F1CF91938150F3CF9D
:10579000911183CF8ACFB0E0A0E0E1EDFBE20C9461
:1057A000722F5C017B016115710519F0DB018D938E
:1057B0009C9385010F5F1F4FF501D0818D2F90E0E5
:1057C0000E94F32D6C01892BB9F5DD32B9F50F5F1D
:1057D0001F4FD5011196DC91C1E05801F1E0AF1ADD
:1057E000B10843E050E060E770E0C5010E94FC2D85
:1057F000892B69F5680182E0C80ED11C45E050E0B4
:105800006BE670E0C6010E94FC2D892B21F4680133
:1058100097E0C90ED11CE114F10419F0D701CD9223
:10582000DC9260E070E080E89FEFC111FFC060E0B3
:1058300070E080E89FE7FAC05801BBCFDB3229F463
:1058400085010E5F1F4FF501D181C0E0C6CF43E057
:1058500050E068E670E0C5010E94FC2D892BE9F05C
:10586000F80110E000E020E030E0A9015F01B0EDB8
:105870008B2E8D0E89E08815C8F19C2E689491F8C6
:105880008C2F8870C2FF16C0811102C00F5F1F4F9E
:105890003196D501DC91C92DE9CFE114F10429F04D
:1058A0000E5F1F4FF7011183008360E070E080EC12
:1058B0009FE7BCC0882311F001501109A5E0B0E0BA
:1058C0000E94612F9B01AC01220F331F441F551F03
:1058D000280D311D411D511D283999E93907490706
:1058E00099E15907A8F2C6609C2ED2CFAEEF8A127A
:1058F00006C0C3FD3CC09C2E689493F8C9CFDF7DE1
:10590000D534A9F580818D3239F4C061DF0112965A
:10591000818162E070E006C0DF018B32C1F3119635
:1059200061E070E080535D01A61AB70A8A30F8F48E
:10593000E0E8CE16ECE0DE065CF4B601660F771FF9
:10594000660F771FC60ED71ECC0CDD1CC80ED11CEF
:105950005D01FFEFAF1ABF0A8C9180538A30A8F126
:10596000C4FF03C0D194C194D1080C0D1D1DC1FF0B
:1059700009C0E114F10431F081E0A81AB108D7019F
:10598000AD92BC92CA01B9010E94292EC370C330E6
:1059900009F490584B015C0120E030E0A9010E941D
:1059A000242E882309F440C0CFE9D0E017FF05C0BA
:1059B000119501951109C7E8D0E06E01B8E1CB1A45
:1059C000D10880E2E82EF12C0FC0D501B1CFFE0145
:1059D00025913591459154910E191F09C501B401C6
:1059E0000E948A2E4B015C01D501C4010E151F05D2
:1059F00074F72497F594E794CC16DD06A9F78A2F5F
:105A0000880F8B2F881F8F3F49F020E030E0A901DD
:105A1000C501B4010E94242E811106C082E290E0EB
:105A20009093390680933806C501B401CDB7DEB72F
:105A3000ECE00C948E2F283008F027E03327DA01B1
:105A4000990F311D87FD916000966105710539F44C
:105A500032602E5F3D9330E32A95E1F708959F3F32
:105A600030F080387105610509F03C5F3C5F3D9383
:105A7000913008F08068911DDF93CF931F930F93AF
:105A8000FF92EF92192F987F9695E92F969596950C
:105A9000E90FFF27E350FF4F99273327EE24FF2418
:105AA000A701E70105900894079428F4360FE71E34
:105AB000F81E491F511D660F771F881F991F0694F6
:105AC000A1F70590079428F4E70EF81E491F561F0A
:105AD000C11D770F881F991F661F0694A1F70590B7
