:020000040000FA
:100000000C94400C0C94710C0C94710C0C94710CAD
:100010000C94710C0C94710C0C94710C0C94710C6C
:100020000C94710C0C94710C0C94710C0C94710C5C
:100030000C94710C0C946E150C94710C0C94710C46
:100040000C94710C0C94710C0C94710C0C94710C3C
:100050000C94710C0C94710C0C94710C0C94241570
:100060000C94710C0C94710C0C94710C0C94710C1C
:100070000C94710C0C94710C0C94710C0C94710C0C
:100080000C94710C0C94710C0C94710C0C94710CFC
:100090000C94710C0C94710C0C94710C0C94CE1586
:1000A0000C94710C0C94710C0C94710C0C94710CDC
:1000B0000C94710C0C94710C0C94710C0C94710CCC
:1000C0000C94710C0C94710C0C94710C0C94710CBC
:1000D0000C94710C0C94710C0C94710C0C94710CAC
:1000E0000C94710C0C948C140C94CA140C94DC0CAD
:1000F0000C94F80C0C94370F0C942C0E0C94240ECA
:100100000C94A2140C94E40C0C94EA0C0C94C50C02
:100110000C94740C0C94B70C0C94C2110C94F21641
:100120000C94BD0C0C94C90C0C942B0E0C94DD118A
:100130000C94F20C0C941D0F0C94BD120C94121321
:100140000C94C10C0C94300F0C940E0F0C94FC0CFE
:100150000C94D20C0C94F2120C94CC0C0C94D7127C
:100160000C94280E0C94EE0C0C94EF120C949B0E35
:100170000C94420F0C94E00C0C94D60C0C94C91403
:100180000C94F4120C94730C0C940D0F0C94200E20
:100190000C94E3120C94F70CFFD0FFE0FFC1FFD1E9
:1001A0003FC0FF14FFD23FC0FF14FFD0FFFE02008C
:1001B000002100240027002A002D00300033000118
:1001C000010000040107010A0100002200250028A7
:1001D000002B002E00310034000201000005010850
:1001E000010B01000020002300260029002C002F15
:1001F00000320000010000030106010901050505A8
:1002000005070508080808020202020A0A0808048D
:1002100004040401010101010101010303030303BB
:10022000030303040707070C0C0C0C0C0C0C0C024A
:1002300002020206060606060606060B0B0B0B0B51
:100240000B0B0B010210202008081020401020404A
:10025000800201020108040201010204081020408A
:1002600080804020100804020180040201804020A8
:1002700010080402010804020101020408102040D1
:1002800080010204081020408000000A0B02090CC3
:100290000D0E08070304010000000000000000002C
:1002A000000000000000000000000000000000004E
:1002B000000000000012111000000000000000000B
:1002C000000000000000000000000000000000002E
:1002D000101000FE0A06A7089500FFFE0EFE0BFE9A
:1002E0001010201000FEAAAA00018000000180006A
:1002F0004A51EA505A51C99E000180000001800015
:100300000001800055551010201000FEAAAA00011F
:100310008000000180003993C252325F8A5271938B
:100320008000000180000001800055551010201051
:1003300000FEAAAA00018000000180003BA5C124A4
:10034000311989247125800000018000000180009E
:1003500055551010201000FEAAAA000180000001CF
:1003600080007BA5C1247919C12479258000000172
:1003700080000001800055551010201000FEAAAA30
:10038000000180000001800079BFC2487A49C2485C
:10039000798980000001800000018000555510100F
:1003A000201000FEAAAA00018000000180007A4D02
:1003B000C2527B53C2D67A4F8000000180000001F8
:1003C000800055551010201000FEAAAA00018000E0
:1003D0000001800031A5CA287A31CA2849A58000C9
:1003E000000180000001800055551010201000FE13
:1003F000AAAA000180000001800073D1CA1073D145
:10040000CA1073DF80000001800000018000555594
:100410001010201000FEAAAA000180000001800038
:100420001E3991401E3191081E718000000180002C
:100430000001800055551010201000FEAAAA0001EE
:1004400080000001800022F9A2203E21A22022216A
:100450008000000180000001800055551010201020
:1004600000FEAAAA000180000001800020F9A080FF
:1004700020F9A0803E818000000180000001800002
:1004800055551010201000FEAAAA0001800000019E
:10049000800022F9A220222194200821800000015E
:1004A00080000001800055551010201000FEAAAAFF
:1004B00000018000000180003EF9A0803EF9A0808C
:1004C000208180000001800000018000555510103F
:1004D000201000FEAAAA00018000000180001EF189
:1004E000A08820F1A0901E898000000180000001FA
:1004F000800055551010201000FEAAAA00018000AF
:10050000000180001E71A0881C8982883C718000D7
:10051000000180000001800055551010201000FEE1
:10052000AAAA00018000000180001EF9A0201C2161
:1005300082203CF9800000018000000180005555B8
:100540001010201000FEAAAA000180000001800007
:10055000391DA510251DA51039DD80000001800082
:100560000001800055551010201000FEAAAA0001BD
:100570008000000180007189CA184A09CA08719D6B
:1005800080000001800000018000555510102010EF
:1005900000FEAAAA00018000000180007199CA042F
:1005A0004A09CA10719D800000018000000180008E
:1005B00055551010201000FEAAAA0001800000016D
:1005C00080007199CA044A19CA0471998000000117
:1005D00080000001800055551010201000FEAAAACE
:1005E00000018000000180007185CA0C4A15CA1CF8
:1005F00071858000000180000001800055551010B9
:10060000201000FEAAAA000180000001800049938A
:10061000EA546A59DBD44A5380000001800000018B
:10062000800055551010201000FEAAAA000180007D
:10063000000180003453C29A31178912711380006F
:10064000000180000001800055551010201000FEB0
:10065000AAAA00018000000180007BB9C124793979
:10066000C1247939800000018000000180005555C7
:100670001010201000FEAAAA0001800000018000D6
:100680003325C4B447ADC4A434A580000001800064
:100690000001800055551010201000FEAAAA00018C
:1006A0008000000180003E89A0D83EA9A0883E8934
:1006B00080000001800000018000555510102010BE
:1006C00000FEAAAA00018000000180003A5DC2522B
:1006D000325D8A52719D800000018000000180001F
:1006E00055551010201000FEAAAA0001800000013C
:1006F000800079CFC2107991C0507B8F80000001BB
:1007000080000001800055551010201000FEAAAA9C
:1007100000018000000180001E7190801E61901019
:1007200010E180000001800000018000555510108C
:10073000201000FEAAAA00018000000180000E71B6
:100740009080166192100EE180000001800000018F
:10075000800055551010201000FEAAAA000180004C
:10076000000180001C7192801C61941012E18000D5
:10077000000180000001800055551010201000FE7F
:10078000AAAA00018000000180001271928012610B
:1007900092100CE18000000180000001800055559E
:1007A00000000008000E010A0A0804008080808012
:1007B000808080008080050404080208888888887A
:1007C000060A0A080100242424FC4848FC90909062
:1007D000070A0A080100107C9290701C12927C108B
:1007E000070A0A0801006294946810102C52528C77
:1007F000070A0A0801003844442830528A848C725F
:1008000001040408040880808080030C0C0803FFA6
:10081000204040808080808080404020030C0C0875
:1008200002FF8040402020202020204040800707F9
:100830000708010110925438549210070707080165
:1008400001101010FE1010100204040803FEC04036
:100850004080040101080204F0020202080300C003
:10086000C0060A0A08010004040810102020408075
:1008700080060A0A080100304884848484848448FD
:1008800030050A0A0802002060A020202020202035
:10089000F8060A0A08010078848404182040808041
:1008A000FC060A0A0801007884840438040484845D
:1008B00078060A0A080100081828488888FC0808F1
:1008C00008060A0A080100FC808080F804040484F9
:1008D00078060A0A08010038408080F884848484FD
:1008E00078060A0A080100FC040408080810101021
:1008F00010060A0A08010078848484788484848439
:1009000078060A0A080100788484847C04040408B8
:1009100070020707080301C0C0000000C0C0020940
:10092000090803FFC0C0000000C04040800509095D
:100930000802000810204080402010080605050825
:100940000102FC000000FC050909080100804020AC
:10095000100810204080060A0A08010078848404E8
:10096000081010001010060A0A080100384494AC60
:10097000A4A4A49C403C060A0A080100304848840C
:1009800084FC84848484060A0A080100F884848430
:10099000F884848484F8060A0A0801007884848034
:1009A000808080848478060A0A080100F0888484A4
:1009B0008484848488F0060A0A080100FC80808010
:1009C000F880808080FC060A0A080100FC80808094
:1009D000F88080808080060A0A080100788484807C
:1009E000809C84848C74060A0A08010084848484B0
:1009F000FC8484848484050A0A080200F8202020EC
:100A00002020202020F8070A0A0801003E080808D4
:100A1000080808888870060A0A080100848890A0DF
:100A2000C0C0A0908884060A0A08010080808080E7
:100A30008080808080FC060A0A0801008484CCCC77
:100A4000B4B484848484060A0A08010084C4C4A45B
:100A5000A494948C8C84060A0A0801007884848407
:100A6000848484848478060A0A080100F8848484D3
:100A7000F88080808080070B0B0801FF78848484D5
:100A8000848484B4CC7806060A0A080100F88484B9
:100A900084F89088888484060A0A0801007884848F
:100AA00080601804848478070A0A080100FE101088
:100AB00010101010101010060A0A08010084848417
:100AC00084848484848478070A0A080100828282EC
:100AD00044444428281010060A0A0801008484842B
:100AE00084B4B4CCCC8484060A0A08010084844807
:100AF00048303048488484070A0A0801008282444A
:100B000044281010101010060A0A080100FC040402
:100B1000081020408080FC030C0C0804FFE080805B
:100B20008080808080808080E0060A0A0801008042
:100B3000804020201010080404030C0C0801FFE082
:100B400020202020202020202020E0060303080170
:100B5000093048840701010801FFFE03030308026E
:100B60000A8040200608080801007884047C8484F8
:100B70008C74060B0B080100808080B8C4848484C8
:100B800084C4B806080808010078848080808084C6
:100B900078060B0B080100040404748C848484849C
:100BA0008C74060808080100788484FC80808478AE
:100BB000050B0B08010018202020F8202020202001
:100BC00020060B0B0801FE04748888887040788426
:100BD0008478060B0B080100808080B8C48484846C
:100BE000848484050B0B0802002020006020202054
:100BF000202020F8050D0D0801FE0808001808083F
:100C000008080808089060060B0B08010080808027
:100C10008890A0C0A0908884050B0B08020060207B
:100C20002020202020202020F8070808080100ECC0
:100C300092929292929292060808080100B8C48497
:100C40008484848484060808080100788484848469
:100C5000848478060A0A0801FEB8C484848484C4A3
:100C6000B88080060A0A0801FE748C848484848C0F
:100C7000740404060808080100B8C48480808080D9
:100C800080060808080100788480601804847805CC
:100C90000A0A080100202020F82020202020180621
:100CA00008080801008484848484848C74060808FD
:100CB0000801008484844848483030070808080147
:100CC00000829292929292926C0608080801008427
:100CD00084483030488484060A0A0801FE848484EB
:100CE00084844C34040478060808080100FC0408D5
:100CF00010204080FC030C0C0803FF608080404003
:100D000080804040808060010E0E0804FE8080805C
:100D10008080808080808080808080030C0C08022E
:100D2000FFC020204040202040402020C007030377
:100D300008010862928C1010201000FEAAAA00017F
:100D400080000001800073D1CA104BD1CA1073DF3C
:100D50008000000180000001800055551010201017
:100D600000FEAAAA0001800000018000719DCA5205
:100D700073D3C252425D80000001800000018000F8
:100D800055551010201000FEAAAA00018000000195
:100D90008000499DCA527A5DCA5049918000000185
:100DA00080000001800055551010201000FEAAAAF6
:100DB00000018000000180007393CA52739FCA1221
:100DC0007213800000018000000180005555101052
:100DD000201000FEAAAA00018000000180004B93B1
:100DE000EA525B9FCA524B938000000180000001D1
:100DF000800055551010201000FEAAAA00018000A6
:100E00000001800074B9A6A425A5A4A474B980002B
:100E1000000180000001800055551010201000FED8
:100E2000AAAA00018000000180004BD1EA105BD12A
:100E3000CA104BDF80000001800000018000555582
:100E40001010201000FEAAAA0001800000018000FE
:100E500039CDC212319F8852739380000001800007
:100E60000001800055551010201000FEAAAA0001B4
:100E700080000001800079CDC212799FC0527B931F
:100E800080000001800000018000555510102010E6
:100E900000FEAAAA00018000000180004B9DC9202D
:100EA0007919C904493980000001800000018000DF
:100EB00055551010201000FEAAAA00018000000164
:100EC000800025DDA4843C85A48424998000000151
:100ED00080000001800055551010201000FEAAAAC5
:100EE000000180000001800045CDC4904489A884A1
:100EF00010998000000180000001800055551010FD
:100F0000201000FEAAAA0001800000018000721DCE
:100F1000CA127213C21243DD80000001800000017A
:100F2000800055551010201000FEAAAA0001800074
:100F3000000180007213CA127213C21243CD8000E6
:100F4000000180000001800055551010201000FEA7
:100F5000AAAA00018000000180000E2189200E2134
:100F60008A20092180000001800000018000555581
:100F70001010201000FEAAAA0001800000018000CD
:100F800039DDC202318D8850739F800000018000DE
:100F90000001800055551010201000FEAAAA000183
:100FA00080000001800039DDC202318D8842739DCE
:100FB00080000001800000018000555510102010B5
:100FC00000FEAAAA000180000001800071CFCA10B3
:100FD0004A0DCA0271DD800000018000000180001E
:100FE00055551010201000FEAAAA00018000000133
:100FF00080007245CA4C7245C244418F8000000196
:1010000080000001800055551010201000FEAAAA93
:101010000001800000018000725DCA42724DC25022
:10102000419F800000018000000180005555101094
:10103000201000FEAAAA00018000000180003B9D54
:10104000C12031198904713980000001800000013C
:10105000800055551010201000FEAAAA0001800043
:101060000001800039D3C212421FC21239D380005E
:10107000000180000001800055551010201000FE76
:10108000AAAA00018000000180002289B6882AA94E
:10109000A2D82289800000018000000180005555FF
:1010A0001010201000FEAAAA00018000000180009C
:1010B0003B8DC252339F8A12721380000001800060
:1010C0000001800055551010201000FEAAAA000152
:1010D0008000000180007B8DC2527B9FC2127A1378
:1010E0008000000180000001800055551010201084
:1010F00000FEAAAA0001800000018000398FC250C2
:10110000324D8A42719D8000000180000001800004
:1011100055551010201000FEAAAA00018000000101
:101120008000339BC42225A394A2639B800000010E
:1011300080000001800055551010201000FEAAAA62
:10114000000180000001800039DDC20832098A08F0
:1011500071DD8000000180000001800055551010F5
:10116000201000FEAAAA000180000001800039DDE5
:10117000C2084189C0483B9D8000000180000001F9
:10118000800055551010201000FEAAAA0001800012
:10119000000180000EF990200C2182201C2180008B
:1011A000000180000001800055551010201000FE45
:1011B000AAAA000180000001800031CFCA10499125
:1011C000C850338F80000001800000018000555519
:1011D0001010201000FEAAAA00018000000180006B
:1011E0001C8992D81CA99088108980000001800079
:1011F0000001800055551010201000FEAAAA000121
:10120000800000018000338FCA507B91CA104A0FC2
:10121000800000018000000180005555000000089A
:10122000000E010A0A08040080800080808080800F
:101230008080070A0A08010010107C929090927C2E
:101240001010070A0A0801001C202020F820202086
:101250007CC2060808080101844878484878488418
:10126000070A0A08010082442810FE10FE10101020
:10127000010A0A080400808080800000808080804D
:10128000060A0A08010078848078848478048478C7
:1012900004020208020C9090080A0A0800003C426E
:1012A00099A5A1A1A599423C050707080205700868
:1012B00078887800F8060909080100242448489035
:1012C00048482424060404080100FC040404101007
:1012D000201000FEAAAA000180003A63C25433C95C
:1012E0008A48724980000001800003C1800000012B
:1012F00080005555080A0A0800003C42B9A5A5B966
:10130000A9A5423C06010108010BFC0304040802E4
:101310000A40A0A040070909080101101010FE10A2
:10132000101000FE0507070802057088087080800D
:10133000F80507070802057088087008887003031D
:101340000308030A204080080A0A0800FE424242BD
:1013500042424266594080060C0C0801FF7CF4F4BE
:10136000F4F47414141414141C020202080304C0CC
:10137000C00302020802FE20C0030707080205207E
:1013800060A02020202005070708020570888888B3
:101390007000F80609090801009090484824484860
:1013A0009090060A0A08010044C4485050242C5466
:1013B0009C84060A0A08010044C44850502834445A
:1013C000889C060A0A080100C4244830D0242C5402
:1013D0009C84060A0A080100101000101060848422
:1013E0008478060E0E08010060180000304848841A
:1013F00084FC84848484060E0E08010018600000BA
:101400003048488484FC84848484060E0E080100DD
:10141000304800003048488484FC84848484060E6C
:101420000E080100649800003048488484FC8484DD
:101430008484060E0E0801004848000030484884A5
:1014400084FC84848484060E0E0801003048300039
:101450003048488484FC84848484070A0A08010094
:101460003E509090FE909090909E060C0C0801FECD
:10147000788484808080808484781060060E0E08D2
:10148000010060180000FC808080F880808080FC73
:10149000060E0E08010018600000FC808080F880B5
:1014A000808080FC060E0E08010030480000FC80A1
:1014B0008080F880808080FC060E0E08010048487D
:1014C0000000FC808080F880808080FC050E0E0883
:1014D000020060180000F82020202020202020F8A2
:1014E000050E0E08020030C00000F8202020202049
:1014F000202020F8050E0E08020060900000F82061
:1015000020202020202020F8050E0E0802009090B8
:101510000000F82020202020202020F8070A0A08B8
:10152000000078444242F24242424478060E0E08DD
:1015300001006498000084C4C4A4A494948C8C8496
:10154000060E0E08010060180000788484848484EC
:1015500084848478060E0E080100186000007884E8
:101560008484848484848478060E0E0801003048C4
:10157000000078848484848484848478060E0E0831
:10158000010064980000788484848484848484784E
:10159000060E0E0801004848000078848484848484
:1015A000848484780605050801028448304884064E
:1015B0000C0C0801FF0474888C9494A4A4C444B84F
:1015C00080060E0E08010060180000848484848464
:1015D0008484848478060E0E08010018600000845C
:1015E000848484848484848478060E0E0801003008
:1015F00048000084848484848484848478060E0E65
:10160000080100484800008484848484848484849D
:1016100078070E0E080100186000008282444428FA
:101620001010101010060B0B0801008080F0888449
:101630008488F0808080060A0A08010070888890FB
:10164000B0888484A498060C0C080100601800007F
:101650007884047C84848C74060C0C080100186067
:1016600000007884047C84848C74060C0C080100CF
:10167000304800007884047C84848C74060C0C0848
:101680000100649800007884047C84848C74060CC7
:101690000C080100484800007884047C84848C7421
:1016A000060D0D08010030483000007884047C8469
:1016B000848C740708080801007C92127E90909236
:1016C0007C060A0A0801FE78848080808084781075
:1016D00060060C0C08010060180000788484FC800F
:1016E000808478060C0C080100186000007884845F
:1016F000FC80808478060C0C0801003048000078DB
:101700008484FC80808478060C0C08010048480022
:1017100000788484FC80808478050C0C080200C06A
:1017200030000060202020202020F8050C0C08024A
:101730000030C0000060202020202020F8050C0C84
:101740000802006090000060202020202020F80582
:101750000C0C080200909000006020202020202027
:10176000F8060C0C08010064182844047C84848466
:10177000848478060C0C08010064980000B8C484C6
:101780008484848484060C0C0801006018000078AE
:1017900084848484848478060C0C0801001860001A
:1017A000007884848484848478060C0C08010030DA
:1017B0004800007884848484848478060C0C0801B2
:1017C00000649800007884848484848478060C0CF7
:1017D0000801004848000078848484848484780662
:1017E0000707080101300000FC000030060A0A0863
:1017F00001FF04788C9494A4A4C47880060C0C088F
:101800000100601800008484848484848C74060C35
:101810000C080100186000008484848484848C7423
:10182000060C0C0801003048000084848484848401
:101830008C74060C0C0801004848000084848484E1
:1018400084848C74060E0E0801FE186000008484E7
:101850008484844C34040478050C0C0802FE8080D7
:10186000F088888890A0C0808080060E0E0801FE57
:101870004848000084848484844C34040478F2163C
:1018800011241FBECFEFD1E2DEBFCDBF00E00CBF01
:1018900012E0A0E0B2E0ECEAF2E400E00BBF02C02C
:1018A00007900D92A835B107D9F724E0A8E5B2E07A
:1018B00001C01D92A43BB207E1F71CE0C0E4DCE0EC
:1018C00000E006C021970109802FFE010E94172128
:1018D000CF33D10780E00807A9F70E940D180C94B8
:1018E00054210C940000089580E0089596E0899FAB
:1018F000D0011124A95FBB4F90967C936E935F97A4
:1019000091E091969C939197E0917404F091750405
:1019100090917304992339F0309751F0811108C0E8
:10192000809123041994309719F05C968C91FACF2A
:1019300008958150823108F05AC0E82FF0E08827DE
:10194000EB55F34F8F4F0C941721C50CC90CB70CF6
:10195000BD0CC10CF70CCC0CD20CD60CDC0CE00C82
:10196000E40CEA0CEE0CF70CF20CF80CFC0C809179
:1019700080008F77809380000895809180008F7D14
:10198000F9CF80918000877FF5CF84B58F7784BDB4
:10199000089584B58F7DFBCF8091B0008F778093C1
:1019A000B00008958091B0008F7DF9CF80919000B4
:1019B0008F77809390000895809190008F7DF9CF6C
:1019C00080919000877FF5CF8091A0008F778093E2
:1019D000A00008958091A0008F7DF9CF8091A00094
:1019E000877FF5CF809120018F7780932001089524
:1019F000809120018F7DF9CF80912001877FF5CFE5
:101A0000CF93DF93282F30E0F901E757FD4F849102
:101A1000F901ED5BFD4FD491F901E350FE4FC49104
:101A2000CC23A1F081110E94990CEC2FF0E0EE0F75
:101A3000FF1FED51FE4FA591B491EC91ED2381E094
:101A400090E009F480E0DF91CF91089580E090E08C
:101A5000FACF1F93CF93DF93282F30E0F901E75798
:101A6000FD4F8491F901ED5BFD4FD491F901E350F5
:101A7000FE4FC491CC23A9F0162F81110E94990C1E
:101A8000EC2FF0E0EE0FFF1FE753FE4FA591B4914E
:101A90008FB7F894EC91111108C0D095DE23DC9338
:101AA0008FBFDF91CF911F910895DE2BF8CFCF9399
:101AB000DF9390E0FC01ED5BFD4F249183509E4F3E
:101AC000FC0184918823C9F090E0880F991FFC01E4
:101AD000E155FE4FA591B491FC01E753FE4FC5912E
:101AE000D49161110DC09FB7F8948C9120958223F9
:101AF0008C938881282328839FBFDF91CF910895FD
:101B0000623051F49FB7F8943C91822F80958323E3
:101B10008C93E8812E2BEFCF8FB7F894EC912E2B7E
:101B20002C938FBFEACF3FB7F8948091DB0390915D
:101B3000DC03A091DD03B091DE0326B5A89B05C0B0
:101B40002F3F19F00196A11DB11D3FBFBA2FA92F3C
:101B5000982F8827BC01CD01620F711D811D911D39
:101B600042E0660F771F881F991F4A95D1F70895A5
:101B70002FB7F8946091D7037091D8038091D9035F
:101B80009091DA032FBF08950F931F93CF93DF93A4
:101B9000C82FD62F86E0C89FF0011124E95FFB4FC4
:101BA00011A2878D90A181309105F1F058F082301B
:101BB0009105F1F1039709F440C0DF91CF911F9196
:101BC0000F9108956623C9F361E070E08C2F0E94A5
:101BD000760C0E94B80D60935F047093600480934C
:101BE000610490936204E9CF0E94B80D00915F04F4
:101BF000109160042091610430916204AB01BC013A
:101C0000401B510B620B730B809171049091720415
:101C1000B0E0A0E084179507A607B70748F462E094
:101C200070E08C2FDF91CF911F910F910C94760C67
:101C300063E070E0D111C1CFF4CF70E060E0F1CF8C
:101C4000862F642F0C94570D862F642F0C94290D2A
:101C5000862F0C94000D0895CF93DF93AC01E09193
:101C60008903F0918A033097F1F090918803809175
:101C700087039817C0F090E0292F30E02617370728
:101C800054F4D901AF50BD4F240F351FE90128810D
:101C90002C939F5FF1CF1092880360938703CB0151
:101CA000DF91CF911994DF91CF910895909108021F
:101CB00089130DC0EEEAF1E0E4919FEF90930802E2
:101CC000E230E1F038F4EE2381F0E13089F060E0B9
:101CD0000C94290DE43049F110F1E530C1F79091F1
:101CE00073009D7F90937300F2CF10926E00EFCF40
:101CF00090916F009D7F90936F00E9CF909170005D
:101D00009D7F9093700091E09093B0009091B1000E
:101D1000987F94609093B1001092B300D8CF9091C7
:101D200071009D7F90937100D2CF909172009D7F42
:101D300090937200CCCFAF92BF92CF92DF92EF928E
:101D4000FF920F931F93CF93DF936C017B018B0165
:101D5000040F151FEB015E01AE18BF08C017D107B5
:101D600059F06991D601ED91FC910190F081E02D3F
:101D7000C6011995892B79F7C501DF91CF911F9184
:101D80000F91FF90EF90DF90CF90BF90AF900895AC
:101D900020913703260F3327331F21323105ECF40E
:101DA00020915B03FC0190E080E0243069F082E048
:101DB0000895A09137032191AC01495E5C4FA40FB7
:101DC000B52FB11D2C930196861798F38091370398
:101DD000680F6093370380E0089581E008951092C2
:101DE0005B0381E080935D0310925C0361E084E11A
:101DF0000E94290D61E085E10E94290DE9EBF0E0E8
:101E000080818E7F808380818D7F808388E4809332
:101E1000B80085E48093BC0008950895E09188039C
:101E200080918703E81730F4F0E0EF50FD4F808198
:101E300090E008958FEF9FEF08959091880380912F
:101E400087032FEF3FEF981748F4E92FF0E0EF50AA
:101E5000FD4F208130E09F5F90938803C901089572
:101E60008091870390918803891B990B0895CF93E4
:101E7000DF93CB01EA01642F0E94C80ECE01DF91EF
:101E8000CF910895CF93DF931F92CDB7DEB76983CB
:101E900061E0CE0101960E94C80E81E090E00F90B3
:101EA000DF91CF910895DC011696ED91FC91179783
:101EB00012968C91481B477081E090E001C0880F1A
:101EC0004A95EAF7E60FF11D3081222319F0832BA2
:101ED0008083089580958323FBCFFB014181DC0142
:101EE00012962C911297421768F013962C91139723
:101EF000241740F0608115962C91621718F4248104
:101F00000C94530F0895FC0180819281980F928365
:101F10002181921760F494819F5F94839381890F4C
:101F2000821710F08FEF820F838381E0089580E0A5
:101F30000895FC0112828081815083831482089568
:101F4000DB01ED91FC9119940F931F93CF93DF93D5
:101F50001F92CDB7DEB700917C0410917D04E09113
:101F6000AB04F091AC0482E0199530E020E04AE047
:101F7000B8018AE794E00E94A00F182FE091AB040B
:101F8000F091AC0483E01995E091AB04F091AC04BE
:101F900080E019951123B9F160917C0470917D0462
:101FA0009E012F5F3F4F46E48AE794E00E94A00F16
:101FB000898180937A0460917C0470917D049E01F4
:101FC0002F5F3F4F47E48AE794E00E94A00F89818A
:101FD00080937B0460917C0470917D0430E020E06C
:101FE00048E48AE794E00E94A00F80938504609102
:101FF0007C0470917D042DEA34E047E18AE794E0A7
:102000000E94A00F11E0812F0F90DF91CF911F91BF
:102010000F9108950B96FC01849108950A96FC0196
:1020200084910895FC01849108950E9412108823E0
:1020300021F0823011F083E0089586E00895FC01DC
:10204000E60FF11D849190E0982F88273196E49156
:102050008E0F911D089568E00C941F1066E00C949B
:102060001F105F926F927F928F929F92AF92BF925A
:10207000CF92DF92EF92FF920F931F93CF93DF9354
:10208000EC01E62EF42EC22E0C811D81C8010E94A7
:102090001210D82E8C819D810E941510982E21E05F
:1020A000AA24AA94D21202C02FE0A22E8C819D8174
:1020B0000E940E10D82E8C819D810E940A10B82E8D
:1020C0008C819D810E942B10E0E6EC1578F400973E
:1020D00069F0080F191F91E6D92EBC14C0F4188AB4
:1020E0001B8A1C8A198A1A8A80E0A0C08C819D8173
:1020F0000E942E10F0E4FC1538F4009729F0080F28
:10210000191F81E4D82EE9CF0F5E1F4FE6CFBD1413
:1021100030F3892D90E0F80124912F3F31F40F5FC7
:102120001F4FBD14E1F2D394F6CFCD1072C08C8155
:102130009D810E94121098012F5F3F4FF801882364
:1021400019F0823009F04EC084918B8BF9012491F3
:102150002C8BF8013396E491E88BF8013496E491E6
:10216000E98BF8013596E491EA8B0115110509F424
:10217000BBCF8C819D810E9415103C89F31A9A89EE
:10218000F91A9FEF930F9F0D2CA94EA94F1508F434
:1021900049C0921718F49F1508F047C02B899989F8
:1021A000E90E9FEF920F9E0D4BA95DA95E1508F4F5
:1021B0004DC0941718F49E1508F037C0080F111D74
:1021C000295F722E7694769476946F2C630E5E015E
:1021D000FCE1AF0EB11C872C912CF61431F15E2C72
:1021E00068014AC08491982F9F7092509A8B829573
:1021F0008F70898BF9012491822F8F708C8B22959F
:102200002F702B8BF8013296E491E295EF70E88BFA
:10221000ACCF3296E491EA21E80FF92FF11D0E0FB1
:102220001F1F7FCF921708F0B6CF8889DF91CF911B
:102230001F910F91FF90EF90DF90CF90BF90AF90E4
:102240009F908F907F906F905F900895941708F003
:10225000B2CFEBCFF60184916A817B815C8EFD8EDB
:102260001F8E8E8F95014BE3CE010E94A00FFFEFD2
:10227000CF1ADF0A28E0520E8C2D801B871550F3F1
:10228000080D191DF394A9CF2EE93FE0009709F43A
:102290000895F9013197F1F70197F8CF90E0FC012B
:1022A000EE0FFF1FEF51FD4F0190F081E02D87529F
:1022B0009D4FDC018C919081662319F0892B8083DE
:1022C000089580958923FBCF860F911DFC0183A182
:1022D0008F3F19F0642F0C94290D08950F931F93CD
:1022E000CF938C01C62F8FB78093D802F89461707A
:1022F00080E00E944E11C1FB662760F981E00E94D8
:102300004E11C2FB662760F982E00E944E11C3FBAA
:10231000662760F983E00E944E11C4FB662760F9CE
:1023200084E00E944E11C5FB662760F985E00E949B
:102330004E11C6FB662760F986E00E944E116C2F95
:10234000661F6627661F87E00E944E118091D802A3
:102350008FBF41E064E0C8010E94641184E090E016
:102360000197F1F740E064E0C8010E94641188E23F
:1023700090E0FC013197F1F70197F1F7CF911F91B0
:102380000F910895EF92FF921F93CF93DF93EC018B
:10239000142F79016150673008F0E8C0E62FF0E0B3
:1023A0008827EA52FE4E8F4F0C941721DD11F2124E
:1023B000BD12F412D712E312EF1288A590E0FC01CF
:1023C000E350FE4FE491F0E0EE0FFF1FE753FE4FA6
:1023D000259134913093E2022093E102FC01ED5B00
:1023E000FD4FE491E093D90289A590E0FC01E35010
:1023F000FE4FE491F0E0EE0FFF1FE753FE4F2591F3
:1024000034913093E4022093E302FC01ED5BFD4F35
:10241000E491E093DA028AA590E0FC01E350FE4FDC
:10242000E491F0E0EE0FFF1FE753FE4F259134914A
:102430003093E6022093E502FC01ED5BFD4FE49151
:10244000E093DB028BA590E0FC01E350FE4FE491AA
:10245000F0E0EE0FFF1FE753FE4F259134913093CC
:10246000E8022093E702FC01ED5BFD4FE491E0936D
:10247000DC028CA590E0FC01E350FE4FE491F0E01B
:10248000EE0FFF1FE753FE4F259134913093EA0280
:102490002093E902FC01ED5BFD4FE491E093DD0246
:1024A0008DA590E0FC01E350FE4FE491F0E0EE0FCB
:1024B000FF1FE753FE4F259134913093EC02209398
:1024C000EB02FC01ED5BFD4FE491E093DE028EA593
:1024D00090E0FC01E350FE4FE491F0E0EE0FFF1FAF
:1024E000E753FE4F259134913093EE022093ED0295
:1024F000FC01ED5BFD4FE491E093DF028FA590E0DE
:10250000FC01E350FE4FE491F0E0EE0FFF1FE753B4
:10251000FE4F259134913093F0022093EF02FC019D
:10252000ED5BFD4FE491E093E00288A98F3F41F01D
:1025300061E00E94570D40E06DE0CE010E94641101
:102540007E0183E2E80EF11CE096F70181917F01A4
:102550008F3F49F061E00E94570D61E0F70131972C
:1025600080810E94290DCE15DF0579F781E0DF918A
:10257000CF911F91FF90EF90089541E0112319F042
:10258000113059F440E062E0CE010E94641141E054
:1025900063E0CE010E946411E9CF41E0123009F0FE
:1025A00040E062E0CE010E94641140E0F1CF642F70
:1025B000CE010E946E11DACFF70161917F01CE0149
:1025C0000E946E1111501111F7CFD0CFF701649115
:1025D000CE010E946E11FFEFEF1AFF0A1150111188
:1025E000F5CFC4CF61E0D5CF8BA18F3F09F4BECF2B
:1025F00060E0CFCFDB011496ED91FC9130E020E05C
:1026000065E01994DB011496ED91FC9130E020E037
:1026100062E01994DB011496ED91FC9130E020E02A
:1026200063E019949F92AF92BF92CF92DF92EF92A4
:10263000FF920F931F93CF93DF937C018B01942E16
:1026400069018AE0481739F195E1491709F486C014
:10265000F801C281D381F2E39F1609F431C1F91563
:1026600008F4D3C085E1981609F42FC197E19916B3
:1026700009F43BC1A4E19A12F7C0EE81FF818D817C
:102680008E0F9F2F911D11928E179F07E1F7CE019C
:102690000E94990FE9C0DB011496ED91FC9130E0A6
:1026A00020E04FEF61E0C701199580E098E9A92E7D
:1026B00091E0B92EF501C491811110C081E0CF3FA6
:1026C00049F04C2FB801C7010E94FA12882309F47F
:1026D000BFCF80E0BFEFAB1ABB0AECCF4FEFCF3FCD
:1026E00089F3CE3F09F4B4CFC03F98F7C03E38F02D
:1026F0004C2F4F70B801C7010E940213EACFC03DB2
:1027000038F04C2F4F70B801C7010E940A13E1CF77
:10271000C03CF8F0D8011496ED91FC9130E020E037
:1027200040E064E0C7011995C295C07FCE5FD0E05C
:10273000CE010E944411D8011496ED91FC9130E035
:1027400020E041E064E0C7011995CE010E944411E8
:10275000C0CFC7FDBECF8C2F90E0F8CFFB01C28168
:10276000D38140E0C7010E94021342E0B801C701D3
:102770000E940A134C81486BB801C7010E94FA12EB
:1027800040E4B801C7010E94FA1241E0B801C70154
:102790000E9402132E813F81D8011496ED91FC9185
:1027A00040E466E0C701199540E0B801C7010E9406
:1027B0000A1340E0B801C7010E94021341E0B801CA
:1027C000C7010E940A134C81486BB801C7010E94DF
:1027D000FA1240E4B801C7010E94FA1241E0B801C0
:1027E000C7010E9402132E813F81205C3F4FD80118
:1027F0001496ED91FC9140E466E0C701199540E024
:10280000B801C7010E940A1323CFB6E49B1609F44E
:102810007BC0E7E49E1609F47BC0FBE39F1224C053
:10282000D60111969C91119713968C9138E0390F2F
:10283000813031F0833011F0392F02C0392F985098
:1028400021E04B81491708F420E041E0391708F0F6
:1028500040E091E05A81351708F490E0322F342B94
:10286000932379F4242369F481E0DF91CF911F91C0
:102870000F91FF90EF90DF90CF90BF90AF909F901F
:102880000895F601128100E0F12C843048F490E0C4
:10289000FC01E55DFD4FF080895D9D4FDC010C91F1
:1028A00017FF04C0B601CE010E946D0FF6018081B2
:1028B0008F0D80838181800F8183110F89F7D4CFA1
:1028C000B601CE010E946D0FCFCFCE010E94830FC3
:1028D000882359F2EE81FF818D818E0F9F2F911DEC
:1028E00011928E179F07E1F7BFCFD6011C928A8104
:1028F00011968C9311978D81815012968C9312971B
:102900008B8113968C93B0CF8D81F6018083ACCFF1
:102910008981D6018C93A8CF8091870390918803F9
:10292000891B990B02976CF061E086E10E94290DEA
:102930008FED93E00E941D0F9093AC038093AB0347
:10294000EBCF0895DF92EF92FF920F931F93CF93F7
:10295000DF93EC01D62E1CAD0BAD7C0184E0E80EBC
:10296000F11CE98DFA8DC7011995412F480F2D2DC6
:10297000602FC7010E9431109BAD890F8BAF81E0A2
:1029800090E0DF91CF911F910F91FF90EF90DF903A
:102990000895089590E080E00895CF93DF9385ED4A
:1029A0008093BC008091130390911403A0911503B0
:1029B000B09116030796A11DB11D23E0B695A7950A
:1029C000979587952A95D1F72091BC0024FD03C0E7
:1029D00010925B0336C04091130350911403609131
:1029E000150370911603452B462B472B69F300976F
:1029F000A105B10541F02AE22A95F1F700C001973F
:102A0000A109B109E1CF8091120391E090931103E4
:102A10008823B9F0C091B800D091BA008091BC0071
:102A20008A7B8093BC0060E084E10E94290D60E015
:102A300085E10E94290D0E94EF0ED093BA00C09349
:102A4000B800DF91CF9108951F920F920FB60F92A9
:102A500011242F933F938F939F93AF93BF938091B4
:102A6000D7039091D803A091D903B091DA033091A4
:102A7000D60323E0230F2D3758F50196A11DB11D74
:102A80002093D6038093D7039093D803A093D903C0
:102A9000B093DA038091DB039091DC03A091DD0316
:102AA000B091DE030196A11DB11D8093DB039093CD
:102AB000DC03A093DD03B093DE03BF91AF919F9140
:102AC0008F913F912F910F900FBE0F901F901895EF
:102AD00026E8230F0296A11DB11DD2CF1F920F929F
:102AE0000FB60F9211240BB60F922F933F934F9373
:102AF0005F936F937F938F939F93AF93BF93EF9366
:102B0000FF9380919F039091A003A091A103B091A6
:102B1000A203892B8A2B8B2BE1F190918E03E091FC
:102B20008F03F091900380818927808380919F0398
:102B30009091A003A091A103B091A20318161906C9
:102B40001A061B069CF480919F039091A003A0910C
:102B5000A103B091A2030197A109B10980939F033A
:102B60009093A003A093A103B093A203FF91EF91D0
:102B7000BF91AF919F918F917F916F915F914F9195
:102B80003F912F910F900BBE0F900FBE0F901F9093
:102B90001895809108020E94560EE8CF1F920F925E
:102BA0000FB60F9211240BB60F922F933F934F93B2
:102BB0005F936F937F938F939F93AF93BF93EF93A5
:102BC000FF938091B900887F803609F44DC008F0EA
:102BD00040C0883209F4A9C028F5803109F49DC0AD
:102BE000C8F4882309F4FBC0883009F496C0FF912B
:102BF000EF91BF91AF919F918F917F916F915F9175
:102C00004F913F912F910F900BBE0F900FBE0F90E1
:102C10001F901895883109F488C0803241F780935D
:102C20005A0314C0803409F49DC040F48033B9F3D2
:102C30008833E9F680935A0385ECB0C0803509F4F7
:102C400085C0883509F496C0883489F60E94CD1471
:102C5000CECF883909F48CC038F5883729F050F484
:102C6000883611F0803719F683E080935B03109269
:102C7000590357C0883809F47BC0803919F080386F
:102C800009F0B5CF80915903803208F071C0E0910E
:102C9000590381E08E0F809359038091BB00F0E0CF
:102CA000E75CFC4F80833DC0803B39F0E0F4803A24
:102CB00009F479C0883A09F09ACF84E080935B03E5
:102CC0001092380310923703E0918303F09184034C
:102CD00019958091370381110FC081E080933703EC
:102CE0001092170309C0803C09F4A6CF883C09F470
:102CF000A3CF883B09F07BCFE091380381E08E0FB2
:102D000080933803F0E0E95EFC4F80818093BB0044
:102D1000909138038091370329C08091800380937C
:102D2000BB0085EC8093BC0062CF90917F038091C3
:102D30007E03981758F5E0917F0381E08E0F809312
:102D40007F03F0E0E25AFC4F8081E9CFE0917F03FE
:102D500081E08E0F80937F038091BB00F0E0E25A08
:102D6000FC4F808390917F0380917E039817C8F277
:102D700085E8D8CFE0917F0381E08E0F80937F03B9
:102D80008091BB00F0E0E25AFC4F808380915D03AC
:102D900081115CCF81E080935C0384EA8093BC0066
:102DA00010925B0324CF85EC8093BC0010925B03F0
:102DB00080915903803230F4E0915903F0E0E75CF0
:102DC000FC4F10826091590370E0E0918103F09113
:102DD000820389E393E019951092590308CF10926A
:102DE0005A0334CF1092E2031092E10388EE93E08D
:102DF000A0E0B0E08093E3039093E403A093E503A5
:102E0000B093E60383E392E09093E0038093DF03C3
:102E100010927904109278048FE492E090937704F2
:102E2000809376041092B1041092B2041092B3040D
:102E300010927F0410927E041092810410928004FC
:102E40001092830481E08093820482E28093840460
:102E50001092890410928804EDE9F4E08FEF8193D9
:102E600094E0EB3AF907D9F791E090939A0424E7BC
:102E70003CE03093900420938F049093910410923F
:102E800092041092930490E4909394041092950409
:102E900023E73CE03093AC042093AB0429E032E01C
:102EA00030937D0420937C0498E09093A20499E0F1
:102EB0009093A3049AE09093A4049BE09093A504BC
:102EC00094E09093A60495E09093A70496E09093E5
:102ED000A80497E09093A9049AE39093A10496E341
:102EE00090939F0497E39093A00499E390939E049A
:102EF00098E39093AA0480939D040E94A40F8FE40A
:102F000092E09093770480937604109209041092D3
:102F10000D0410920C0410920E0485E492E090933C
:102F2000080480930704E3E2F4E08FE594E0108264
:102F300014821382158236968E179F07C1F783E19C
:102F400092E090936A04809369048FE092E09093FA
:102F50006C0480936B0484E080936D0480936E0412
:102F600087E192E090936804809367048AE090E0A0
:102F70009093700480936F0484EF91E090937204B7
:102F8000809371041092750410927404109263047B
:102F900010926404109265041092660410927304F7
:102FA00082E190E09093EC038093EB031092EE03A8
:102FB0001092ED031092EF031092F0031092F103C0
:102FC0001092F2031092F3031092F4031092F5039F
:102FD0001092F6031092F7031092F8031092F9037F
:102FE0001092FA031092FC031092FB031092FE035E
:102FF0001092FD03109200041092FF03109202043D
:10300000109201041092030410920404109205041B
:103010001092060461E00C94570DCF93DF9300D01B
:103020001F921F92CDB7DEB7789484B5826084BDBD
:1030300084B5816084BD85B5826085BD85B58160BC
:1030400085BD80916E00816080936E00109281003A
:1030500080918100826080938100809181008160F5
:1030600080938100809180008160809380008091B6
:10307000B10084608093B1008091B0008160809342
:10308000B0008091910082608093910080919100C6
:103090008160809391008091900081608093900086
:1030A0008091A10082608093A1008091A100816045
:1030B0008093A1008091A00081608093A000809106
:1030C00021018260809321018091210181608093A0
:1030D00021018091200181608093200180917A00FC
:1030E000846080937A0080917A00826080937A0075
:1030F00080917A00816080937A0080917A00806864
:1031000080937A001092C10081E08093B3040E9402
:10311000A40F61E086E10E94570D61E087E10E9403
:10312000570D61E088E10E94570D61E082E10E9445
:10313000570D109288031092870310928603109205
:1031400085030E94EF0E8BE29EE0909384038093B0
:1031500083038CE29EE0909382038093810384E159
:103160008093BA008CE894E190938A03809389035A
:1031700080918504883209F07DC08FEF80939A0496
:1031800061E08DE00E94570D61E08DE00E94290D05
:103190008091ED039091EE038230910509F47AC09D
:1031A0008330910509F498C0019781F50E94B80D0C
:1031B0000091F7031091F8032091F9033091FA037D
:1031C000601B710B820B930B0091EF031091F003C6
:1031D0002091F1033091F203601771078207930782
:1031E000A8F082E090E09093EE038093ED030E94BC
:1031F000B80D6093F7037093F8038093F9039093ED
:10320000FA0361E08091EB030E94290D81E0809335
:1032100073040E94B80D009163041091640420911E
:10322000650430916604AB01BC01401B510B620B7D
:10323000730B80916F0490917004B0E0A0E084174C
:103240009507A607B70708F03CC6198280916D0460
:10325000A981A81708F0E2C3E0916904F0916A041B
:10326000EA0FF11D62E080810E94570DB981BF5FB6
:10327000B983ECCF823011F483E080CF813009F440
:103280007DCF803309F07CCF8FEF80939A048093B9
:103290009B0476CF0E94B80D0091F7031091F803BC
:1032A0002091F9033091FA03601B710B820B930B91
:1032B0000091F3031091F4032091F5033091F6038C
:1032C000601771078207930708F4A0CF1092EE03EE
:1032D0001092ED0360E096CF20910104309102043A
:1032E0008091FF0390910004281739070CF08DC3DB
:1032F0008091030490910404A0910504B091060408
:10330000892B8A2B8B2B09F048C0EEEAF1E0220FC3
:10331000331FA091FD03B091FE03A20FB31F6D9167
:103320007C9188EE93E00E94C2208B012B01770FE5
:10333000660877088091FB039091FC03280F391FE2
:10334000D9012D903C908091EB039091EC0320915A
:103350000802281354C0B491BD83B7FFB3C0C301A2
:10336000B2010E94C91F26E636E646EA5FE30E94E4
:103370002D200E94981F609303047093040480938F
:103380000504909306040E94B80D6093F7037093B0
:10339000F8038093F9039093FA030E94B80D00910B
:1033A000F7031091F8032091F9033091FA03601BA1
:1033B000710B820B930B0091030410910404209174
:1033C000050430910604601771078207930708F41B
:1033D0001DCF8091EB030E94560E109203041092B1
:1033E0000404109205041092060480910104909147
:1033F00002040196909302048093010407CF2F3FAB
:1034000009F0ADCF8093080224912D832F3F09F45A
:10341000A6CF223009F434C160F4222309F436C067
:10342000213009F409C127FD9ACF61E00E94570DB0
:103430004FC03D81343009F46DC1243008F446C1D9
:10344000253089F71092200110922101209121014D
:1034500028602093210120912101216020932101E6
:103460009C013327F901E350FE4FE491F0E0EE0FA9
:10347000FF1FE753FE4F45915491F901ED5BFD4F5E
:10348000E491E0938B03F5E0FD831CC014BC15BCF4
:1034900024B5226024BD25B5216025BD9C013327BC
:1034A000F901E350FE4FE491F0E0EE0FFF1FE75308
:1034B000FE4F45915491F901ED5BFD4FE491E0938E
:1034C00092031D8261E00E94570D2D81222321F07D
:1034D0003D81323009F0BFC14101B12CA12C60E027
:1034E00072E18AE790E0A50191010E94F82029830A
:1034F0003A834B835C8369017A0181E0C81AD10861
:10350000E108F1089FEFC916D104E104F10409F0C4
:103510000CF470C160E472E48FE090E0A5019101C9
:103520000E94F82069017A01A1E0CA1AD108E108D5
:10353000F108BD81B23009F011C182E0EFEFCE1683
:10354000D104E104F10409F00CF46FC060E970EDFE
:1035500083E090E0A50191010E94F82069017A01C1
:10356000F1E0CF1AD108E108F10883E02FEFC2168D
:10357000D104E104F10409F00CF457C068E478EEDA
:1035800081E090E0A50191010E94F82069017A0193
:1035900081E0C81AD108E108F10884E09FEFC9165C
:1035A000D104E104F10409F00CF43FC064E274EFCB
:1035B00080E090E0A50194010E94F82069017A0161
:1035C000A1E0CA1AD108E108F10885E03FEFC3166F
:1035D000D104E104F10449F140F162E17AE780E0CD
:1035E00090E0A50194010E94F82069017A01F1E0C0
:1035F000CF1AD108E108F10886E02FEFC216D104F6
:10360000E104F10491F088F0C980DA80EB80FC805D
:103610009AE0F594E794D794C7949A95D1F7E1E0AE
:10362000CE1AD108E108F10887E09091B100987FA7
:10363000892B8093B100E6C0109280001092810027
:1036400020918100286020938100209181002160D9
:10365000209381009C013327F901E350FE4FE49150
:10366000F0E0EE0FFF1FE753FE4F45915491F90133
:10367000ED5BFD4FE491E0939103A1E0AD8322CF98
:103680001092B0001092B1002091B00022602093FF
:10369000B0002091B10021602093B1009C0133273C
:1036A000F901E350FE4FE491F0E0EE0FFF1FE75306
:1036B000FE4F459154915093900340938F03F9012D
:1036C000ED5BFD4FE491E0938E03FCCE10929000F1
:1036D00010929100209191002860209391002091F8
:1036E00091002160209391009C013327F901E35060
:1036F000FE4FE491F0E0EE0FFF1FE753FE4F4591C0
:103700005491F901ED5BFD4FE491E0938D03B3E03B
:10371000BD83D8CE1092A0001092A1002091A100EC
:1037200028602093A1002091A10021602093A10096
:103730009C013327F901E350FE4FE491F0E0EE0FD6
:10374000FF1FE753FE4F45915491F901ED5BFD4F8B
:10375000E491E0938C03E4E0ED83B4CE3FEFC31635
:10376000D104E104F10409F00CF473C068E478EECC
:1037700081E090E0A50191010E94F82069017A01A1
:1037800081E0C81AD108E108F1089D8184E0911117
:103790001DCF83E0EFEFCE16D104E104F10471F107
:1037A0006CF162E17AE780E090E0A50194010E946B
:1037B000F82069017A01A1E0CA1AD108E108F108EC
:1037C00084E0BFEFCB16D104E104F104B9F0B0F00E
:1037D000C980DA80EB80FC808AE0F594E794D79486
:1037E000C7948A95D1F7F1E0CF1AD108E108F10822
:1037F00085E004C081E0BD81B11117CF95B5987FF8
:10380000892B85BD2FEF3FEFA901411451046104BD
:10381000710409F05AC08D81823009F4E6C00CF0C1
:10382000CDC0882309F4D2C0813009F098CDD09260
:103830008900C09288002093A3033093A40340938F
:10384000A5035093A60380916F00826080936F0060
:1038500086CD82E0D0CFB12CA12C60E072E18AE766
:1038600090E0A50191010E94F82069017A01E1E050
:10387000CE1AD108E108F10891E0C114D104F1E0B9
:10388000EF06F10484F068E478EE81E090E0A501B1
:1038900091010E94F82069017A0181E0C81AD108DB
:1038A000E108F10893E0AD81A130E1F4809181005D
:1038B000887F892B809381002FEF3FEFA90141146E
:1038C00051046104710409F4B2CF9101220F331F36
:1038D000D8010E941F2128EE33E040E050E00E9412
:1038E000D62099CFBD81B33001F580919100887FBA
:1038F000892B809391002FEF3FEFA90141145104D0
:103900006104710411F7D0929900C092980020933D
:103910009B0330939C0340939D0350939E0380919F
:1039200071008260809371001ACDED81E43009F559
:103930008091A100887F892B8093A1002FEF3FEF1A
:10394000A901411451046104710409F0BECFD09261
:10395000A900C092A8002093970330939803409346
:10396000990350939A038091720082608093720051
:10397000F6CCFD81F53009F045CF80912101887F9B
:10398000892B809321012FEF3FEFA90141145104AE
:103990006104710409F099CFD0922901C0922801E5
:1039A000209393033093940340939503509396038D
:1039B00080917300826080937300D1CC9D8194309C
:1039C00031F20CF4A0CF953039F3C9CCC7BC2093A9
:1039D000A7033093A8034093A9035093AA038091AF
:1039E0006E00826080936E00BACCC092B3002093C8
:1039F0009F033093A0034093A1035093A2038091AF
:103A00007000826080937000AACC8091EB030E94CA
:103A1000560E1092EE031092ED03F8CBB12C80916C
:103A20006E04B81608F075C00B2D10E0E0916B0421
:103A3000F0916C04E00FF11F61E080810E94570D4E
:103A4000E0916B04F0916C04E00FF11F60E0808165
:103A50000E94290D81E090E0A0E0B0E00B2C04C0B2
:103A6000880F991FAA1FBB1F0A94D2F76C017C0113
:103A7000E094F094A12C80916D04A81698F5EA2D9D
:103A8000F0E0FA83E9838091690490916A049F01D0
:103A9000820F931FDC018C910E94000DE981FA8155
:103AA0003496FA83E983892B61F4EE0FFF1FE95FF7
:103AB000FB4F808191818C299D2991838083A394E0
:103AC000DACF29813A81220F331F295F3B4F3A8396
:103AD0002983D9018D919C9111978E219F218D93DE
:103AE0009C93EDCFE0916B04F0916C04E00FF11F1B
:103AF00061E080810E94290D80916B0490916C049B
:103B0000080F191F60E0F80180810E94570DB394DF
:103B100086CF87E0C82E84E0D82E83E494E0DA8252
:103B2000C982A981BA815F962D913C919097232BF0
:103B300059F45C961C925C97EFEFFFEF5E96FC9356
:103B4000EE935D9791961C9229813A812A5F3F4FAF
:103B50003A8329838217930721F710E006E0B02EFD
:103B600080916D04181708F052C000E0E12EF12C8E
:103B7000EE0CFF1CC701815F9B4F7C0120916E04FE
:103B8000021708F042C0D7016D917C91002E02C04F
:103B9000769567950A94E2F7129F90011124200F01
:103BA000311DE7E0F4E080E0458D568D24173507A0
:103BB00009F4BCC18F5F36968A30B1F760FF23C02D
:103BC000E7E0F4E090E080E0448D411117C0E0911F
:103BD0006704F0916804E20FF31F6081B89EF00162
:103BE000B99EF00D1124E95FFB4F648F368F258F4E
:103BF00010A2178E61E00E94C40D05C00196369692
:103C00008A30910509F70F5FB9CF1F5FA9CF10E088
:103C1000F60181A18111182FF6E0CF0ED11C298168
:103C20003A812C153D05A1F70E94B80D60936304FD
:103C3000709364048093650490936604112309F4DF
:103C400040C180912804882309F43BC18091260457
:103C500090912704019709F034C180912304809347
:103C6000D503811133C18091B304811105C081E076
:103C70008093B3040E94A40F80917C0490917D04F2
:103C80009A838983E091AB04F091AC0482E01995AA
:103C9000E091AB04F091AC0481E0199530E020E0B4
:103CA00044E169817A818AE794E00E94A00F2DEABD
:103CB00034E047E169817A818AE794E00E94A00FAD
:103CC000E091AB04F091AC0480E019950FEC12E0A8
:103CD00054E7E52E5CE0F52E6DED462E62E0562EA3
:103CE0007EED672E72E0772EEFEDCE2EE2E0DE2E37
:103CF000F4EDAF2EF2E0BF2EABED8A2EA2E09A2EAD
:103D000080917E0490917F048F5C924069F11093C2
:103D10007F0400937E04809191048111F0C0F5012D
:103D2000849180939204F401849180939304809110
:103D30009204082E000C990B20919304821B910988
:103D400027FD939520919404203441F0829FC00177
:103D5000112446E0969587954A95E1F7809395045E
:103D6000F0929004E0928F04E0918F04F09190041F
:103D70008AE794E019953FE0232E280E2DEA33E0E0
:103D80003A832983312CA981BA812D91BA83A983E1
:103D90002111C4C0E0918804F0918904309719F092
:103DA0008AE794E01995E0917C04F0917D04FA8310
:103DB000E983E091AB04F091AC0482E01995E091C5
:103DC000AB04F091AC0481E0199530E020E045E1CE
:103DD00069817A818AE794E00E94A00F382E8823B7
:103DE00049F02DEA34E047E169817A818AE794E07D
:103DF0000E94A00FE091AB04F091AC0480E0199513
:103E000031107ECF8091D503882321F11092EF03EA
:103E10001092F0031092F1031092F20380E590E00B
:103E2000A0E0B0E08093F3039093F403A093F50334
:103E3000B093F60381E090E09093EE038093ED035E
:103E40000E94B80D6093F7037093F8038093F90311
:103E50009093FA038091AB039091AC0361E00197DA
:103E600009F060E086E10E94290D0E94930D4B014C
:103E70005C0124E6C22ED12CE12CF12C0E94930D82
:103E8000681979098A099B09683E73408105910583
:103E9000A8F391E0C91AD108E108F108A8EE8A0E4A
:103EA000A3E09A1EA11CB11CC114D104E104F104C9
:103EB00029F780E090E0892B09F46AC90E9400008C
:103EC00067C9109273041092D503CDCE8D3309F4D7
:103ED000CACE833409F4C7CE96ED980F923008F419
:103EE000C2CE93ED980F933008F4BDCE8093C103FA
:103EF00061EC73E08DEA93E00E944921B4CE8130F9
:103F000031F4F301849180939204F6010DCFECED2E
:103F1000F2E0849180939204F20106CF422D632D4A
:103F20008AE794E00E943110380E2DCF617063CE85
:103F30000E940C2088F09F5798F0B92F9927B7510D
:103F4000B0F0E1F0660F771F881F991F1AF0BA953D
:103F5000C9F714C0B13091F00E942620B1E0089555
:103F60000C942620672F782F8827B85F39F0B93F47
:103F7000CCF3869577956795B395D9F73EF49095F0
:103F80008095709561957F4F8F4F9F4F0895E8946E
:103F900009C097FB3EF490958095709561957F4F91
:103FA0008F4F9F4F9923A9F0F92F96E9BB2793953F
:103FB000F695879577956795B795F111F8CFFAF44F
:103FC000BB0F11F460FF1BC06F5F7F4F8F4F9F4F80
:103FD00016C0882311F096E911C0772321F09EE8DE
:103FE000872F762F05C0662371F096E8862F70E044
:103FF00060E02AF09A95660F771F881FDAF7880F1E
:104000009695879597F9089557FD9058440F551F39
:1040100059F05F3F71F04795880F97FB991F61F04A
:104020009F3F79F087950895121613061406551FC1
:10403000F2CF4695F1DF08C0161617061806991F2D
:10404000F1CF86957105610508940895E894BB2722
:1040500066277727CB0197F908950E9440200C949A
:10406000B1200E94A32038F00E94AA2020F09523BE
:1040700011F00C949A200C94A02011240C94272069
:104080000E94042070F3959FC1F3950F50E0551FD7
:10409000629FF001729FBB27F00DB11D639FAA279D
:1040A000F00DB11DAA1F649F6627B00DA11D661FEC
:1040B000829F2227B00DA11D621F739FB00DA11D0D
:1040C000621F839FA00D611D221F749F3327A00DC7
:1040D000611D231F849F600D211D822F762F6A2F63
:1040E00011249F5750409AF0F1F088234AF0EE0FC8
:1040F000FF1FBB1F661F771F881F91505040A9F7F5
:104100009E3F510580F00C949A200C9427205F3F2D
:10411000E4F3983ED4F3869577956795B795F79530
:10412000E7959F5FC1F7FE2B880F911D96958795A8
:1041300097F9089597F99F6780E870E060E0089527
:104140009FEF80EC089500240A94161617061806AF
:104150000906089500240A9412161306140605068B
:104160000895092E0394000C11F4882352F0BB0F1C
:1041700040F4BF2B11F460FF04C06F5F7F4F8F4F7F
:104180009F4F089597FB072E16F4009407D077FDF4
:1041900009D00E94262107FC05D03EF49095819518
:1041A0009F4F0895709561957F4F0895A1E21A2E53
:1041B000AA1BBB1BFD010DC0AA1FBB1FEE1FFF1FCB
:1041C000A217B307E407F50720F0A21BB30BE40B1B
:1041D000F50B661F771F881F991F1A9469F7609562
:1041E0007095809590959B01AC01BD01CF0108951C
:1041F000052E97FB1EF400940E940F2157FD07D057
:104200000E94D62007FC03D04EF40C940F21509549
:104210004095309521953F4F4F4F5F4F08959095B2
:104220008095709561957F4F8F4F9F4F0895EE0F4A
:10423000FF1F881F8BBF0790F691E02D19940E94F5
:104240003A21B7FF0895821B930B0895AA1BBB1B4D
:1042500051E107C0AA1FBB1FA617B70710F0A61B86
:10426000B70B881F991F5A95A9F780959095BC01A7
:10427000CD010895A29FB001B39FC001A39F700D0F
:10428000811D1124911DB29F700D811D1124911D5E
:104290000895FB01DC010D900020E9F711970190D2
:1042A0000D920020E1F70895F894FFCF0840000038
:1042B00000805802FF12130002C2110E0F101100ED
:1042C0000102033738392F3435362A3132332E4341
:1042D000303D2B000100FF0100FF00000000004204
:1042E0000F370FCA140D0F300F1D0F0E0F000000F7
:1042F00000200E240E280E00000000A2149B0ECAFF
:0443000014C91400C8
:020000040003F7
:10E000000D9489F10D94B2F10D94B2F10D94B2F129
:10E010000D94B2F10D94B2F10D94B2F10D94B2F1F0
:10E020000D94B2F10D94B2F10D94B2F10D94B2F1E0
:10E030000D94B2F10D94B2F10D94B2F10D94B2F1D0
:10E040000D94B2F10D94B2F10D94B2F10D94B2F1C0
:10E050000D94B2F10D94B2F10D94B2F10D94B2F1B0
:10E060000D94B2F10D94B2F10D94B2F10D94B2F1A0
:10E070000D94B2F10D94B2F10D94B2F10D94B2F190
:10E080000D94B2F10D94B2F10D94B2F10D94B2F180
:10E090000D94B2F10D94B2F10D94B2F10D94B2F170
:10E0A0000D94B2F10D94B2F10D94B2F10D94B2F160
:10E0B0000D94B2F10D94B2F10D94B2F10D94B2F150
:10E0C0000D94B2F10D94B2F10D94B2F10D94B2F140
:10E0D0000D94B2F10D94B2F10D94B2F10D94B2F130
:10E0E0000D94B2F141546D656761323536300041AF
:10E0F000726475696E6F206578706C6F72657220DE
:10E1000073746B3530305632206279204D4C530099
:10E11000426F6F746C6F616465723E004875683F52
:10E1200000436F6D70696C6564206F6E203D200048
:10E130004350552054797065202020203D20005FF9
:10E140005F4156525F415243485F5F3D2000415658
:10E1500052204C696243205665723D20004743437C
:10E160002056657273696F6E203D20004350552024
:10E1700049442020202020203D20004C6F7720663D
:10E18000757365202020203D20004869676820665F
:10E190007573652020203D200045787420667573D6
:10E1A00065202020203D20004C6F636B2066757336
:10E1B000652020203D20004D617220203720323024
:10E1C000313300312E362E3800342E332E350056A2
:10E1D00023202020414444522020206F7020636F70
:10E1E00064652020202020696E73747275637469E1
:10E1F0006F6E2061646472202020496E74657272B3
:10E20000757074006E6F20766563746F7200726A49
:10E210006D702020006A6D70200057686174207056
:10E220006F72743A00506F7274206E6F7420737541
:10E2300070706F72746564004D7573742062652030
:10E2400061206C6574746572002000577269747483
:10E25000696E672045450052656164696E672045B7
:10E26000450045452065727220636E743D00504F35
:10E27000525400303D5A65726F2061646472003FF1
:10E280003D43505520737461747300403D454550C3
:10E29000524F4D207465737400423D426C696E6B41
:10E2A000204C454400453D44756D70204545505215
:10E2B0004F4D00463D44756D7020464C415348001B
:10E2C000483D48656C70004C3D4C69737420492F83
:10E2D0004F20506F72747300513D51756974005234
:10E2E0003D44756D702052414D00563D73686F7707
:10E2F00020696E7465727275707420566563746FF0
:10E30000727300593D506F727420626C696E6B00BD
:10E310002A0011241FBECFEFD1E2DEBFCDBF01E046
:10E320000CBF12E0A0E0B2E0EEE1FDEF03E00BBFB6
:10E3300002C007900D92A030B107D9F712E0A0E01B
:10E34000B2E001C01D92AE30B107E1F70F9460F367
:10E350000D948DFE01E20EBF0FEF0DBF11241FBE05
:10E360000D9460F30D9400F020E030E040ED57E0B4
:10E3700005C0FA013197F1F72F5F3F4F2817390792
:10E38000C0F308959C01260F311DC901A0E0B0E043
:10E390002F5F3F4FABBFFC018791882361F08093D3
:10E3A000C6008091C00086FFFCCF8091C0008064D1
:10E3B0008093C000EACF08958DE08093C6008091DD
:10E3C000C00086FFFCCF8091C00080648093C000B5
:10E3D0008AE08093C6008091C00086FFFCCF8091C8
:10E3E000C00080648093C00008950F94C2F10F9420
:10E3F000DCF10895FC019081992359F09093C600B7
:10E400008091C00086FFFCCF8091C0008064809323
:10E41000C0003196992379F70895282F982F929567
:10E420009F70892F805D8A3308F0895F8093C600D2
:10E430008091C00086FFFCCF8091C00080648093F3
:10E44000C000822F8F70982F905D9A3308F0995FEB
:10E450009093C6008091C00086FFFCCF8091C000E1
:10E4600080648093C00008959C01FB01853691056E
:10E470001CF46330710594F0C90164E670E00F94F8
:10E480002EFE605D7F4F6093C6008091C00086FFC6
:10E49000FCCF8091C00080648093C0002B30310598
:10E4A00014F43297B4F0C90164E670E00F942EFEC4
:10E4B0006AE070E00F942EFE605D7F4F6093C600AF
:10E4C0008091C00086FFFCCF8091C0008064809363
:10E4D000C000C9016AE070E00F942EFEC0968093E0
:10E4E000C6008091C00086FFFCCF8091C000806490
:10E4F0008093C00008951F93182F8EE692EE60E07F
:10E500000F94C2F11093C6008091C00086FFFCCF2B
:10E510008091C00080648093C0000F94DCF11F9153
:10E5200008952F923F924F925F926F927F928F92B7
:10E530009F92AF92BF92CF92DF92EF92FF920F9392
:10E540001F93DF93CF93CDB7DEB762970FB6F894E2
:10E55000DEBF0FBECDBF382E622ECA01DB015C01CB
:10E560006D01772420E2222E2E010894411C511CBB
:10E570008BC081E0A81680E0B80681E0C80680E084
:10E58000D80628F0C601AA27BB270F940DF2BB2797
:10E59000AD2D9C2D8B2D0F940DF28A2D0F940DF225
:10E5A0002092C6008091C00086FFFCCF8091C00001
:10E5B00080648093C0009DE29093C6008091C0006B
:10E5C00086FFFCCF8091C00080648093C0002092C1
:10E5D000C6008091C00086FFFCCF8091C00080649F
:10E5E0008093C00019828601750188249924A1E0D6
:10E5F0003A1651F03A1620F0B2E03B1661F409C029
:10E600000BBFF701779007C0C7010F9477FE782EF4
:10E6100002C0F7017080872D0F940DF22092C60082
:10E620008091C00086FFFCCF8091C0008064809301
:10E63000C000872D8052F401EF70F0708F3520F408
:10E64000E40DF51D708204C0E40DF51D8EE280839B
:10E650000894E11CF11C011D111D0894811C911CE2
:10E6600090E18916910409F0C2CF80E190E0A0E02A
:10E67000B0E0A80EB91ECA1EDB1E198AC2010F9493
:10E68000FAF10F94DCF16A94662009F072CF629679
:10E690000FB6F894DEBF0FBECDBFCF91DF911F91B3
:10E6A0000F91FF90EF90DF90CF90BF90AF909F9031
:10E6B0008F907F906F905F904F903F902F90089534
:10E6C0002F923F924F925F926F927F928F929F9282
:10E6D000AF92BF92CF92DF92EF92FF920F931F9370
:10E6E000DF93CF93CDB7DEB7CD53D1400FB6F894BB
:10E6F000DEBF0FBECDBF01E20EBF0FEF0DBF94B75F
:10E70000F894A89514BE80916000886180936000A1
:10E7100010926000789493FF05C0E0910002F091A0
:10E7200001021995279A2F9A8091C00082608093E8
:10E73000C00080E18093C40088E18093C1000000A4
:10E74000EE24FF24870144E0A42EB12CCC24DD2448
:10E7500024C0C5010197F1F70894E11CF11C011DCB
:10E76000111D21E2E2162EE4F20620E0020720E06D
:10E77000120718F031E0C32ED12CC801B70127ECE5
:10E780003BE140E050E00F9441FE611571058105C9
:10E79000910519F485B1805885B98091C00087FD35
:10E7A00003C0C114D104A9F2A6014F5F5F4FC25E3E
:10E7B000DE4F59834883CE51D140C25EDE4F8881FF
:10E7C0009981CE51D140019711F00D9410FEC05D9A
:10E7D000DE4F19821882C053D14060E0C15DDE4F28
:10E7E0001882CF52D14088249924C35DDE4F19820C
:10E7F0001882CD52D140C05EDE4F188219821A8233
:10E800001B82C052D140CE5CDE4F188219821A8220
:10E810001B82C253D140EE24FF2487010BBFF701B6
:10E8200007911691C45CDE4F19830883CC53D14005
:10E830000D940BFEC25EDE4F28813981CE51D1404E
:10E840002130310509F52091C600C25EDE4F1982E4
:10E850001882CE51D14022C02F5F3F4F4F4F5F4FA4
:10E86000213082E138078AE7480780E0580780F0C6
:10E87000C45CDE4FE881F981CC53D140EF5FFF4F9C
:10E8800019F0EE27FF27099420E030E040E050E047
:10E890008091C00087FFE0CF2091C600C35DDE4FAE
:10E8A00048815981CD52D1404F5F5F4FC35DDE4FEC
:10E8B00059834883CD52D140213209F063C64A3092
:10E8C000510508F05FC60894811C911C53E0851621
:10E8D000910409F059C600E010E018C081E280936D
:10E8E000C6008091C00086FFFCCF8091C00080648C
:10E8F0008093C0002F5F3F4F2931310579F70F9486
:10E90000DCF10F5F1F4F0530110519F020E030E0FA
:10E91000E5CF10920A0210920B0210920C02109294
:10E920000D02109206021092070210920802109235
:10E930000902109202021092030210920402109235
:10E9400005028FEE90EE60E00F94F5F180E191EE1C
:10E9500060E00F94C2F18091C00087FFFCCF9091DE
:10E96000C600903608F09F759032B8F09093C600BC
:10E970008091C00086FFFCCF8091C00080648093AE
:10E98000C000A0E2A093C6008091C00086FFFCCF2B
:10E990008091C00080648093C000983409F4D7C18E
:10E9A0009934B8F4923409F459C1933458F490333B
:10E9B00019F1903308F4E3C59F33A1F1903409F0C5
:10E9C000DEC5BDC0953409F470C1963409F0D7C5D1
:10E9D00098C1923509F42BC2933538F49C3409F46C
:10E9E000F5C1913509F0CBC518C2963509F445C279
:10E9F000993509F0C4C567C483E792EE62E00F94CD
:10EA0000F5F110920602109207021092080210927D
:10EA1000090210920A0210920B0210920C0210923C
:10EA20000D0213C18FE792EE62E00F94F5F18FEEC5
:10EA300090EE60E00F94F5F181E291EE60E00F94CA
:10EA4000C2F187EB91EE60E00F94F5F180E391EE77
:10EA500060E00F94C2F184EE90EE60E00F94F5F167
:10EA60008FE391EE60E00F94C2F186E090E061E008
:10EA700070E00F9434F20F94DCF18DE591EE60E0DC
:10EA80000F94C2F189EC91EE60E00F94F5F18EE401
:10EA900091EE60E00F94C2F183EC91EE60E00F9490
:10EAA000F5F18CE691EE60E00F94C2F18EE10F94E7
:10EAB0000DF288E90F940DF281E00F940DF20F949E
:10EAC000DCF18BE791EE60E00F94C2F119E0E0E039
:10EAD000F0E010935700E4918E2F0F940DF20F94F5
:10EAE000DCF18AE891EE60E00F94C2F1E3E0F0E03F
:10EAF00010935700E4918E2F0F940DF20F94DCF1D8
:10EB000089E991EE60E00F94C2F1E2E0F0E0109349
:10EB10005700E4918E2F0F940DF20F94DCF188EAE8
:10EB200091EE60E00F94C2F1E1E0F0E01093570045
:10EB30001491812F0F940DF20F94DCF107CF8BE825
:10EB400092EE62E00F94F5F18BE492EE60E00F94A8
:10EB5000F5F10F94DCF100E010E019C0C8016F2D51
:10EB60000F947FFEFF2031F489E492EE60E00F9471
:10EB7000C2F10BC0F092C6008091C00086FFFCCFAE
:10EB80008091C00080648093C0000F5F1F4FC80158
:10EB900081519F41A0E0B0E0ABBFFC01F790BAE229
:10EBA000FB1621F0E2E000301E07C1F60F94DCF105
:10EBB0000F94DCF187E592EE60E00F94F5F10F948D
:10EBC000DCF1CC24DD2400E010E01EC0C8010F946D
:10EBD00077FEF82E882331F489E492EE60E00F94FA
:10EBE000C2F10BC08093C6008091C00086FFFCCFAD
:10EBF0008091C00080648093C000FE1419F00894D6
:10EC0000C11CD11C0F5F1F4FC80181519F41A0E063
:10EC1000B0E0ABBFFC01E790FAE2EF1621F022E092
:10EC20000030120799F60F94DCF10F94DCF182E6C4
:10EC300092EE60E00F94C2F1C60161E070E00F94C3
:10EC400034F20F94DCF10F94DCF110920202109276
:10EC50000302109204021092050278CE89E992EE26
:10EC600062E00F94F5F1279A2F9A16C02F9880E052
:10EC700090E0E0EDF7E03197F1F7019684369105E9
:10EC8000C1F72F9A80E090E0E0EDF7E03197F1F7DF
:10EC9000019684369105C1F78091C00087FFE6CFC9
:10ECA0008091C00087FFFCCF64C485EA92EE62E0E9
:10ECB0000F94F5F140910202509103026091040219
:10ECC0007091050281E020E10F9491F2809102029F
:10ECD00090910302A0910402B091050280509F4FD1
:10ECE000AF4FBF4F8093020290930302A0930402A0
:10ECF000B093050280509041A040B04008F426CE69
:10ED0000A4CF83EB92EE62E00F94F5F140910602FE
:10ED100050910702609108027091090280E020E1A1
:10ED20000F9491F28091060290910702A09108023F
:10ED3000B091090280509F4FAF4FBF4F80930602A2
:10ED400090930702A0930802B0930902FFCD80ECD4
:10ED500092EE62E00F94F5F183E792EE60E00F949B
:10ED6000F5F18FE792EE60E00F94F5F18BE892EE0B
:10ED700060E00F94F5F189E992EE60E00F94F5F10F
:10ED800085EA92EE60E00F94F5F183EB92EE60E09D
:10ED90000F94F5F180EC92EE60E00F94F5F187ECC2
:10EDA00092EE60E00F94F5F188ED92EE60E00F9442
:10EDB000F5F18FED92EE60E00F94F5F18AEE92EEB0
:10EDC00060E00F94F5F183E093EEBDCD87EC92EE19
:10EDD00062E00F94F5F181E40F947BF282E40F94EA
:10EDE0007BF283E40F947BF284E40F947BF285E45E
:10EDF0000F947BF286E40F947BF287E40F947BF20E
:10EE000088E40F947BF28AE40F947BF28BE40F94F6
:10EE10007BF28CE40F947BF299CD88ED92EE62E068
:10EE20000F94F5F1772473948824992409C48FED05
:10EE300092EE62E00F94F5F140910A0250910B02BC
:10EE400060910C0270910D0282E020E10F9491F22A
:10EE500080910A0290910B02A0910C02B0910D02D8
:10EE600080509F4FAF4FBF4F80930A0290930B0289
:10EE7000A0930C02B0930D0269CD8AEE92EE62E08F
:10EE80000F94F5F184EE90EE60E00F94F5F18FECC5
:10EE900091EE60E00F94F5F1662477244301CC5D98
:10EEA000DE4F19821882C452D140D401C301B695F5
:10EEB000A79597958795CA5DDE4F88839983AA8326
:10EEC000BB83C652D140CC5DDE4FA881B981C4520C
:10EED000D1401196CC5DDE4FB983A883C452D14096
:10EEE000CD0162E070E00F9434F2B0E2B093C6005E
:10EEF0008091C00086FFFCCF8091C0008064809329
:10EF0000C000EDE2E093C6008091C00086FFFCCF18
:10EF10008091C00080648093C000F0E2F093C6004E
:10EF20008091C00086FFFCCF8091C00080648093F8
:10EF3000C000CA5DDE4FE880F9800A811B81C6529D
:10EF4000D140BB27A12F902F8F2D0F940DF2CA5DBA
:10EF5000DE4F8881C652D1400F940DF2B0E2FB2EF5
:10EF6000F092C6008091C00086FFFCCF8091C00067
:10EF700080648093C0000DE30093C6008091C000C0
:10EF800086FFFCCF8091C00080648093C00010E2B7
:10EF90001093C6008091C00086FFFCCF8091C00016
:10EFA00080648093C0008BBEF3012791C65DDE4F65
:10EFB0002883CA52D140A22EBB24CC24DD2408943D
:10EFC000611C711C811C911C8BBEF3018791282E42
:10EFD0003324442455240894611C711C811C911C09
:10EFE0008BBEF3013791C55DDE4F3883CB52D140E4
:10EFF0000894611C711C811C911C8BBEF30147910C
:10F00000C45DDE4F4883CC52D140ADEFEA2EAFEF66
:10F01000FA2EAFEF0A2FAFEF1A2F6E0C7F1C801E57
:10F02000911E142D032DF22CEE24EA0CFB1C0C1D5A
:10F030001D1D0F940DF220E22093C6008091C000A8
:10F0400086FFFCCF8091C00080648093C000C65DC5
:10F05000DE4F8881CA52D1400F940DF230E23093D6
:10F06000C6008091C00086FFFCCF8091C000806404
:10F070008093C000C45DDE4F8881CC52D1400F9494
:10F080000DF240E24093C6008091C00086FFFCCFA5
:10F090008091C00080648093C000C55DDE4F888190
:10F0A000CB52D1400F940DF250E25093C6008091A4
:10F0B000C00086FFFCCF8091C00080648093C000B8
:10F0C0008FEFE8168FEFF80680E0080780E018075A
:10F0D00031F484E092EE60E00F94C2F1DFC0D80119
:10F0E000C7018070907CA070B0708050904CA040A0
:10F0F000B040D1F52FEF3FE340E050E0E222F322B1
:10F1000004231523CA5DDE4FA880B980CA80DB8046
:10F11000C652D140AE0CBF1CC01ED11EAA0CBB1CD7
:10F12000CC1CDD1C8EE092EE60E00F94C2F1BB2798
:10F13000A12F902F8F2D0F940DF28E2D0F940DF285
:10F1400030E23093C6008091C00086FFFCCF8091F2
:10F15000C00080648093C0004EE34093C60080915D
:10F16000C00086FFFCCF87C08EE09EEFA0E0B0E03D
:10F17000E822F9220A231B239CE0E91694E9F90608
:10F1800090E0090790E0190709F088C0C45DDE4FE0
:10F19000A881CC52D140EA2EFF2400E010E0102FCD
:10F1A0000F2DFE2CEE24C55DDE4FB881CB52D14031
:10F1B000EB0EF11C011D111DD601C501817090706F
:10F1C000A070B070DC0199278827E80EF91E0A1F8D
:10F1D0001B1F20EF30E040E050E0A222B322C42207
:10F1E000D52241E1AA0CBB1CCC1CDD1C4A95D1F7F1
:10F1F000EA0CFB1C0C1D1D1D81E090E0A0E0B0E0BE
:10F20000282239224A225B2235E1220C331C441C7D
:10F21000551C3A95D1F7E20CF31C041D151D57013E
:10F220006801AA0CBB1CCC1CDD1C85E192EE60E0E1
:10F230000F94C2F1C801AA27BB270F940DF2BB2778
:10F24000A12F902F8F2D0F940DF28E2D0F940DF274
:10F2500090E29093C6008091C00086FFFCCF809121
:10F26000C00080648093C000AEE3A093C60080918C
:10F27000C00086FFFCCF8091C00080648093C000F6
:10F28000C601AA27BB270F940DF2BB27AD2D9C2DDD
:10F290008B2D0F940DF28A2D0F940DF20F94DCF14B
:10F2A000CC5DDE4FE881F981C452D140F99709F471
:10F2B0004DCBF4E0EF2EF12C012D112D6E0C7F1CA7
:10F2C000801E911EF2CD83E093EE62E00F94F5F183
:10F2D0008AE192EE60E00F94C2F18091C00087FF56
:10F2E000FCCF1091C6001F751093C6008091C0001E
:10F2F00086FFFCCF8091C00080648093C0000F9493
:10F30000DCF1812F81548A3108F036C1163409F4BA
:10F3100095C0173490F4133409F44EC0143430F40B
:10F320001134F1F0123409F01DC130C0143409F465
:10F3300059C0153409F016C16BC01A3409F4C4C0A1
:10F340001B3438F4173409F48FC0183409F00AC19B
:10F35000A1C01B3409F4D2C01C3409F003C1E8C0B9
:10F360008FEF81B90DC082B1809582B980E090E0C5
:10F37000E0EDF7E03197F1F70196883C9105C1F790
:10F380008091C00087FFEFCF12B8EFC08FEF84B934
:10F390000DC085B1809585B980E090E0E0EDF7E0A3
:10F3A0003197F1F70196883C9105C1F78091C00033
:10F3B00087FFEFCF15B8D9C08FEF87B90DC088B1DF
:10F3C000809588B980E090E0E0EDF7E03197F1F7C3
:10F3D0000196883C9105C1F78091C00087FFEFCF6F
:10F3E00018B8C3C08FEF8AB90DC08BB180958BB9A7
:10F3F00080E090E0E0EDF7E03197F1F70196883C8E
:10F400009105C1F78091C00087FFEFCF1BB8ADC059
:10F410008FEF8DB90DC08EB180958EB980E090E0F0
:10F42000E0EDF7E03197F1F70196883C9105C1F7DF
:10F430008091C00087FFEFCF1EB897C08FEF80BBD1
:10F440000DC081B3809581BB80E090E0E0EDF7E0F6
:10F450003197F1F70196883C9105C1F78091C00082
:10F4600087FFEFCF11BA81C08FEF83BB0DC084B38C
:10F47000809584BB80E090E0E0EDF7E03197F1F714
:10F480000196883C9105C1F78091C00087FFEFCFBE
:10F4900014BA6BC08FEF809301010FC080910201FD
:10F4A00080958093020180E090E0E0EDF7E03197F5
:10F4B000F1F70196883C9105C1F78091C00087FF64
:10F4C000EDCF1092020151C08FEF809304010FC065
:10F4D0008091050180958093050180E090E0E0ED4A
:10F4E000F7E03197F1F70196883C9105C1F78091DB
:10F4F000C00087FFEDCF1092050137C08FEF8093DA
:10F5000007010FC08091080180958093080180E079
:10F5100090E0E0EDF7E03197F1F70196883C910536
:10F52000C1F78091C00087FFEDCF109208011DC088
:10F530008FEF80930A010FC080910B01809580931B
:10F540000B0180E090E0E0EDF7E03197F1F70196F4
:10F55000883C9105C1F78091C00087FFEDCF1092E4
:10F560000B0103C085E292EEEEC98091C00087FFD7
:10F57000FCCF8091C600EAC988E392EEE4C98CE131
:10F5800091EEE1C988249924933011F1943028F444
:10F59000913089F09230B8F408C0953061F195301F
:10F5A000F0F0963009F048C043C02B3109F042C951
:10F5B00091E06BE13FC96227C15DDE4F2883CF52E6
:10F5C000D14092E037C9B22FA0E0622793E032C960
:10F5D000822F90E0A82BB92B622794E02BC92E3004
:10F5E00009F039C3622795E0C05DDE4F19821882A9
:10F5F000C053D1401FC9E1E0F0E0EC0FFD1FC05D3A
:10F60000DE4F08811981C053D140E00FF11F2083E4
:10F610000F5F1F4FC05DDE4F19830883C053D14079
:10F6200062270A171B0709F005C9D80196E002C92D
:10F63000261709F010C303C0973009F0FBC87724E0
:10F640009981933109F412C19431C8F4963009F4C8
:10F65000D8C0973050F4923009F406C1933009F4C1
:10F660006DC0913009F059C253C0913109F477C08F
:10F67000923108F0BBC0903109F04FC2F5C098310B
:10F6800009F487C0993150F4953109F4EFC09531F0
:10F6900008F4C6C1963109F040C2C2C19A3109F4DA
:10F6A0006CC09A3108F491C09B3109F45BC09D3164
:10F6B00009F033C29D81903359F48F81882311F46E
:10F6C0009EE11CC0813011F091E018C098E916C08D
:10F6D000892F807591F0903539F4E0E0F0E089E011
:10F6E0008093570094910AC0983539F4E3E0F0E034
:10F6F00089E080935700949101C090E01A821B82A8
:10F700008D818C831D829E831F8227E030E009C299
:10F710001A8288E08B8381E48C8386E58D8382E581
:10F720008E8389E48F8383E5888780E589878FE5E9
:10F730008A8782E38B872BE030E0F3C18A818139AD
:10F7400041F0823941F0803911F48FE005C080E04A
:10F7500003C082E001C08AE01A828B8344C0772410
:10F76000739482C08D81882311F48EE12CC0813086
:10F7700011F081E028C088E926C01A82E1E0F0E0BB
:10F7800089E08093570084918B831C8224E030E0D1
:10F79000C8C18B81803589F48C81883039F4E2E0EE
:10F7A000F0E089E08093570084910DC0E0E0F0E044
:10F7B00089E080935700849106C0E3E0F0E089E09F
:10F7C0008093570084911A82DFCF8D81836C99E0FA
