:020000040000FA
:100000000C94A1080C94D2080C94D2080C94D20839
:100010000C94D2080C94D2080C94D2080C94D208F8
:100020000C94D2080C94D2080C94D2080C94D208E8
:100030000C94D2080C94D3120C94D2080C94D208CD
:100040000C94D2080C94D2080C94D2080C94D208C8
:100050000C94D2080C94D2080C94D2080C948912F7
:100060000C94D2080C94D2080C94D2080C94D208A8
:100070000C94D2080C94D2080C94D2080C94D20898
:100080000C94D2080C94D2080C94D2080C94D20888
:100090000C94D2080C94D2080C94D2080C9433130C
:1000A0000C94D2080C94D2080C94D2080C94D20868
:1000B0000C94D2080C94D2080C94D2080C94D20858
:1000C0000C94D2080C94D2080C94D2080C94D20848
:1000D0000C94D2080C94D2080C94D2080C94D20838
:1000E0000C94D2080C946B090C940C100C94D20A4A
:1000F0000C94F00B0C9415120C94CE0A0C942C0F4B
:100100000C9426100C9432100C948E090C947309E4
:100110000C9484090C94D5080C9465090C94D60AA7
:100120000C946F090C94ED110C9418120C94DB11C3
:100130000C94A0090C94540B0C94D60B0C943E1008
:100140000C9498090C94C70B0C94FB0B0C9480092D
:100150000C94D4080C9492090C94E90B0C94AA0901
:100160000C94E50A0C9443100C947A090C945714DF
:100170000C9477090C9441100C949C090C94611018
:100180000C94A5090C94D90A0C9414120C94110F18
:100190000C948A090C94C60B0C94A609FFD0FFE0BE
:1001A000FFC1FFD13FC0FF14FFD23FC0FF14FFD0FB
:1001B000FFFE0200002100240027002A002D00304D
:1001C00000330001010000040107010A01000022C0
:1001D00000250028002B002E003100340002010011
:1001E00000050108010B0100002000230026002962
:1001F000002C002F0032000001000003010601095D
:100200000105050505070508080808020202020A9B
:100210000A080804040404010101010101010103A9
:1002200003030303030303040707070C0C0C0C0C64
:100230000C0C0C0202020206060606060606060B57
:100240000B0B0B0B0B0B0B010210202008081020CE
:100250004010204080020102010804020101020452
:100260000810204080804020100804020180040211
:100270000180402010080402010804020101020468
:100280000810204080010204081020408000000A6D
:100290000B02090C0D0E080703040100000000000A
:1002A000000000000000000000000000000000004E
:1002B000000000000000000000121110000000000B
:1002C000000000000000000000000000000000002E
:1002D000000000001117FFFA0B021B04CD20FFFDE8
:1002E0000EFD0BFD000000040001020B0B040100D9
:1002F000C0C0C0C0C0C0808000C0C00503030701EB
:1003000008D8D890090A140900001B001B001B0024
:100310007F8036003600FF006C006C006C00070E1A
:100320000E0800FE107CD6D6D0F0781C16D6D67CEF
:1003300010100C0B160D00007840CCC0CD80790059
:100340000300060004000DE00B301B3011E0090A29
:10035000140B010038006C006C0038007300FB00C7
:10036000CE00C600CF007D80020303040108C0C098
:1003700080040E0E0501FD306060C0C0C0C0C0C06A
:10038000C0C0606030040E0E0500FDC060603030FB
:100390003030303030306060C00504040600072083
:1003A000F870D8080707090001181818FF1818185E
:1003B0000303030400FF6060C0030101040004E0C4
:1003C000020202040100C0C0040B0B040000101064
:1003D000302020604040C08080070B0B08000038B0
:1003E0006CC6C6C6C6C6C6C66C38040B0B08010070
:1003F00030F0303030303030303030070B0B080008
:10040000007CC6C6060E0C183060C0FE070B0B0839
:1004100000007CC6C606063C0606C6C67C080B0B5A
:10042000080000060E1E3666C6C6FF060606070B47
:100430000B0800007E6060C0FC0E0606C6CC780784
:100440000B0B0800003C6666C0DCE6C6C6C6C67C70
:10045000070B0B080000FE060C0C1818303060600B
:1004600060070B0B0800007CC6C6C6C67CC6C6C6A5
:10047000C67C070B0B0800007CC6C6C6C6C67E0637
:10048000C6CC78020808050200C0C000000000C009
:10049000C00309090501FF6060000000006060C042
:1004A0000605050801021C70C0701C070303090142
:1004B00003FE00FE060505080102E0380C38E007DF
:1004C0000B0B0901007CC6C6060C1830300030301A
:1004D0000D0C180E00FF0F8038E0707066B0CD98DC
:1004E000D998DB18DB30CEE0600031801F000A0BAA
:1004F000160A00000C000C001E001200330033002E
:1005000061807F806180C0C0C0C0080B0B0A010001
:10051000FEC7C3C3C6FCC6C3C3C7FE090B160B0187
:10052000001F007B806080C000C000C000C000C011
:100530000060807B801F00090B160B0100FC00C7C8
:1005400000C300C180C180C180C180C180C300C719
:1005500000FC00070B0B090100FEC0C0C0C0FEC0BC
:10056000C0C0C0FE070B0B090100FEC0C0C0C0FC2C
:10057000C0C0C0C0C0090B160B01001F007B80600B
:1005800080C000C000C780C180C18061807B801EA8
:1005900080080B0B0A0100C3C3C3C3C3FFC3C3C39B
:1005A000C3C3020B0B040100C0C0C0C0C0C0C0C0A8
:1005B000C0C0C0070B0B08000006060606060606AC
:1005C000C6C6EE7C090B160A0100C300C600CC00AB
:1005D000D800F000F000D800CC00C600C300C180F5
:1005E000070B0B080100C0C0C0C0C0C0C0C0C0C065
:1005F000FE0B0B160D0100C060C060E0E0E0E0F112
:10060000E0D160D160DB60CA60CE60C460090B16C7
:100610000B0100C180E180E180D180D980C980CD0B
:1006200080C580C380C380C1800A0B160C01001EE8
:100630000073806180C0C0C0C0C0C0C0C0C0C06105
:100640008073801E00080B0B0A0100FEC7C3C3C7DE
:10065000FEC0C0C0C0C00A0B160C01001E00738093
:100660006180C0C0C0C0C0C0C0C0C6C0638073804D
:100670001EC0090B160B0100FE00C700C300C3001B
:10068000C600FE00C700C300C300C300C180080B42
:100690000B0A01007EE7C3E0781E0703C3EE7C0867
:1006A0000B0B080000FF181818181818181818183D
:1006B000090B160B0100C180C180C180C180C180BF
:1006C000C180C180C180C18063003E000A0B160A50
:1006D0000000C0C0C0C061806180738033003300FF
:1006E0001E001E000C000C000E0B160E0000C30CAA
:1006F000C30CC30C6798649864986CD82CD038707D
:1007000018601860090B16090000C180C1806300E1
:1007100036001C001C00360063006300C180C180ED
:100720000A0B160A0000C0C06180618033003300EC
:100730001E001E000C000C000C000C00080B0B0926
:100740000000FF03060C1C18307060C0FF040E0E82
:100750000501FDF0C0C0C0C0C0C0C0C0C0C0C0C0A6
:10076000F0040B0B0400008080C04040602020306B
:100770001010040E0E0500FDF030303030303030F7
:100780003030303030F0060505080106307848CCAE
:10079000CC0801010800FDFF030202050109C06049
:1007A00007080808010078CC0C7CCCCCDC76070B61
:1007B0000B090100C0C0C0D8ECC6C6C6C6ECD8063E
:1007C0000808080100386CCCC0C0CC6C38070B0B93
:1007D000090100060606366EC6C6C6C66E3606088F
:1007E0000808010078CCCCFCC0C0EC78050B0B04E9
:1007F0000000386060F060606060606060070B0B54
:100800000901FD3A6EC6C6C6C66E3606CE7C070B1B
:100810000B090100C0C0C0DCEEC6C6C6C6C6C60213
:100820000B0B040100C0C000C0C0C0C0C0C0C0C02D
:10083000030E0E0400FD6060006060606060606038
:100840006060E0C0060B0B080100C0C0C0CCD8F04F
:10085000F0D8D8CCCC020B0B040100C0C0C0C0C083
:10086000C0C0C0C0C0C00A08100C0100DB80EEC0D0
:10087000CCC0CCC0CCC0CCC0CCC0CCC00708080910
:100880000100DCEEC6C6C6C6C6C6070808090100D8
:10089000386CC6C6C6C66C38070B0B0901FDD8EC10
:1008A000C6C6C6C6ECD8C0C0C0070B0B0901FD36D2
:1008B0006EC6C6C6C66E36060606050808060100E0
:1008C000D8F8C0C0C0C0C0C006080808010078CC75
:1008D000E0781C0CEC78050A0A0500006060F860FE
:1008E000606060606830070808090100C6C6C6C6B7
:1008F000C6C6EE76080808080000C3C36666243C36
:1009000018180A08100A0000CCC0CCC0CCC06D80FA
:100910006D80330033003300070808070000C6C6A7
:100920006C38386CC6C6080B0B0800FDC3C366667E
:10093000243C1818183070060808060000FC0C1833
:10094000303060C0FC050E0E0600FD18303030302F
:1009500060C060303030303018010E0E0402FD806F
:1009600080808080808080808080808080050E0EE6
:100970000601FDC0606060603018306060606060DB
:10098000C007030309010372DE8CFFFFFFFFFFFFB7
:10099000FFFFFFFFFFFFFFFFFFFFFFFFFFFFFFFF67
:1009A000FFFFFFFFFFFFFFFFFFFFFF00000004004E
:1009B00001020B0B0401FDC0C0004040C0C0C0C01C
:1009C000C0C0070A0A0800FF043C6EC8D0D0E66623
:1009D0007C40080B0B0800003C666660FC30303041
:1009E00060FBDE070707080002827C6C6C6C7C826F
:1009F000080B0B090000C3C3C366663C7E187E1853
:100A000018010E0E0402FD8080808080800000802E
:100A10008080808080060E0E0801FD78CCCCE078C6
:100A2000DCCCCCEC781CCCCC78050202050009D8D3
:100A3000D80A0B160C01001E0061804C80D2C090B9
:100A4000409040904092404C8061801E0005070716
:100A5000060004709070D0F800F80705050901023F
:100A6000366CD86C36070404090102FEFE0202034C
:100A70000101040004E00A0B160C01001E00618055
:100A80005C80924092409C409240924052806180B3
:100A90001E00050101050009F804040406010760B1
:100AA000909060080909090000181818FF18181814
:100AB00000FF04060605000560B03060C0F00406C3
:100AC0000605000560B06030B06003020205010950
:100AD00060C0070B0B0901FDC6C6C6C6C6C6EEF64A
:100AE000C0C0C0080E0E0800FD3F7AFAFAFA7A3A42
:100AF0000A0A0A0A0A0A0A020202040103C0C0051D
:100B000003030500FD18D87003060604000560E025
:100B10006060606005070706000470D8D8D87000D0
:100B2000F8070505090102D86C366CD80C0B160CB9
:100B300000006180E180630063006600662006605B
:100B40000CE00D6019F018600B0B160C00006180B2
:100B5000E18063006300660066C007600C600CC043
:100B6000198019E00C0B160C00006180B180630045
:100B70003300B600662006600CE00D6019F01860C6
:100B8000070B0B0901FD18180018183060C0C6C605
:100B90007C0A0E1C0A000018000C0000000C000C5F
:100BA000001E0012003300330061807F806180C02E
:100BB000C0C0C00A0E1C0A000006000C0000000C99
:100BC000000C001E0012003300330061807F806142
:100BD00080C0C0C0C00A0E1C0A00000E001B00002E
:100BE000000C000C001E0012003300330061807FF7
:100BF000806180C0C0C0C00A0E1C0A00000D001633
:100C00000000000C000C001E0012003300330061D5
:100C1000807F806180C0C0C0C00A0E1C0A00003303
:100C200000330000000C000C001E001200330033E3
:100C30000061807F806180C0C0C0C00A0E1C0A00B5
:100C4000000C0012000C000C000C001E00120033FF
:100C500000330061807F806180C0C0C0C00E0B1671
:100C60000F00000FFC0F001B001300330033F8636C
:100C7000007F006300C300C3FC090E1C0B01FD1FB5
:100C8000007B806080C000C000C000C000C0006069
:100C9000807B801F00060036001C00070E0E090135
:100CA00000301800FEC0C0C0C0FEC0C0C0C0FE07FB
:100CB0000E0E0901000C1800FEC0C0C0C0FEC0C06E
:100CC000C0C0FE070E0E0901001C3600FEC0C0C0E9
:100CD000C0FEC0C0C0C0FE070E0E0901006C6C0053
:100CE000FEC0C0C0C0FEC0C0C0C0FE030E0E0400E7
:100CF00000C06000606060606060606060606003B1
:100D00000E0E04010060C000C0C0C0C0C0C0C0C0A2
:100D1000C0C0C0050E0E04000070D80060606060A6
:100D200060606060606060050E0E040000D8D8004E
:100D300060606060606060606060600A0B160B005D
:100D4000007E006380618060C060C0F8C060C060E9
:100D5000C0618063807E00090E1C0B01001A002C0C
:100D6000000000C180E180E180D180D980C980CDC0
:100D700080C580C380C380C1800A0E1C0C0100188E
:100D8000000C0000001E0073806180C0C0C0C0C0A5
:100D9000C0C0C0C0C0618073801E000A0E1C0C0160
:100DA0000006000C0000001E0073806180C0C0C0FF
:100DB000C0C0C0C0C0C0C0618073801E000A0E1CCD
:100DC0000C01000E001B0000001E0073806180C03B
:100DD000C0C0C0C0C0C0C0C0C0618073801E000A57
:100DE0000E1C0C01000D00160000001E0073806137
:100DF00080C0C0C0C0C0C0C0C0C0C0618073801E01
:100E0000000A0E1C0C01003300330000001E0073AA
:100E1000806180C0C0C0C0C0C0C0C0C0C06180739D
:100E2000801E00080707090001C3663C183C66C322
:100E30000C0B160C00000F3039E030C061E063602D
:100E400066606C60786030C079C0CF00090E1C0B02
:100E5000010018000C000000C180C180C180C18069
:100E6000C180C180C180C180C18063003E00090E85
:100E70001C0B010006000C000000C180C180C18075
:100E8000C180C180C180C180C180C18063003E003B
:100E9000090E1C0B01001C0036000000C180C1803F
:100EA000C180C180C180C180C180C180C180630018
:100EB0003E00090E1C0B0100630063000000C180AE
:100EC000C180C180C180C180C180C180C180C1801A
:100ED00063003E000A0E1C0A000006000C00000021
:100EE000C0C061806180330033001E001E000C0012
:100EF0000C000C000C00080B0B0A0100C0C0FEC760
:100F0000C3C3C7FEC0C0C0060B0B08010078CCCC21
:100F1000CCD8D8CCCCCCCCD8070B0B0801003018DF
:100F20000078CC0C7CCCCCDC76070B0B08010018CD
:100F3000300078CC0C7CCCCCDC76070B0B080100A5
:100F4000386C0078CC0C7CCCCCDC76070B0B080121
:100F50000034580078CC0C7CCCCCDC76070B0B082A
:100F600001006C6C0078CC0C7CCCCCDC76070B0BD5
:100F700008010030483078CC0C7CCCCCDC760B08F7
:100F8000100D01007BC0CE600C607FE0CC00CC0077
:100F9000DE6077C0070B0B0901FD3C66C6C0C0C60A
:100FA000663C185870060B0B08010060300078CCC6
:100FB000CCFCC0C0EC78060B0B08010018300078A0
:100FC000CCCCFCC0C0EC78060B0B080100386C00E0
:100FD00078CCCCFCC0C0EC78060B0B0801006C6C24
:100FE0000078CCCCFCC0C0EC78030B0B040000C034
:100FF00060006060606060606060030B0B04010073
:1010000060C000C0C0C0C0C0C0C0C0050B0B0400A1
:101010000070D8006060606060606060050B0B0469
:101020000000D8D8006060606060606060070B0BF3
:101030000901006C38483C6CC6C6C6C66C38070B44
:101040000B090100345800DCEEC6C6C6C6C6C6078A
:101050000B0B090100301800386CC6C6C6C66C38C8
:10106000070B0B090100183000386CC6C6C6C66CE9
:1010700038070B0B090100386C00386CC6C6C6C6B1
:101080006C38070B0B090100345800386CC6C6C613
:10109000C66C38070B0B0901006C6C00386CC6C6B7
:1010A000C6C66C38080707090001181800FF0018A9
:1010B000180708080901003A6CCED6D6E66CB807C6
:1010C0000B0B090100301800C6C6C6C6C6C6EE76B0
:1010D000070B0B0901000C1800C6C6C6C6C6C6EE33
:1010E00076070B0B090100386C00C6C6C6C6C6C61B
:1010F000EE76070B0B0901006C6C00C6C6C6C6C6AF
:10110000C6EE76080E0E0800FD0C1800C3C3666616
:10111000243C1818183070070E0E0901FDC0C0C01D
:10112000D8ECC6C6C6C6ECD8C0C0C0080E0E0800B3
:10113000FD363600C3C36666243C181818307000AC
:10114000571411241FBECFEFD1E2DEBFCDBF00E0A8
:101150000CBF12E0A0E0B2E0EAE5FCE300E00BBF68
:1011600002C007900D92A838B107D9F724E0A8E88B
:10117000B2E001C01D92A83FB207E1F718E0C1EA52
:10118000D8E000E006C021970109802FFE010E94EF
:10119000D81DC03AD10780E00807A9F70E94721550
:1011A0000C942B1E0C940000089580E0089580910B
:1011B000C2049091C304835D924099F183ED92E063
:1011C0009093C3048093C2048091D50481112AC0F6
:1011D000E8EDF2E0E491E093D604EFEDF2E0E49183
:1011E000E093D7048091D604082E000C990B20912F
:1011F000D704821B910927FD93952091D8042034B0
:1012000041F0829FC001112426E0969587952A958A
:10121000E1F78093D90485ED98E09093D40480930E
:10122000D3040895813041F4E2EEF2E0E491E093DA
:10123000D604E3EEF2E0D3CFE0EEF2E0E491E09307
:10124000D604E1EEF2E0CBCF96E0899FD0011124E5
:10125000A55BBB4F90967C936E935F9791E09196C0
:101260009C939197E091B804F091B9049091B704E0
:10127000992339F0309751F0811108C080916704AB
:101280001994309719F05C968C91FACF089581509B
:10129000823108F05AC0E82FF0E08827ED5AF64F67
:1012A0008F4F0C94D81D7309770965096B096F0975
:1012B000A5097A09800984098A098E099209980981
:1012C0009C09A509A009A609AA09809180008F7729
:1012D000809380000895809180008F7DF9CF809168
:1012E0008000877FF5CF84B58F7784BD089584B55E
:1012F0008F7DFBCF8091B0008F778093B0000895F1
:101300008091B0008F7DF9CF809190008F7780938E
:1013100090000895809190008F7DF9CF809190008A
:10132000877FF5CF8091A0008F778093A0000895EC
:101330008091A0008F7DF9CF8091A000877FF5CFAD
:10134000809120018F778093200108958091200162
:101350008F7DF9CF80912001877FF5CFCF93DF93E9
:10136000282F30E0F901E357FD4F8491F901E95B43
:10137000FD4FD491F901EF5FFD4FC491CC23A1F053
:1013800081110E944709EC2FF0E0EE0FFF1FE95199
:10139000FE4FA591B491EC91ED2381E090E009F42A
:1013A00080E0DF91CF91089580E090E0FACF1F9325
:1013B000CF93DF93282F30E0F901E357FD4F84915D
:1013C000F901E95BFD4FD491F901EF5FFD4FC49145
:1013D000CC23A9F0162F81110E944709EC2FF0E0D1
:1013E000EE0FFF1FE353FE4FA591B4918FB7F89412
:1013F000EC91111108C0D095DE23DC938FBFDF91F3
:10140000CF911F910895DE2BF8CFCF93DF9390E01B
:10141000FC01E95BFD4F24918F5F9D4FFC0184919E
:101420008823C9F090E0880F991FFC01ED54FE4F0E
:10143000A591B491FC01E353FE4FC591D491611184
:101440000DC09FB7F8948C91209582238C9388814E
:10145000282328839FBFDF91CF910895623051F4F4
:101460009FB7F8943C91822F809583238C93E881D9
:101470002E2BEFCF8FB7F894EC912E2B2C938FBFA0
:10148000EACF3FB7F89480911F0490912004A09177
:101490002104B091220426B5A89B05C02F3F19F066
:1014A0000196A11DB11D3FBFBA2FA92F982F8827E4
:1014B000BC01CD01620F711D811D911D42E0660FBF
:1014C000771F881F991F4A95D1F708952FB7F89471
:1014D00060911B0470911C0480911D0490911E0466
:1014E0002FBF08950F931F93CF93DF93C82FD62F4D
:1014F00086E0C89FF0011124E55BFB4F11A2878DA8
:1015000090A181309105F1F058F082309105F1F110
:10151000039709F440C0DF91CF911F910F91089577
:101520006623C9F361E070E08C2F0E9424090E94B9
:10153000660A6093A3047093A4048093A504909317
:10154000A604E9CF0E94660A0091A3041091A404A6
:101550002091A5043091A604AB01BC01401B510BA6
:10156000620B730B8091B5049091B604B0E0A0E0DB
:1015700084179507A607B70748F462E070E08C2F40
:10158000DF91CF911F910F910C94240963E070E0DB
:10159000D111C1CFF4CF70E060E0F1CF862F642F7E
:1015A0000C94050A862F642F0C94D709862F0C946F
:1015B000AE09E091BB03F091BC03309729F0109283
:1015C000B6031092B50319940895CF93DF93AC013D
:1015D000E091B903F091BA033097F1F09091B8031C
:1015E0008091B7039817C0F090E0292F30E02617BC
:1015F000370754F4D901AF5DBC4F240F351FE90103
:1016000028812C939F5FF1CF1092B8036093B703AA
:10161000CB01DF91CF911994DF91CF9108959091F3
:10162000080289130DC0E2EBF1E0E4919FEF909383
:101630000802E230E1F038F4EE2381F0E13089F085
:1016400060E00C94D709E43049F110F1E530C1F7BE
:10165000909173009D7F90937300F2CF10926E0073
:10166000EFCF90916F009D7F90936F00E9CF9091A5
:1016700070009D7F9093700091E09093B0009091E6
:10168000B100987F94609093B1001092B300D8CFCE
:10169000909171009D7F90937100D2CF90917200D4
:1016A0009D7F90937200CCCFAF92BF92CF92DF928A
:1016B000EF92FF920F931F93CF93DF936C017B0107
:1016C0008B01040F151FEB015E01AE18BF08C01798
:1016D000D10759F06991D601ED91FC910190F0810B
:1016E000E02DC6011995892B79F7C501DF91CF91BE
:1016F0001F910F91FF90EF90DF90CF90BF90AF9030
:10170000089520916703260F3327331F21323105B7
:10171000ECF420918B03FC0190E080E0243069F030
:1017200082E00895A09167032191AC01495B5C4F71
:10173000A40FB52FB11D2C930196861798F38091B5
:101740006703680F6093670380E0089581E0089560
:1017500010928B0381E080938D0310928C0361E0E3
:1017600084E10E94D70961E085E10E94D709E9EB95
:10177000F0E080818E7F808380818D7F808388E40C
:101780008093B80085E48093BC0008950895E091AB
:10179000B8038091B703E81730F4F0E0EF5DFC4F39
:1017A000808190E008958FEF9FEF08959091B803A6
:1017B0008091B7032FEF3FEF981748F4E92FF0E03F
:1017C000EF5DFC4F208130E09F5F9093B803C9012B
:1017D00008958091B7039091B803891B990B0895E0
:1017E000CF93DF93CB01EA01642F0E94810BCE01DE
:1017F000DF91CF910895CF93DF931F92CDB7DEB7DE
:10180000698361E0CE0101960E94810B81E090E046
:101810000F90DF91CF910895DC011696ED91FC9128
:10182000179712968C91481B477081E090E001C099
:10183000880F4A95EAF7E60FF11D3081222319F04F
:10184000832B8083089580958323FBCFFB01418107
:10185000DC0112962C911297421768F013962C9186
:101860001397241740F0608115962C91621718F495
:1018700024810C940C0C0895FC0180819281980FB6
:1018800092832181921760F494819F5F9483938166
:10189000890F821710F08FEF820F838381E0089504
:1018A00080E00895FC01128280818150838314823C
:1018B0000895DB01ED91FC9119940F931F93CF9341
:1018C000DF931F92CDB7DEB70091C0041091C10421
:1018D000E091EF04F091F00482E0199530E020E00F
:1018E0004AE0B8018EEB94E00E94590C182FE09169
:1018F000EF04F091F00483E01995E091EF04F0918A
:10190000F00480E019951123B9F16091C004709141
:10191000C1049E012F5F3F4F46E48EEB94E00E948E
:10192000590C89818093BE046091C0047091C104F8
:101930009E012F5F3F4F47E48EEB94E00E94590CCD
:1019400089818093BF046091C0047091C10430E02C
:1019500020E048E48EEB94E00E94590C8093C90487
:101960006091C0047091C10421EF34E047E18EEB37
:1019700094E00E94590C11E0812F0F90DF91CF91DC
:101980001F910F910895CF93DF938091F7048111F8
:1019900005C081E08093F7040E945D0CC091C004F3
:1019A000D091C104E091EF04F091F00482E0199528
:1019B000E091EF04F091F00481E0199530E020E02F
:1019C00044E1BE018EEB94E00E94590C21EF34E01B
:1019D00047E1BE018EEB94E00E94590CE091EF04C8
:1019E000F091F00480E0DF91CF9119940F931F9351
:1019F000CF93E091CC04F091CD04309719F08EEBA9
:101A000094E019950091C0041091C104E091EF0495
:101A1000F091F00482E01995E091EF04F091F00468
:101A200081E0199530E020E045E1B8018EEB94E0CB
:101A30000E94590CC82F882341F021EF34E047E180
:101A4000B8018EEB94E00E94590CE091EF04F09104
:101A5000F00480E019958C2FCF911F910F9108957C
:101A60000B96FC01849108950A96FC0184910895D7
:101A7000FC01849108950E94380D882321F0823062
:101A800011F083E0089586E00895FC01E60FF11D52
:101A9000849190E0982F88273196E4918E0F911DC4
:101AA000089568E00C94450D66E00C94450D5F9236
:101AB0006F927F928F929F92AF92BF92CF92DF925E
:101AC000EF92FF920F931F93CF93DF93EC01E62EDB
:101AD000F42EC22E0C811D81C8010E94380DD82E13
:101AE0008C819D810E943B0D982E21E0AA24AA940E
:101AF000D21202C02FE0A22E8C819D810E94340D53
:101B0000D82E8C819D810E94300DB82E8C819D81B4
:101B10000E94510DE0E6EC1578F4009769F0080F8B
:101B2000191F91E6D92EBC14C0F4188A1B8A1C8A8E
:101B3000198A1A8A80E0A0C08C819D810E94540D70
:101B4000F0E4FC1538F4009729F0080F191F81E420
:101B5000D82EE9CF0F5E1F4FE6CFBD1430F3892D8D
:101B600090E0F80124912F3F31F40F5F1F4FBD1417
:101B7000E1F2D394F6CFCD1072C08C819D810E948A
:101B8000380D98012F5F3F4FF801882319F08230FC
:101B900009F04EC084918B8BF90124912C8BF801B4
:101BA0003396E491E88BF8013496E491E98BF801DF
:101BB0003596E491EA8B0115110509F4BBCF8C81B0
:101BC0009D810E943B0D3C89F31A9A89F91A9FEF77
:101BD000930F9F0D2CA94EA94F1508F449C09217D9
:101BE00018F49F1508F047C02B899989E90E9FEFDB
:101BF000920F9E0D4BA95DA95E1508F44DC0941778
:101C000018F49E1508F037C0080F111D295F722EB9
:101C10007694769476946F2C630E5E01FCE1AF0EA1
:101C2000B11C872C912CF61431F15E2C68014AC04E
:101C30008491982F9F7092509A8B82958F70898B88
:101C4000F9012491822F8F708C8B22952F702B8B12
:101C5000F8013296E491E295EF70E88BACCF3296C2
:101C6000E491EA21E80FF92FF11D0E0F1F1F7FCF1E
:101C7000921708F0B6CF8889DF91CF911F910F910D
:101C8000FF90EF90DF90CF90BF90AF909F908F909C
:101C90007F906F905F900895941708F0B2CFEBCFCC
:101CA000F60184916A817B815C8EFD8E1F8E8E8F02
:101CB00095014BE3CE010E94590CFFEFCF1ADF0ACA
:101CC00028E0520E8C2D801B871550F3080D191D2E
:101CD000F394A9CFEF92FF920F931F93CF93DF93CB
:101CE000F82E062FE42E152FE091D304F091D404A2
:101CF0008EEB94E01995080FCE2DD12F10E029918D
:101D0000211108C0812FDF91CF911F910F91FF907A
:101D1000EF900895402F6F2D8EEB94E00E94570DA9
:101D2000F80E180FECCF2EE93FE0009709F4089564
:101D3000F9013197F1F70197F8CF90E0FC01EE0F30
:101D4000FF1FEF5EFC4F0190F081E02D875F9C4FFD
:101D5000DC018C919081662319F0892B8083089592
:101D600080958923FBCF860F911DFC0183A18F3FB6
:101D700019F0642F0C94D70908950F931F93CF93F4
:101D80008C01C62F8FB780930803F894617080E0B0
:101D90000E949D0EC1FB662760F981E00E949D0EA6
:101DA000C2FB662760F982E00E949D0EC3FB662796
:101DB00060F983E00E949D0EC4FB662760F984E011
:101DC0000E949D0EC5FB662760F985E00E949D0E6E
:101DD000C6FB662760F986E00E949D0E6C2F661F89
:101DE0006627661F87E00E949D0E809108038FBFC3
:101DF00041E064E0C8010E94B30E84E090E00197E6
:101E0000F1F740E064E0C8010E94B30E88E290E080
:101E1000FC013197F1F70197F1F7CF911F910F91E5
:101E20000895EF92FF921F93CF93DF93EC01142F4D
:101E300079016150673008F0E8C0E62FF0E08827AC
:101E4000EB5DF04F8F4F0C94D81D2C0F41100C10F0
:101E50004310261032103E1088A590E0FC01EF5F81
:101E6000FD4FE491F0E0EE0FFF1FE353FE4F25918D
:101E700034913093120320931103FC01E95BFD4F71
:101E8000E491E093090389A590E0FC01EF5FFD4F29
:101E9000E491F0E0EE0FFF1FE353FE4F25913491E4
:101EA0003093140320931303FC01E95BFD4FE4918D
:101EB000E0930A038AA590E0FC01EF5FFD4FE491F7
:101EC000F0E0EE0FFF1FE353FE4F25913491309366
:101ED000160320931503FC01E95BFD4FE491E093A9
:101EE0000B038BA590E0FC01EF5FFD4FE491F0E068
:101EF000EE0FFF1FE353FE4F2591349130931803EB
:101F000020931703FC01E95BFD4FE491E0930C0380
:101F10008CA590E0FC01EF5FFD4FE491F0E0EE0F47
:101F2000FF1FE353FE4F2591349130931A03209302
:101F30001903FC01E95BFD4FE491E0930D038DA5CE
:101F400090E0FC01EF5FFD4FE491F0E0EE0FFF1F2A
:101F5000E353FE4F2591349130931C0320931B03D0
:101F6000FC01E95BFD4FE491E0930E038EA590E048
:101F7000FC01EF5FFD4FE491F0E0EE0FFF1FE35334
:101F8000FE4F2591349130931E0320931D03FC01D5
:101F9000E95BFD4FE491E0930F038FA590E0FC0116
:101FA000EF5FFD4FE491F0E0EE0FFF1FE353FE4FB4
:101FB000259134913093200320931F03FC01E95BAA
:101FC000FD4FE491E093100388A98F3F41F061E059
:101FD0000E94050A40E06DE0CE010E94B30E7E0132
:101FE00083E2E80EF11CE096F70181917F018F3FBB
:101FF00049F061E00E94050A61E0F70131978081B4
:102000000E94D709CE15DF0579F781E0DF91CF91E6
:102010001F91FF90EF90089541E0112319F01130C6
:1020200059F440E062E0CE010E94B30E41E063E06B
:10203000CE010E94B30EE9CF41E0123009F040E03A
:1020400062E0CE010E94B30E40E0F1CF642FCE01DA
:102050000E94BD0EDACFF70161917F01CE010E948F
:10206000BD0E11501111F7CFD0CFF7016491CE0101
:102070000E94BD0EFFEFEF1AFF0A11501111F5CFAC
:10208000C4CF61E0D5CF8BA18F3F09F4BECF60E014
:10209000CFCFDB011496ED91FC9130E020E065E0BC
:1020A0001994DB011496ED91FC9130E020E062E0A0
:1020B0001994DB011496ED91FC9130E020E063E08F
:1020C00019949F92AF92BF92CF92DF92EF92FF92BC
:1020D0000F931F93CF93DF937C018B01942E6901A3
:1020E0008AE0481739F195E1491709F486C0F801EB
:1020F000C281D381F2E39F1609F431C1F91508F4C6
:10210000D3C085E1981609F42FC197E1991609F417
:102110003BC1A4E19A12F7C0EE81FF818D818E0F41
:102120009F2F911D11928E179F07E1F7CE010E94FC
:10213000520CE9C0DB011496ED91FC9130E020E0F7
:102140004FEF61E0C701199580E09CE9A92E91E06D
:10215000B92EF501C491811110C081E0CF3F49F043
:102160004C2FB801C7010E944910882309F4BFCF42
:1021700080E0BFEFAB1ABB0AECCF4FEFCF3F89F344
:10218000CE3F09F4B4CFC03F98F7C03E38F04C2F93
:102190004F70B801C7010E945110EACFC03D38F01E
:1021A0004C2F4F70B801C7010E945910E1CFC03CBD
:1021B000F8F0D8011496ED91FC9130E020E040E079
:1021C00064E0C7011995C295C07FCE5FD0E0CE0113
:1021D0000E94930ED8011496ED91FC9130E020E01E
:1021E00041E064E0C7011995CE010E94930EC0CF73
:1021F000C7FDBECF8C2F90E0F8CFFB01C281D38109
:1022000040E0C7010E94511042E0B801C7010E949E
:1022100059104C81486BB801C7010E94491040E435
:10222000B801C7010E94491041E0B801C7010E94EE
:1022300051102E813F81D8011496ED91FC9140E41C
:1022400066E0C701199540E0B801C7010E94591026
:1022500040E0B801C7010E94511041E0B801C70138
:102260000E9459104C81486BB801C7010E94491067
:1022700040E4B801C7010E94491041E0B801C7011C
:102280000E9451102E813F81205C3F4FD80114964F
:10229000ED91FC9140E466E0C701199540E0B8017A
:1022A000C7010E94591023CFB6E49B1609F47BC0E6
:1022B000E7E49E1609F47BC0FBE39F1224C0D6011D
:1022C00011969C91119713968C9138E0390F8130BB
:1022D00031F0833011F0392F02C0392F985021E0AE
:1022E0004B81491708F420E041E0391708F040E03D
:1022F00091E05A81351708F490E0322F342B932364
:1023000079F4242369F481E0DF91CF911F910F913B
:10231000FF90EF90DF90CF90BF90AF909F90089587
:10232000F601128100E0F12C843048F490E0FC01C9
:10233000E55DFD4FF080895D9D4FDC010C9117FF3D
:1023400004C0B601CE010E94260CF60180818F0DDB
:1023500080838181800F8183110F89F7D4CFB601EB
:10236000CE010E94260CCFCFCE010E943C0C8823C8
:1023700059F2EE81FF818D818E0F9F2F911D119259
:102380008E179F07E1F7BFCFD6011C928A81119665
:102390008C9311978D81815012968C9312978B811B
:1023A00013968C93B0CF8D81F6018083ACCF898159
:1023B000D6018C93A8CF8091B7039091B803891B65
:1023C000990B02974CF061E086E10E94D70983E205
:1023D00094E00E94D60BEFCF0895DF92EF92FF9228
:1023E0000F931F93CF93DF93EC01D62E1CAD0BAD53
:1023F0007C0184E0E80EF11CE98DFA8DC701199586
:10240000412F480F2D2D602FC7010E94570D9BAD06
:10241000890F8BAF81E090E0DF91CF911F910F91F9
:10242000FF90EF90DF900895089590E080E0089588
:102430008091DD038823A9F04DED53E0FA0101906E
:102440000020E9F7AF014E5D53406DED73E083E28C
:1024500094E00E94F00B6FE572E08DED93E00C9438
:10246000151E0895CF93DF9385ED8093BC00809176
:10247000430390914403A0914503B091460307960E
:10248000A11DB11D23E0B695A795979587952A952F
:10249000D1F72091BC0024FD03C010928B0336C0FD
:1024A000409143035091440360914503709146036A
:1024B000452B462B472B69F30097A105B10541F049
:1024C0002AE22A95F1F700C00197A109B109E1CFED
:1024D0008091420391E0909341038823B9F0C09129
:1024E000B800D091BA008091BC008A7B8093BC0078
:1024F00060E084E10E94D70960E085E10E94D7098D
:102500000E94A80BD093BA00C093B800DF91CF917E
:1025100008951F920F920FB60F9211242F933F939D
:102520008F939F93AF93BF9380911B0490911C0452
:10253000A0911D04B0911E0430911A0423E0230FD2
:102540002D3758F50196A11DB11D20931A048093D3
:102550001B0490931C04A0931D04B0931E0480914F
:102560001F0490912004A0912104B09122040196AF
:10257000A11DB11D80931F0490932004A0932104FA
:10258000B0932204BF91AF919F918F913F912F9172
:102590000F900FBE0F901F90189526E8230F0296FC
:1025A000A11DB11DD2CF1F920F920FB60F92112411
:1025B0000BB60F922F933F934F935F936F937F933D
:1025C0008F939F93AF93BF93EF93FF938091D1032A
:1025D0009091D203A091D303B091D403892B8A2B7D
:1025E0008B2BE1F19091C003E091C103F091C20304
:1025F0008081892780838091D1039091D203A0911B
:10260000D303B091D403181619061A061B069CF4BE
:102610008091D1039091D203A091D303B091D403C0
:102620000197A109B1098093D1039093D203A0939C
:10263000D303B093D403FF91EF91BF91AF919F91DA
:102640008F917F916F915F914F913F912F910F905B
:102650000BBE0F900FBE0F901F901895809108022F
:102660000E940F0BE8CF1F920F920FB60F9211240A
:102670000BB60F922F933F934F935F936F937F937C
:102680008F939F93AF93BF93EF93FF938091B90084
:10269000887F803609F44DC008F040C0883209F4C4
:1026A000A9C028F5803109F49DC0C8F4882309F435
:1026B000FBC0883009F496C0FF91EF91BF91AF91B4
:1026C0009F918F917F916F915F914F913F912F914A
:1026D0000F900BBE0F900FBE0F901F901895883172
:1026E00009F488C0803241F780938A0314C0803493
:1026F00009F49DC040F48033B9F38833E9F6809340
:102700008A0385ECB0C0803509F485C0883509F4AA
:1027100096C0883489F60E943212CECF883909F4E7
:102720008CC038F5883729F050F4883611F080379E
:1027300019F683E080938B031092890357C0883881
:1027400009F47BC0803919F0803809F0B5CF809149
:102750008903803208F071C0E091890381E08E0F17
:10276000809389038091BB00F0E0E759FC4F8083A0
:102770003DC0803B39F0E0F4803A09F479C0883AF2
:1027800009F09ACF84E080938B0310926803109233
:102790006703E091B303F091B40319958091670347
:1027A00081110FC081E0809367031092470309C035
:1027B000803C09F4A6CF883C09F4A3CF883B09F0FC
:1027C0007BCFE091680381E08E0F80936803F0E097
:1027D000E95BFC4F80818093BB00909168038091FE
:1027E000670329C08091B0038093BB0085EC809380
:1027F000BC0062CF9091AF038091AE03981758F55B
:10280000E091AF0381E08E0F8093AF03F0E0E257D9
:10281000FC4F8081E9CFE091AF0381E08E0F809380
:10282000AF038091BB00F0E0E257FC4F80839091B2
:10283000AF038091AE039817C8F285E8D8CFE09136
:10284000AF0381E08E0F8093AF038091BB00F0E077
:10285000E257FC4F808380918D0381115CCF81E032
:1028600080938C0384EA8093BC0010928B0324CF66
:1028700085EC8093BC0010928B0380918903803299
:1028800030F4E0918903F0E0E759FC4F1082609149
:10289000890370E0E091B103F091B20389E693E01F
:1028A00019951092890308CF10928A0334CF1092A1
:1028B00026041092250488EE93E0A0E0B0E0809317
:1028C000270490932804A0932904B0932A0483E357
:1028D00092E090932404809323041092BD041092FC
:1028E000BC048FE492E09093BB048093BA041092EE
:1028F000F5041092F6041092F7041092C30410929B
:10290000C2041092C5041092C4041092C70481E05E
:102910008093C60482E28093C8041092CD04109282
:10292000CC04E1EEF4E08FEF819394E0EF3EF90701
:10293000D9F791E09093DE0425ED38E03093D4048C
:102940002093D3049093D5041092D6041092D70408
:1029500090E49093D8041092D90424ED38E0309399
:10296000F0042093EF0429E032E03093C104209377
:10297000C00498E09093E60499E09093E7049AE00D
:102980009093E8049BE09093E90494E09093EA0428
:1029900095E09093EB0496E09093EC0497E090938D
:1029A000ED049AE39093E50496E39093E30497E3B0
:1029B0009093E40499E39093E20498E39093EE04F7
:1029C0008093E1040E945D0C8FE492E09093BB043D
:1029D0008093BA0410924D04109251041092500446
:1029E0001092520485E492E090934C0480934B043F
:1029F000E7E6F4E083EA94E0108214821382158201
:102A000036968E179F07C1F783E192E09093AE044C
:102A10008093AD048FE092E09093B0048093AF0474
:102A200084E08093B1048093B20487E192E09093B4
:102A3000AC048093AB048AE090E09093B40480935C
:102A4000B30484EF91E09093B6048093B5041092A0
:102A5000B9041092B8041092A7041092A80410921E
:102A6000A9041092AA041092B70482E190E0909316
:102A7000300480932F04109232041092310410928B
:102A800033041092340410923504109236041092DC
:102A90003704109238041092390410923A041092BC
:102AA0003B0410923C0410923D0410923E0410929C
:102AB000400410923F04109242041092410410927C
:102AC000440410924304109246041092450410925C
:102AD0004704109248041092490410924A0461E09D
:102AE0000C94050ACF93DF93CDB7DEB7C754D10955
:102AF0000FB6F894DEBF0FBECDBF789484B5826068
:102B000084BD84B5816084BD85B5826085BD85B591
:102B1000816085BD80916E00816080936E0010920F
:102B2000810080918100826080938100809181008A
:102B3000816080938100809180008160809380001B
:102B40008091B10084608093B1008091B000816079
:102B50008093B00080919100826080939100809179
:102B600091008160809391008091900081608093BA
:102B700090008091A10082608093A1008091A100CB
:102B800081608093A1008091A00081608093A0006B
:102B900080912101826080932101809121018160D7
:102BA0008093210180912001816080932001809198
:102BB0007A00846080937A0080917A0082608093AA
:102BC0007A0080917A00816080937A0080917A0007
:102BD000806880937A001092C10081E08093F704AE
:102BE0000E945D0C61E086E10E94050A61E087E1D8
:102BF0000E94050A61E088E10E94050A61E082E125
:102C00000E94050A0E94C30C0E94D70847E552E0C3
:102C10006AE08EE10E946A0E40E652E06EE182E3D5
:102C20000E946A0E44E652E062E38AE00E946A0E65
:102C30000E94F60C8111E8CF0E94410A4B015C0111
:102C400060EDC62E67E0D62EE12CF12C0E94410AE1
:102C5000681979098A099B09683E734081059105C5
:102C6000A8F321E0C21AD108E108F10838EE830E7A
:102C700033E0931EA11CB11CC114D104E104F10482
:102C800029F71092B8031092B7031092B60310926E
:102C9000B5030E94A80B89ED9AE09093B40380934A
:102CA000B30385EE9AE09093B2038093B10382E17F
:102CB0008093BA008BED91E19093BA038093B903AE
:102CC00088E192E19093BC038093BB038091C90497
:102CD000883209F086C08FEF8093DE046FE572E0E2
:102CE0008DED93E00E94151E0E94C30C0E94D70830
:102CF00046E752E06AE085E00E946A0E0E94F60C08
:102D00008111F4CF80913104909132048230910589
:102D100009F477C08330910509F495C0019781F5D6
:102D20000E94660A00913B0410913C0420913D04EE
:102D300030913E04601B710B820B930B00913304A6
:102D400010913404209135043091360460177107D6
:102D500082079307A8F082E090E09093320480937A
:102D600031040E94660A60933B0470933C04809394
:102D70003D0490933E0461E080912F040E94D709A6
:102D800081E08093B7040E94660A0091A704109125
:102D9000A8042091A9043091AA04AB01BC01401BF6
:102DA000510B620B730B8091B3049091B404B0E0AB
:102DB000A0E084179507A607B70708F0E7C410E05E
:102DC0008091B104181708F0D9C3E091AD04F091D7
:102DD000AE04E10FF11D62E080810E94050A1F5FD1
:102DE000EFCF823011F483E077CF813009F474CFD4
:102DF000803309F073CF8FEF8093DE048093DF047C
:102E00006DCF0E94660A00913B0410913C04209112
:102E10003D0430913E04601B710B820B930B0091BB
:102E20003704109138042091390430913A04601726
:102E300071078207930708F4A3CF1092320410920F
:102E4000310460E099CF209145043091460480918F
:102E5000430490914404281739070CF086C38091ED
:102E6000470490914804A0914904B0914A04892BE9
:102E70008A2B8B2B09F04AC0E2EBF1E0220F331FC3
:102E8000A0914104B0914204A20FB31F6D917C91B7
:102E900088EE93E00E94831D28967FAF6EAF28973F
:102EA0002B01770F6608770880913F0490914004CA
:102EB000280F391FD9012D903C9080912F049091BB
:102EC000300420910802281353C0149117FFAFC09B
:102ED000C301B2010E948A1C26E636E646EA5FE399
:102EE0000E94EE1C0E94591C609347047093480492
:102EF0008093490490934A040E94660A60933B04BD
:102F000070933C0480933D0490933E040E94660AB3
:102F100000913B0410913C0420913D0430913E040B
:102F2000601B710B820B930B0091470410914804B6
:102F30002091490430914A04601771078207930772
:102F400008F41ECF80912F040E940F0B10924704AB
:102F5000109248041092490410924A04809145044A
:102F6000909146040196909346048093450408CFBF
:102F70002F3F09F0ADCF809308021491212F1F3FFE
:102F800009F4A6CF123009F430C158F4112399F195
:102F9000113009F407C127FD9BCF61E00E94050AAB
:102FA0004BC0143009F46AC108F445C1153099F7D3
:102FB000109220011092210120912101286020937C
:102FC0002101209121012160209321019C013327BF
:102FD000F901EF5FFD4FE491F0E0EE0FFF1FE353C7
:102FE000FE4F45915491F901E95BFD4FE491E09367
:102FF000BD0315E01CC014BC15BC24B5226024BD63
:1030000025B5216025BD9C013327F901EF5FFD4FF8
:10301000E491F0E0EE0FFF1FE353FE4F4591549112
:10302000F901E95BFD4FE491E093C40310E061E036
:103030000E94050A112319F0123009F0BEC14101A6
:10304000B12CA12C60E072E18AE790E0A50191012A
:103050000E94B91D26962CAF3DAF4EAF5FAF2697AD
:1030600069017A01B1E0CB1AD108E108F108EFEF6C
:10307000CE16D104E104F10409F00CF46FC160E450
:1030800072E48FE090E0A50191010E94B91D6901F1
:103090007A01F1E0CF1AD108E108F108123009F005
:1030A00010C182E02FEFC216D104E104F10409F04F
:1030B0000CF471C060E970ED83E090E0A50191012E
:1030C0000E94B91D69017A0181E0C81AD108E1089E
:1030D000F10883E09FEFC916D104E104F10409F07F
:1030E0000CF459C068E478EE81E090E0A50191010C
:1030F0000E94B91D69017A01F1E0CF1AD108E108F7
:10310000F10884E02FEFC216D104E104F10409F0C4
:103110000CF441C064E274EF80E090E0A5019401FA
:103120000E94B91D69017A01E1E0CE1AD108E108D7
:10313000F10885E0FFEFCF16D104E104F10459F165
:1031400050F162E17AE780E090E0A50194010E94ED
:10315000B91D69017A01B1E0CB1AD108E108F10883
:1031600086E0EFEFCE16D104E104F104A1F098F06F
:103170002696CCACDDACEEACFFAC26979AE0F5948D
:10318000E794D794C7949A95D1F7B1E0CB1AD108B8
:10319000E108F10887E09091B100987F892B809336
:1031A000B100E3C010928000109281002091810054
:1031B000286020938100209181002160209381006C
:1031C0009C013327F901EF5FFD4FE491F0E0EE0F32
:1031D000FF1FE353FE4F45915491F901E95BFD4F09
:1031E000E491E093C30311E022CF1092B00010925B
:1031F000B1002091B00022602093B0002091B10076
:1032000021602093B1009C013327F901EF5FFD4F4E
:10321000E491F0E0EE0FFF1FE353FE4F4591549110
:103220005093C2034093C103F901E95BFD4FE49160
:10323000E093C003FCCE1092900010929100209178
:1032400091002860209391002091910021602093AB
:1032500091009C013327F901EF5FFD4FE491F0E00D
:10326000EE0FFF1FE353FE4F45915491F901E95BC7
:10327000FD4FE491E093BF0313E0D9CE1092A0007C
:103280001092A1002091A10028602093A10020911C
:10329000A10021602093A1009C013327F901EF5F79
:1032A000FD4FE491F0E0EE0FFF1FE353FE4F459119
:1032B0005491F901E95BFD4FE491E093BE0314E002
:1032C000B6CEAFEFCA16D104E104F10409F00CF454
:1032D00072C068E478EE81E090E0A50191010E945F
:1032E000B91D69017A01B1E0CB1AD108E108F108F2
:1032F00084E011111FCF83E0AFEFCA16D104E104BF
:10330000F10479F174F162E17AE780E090E0A501DF
:1033100094010E94B91D69017A0181E0C81AD1089F
:10332000E108F10884E09FEFC916D104E104F1043B
:10333000C1F0B8F02696CCACDDACEEACFFAC269775
:103340008AE0F594E794D794C7948A95D1F7E1E0A1
:10335000CE1AD108E108F10885E003C081E011111F
:103360001ACF95B5987F892B85BD2FEF3FEFA90127
:10337000411451046104710409F058C0123009F479
:10338000E4C00CF0CCC0112309F4D0C0113009F016
:103390009FCDD0928900C09288002093D5033093AE
:1033A000D6034093D7035093D80380916F00826077
:1033B00080936F008DCD82E0D2CFB12CA12C60E044
:1033C00072E18AE790E0A50191010E94B91D6901AF
:1033D0007A01F1E0CF1AD108E108F10891E0C114B7
:1033E000D10421E0E206F10484F068E478EE81E0A3
:1033F00090E0A50191010E94B91D69017A0181E067
:10340000C81AD108E108F10893E01130F9F480916D
:103410008100887F892B809381002FEF3FEFA901E6
:10342000411451046104710409F4B3CF9101220FD6
:10343000331F2896AEADBFAD28970E94E01D28EE41
:1034400033E040E050E00E94971D98CF133001F523
:1034500080919100887F892B809391002FEF3FEF1F
:10346000A901411451046104710401F7D09299003B
:10347000C09298002093CD033093CE034093CF03A6
:103480005093D0038091710082608093710020CDB1
:10349000143009F58091A100887F892B8093A100C9
:1034A0002FEF3FEFA901411451046104710409F0A9
:1034B000BDCFD092A900C092A8002093C903309339
:1034C000CA034093CB035093CC0380917200826077
:1034D00080937200FDCC153009F047CF8091210117
:1034E000887F892B809321012FEF3FEFA9014114A1
:1034F00051046104710409F099CFD0922901C0925E
:1035000028012093C5033093C6034093C70350930B
:10351000C80380917300826080937300D9CC14300B
:1035200041F20CF4A3CF153041F3D2CCC7BC2093A9
:10353000D9033093DA034093DB035093DC0380918B
:103540006E00826080936E00C3CCC092B300209363
:10355000D1033093D2034093D3035093D40380918B
:103560007000826080937000B3CC80912F040E9421
:103570000F0B109232041092310402CC912C8091E6
:10358000B204981608F063C0E92CF12CE091AF0466
:10359000F091B004EE0DFF1D61E080810E94050AEC
:1035A000E091AF04F091B004EE0DFF1D60E080816A
:1035B0000E94D70981E090E0A0E0B0E0092C04C0AF
:1035C000880F991FAA1FBB1F0A94D2F75C016C01D8
:1035D000C094D094812C8091B104881608F5082DF0
:1035E00010E0E091AD04F091AE04E00FF11F808196
:1035F0000E94AE090C5F1F4F000F111FF801E55B21
:10360000FB4F892B41F4808191818A299B299183E9
:1036100080838394E0CF808191818C219D21F7CF9D
:10362000E091AF04F091B004EE0DFF1D61E08081E8
:103630000E94D7098091AF049091B004E80EF91E62
:1036400060E0D7018C910E94050A939498CF4BE4D7
:10365000E42E44E0F42E87E894E06701F601278D1C
:1036600030A1232B31F4148E2FEF3FEF368F258FAF
:1036700011A236E0C30ED11C8C159D0579F7B12C33
:1036800036E0932E8091B104B81608F050C0A12CFA
:103690000B2D10E0000F111F0D5A1B4F2091B2048B
:1036A000A21608F042C0D8016D917C910A2C02C08C
:1036B000769567950A94E2F7B29E900111242A0D3F
:1036C000311DEBE4F4E080E0458D568D241735077D
:1036D00009F4E8C08F5F36968A30B1F760FF23C0E7
:1036E000EBE4F4E090E080E0448D411117C0E091FC
:1036F000AB04F091AC04E20FF31F4081989EF001FF
:10370000999EF00D1124E55BFB4F448F368F258F7A
:1037100010A2178E61E00E94720A05C001963696CB
:103720008A30910509F7A394B9CFB394ABCF10E0D9
:10373000F70181A18111182FF6E0EF0EF11CCE14D4
:10374000DF04B1F70E94660A6093A7047093A8048F
:103750008093A9049093AA041123C1F080916C0472
:103760008823A1F080916A0490916B04019771F411
:10377000809167048093190481116DC080E090E00E
:10378000892B09F4BFCA0E940000BCCA1092B7047A
:1037900010921904109119041D3309F07FC061EFD4
:1037A00073E08DED93E00E94151E10923304109289
:1037B0003404109235041092360480E590E0A0E0C5
:1037C000B0E08093370490933804A0933904B09309
:1037D0003A0481E090E090933204809331040E9497
:1037E000660A60933B0470933C0480933D0490937D
:1037F0003E04133419F661EF73E08E010F5F1F4F23
:10380000C8010E94151E6FE572E081EF93E00E94EF
:10381000151ED8010D900020E9F7AD01401B510B9A
:1038200042505109B80181EF93E00E941C1E0E9492
:10383000C30C0E94D70841EF53E06FE085E00E947F
:103840006A0E0E94F60C8111F4CF6FE572E0C80198
:103850000E94151E93CF8D3339F1833439F196EDE3
:10386000980F923018F193ED980F9330F8F0809301
:10387000050465E074E081EF93E00E940A1E0E9457
:10388000C30C0E94D70841EF53E06FE085E00E942F
:103890006A0E0E94F60C8111F4CF7CCF112309F43B
:1038A0006DCF83CF617037CF1DE379CF10911904AD
:1038B0007CCF0E94CD1C88F09F5798F0B92F992794
:1038C000B751B0F0E1F0660F771F881F991F1AF00B
:1038D000BA95C9F714C0B13091F00E94E71CB1E06D
:1038E00008950C94E71C672F782F8827B85F39F06C
:1038F000B93FCCF3869577956795B395D9F73EF4A4
:1039000090958095709561957F4F8F4F9F4F08954B
:10391000E89409C097FB3EF4909580957095619569
:103920007F4F8F4F9F4F9923A9F0F92F96E9BB271F
:103930009395F695879577956795B795F111F8CF9B
:10394000FAF4BB0F11F460FF1BC06F5F7F4F8F4F06
:103950009F4F16C0882311F096E911C0772321F0FC
:103960009EE8872F762F05C0662371F096E8862F94
:1039700070E060E02AF09A95660F771F881FDAF7EB
:10398000880F9695879597F9089557FD9058440F9D
:10399000551F59F05F3F71F04795880F97FB991FAE
:1039A00061F09F3F79F0879508951216130614066B
:1039B000551FF2CF4695F1DF08C0161617061806F8
:1039C000991FF1CF86957105610508940895E894D3
:1039D000BB2766277727CB0197F908950E94011D21
:1039E0000C94721D0E94641D38F00E946B1D20F023
:1039F000952311F00C945B1D0C94611D11240C9403
:103A0000E81C0E94C51C70F3959FC1F3950F50E010
:103A1000551F629FF001729FBB27F00DB11D639F80
:103A2000AA27F00DB11DAA1F649F6627B00DA11D26
:103A3000661F829F2227B00DA11D621F739FB00DCC
:103A4000A11D621F839FA00D611D221F749F33273C
:103A5000A00D611D231F849F600D211D822F762FD5
:103A60006A2F11249F5750409AF0F1F088234AF0B2
:103A7000EE0FFF1FBB1F661F771F881F915050401E
:103A8000A9F79E3F510580F00C945B1D0C94E81C37
:103A90005F3FE4F3983ED4F3869577956795B795A5
:103AA000F795E7959F5FC1F7FE2B880F911D9695BF
:103AB000879597F9089597F99F6780E870E060E02F
:103AC00008959FEF80EC089500240A9416161706B7
:103AD00018060906089500240A94121613061406FF
:103AE00005060895092E0394000C11F4882352F062
:103AF000BB0F40F4BF2B11F460FF04C06F5F7F4F1A
:103B00008F4F9F4F089597FB072E16F4009407D010
:103B100077FD09D00E94E71D07FC05D03EF4909583
:103B200081959F4F0895709561957F4F0895A1E20B
:103B30001A2EAA1BBB1BFD010DC0AA1FBB1FEE1F27
:103B4000FF1FA217B307E407F50720F0A21BB30B72
:103B5000E40BF50B661F771F881F991F1A9469F7EE
:103B600060957095809590959B01AC01BD01CF014A
:103B70000895052E97FB1EF400940E94D01D57FD5A
:103B800007D00E94971D07FC03D04EF40C94D01D63
:103B900050954095309521953F4F4F4F5F4F089579
:103BA00090958095709561957F4F8F4F9F4F0895A9
:103BB000EE0FFF1F881F8BBF0790F691E02D199421
:103BC0000E94FB1DB7FF0895821B930B0895AA1B4B
:103BD000BB1B51E107C0AA1FBB1FA617B70710F0F8
:103BE000A61BB70B881F991F5A95A9F7809590952A
:103BF000BC01CD010895A29FB001B39FC001A39F56
:103C0000700D811D1124911DB29F700D811D112415
:103C1000911D0895FB01DC010D900020E9F711973B
:103C200001900D920020E1F70895FB01DC01019065
:103C30000D920020E1F70895FB01DC014150504056
:103C400048F001900D920020C9F701C01D9241502B
:103C50005040E0F70895F894FFCF0840000000803E
:103C60008802FF61100002110F0E0F1011000102F7
:103C7000033738392F3435362A3132332E43303D2D
:103C80002B000100FF0100FF0000000000FB0BF013
:103C90000B1512C60BE90BD60BC70B00000000CEAC
:103CA0000AD20AD60A00000000ED11540B151214B6
:103CB0001257656C636F6D652000546F2000486576
:103CC000726974616765206D616368696E65730010
:103CD000496E70757420756E6C6F636B20636F64D2
:023CE00065007D
:020000040003F7
:10E000000D9489F10D94B2F10D94B2F10D94B2F129
:10E010000D94B2F10D94B2F10D94B2F10D94B2F1F0
:10E020000D94B2F10D94B2F10D94B2F10D94B2F1E0
:10E030000D94B2F10D94B2F10D94B2F10D94B2F1D0
:10E040000D94B2F10D94B2F10D94B2F10D94B2F1C0
:10E050000D94B2F10D94B2F10D94B2F10D94B2F1B0
:10E060000D94B2F10D94B2F10D94B2F10D94B2F1A0
:10E070000D94B2F10D94B2F10D94B2F10D94B2F190
:10E080000D94B2F10D94B2F10D94B2F10D94B2F180
:10E090000D94B2F10D94B2F10D94B2F10D94B2F170
:10E0A0000D94B2F10D94B2F10D94B2F10D94B2F160
:10E0B0000D94B2F10D94B2F10D94B2F10D94B2F150
:10E0C0000D94B2F10D94B2F10D94B2F10D94B2F140
:10E0D0000D94B2F10D94B2F10D94B2F10D94B2F130
:10E0E0000D94B2F141546D656761323536300041AF
:10E0F000726475696E6F206578706C6F72657220DE
:10E1000073746B3530305632206279204D4C530099
:10E11000426F6F746C6F616465723E004875683F52
:10E1200000436F6D70696C6564206F6E203D200048
:10E130004350552054797065202020203D20005FF9
:10E140005F4156525F415243485F5F3D2000415658
:10E1500052204C696243205665723D20004743437C
:10E160002056657273696F6E203D20004350552024
:10E1700049442020202020203D20004C6F7720663D
:10E18000757365202020203D20004869676820665F
:10E190007573652020203D200045787420667573D6
:10E1A00065202020203D20004C6F636B2066757336
:10E1B000652020203D20004D617220203720323024
:10E1C000313300312E362E3800342E332E350056A2
:10E1D00023202020414444522020206F7020636F70
:10E1E00064652020202020696E73747275637469E1
:10E1F0006F6E2061646472202020496E74657272B3
:10E20000757074006E6F20766563746F7200726A49
:10E210006D702020006A6D70200057686174207056
:10E220006F72743A00506F7274206E6F7420737541
:10E2300070706F72746564004D7573742062652030
:10E2400061206C6574746572002000577269747483
:10E25000696E672045450052656164696E672045B7
:10E26000450045452065727220636E743D00504F35
:10E27000525400303D5A65726F2061646472003FF1
:10E280003D43505520737461747300403D454550C3
:10E29000524F4D207465737400423D426C696E6B41
:10E2A000204C454400453D44756D70204545505215
:10E2B0004F4D00463D44756D7020464C415348001B
:10E2C000483D48656C70004C3D4C69737420492F83
:10E2D0004F20506F72747300513D51756974005234
:10E2E0003D44756D702052414D00563D73686F7707
:10E2F00020696E7465727275707420566563746FF0
:10E30000727300593D506F727420626C696E6B00BD
:10E310002A0011241FBECFEFD1E2DEBFCDBF01E046
:10E320000CBF12E0A0E0B2E0EEE1FDEF03E00BBFB6
:10E3300002C007900D92A030B107D9F712E0A0E01B
:10E34000B2E001C01D92AE30B107E1F70F9460F367
:10E350000D948DFE01E20EBF0FEF0DBF11241FBE05
:10E360000D9460F30D9400F020E030E040ED57E0B4
:10E3700005C0FA013197F1F72F5F3F4F2817390792
:10E38000C0F308959C01260F311DC901A0E0B0E043
:10E390002F5F3F4FABBFFC018791882361F08093D3
:10E3A000C6008091C00086FFFCCF8091C0008064D1
:10E3B0008093C000EACF08958DE08093C6008091DD
:10E3C000C00086FFFCCF8091C00080648093C000B5
:10E3D0008AE08093C6008091C00086FFFCCF8091C8
:10E3E000C00080648093C00008950F94C2F10F9420
:10E3F000DCF10895FC019081992359F09093C600B7
:10E400008091C00086FFFCCF8091C0008064809323
:10E41000C0003196992379F70895282F982F929567
:10E420009F70892F805D8A3308F0895F8093C600D2
:10E430008091C00086FFFCCF8091C00080648093F3
:10E44000C000822F8F70982F905D9A3308F0995FEB
:10E450009093C6008091C00086FFFCCF8091C000E1
:10E4600080648093C00008959C01FB01853691056E
:10E470001CF46330710594F0C90164E670E00F94F8
:10E480002EFE605D7F4F6093C6008091C00086FFC6
:10E49000FCCF8091C00080648093C0002B30310598
:10E4A00014F43297B4F0C90164E670E00F942EFEC4
:10E4B0006AE070E00F942EFE605D7F4F6093C600AF
:10E4C0008091C00086FFFCCF8091C0008064809363
:10E4D000C000C9016AE070E00F942EFEC0968093E0
:10E4E000C6008091C00086FFFCCF8091C000806490
:10E4F0008093C00008951F93182F8EE692EE60E07F
:10E500000F94C2F11093C6008091C00086FFFCCF2B
:10E510008091C00080648093C0000F94DCF11F9153
:10E5200008952F923F924F925F926F927F928F92B7
:10E530009F92AF92BF92CF92DF92EF92FF920F9392
:10E540001F93DF93CF93CDB7DEB762970FB6F894E2
:10E55000DEBF0FBECDBF382E622ECA01DB015C01CB
:10E560006D01772420E2222E2E010894411C511CBB
:10E570008BC081E0A81680E0B80681E0C80680E084
:10E58000D80628F0C601AA27BB270F940DF2BB2797
:10E59000AD2D9C2D8B2D0F940DF28A2D0F940DF225
:10E5A0002092C6008091C00086FFFCCF8091C00001
:10E5B00080648093C0009DE29093C6008091C0006B
:10E5C00086FFFCCF8091C00080648093C0002092C1
:10E5D000C6008091C00086FFFCCF8091C00080649F
:10E5E0008093C00019828601750188249924A1E0D6
:10E5F0003A1651F03A1620F0B2E03B1661F409C029
:10E600000BBFF701779007C0C7010F9477FE782EF4
:10E6100002C0F7017080872D0F940DF22092C60082
:10E620008091C00086FFFCCF8091C0008064809301
:10E63000C000872D8052F401EF70F0708F3520F408
:10E64000E40DF51D708204C0E40DF51D8EE280839B
:10E650000894E11CF11C011D111D0894811C911CE2
:10E6600090E18916910409F0C2CF80E190E0A0E02A
:10E67000B0E0A80EB91ECA1EDB1E198AC2010F9493
:10E68000FAF10F94DCF16A94662009F072CF629679
:10E690000FB6F894DEBF0FBECDBFCF91DF911F91B3
:10E6A0000F91FF90EF90DF90CF90BF90AF909F9031
:10E6B0008F907F906F905F904F903F902F90089534
:10E6C0002F923F924F925F926F927F928F929F9282
:10E6D000AF92BF92CF92DF92EF92FF920F931F9370
:10E6E000DF93CF93CDB7DEB7CD53D1400FB6F894BB
:10E6F000DEBF0FBECDBF01E20EBF0FEF0DBF94B75F
:10E70000F894A89514BE80916000886180936000A1
:10E7100010926000789493FF05C0E0910002F091A0
:10E7200001021995279A2F9A8091C00082608093E8
:10E73000C00080E18093C40088E18093C1000000A4
:10E74000EE24FF24870144E0A42EB12CCC24DD2448
:10E7500024C0C5010197F1F70894E11CF11C011DCB
:10E76000111D21E2E2162EE4F20620E0020720E06D
:10E77000120718F031E0C32ED12CC801B70127ECE5
:10E780003BE140E050E00F9441FE611571058105C9
:10E79000910519F485B1805885B98091C00087FD35
:10E7A00003C0C114D104A9F2A6014F5F5F4FC25E3E
:10E7B000DE4F59834883CE51D140C25EDE4F8881FF
:10E7C0009981CE51D140019711F00D9410FEC05D9A
:10E7D000DE4F19821882C053D14060E0C15DDE4F28
:10E7E0001882CF52D14088249924C35DDE4F19820C
:10E7F0001882CD52D140C05EDE4F188219821A8233
:10E800001B82C052D140CE5CDE4F188219821A8220
:10E810001B82C253D140EE24FF2487010BBFF701B6
:10E8200007911691C45CDE4F19830883CC53D14005
:10E830000D940BFEC25EDE4F28813981CE51D1404E
:10E840002130310509F52091C600C25EDE4F1982E4
:10E850001882CE51D14022C02F5F3F4F4F4F5F4FA4
:10E86000213082E138078AE7480780E0580780F0C6
:10E87000C45CDE4FE881F981CC53D140EF5FFF4F9C
:10E8800019F0EE27FF27099420E030E040E050E047
:10E890008091C00087FFE0CF2091C600C35DDE4FAE
:10E8A00048815981CD52D1404F5F5F4FC35DDE4FEC
:10E8B00059834883CD52D140213209F063C64A3092
:10E8C000510508F05FC60894811C911C53E0851621
:10E8D000910409F059C600E010E018C081E280936D
:10E8E000C6008091C00086FFFCCF8091C00080648C
:10E8F0008093C0002F5F3F4F2931310579F70F9486
:10E90000DCF10F5F1F4F0530110519F020E030E0FA
:10E91000E5CF10920A0210920B0210920C02109294
:10E920000D02109206021092070210920802109235
:10E930000902109202021092030210920402109235
:10E9400005028FEE90EE60E00F94F5F180E191EE1C
:10E9500060E00F94C2F18091C00087FFFCCF9091DE
:10E96000C600903608F09F759032B8F09093C600BC
:10E970008091C00086FFFCCF8091C00080648093AE
:10E98000C000A0E2A093C6008091C00086FFFCCF2B
:10E990008091C00080648093C000983409F4D7C18E
:10E9A0009934B8F4923409F459C1933458F490333B
:10E9B00019F1903308F4E3C59F33A1F1903409F0C5
:10E9C000DEC5BDC0953409F470C1963409F0D7C5D1
:10E9D00098C1923509F42BC2933538F49C3409F46C
:10E9E000F5C1913509F0CBC518C2963509F445C279
:10E9F000993509F0C4C567C483E792EE62E00F94CD
:10EA0000F5F110920602109207021092080210927D
:10EA1000090210920A0210920B0210920C0210923C
:10EA20000D0213C18FE792EE62E00F94F5F18FEEC5
:10EA300090EE60E00F94F5F181E291EE60E00F94CA
:10EA4000C2F187EB91EE60E00F94F5F180E391EE77
:10EA500060E00F94C2F184EE90EE60E00F94F5F167
:10EA60008FE391EE60E00F94C2F186E090E061E008
:10EA700070E00F9434F20F94DCF18DE591EE60E0DC
:10EA80000F94C2F189EC91EE60E00F94F5F18EE401
:10EA900091EE60E00F94C2F183EC91EE60E00F9490
:10EAA000F5F18CE691EE60E00F94C2F18EE10F94E7
:10EAB0000DF288E90F940DF281E00F940DF20F949E
:10EAC000DCF18BE791EE60E00F94C2F119E0E0E039
:10EAD000F0E010935700E4918E2F0F940DF20F94F5
:10EAE000DCF18AE891EE60E00F94C2F1E3E0F0E03F
:10EAF00010935700E4918E2F0F940DF20F94DCF1D8
:10EB000089E991EE60E00F94C2F1E2E0F0E0109349
:10EB10005700E4918E2F0F940DF20F94DCF188EAE8
:10EB200091EE60E00F94C2F1E1E0F0E01093570045
:10EB30001491812F0F940DF20F94DCF107CF8BE825
:10EB400092EE62E00F94F5F18BE492EE60E00F94A8
:10EB5000F5F10F94DCF100E010E019C0C8016F2D51
:10EB60000F947FFEFF2031F489E492EE60E00F9471
:10EB7000C2F10BC0F092C6008091C00086FFFCCFAE
:10EB80008091C00080648093C0000F5F1F4FC80158
:10EB900081519F41A0E0B0E0ABBFFC01F790BAE229
:10EBA000FB1621F0E2E000301E07C1F60F94DCF105
:10EBB0000F94DCF187E592EE60E00F94F5F10F948D
:10EBC000DCF1CC24DD2400E010E01EC0C8010F946D
:10EBD00077FEF82E882331F489E492EE60E00F94FA
:10EBE000C2F10BC08093C6008091C00086FFFCCFAD
:10EBF0008091C00080648093C000FE1419F00894D6
:10EC0000C11CD11C0F5F1F4FC80181519F41A0E063
:10EC1000B0E0ABBFFC01E790FAE2EF1621F022E092
:10EC20000030120799F60F94DCF10F94DCF182E6C4
:10EC300092EE60E00F94C2F1C60161E070E00F94C3
:10EC400034F20F94DCF10F94DCF110920202109276
:10EC50000302109204021092050278CE89E992EE26
:10EC600062E00F94F5F1279A2F9A16C02F9880E052
:10EC700090E0E0EDF7E03197F1F7019684369105E9
:10EC8000C1F72F9A80E090E0E0EDF7E03197F1F7DF
:10EC9000019684369105C1F78091C00087FFE6CFC9
:10ECA0008091C00087FFFCCF64C485EA92EE62E0E9
:10ECB0000F94F5F140910202509103026091040219
:10ECC0007091050281E020E10F9491F2809102029F
:10ECD00090910302A0910402B091050280509F4FD1
:10ECE000AF4FBF4F8093020290930302A0930402A0
:10ECF000B093050280509041A040B04008F426CE69
:10ED0000A4CF83EB92EE62E00F94F5F140910602FE
:10ED100050910702609108027091090280E020E1A1
:10ED20000F9491F28091060290910702A09108023F
:10ED3000B091090280509F4FAF4FBF4F80930602A2
:10ED400090930702A0930802B0930902FFCD80ECD4
:10ED500092EE62E00F94F5F183E792EE60E00F949B
:10ED6000F5F18FE792EE60E00F94F5F18BE892EE0B
:10ED700060E00F94F5F189E992EE60E00F94F5F10F
:10ED800085EA92EE60E00F94F5F183EB92EE60E09D
:10ED90000F94F5F180EC92EE60E00F94F5F187ECC2
:10EDA00092EE60E00F94F5F188ED92EE60E00F9442
:10EDB000F5F18FED92EE60E00F94F5F18AEE92EEB0
:10EDC00060E00F94F5F183E093EEBDCD87EC92EE19
:10EDD00062E00F94F5F181E40F947BF282E40F94EA
:10EDE0007BF283E40F947BF284E40F947BF285E45E
:10EDF0000F947BF286E40F947BF287E40F947BF20E
:10EE000088E40F947BF28AE40F947BF28BE40F94F6
:10EE10007BF28CE40F947BF299CD88ED92EE62E068
:10EE20000F94F5F1772473948824992409C48FED05
:10EE300092EE62E00F94F5F140910A0250910B02BC
:10EE400060910C0270910D0282E020E10F9491F22A
:10EE500080910A0290910B02A0910C02B0910D02D8
:10EE600080509F4FAF4FBF4F80930A0290930B0289
:10EE7000A0930C02B0930D0269CD8AEE92EE62E08F
:10EE80000F94F5F184EE90EE60E00F94F5F18FECC5
:10EE900091EE60E00F94F5F1662477244301CC5D98
:10EEA000DE4F19821882C452D140D401C301B695F5
:10EEB000A79597958795CA5DDE4F88839983AA8326
:10EEC000BB83C652D140CC5DDE4FA881B981C4520C
:10EED000D1401196CC5DDE4FB983A883C452D14096
:10EEE000CD0162E070E00F9434F2B0E2B093C6005E
:10EEF0008091C00086FFFCCF8091C0008064809329
:10EF0000C000EDE2E093C6008091C00086FFFCCF18
:10EF10008091C00080648093C000F0E2F093C6004E
:10EF20008091C00086FFFCCF8091C00080648093F8
:10EF3000C000CA5DDE4FE880F9800A811B81C6529D
:10EF4000D140BB27A12F902F8F2D0F940DF2CA5DBA
:10EF5000DE4F8881C652D1400F940DF2B0E2FB2EF5
:10EF6000F092C6008091C00086FFFCCF8091C00067
:10EF700080648093C0000DE30093C6008091C000C0
:10EF800086FFFCCF8091C00080648093C00010E2B7
:10EF90001093C6008091C00086FFFCCF8091C00016
:10EFA00080648093C0008BBEF3012791C65DDE4F65
:10EFB0002883CA52D140A22EBB24CC24DD2408943D
:10EFC000611C711C811C911C8BBEF3018791282E42
:10EFD0003324442455240894611C711C811C911C09
:10EFE0008BBEF3013791C55DDE4F3883CB52D140E4
:10EFF0000894611C711C811C911C8BBEF30147910C
:10F00000C45DDE4F4883CC52D140ADEFEA2EAFEF66
:10F01000FA2EAFEF0A2FAFEF1A2F6E0C7F1C801E57
:10F02000911E142D032DF22CEE24EA0CFB1C0C1D5A
:10F030001D1D0F940DF220E22093C6008091C000A8
:10F0400086FFFCCF8091C00080648093C000C65DC5
:10F05000DE4F8881CA52D1400F940DF230E23093D6
:10F06000C6008091C00086FFFCCF8091C000806404
:10F070008093C000C45DDE4F8881CC52D1400F9494
:10F080000DF240E24093C6008091C00086FFFCCFA5
:10F090008091C00080648093C000C55DDE4F888190
:10F0A000CB52D1400F940DF250E25093C6008091A4
:10F0B000C00086FFFCCF8091C00080648093C000B8
:10F0C0008FEFE8168FEFF80680E0080780E018075A
:10F0D00031F484E092EE60E00F94C2F1DFC0D80119
:10F0E000C7018070907CA070B0708050904CA040A0
:10F0F000B040D1F52FEF3FE340E050E0E222F322B1
:10F1000004231523CA5DDE4FA880B980CA80DB8046
:10F11000C652D140AE0CBF1CC01ED11EAA0CBB1CD7
:10F12000CC1CDD1C8EE092EE60E00F94C2F1BB2798
:10F13000A12F902F8F2D0F940DF28E2D0F940DF285
:10F1400030E23093C6008091C00086FFFCCF8091F2
:10F15000C00080648093C0004EE34093C60080915D
:10F16000C00086FFFCCF87C08EE09EEFA0E0B0E03D
:10F17000E822F9220A231B239CE0E91694E9F90608
:10F1800090E0090790E0190709F088C0C45DDE4FE0
:10F19000A881CC52D140EA2EFF2400E010E0102FCD
:10F1A0000F2DFE2CEE24C55DDE4FB881CB52D14031
:10F1B000EB0EF11C011D111DD601C501817090706F
:10F1C000A070B070DC0199278827E80EF91E0A1F8D
:10F1D0001B1F20EF30E040E050E0A222B322C42207
:10F1E000D52241E1AA0CBB1CCC1CDD1C4A95D1F7F1
:10F1F000EA0CFB1C0C1D1D1D81E090E0A0E0B0E0BE
:10F20000282239224A225B2235E1220C331C441C7D
:10F21000551C3A95D1F7E20CF31C041D151D57013E
:10F220006801AA0CBB1CCC1CDD1C85E192EE60E0E1
:10F230000F94C2F1C801AA27BB270F940DF2BB2778
:10F24000A12F902F8F2D0F940DF28E2D0F940DF274
:10F2500090E29093C6008091C00086FFFCCF809121
:10F26000C00080648093C000AEE3A093C60080918C
:10F27000C00086FFFCCF8091C00080648093C000F6
:10F28000C601AA27BB270F940DF2BB27AD2D9C2DDD
:10F290008B2D0F940DF28A2D0F940DF20F94DCF14B
:10F2A000CC5DDE4FE881F981C452D140F99709F471
:10F2B0004DCBF4E0EF2EF12C012D112D6E0C7F1CA7
:10F2C000801E911EF2CD83E093EE62E00F94F5F183
:10F2D0008AE192EE60E00F94C2F18091C00087FF56
:10F2E000FCCF1091C6001F751093C6008091C0001E
:10F2F00086FFFCCF8091C00080648093C0000F9493
:10F30000DCF1812F81548A3108F036C1163409F4BA
:10F3100095C0173490F4133409F44EC0143430F40B
:10F320001134F1F0123409F01DC130C0143409F465
:10F3300059C0153409F016C16BC01A3409F4C4C0A1
:10F340001B3438F4173409F48FC0183409F00AC19B
:10F35000A1C01B3409F4D2C01C3409F003C1E8C0B9
:10F360008FEF81B90DC082B1809582B980E090E0C5
:10F37000E0EDF7E03197F1F70196883C9105C1F790
:10F380008091C00087FFEFCF12B8EFC08FEF84B934
:10F390000DC085B1809585B980E090E0E0EDF7E0A3
:10F3A0003197F1F70196883C9105C1F78091C00033
:10F3B00087FFEFCF15B8D9C08FEF87B90DC088B1DF
:10F3C000809588B980E090E0E0EDF7E03197F1F7C3
:10F3D0000196883C9105C1F78091C00087FFEFCF6F
:10F3E00018B8C3C08FEF8AB90DC08BB180958BB9A7
:10F3F00080E090E0E0EDF7E03197F1F70196883C8E
:10F400009105C1F78091C00087FFEFCF1BB8ADC059
:10F410008FEF8DB90DC08EB180958EB980E090E0F0
:10F42000E0EDF7E03197F1F70196883C9105C1F7DF
:10F430008091C00087FFEFCF1EB897C08FEF80BBD1
:10F440000DC081B3809581BB80E090E0E0EDF7E0F6
:10F450003197F1F70196883C9105C1F78091C00082
:10F4600087FFEFCF11BA81C08FEF83BB0DC084B38C
:10F47000809584BB80E090E0E0EDF7E03197F1F714
:10F480000196883C9105C1F78091C00087FFEFCFBE
:10F4900014BA6BC08FEF809301010FC080910201FD
:10F4A00080958093020180E090E0E0EDF7E03197F5
:10F4B000F1F70196883C9105C1F78091C00087FF64
:10F4C000EDCF1092020151C08FEF809304010FC065
:10F4D0008091050180958093050180E090E0E0ED4A
:10F4E000F7E03197F1F70196883C9105C1F78091DB
:10F4F000C00087FFEDCF1092050137C08FEF8093DA
:10F5000007010FC08091080180958093080180E079
:10F5100090E0E0EDF7E03197F1F70196883C910536
:10F52000C1F78091C00087FFEDCF109208011DC088
:10F530008FEF80930A010FC080910B01809580931B
:10F540000B0180E090E0E0EDF7E03197F1F70196F4
:10F55000883C9105C1F78091C00087FFEDCF1092E4
:10F560000B0103C085E292EEEEC98091C00087FFD7
:10F57000FCCF8091C600EAC988E392EEE4C98CE131
:10F5800091EEE1C988249924933011F1943028F444
:10F59000913089F09230B8F408C0953061F195301F
:10F5A000F0F0963009F048C043C02B3109F042C951
:10F5B00091E06BE13FC96227C15DDE4F2883CF52E6
:10F5C000D14092E037C9B22FA0E0622793E032C960
:10F5D000822F90E0A82BB92B622794E02BC92E3004
:10F5E00009F039C3622795E0C05DDE4F19821882A9
:10F5F000C053D1401FC9E1E0F0E0EC0FFD1FC05D3A
:10F60000DE4F08811981C053D140E00FF11F2083E4
:10F610000F5F1F4FC05DDE4F19830883C053D14079
:10F6200062270A171B0709F005C9D80196E002C92D
:10F63000261709F010C303C0973009F0FBC87724E0
:10F640009981933109F412C19431C8F4963009F4C8
:10F65000D8C0973050F4923009F406C1933009F4C1
:10F660006DC0913009F059C253C0913109F477C08F
:10F67000923108F0BBC0903109F04FC2F5C098310B
:10F6800009F487C0993150F4953109F4EFC09531F0
:10F6900008F4C6C1963109F040C2C2C19A3109F4DA
:10F6A0006CC09A3108F491C09B3109F45BC09D3164
:10F6B00009F033C29D81903359F48F81882311F46E
:10F6C0009EE11CC0813011F091E018C098E916C08D
:10F6D000892F807591F0903539F4E0E0F0E089E011
:10F6E0008093570094910AC0983539F4E3E0F0E034
:10F6F00089E080935700949101C090E01A821B82A8
:10F700008D818C831D829E831F8227E030E009C299
:10F710001A8288E08B8381E48C8386E58D8382E581
:10F720008E8389E48F8383E5888780E589878FE5E9
:10F730008A8782E38B872BE030E0F3C18A818139AD
:10F7400041F0823941F0803911F48FE005C080E04A
:10F7500003C082E001C08AE01A828B8344C0772410
:10F76000739482C08D81882311F48EE12CC0813086
:10F7700011F081E028C088E926C01A82E1E0F0E0BB
:10F7800089E08093570084918B831C8224E030E0D1
:10F79000C8C18B81803589F48C81883039F4E2E0EE
:10F7A000F0E089E08093570084910DC0E0E0F0E044
:10F7B00089E080935700849106C0E3E0F0E089E09F
:10F7C0008093570084911A82DFCF8D81836C99E0FA
:10F7D000E1E0F0E0082E90935700E89507B600FCB2
:10F7E000FDCF1A821B8223E030E09BC180EC8A832C
:10F7F000CE5CDE4F188219821A821B82C253D1401E
:10F800008EC18A8190E0A0E0B0E0582F44273327D2
:10F8100022278B8190E0A0E0B0E0DC0199278827C7
:10F82000282B392B4A2B5B2B8D8190E0A0E0B0E098
:10F83000282B392B4A2B5B2B8C8190E0A0E0B0E089
:10F84000BA2FA92F982F8827282B392B4A2B5B2BCF
:10F85000220F331F441F551FC05EDE4F288339839C
:10F860004A835B83C052D1401A8259C13A81C95C34
:10F87000DE4F3883C753D140CA5CDE4F1882C6536F
:10F88000D1408B81C82EDD24CA5CDE4F488159816E
:10F89000C653D140C42AD52A933109F082C0CE5C28
:10F8A000DE4F88819981AA81BB81C253D1408050AB
:10F8B000904CA340B04030F583E0CE5CDE4FE88052
:10F8C000F9800A811B81C253D140F70100935B008C
:10F8D00080935700E89507B600FCFDCFCE5CDE4F65
:10F8E000088119812A813B81C253D14000501F4FAA
:10F8F0002F4F3F4FCE5CDE4F088319832A833B8313
:10F90000C253D140C05EDE4F488159816A817B81FC
:10F91000C052D140DE011B9631E08C9111962C91A2
:10F9200011971296C75CDE4F2883C953D140C85C3B
:10F93000DE4F1882C853D14090E0C85CDE4FE881AA
:10F94000F981C853D1408E2B9F2B0C01FA01609393
:10F950005B0030935700E89511244E5F5F4F6F4F67
:10F960007F4F0EEFE02E0FEFF02ECE0CDF1CC114F8
:10F97000D10499F685E0C05EDE4F088119812A81A5
:10F980003B81C052D140F80120935B008093570027
:10F99000E89507B600FCFDCF81E180935700E8951C
:10F9A00035C0C05EDE4F88819981AA81BB81C0527B
:10F9B000D140B695A795979587957C018601ABE0D8
:10F9C000AA2EB12CAC0EBD1E0BC0D5016D915D01F0
:10F9D000C7010F947FFE0894E11CF11C01501040F8
:10F9E0000115110591F7A60160E070E0440F551F65
:10F9F000661F771FC05EDE4FE880F9800A811B8199
:10FA0000C052D1404E0D5F1D601F711F1A82C05E33
:10FA1000DE4F488359836A837B83C052D1407FC0C5
:10FA2000FA80C55CDE4FF882CB53D140C65CDE4F16
:10FA30001882CA53D1408B81C82EDD24C65CDE4FAC
:10FA400008811981CA53D140C02AD12A1A828981DA
:10FA5000BE016D5F7F4F843121F59601C05EDE4FA0
:10FA6000E880F9800A811B81C052D1400BBFF701A9
:10FA700087919691DB018C9311969C936E5F7F4FDB
:10FA8000D801C7010296A11DB11DC05EDE4F88835B
:10FA90009983AA83BB83C052D14022503040F1F6F3
:10FAA00036C0C05EDE4F288139814A815B81C052F9
:10FAB000D1400894C108D108760100E010E0089414
:10FAC000C11CD11C0894E11CF11C011D111DE20E8A
:10FAD000F31E041F151F21BDBB27A52F942F832FB5
:10FAE00082BD2F5F3F4F4F4F5F4FF89A80B5DB01CC
:10FAF0008D93BD012E153F054007510761F7C05E8C
:10FB0000DE4F288339834A835B83C052D1409601FC
:10FB10002D5F3F4FFB01108204C080EC8A8322E0FE
:10FB200030E08BE18093C6008091C00086FFFCCF5F
:10FB30008091C00080648093C000C15DDE4FF88179
:10FB4000CF52D140F093C6008091C00086FFFCCF19
:10FB50008091C00080648093C000432F3093C60022
:10FB60008091C00086FFFCCF8091C00080648093AC
:10FB7000C000922F2093C6008091C00086FFFCCF6A
:10FB80008091C00080648093C0008EE08093C600A6
:10FB90008091C00086FFFCCF8091C000806480937C
:10FBA000C00065E1C15DDE4FE880CF52D1406E25D7
:10FBB00069276427FE01319610C090819093C6009A
:10FBC0008091C00086FFFCCF31968091C000806498
:10FBD0008093C0006927215030402115310569F715
:10FBE0006093C6008091C00086FFFCCF8091C0006A
:10FBF00080648093C00085B1805885B9772081F4F6
:10FC0000C15DDE4F0881CF52D1400F5FC15DDE4F35
:10FC10000883CF52D14090E0A0E0B0E00D941AF4F8
:10FC200027982F9880E090E020ED37E0F901319798
:10FC3000F1F7019684369105C9F700008091C00064
:10FC40008D7F8093C00081E180935700E895EE2777
:10FC5000FF270994FFCF90E00D941AF497FB092E2B
:10FC600007260AD077FD04D02ED006D000201AF443
:10FC7000709561957F4F0895F6F7909581959F4F08
:10FC80000895A1E21A2EAA1BBB1BFD010DC0AA1FDD
:10FC9000BB1FEE1FFF1FA217B307E407F50720F0F5
:10FCA000A21BB30BE40BF50B661F771F881F991F70
:10FCB0001A9469F760957095809590959B01AC01B9
:10FCC000BD01CF010895AA1BBB1B51E107C0AA1FAC
:10FCD000BB1FA617B70710F0A61BB70B881F991FED
:10FCE0005A95A9F780959095BC01CD010895F99991
:10FCF000FECF92BD81BDF89A992780B50895262F31
:10FD0000F999FECF1FBA92BD81BD20BD0FB6F89400
:0EFD1000FA9AF99A0FBE01960895F894FFCF63
:00000001FF
